                         GGGGGGGGGG    CCCCCCCCCC    CCCCCCCCCC    CCCCCCCCCC   OOOOOOOOOOOO  MM        MM  PPPPPPPPPPP
                       GGGGGGGGGGGG  CCCCCCCCCCCC  CCCCCCCCCCCC  CCCCCCCCCCCC  OOOOOOOOOOOO  MMM      MMM  PPPPPPPPPPPP
                      GG        GG  CC        CC  CC        CC  CC        CC  OO        OO  MMMM    MMMM  PP        PP
                     GG            CC            CC            CC            OO        OO  MM MM  MM MM  PP        PP
                    GG            CC            CC            CC            OO        OO  MM  MMMM  MM  PP        PP
                   GG            CC            CC            CC            OO        OO  MM   MM   MM  PPPPPPPPPPPP
                  GG     GGGGG  CC            CC            CC            OO        OO  MM        MM  PPPPPPPPPPP
                 GG     GGGGG  CC            CC            CC            OO        OO  MM        MM  PP
                GG        GG  CC            CC            CC            OO        OO  MM        MM  PP
               GG        GG  CC        CC  CC        CC  CC        CC  OO        OO  MM        MM  PP
              GGGGGGGGGGGG  CCCCCCCCCCCC  CCCCCCCCCCCC  CCCCCCCCCCCC  OOOOOOOOOOOO  MM        MM  PP
              GGGGGGGGGG    CCCCCCCCCC    CCCCCCCCCC    CCCCCCCCCC   OOOOOOOOOOOO  MM        MM  PP


                    JJJJJJJJJJ       11        2222222222    9999999999         444                    AAAAAAAAAA
                    JJJJJJJJJJ      111       222222222222  999999999999       4444                   AAAAAAAAAAAA
                        JJ         1111       22        22  99        99      44 44                   AA        AA
                        JJ           11                 22  99        99     44  44                   AA        AA
                        JJ           11                 22  99        99    44   44                   AA        AA
                        JJ           11                22   999999999999   44444444444                AAAAAAAAAAAA
                        JJ           11              22     999999999999  444444444444                AAAAAAAAAAAA
                        JJ           11            22                 99         44                   AA        AA
                  JJ    JJ           11          22                   99         44                   AA        AA
                  JJ    JJ           11        22           99        99         44                   AA        AA
                  JJJJJJJJ       1111111111   222222222222  999999999999         44                   AA        AA
                   JJJJJJ        1111111111   222222222222   9999999999          44                   AA        AA


****A   END   JOB 1294  GCCCOMP                         ROOM       10.48.59 AM 08 JUN  8  PRINTER1  SYS BSP1  JOB 1294   END   A****
****A   END   JOB 1294  GCCCOMP                         ROOM       10.48.59 AM 08 JUN  8  PRINTER1  SYS BSP1  JOB 1294   END   A****
****A   END   JOB 1294  GCCCOMP                         ROOM       10.48.59 AM 08 JUN  8  PRINTER1  SYS BSP1  JOB 1294   END   A****
****A   END   JOB 1294  GCCCOMP                         ROOM       10.48.59 AM 08 JUN  8  PRINTER1  SYS BSP1  JOB 1294   END   A****
                         GGGGGGGGGG    CCCCCCCCCC    CCCCCCCCCC    CCCCCCCCCC   OOOOOOOOOOOO  MM        MM  PPPPPPPPPPP
                       GGGGGGGGGGGG  CCCCCCCCCCCC  CCCCCCCCCCCC  CCCCCCCCCCCC  OOOOOOOOOOOO  MMM      MMM  PPPPPPPPPPPP
                      GG        GG  CC        CC  CC        CC  CC        CC  OO        OO  MMMM    MMMM  PP        PP
                     GG            CC            CC            CC            OO        OO  MM MM  MM MM  PP        PP
                    GG            CC            CC            CC            OO        OO  MM  MMMM  MM  PP        PP
                   GG            CC            CC            CC            OO        OO  MM   MM   MM  PPPPPPPPPPPP
                  GG     GGGGG  CC            CC            CC            OO        OO  MM        MM  PPPPPPPPPPP
                 GG     GGGGG  CC            CC            CC            OO        OO  MM        MM  PP
                GG        GG  CC            CC            CC            OO        OO  MM        MM  PP
               GG        GG  CC        CC  CC        CC  CC        CC  OO        OO  MM        MM  PP
              GGGGGGGGGGGG  CCCCCCCCCCCC  CCCCCCCCCCCC  CCCCCCCCCCCC  OOOOOOOOOOOO  MM        MM  PP
              GGGGGGGGGG    CCCCCCCCCC    CCCCCCCCCC    CCCCCCCCCC   OOOOOOOOOOOO  MM        MM  PP


                    JJJJJJJJJJ       11        2222222222    9999999999   555555555555                 AAAAAAAAAA
                    JJJJJJJJJJ      111       222222222222  999999999999  555555555555                AAAAAAAAAAAA
                        JJ         1111       22        22  99        99  55                          AA        AA
                        JJ           11                 22  99        99  55                          AA        AA
                        JJ           11                 22  99        99  55                          AA        AA
                        JJ           11                22   999999999999  555555555                   AAAAAAAAAAAA
                        JJ           11              22     999999999999  5555555555                  AAAAAAAAAAAA
                        JJ           11            22                 99           55                 AA        AA
                  JJ    JJ           11          22                   99            55                AA        AA
                  JJ    JJ           11        22           99        99            55                AA        AA
                  JJJJJJJJ       1111111111   222222222222  999999999999  555555555555                AA        AA
                   JJJJJJ        1111111111   222222222222   9999999999   55555555555                 AA        AA


****A  START  JOB 1295  GCCCOMP                         ROOM       10.53.12 AM 08 JUN  8  PRINTER1  SYS BSP1  JOB 1295  START  A****
****A  START  JOB 1295  GCCCOMP                         ROOM       10.53.12 AM 08 JUN  8  PRINTER1  SYS BSP1  JOB 1295  START  A****
****A  START  JOB 1295  GCCCOMP                         ROOM       10.53.12 AM 08 JUN  8  PRINTER1  SYS BSP1  JOB 1295  START  A****
****A  START  JOB 1295  GCCCOMP                         ROOM       10.53.12 AM 08 JUN  8  PRINTER1  SYS BSP1  JOB 1295  START  A****
                                                J E S 2   J O B   L O G


10.53.08 JOB 1295  IEF677I WARNING MESSAGE(S) FOR JOB GCCCOMP  ISSUED
10.53.08 JOB 1295  $HASP373 GCCCOMP  STARTED - INIT  1 - CLASS A - SYS BSP1
10.53.08 JOB 1295  IEF403I GCCCOMP - STARTED - TIME=10.53.08
10.53.12 JOB 1295  IEFACTRT - Stepname  Procstep  Program   Retcode
10.53.12 JOB 1295  GCCCOMP    ASM                 IFOX00    RC= 0000
10.53.12 JOB 1295  GCCCOMP    LKED                IEWL      RC= 0000
10.53.12 JOB 1295  GCCCOMP    GO                  XE4S001Z  RC= 0000
10.53.12 JOB 1295  IEF404I GCCCOMP - ENDED - TIME=10.53.12
10.53.12 JOB 1295  $HASP395 GCCCOMP  ENDED


------ JES2 JOB STATISTICS ------


 08 JUN  8 JOB EXECUTION DATE


        11 CARDS READ


     6,349 SYSOUT PRINT RECORDS


         0 SYSOUT PUNCH RECORDS


      0.07 MINUTES EXECUTION TIME
    1     //GCCCOMP  JOB REGION=8192K,MSGCLASS=A                                  JOB 1295
    2     // EXEC SAKASML,MEMB=XE4S001Z,SYSPARM=NOSNAP COND=ONLY                  00020000
          *****DSSSSSSSDDDDDD                                                     00030000
          ***                                                                     00040000
          ***O EXEC PGM=XE4S001Z,PARM='HERC01.TEST1.SRC'                          00050000
    3     XXSAKASML  PROC PRJ=SAK01,MEMB=,SYSPARM=
    4     XXASM      EXEC PGM=IFOX00,PARM='OBJ,SYSPARM(&SYSPARM)',REGION=256K     00100000
    5     XXSYSLIB   DD   DSN=&PRJ..MACLIB.ASM,DISP=SHR,DCB=BLKSIZE=19040         00150000
    6     XX         DD   DSN=SYS2.MACLIB,DISP=SHR                                00200000
    7     XX         DD   DSN=SYS1.MACLIB,DISP=SHR                                00200000
    8     XX         DD   DSN=SYS1.AMODGEN,DISP=SHR                               00200000
    9     XXSYSUT1   DD   DSN=&&SYSUT1,UNIT=SYSSQ,SPACE=(1700,(600,100)),         00250000
          XX             SEP=(SYSLIB)                                             00300000
   10     XXSYSUT2   DD   DSN=&&SYSUT2,UNIT=SYSSQ,SPACE=(1700,(300,50)),          00350000
          XX             SEP=(SYSLIB,SYSUT1)                                      00400000
   11     XXSYSUT3   DD   DSN=&&SYSUT3,UNIT=SYSSQ,SPACE=(1700,(300,50))           00450000
   12     XXSYSPRINT DD   SYSOUT=*
   13     XXSYSPUNCH DD   DUMMY                                                   00550000
   14     XXSYSIN    DD   DSN=&PRJ..SOURCE.ASM(&MEMB),DISP=SHR
   15     XXSYSGO    DD   DSN=&PRJ..OBJECT.ASM(&MEMB),DISP=OLD
   16     XXLKED     EXEC PGM=IEWL,PARM=(XREF,LET,LIST,NCAL),REGION=128K,         00700000
          XX             COND=(8,LT,ASM)                                          00750000
   17     XXSYSLIN   DD   DSN=&PRJ..OBJECT.ASM(&MEMB),DISP=SHR
   18     XX         DD   DDNAME=SYSIN                                            00850000
   19     XXSYSLMOD  DD   DSN=&PRJ..LOAD.ASM(&MEMB),DISP=SHR
   20     XXSYSUT1   DD   DSN=&&SYSUT1,UNIT=(SYSDA,SEP=(SYSLIN,SYSLMOD)),         01000000
          XX             SPACE=(1024,(50,20))                                     01050000
   21     XXSYSPRINT DD   SYSOUT=*                                                01100000
          ***PEND                                                  1
   22     //GO EXEC PGM=XE4S001Z PARM='HERC01.TEST.SRC'                           00060000
   23     //STEPLIB DD DISP=SHR,DSN=SAK01.LOAD.ASM                                00070000
          ***E4S001O DD SYSOUT=*                                                  00080000
          ***E4S001I DD DISP=SHR,DSN=SAK01.LOAD.ASM HERC01.TEST1.SRC              00090000
          ***SYSUDUMP DD SYSOUT=*                                                 00100000
   24     //SYSABEND DD SYSOUT=*                                                  00110000
 STMT NO. MESSAGE
-
    4     IEF653I SUBSTITUTION JCL - PGM=IFOX00,PARM='OBJ,SYSPARM(NOSNAP)',REGION=256K
    5     IEF653I SUBSTITUTION JCL - DSN=SAK01.MACLIB.ASM,DISP=SHR,DCB=BLKSIZE=19040
   14     IEF653I SUBSTITUTION JCL - DSN=SAK01.SOURCE.ASM(XE4S001Z),DISP=SHR
   15     IEF653I SUBSTITUTION JCL - DSN=SAK01.OBJECT.ASM(XE4S001Z),DISP=OLD
   17     IEF653I SUBSTITUTION JCL - DSN=SAK01.OBJECT.ASM(XE4S001Z),DISP=SHR
   19     IEF653I SUBSTITUTION JCL - DSN=SAK01.LOAD.ASM(XE4S001Z),DISP=SHR
   22     IEF686I DDNAME REFERRED TO ON DDNAME KEYWORD IN PRIOR STEP WAS NOT RESOLVED
IEF236I ALLOC. FOR GCCCOMP ASM
IEF237I 193  ALLOCATED TO SYSLIB
IEF237I 148  ALLOCATED TO
IEF237I 148  ALLOCATED TO
IEF237I 248  ALLOCATED TO
IEF237I 149  ALLOCATED TO SYSUT1
IEF237I 180  ALLOCATED TO SYSUT2
IEF237I 14A  ALLOCATED TO SYSUT3
IEF237I JES2 ALLOCATED TO SYSPRINT
IEF237I DMY  ALLOCATED TO SYSPUNCH
IEF237I 193  ALLOCATED TO SYSIN
IEF237I 193  ALLOCATED TO SYSGO
IEF142I GCCCOMP ASM - STEP WAS EXECUTED - COND CODE 0000
IEF285I   SAK01.MACLIB.ASM                             KEPT          *-------67
IEF285I   VOL SER NOS= USERV1.
IEF285I   SYS2.MACLIB                                  KEPT          *------213
IEF285I   VOL SER NOS= MVSRES.
IEF285I   SYS1.MACLIB                                  KEPT          *--------0
IEF285I   VOL SER NOS= MVSRES.
IEF285I   SYS1.AMODGEN                                 KEPT          *-------10
IEF285I   VOL SER NOS= MVSDLB.
IEF285I   SYS08160.T105308.RA000.GCCCOMP.SYSUT1        DELETED       *----4,077
IEF285I   VOL SER NOS= SMP001.
IEF285I   SYS08160.T105308.RA000.GCCCOMP.SYSUT2        DELETED       *------104
IEF285I   VOL SER NOS= WORK02.
IEF285I   SYS08160.T105308.RA000.GCCCOMP.SYSUT3        DELETED       *-------38
IEF285I   VOL SER NOS= SMP002.
IEF285I   JES2.JOB01295.SO0101                         SYSOUT
IEF285I   SAK01.SOURCE.ASM                             KEPT          *-------72
IEF285I   VOL SER NOS= USERV1.
IEF285I   SAK01.OBJECT.ASM                             KEPT          *-------10
IEF285I   VOL SER NOS= USERV1.
IEF373I STEP /ASM     / START 08160.1053
IEF374I STEP /ASM     / STOP  08160.1053 CPU    0MIN 03.23SEC SRB    0MIN 00.44SEC VIRT  2124K SYS   256K
************************************************************************************************************************************
*     1. Jobstep of job: GCCCOMP     Stepname: ASM         Program name: IFOX00     Executed on 08.06.08 from 10.53.08 to 10.53.12 *
*         elapsed time  24:00:04,22                      CPU-Identifier:  BSP1           Page-in:      0                           *
*             CPU time  00:00:03,67               Virtual Storage used:   2124K         Page-out:      0                           *
*           corr. CPU:  00:00:03,67   CPU time has been corrected by  1 / 1,0  multiplier                                          *
*                                                                                                                                  *
*     I/O Operation                                                                                                                *
*     Number of records read via DD * or DD DATA:      0                                                                           *
*     193......67 148.....213 148.......0 248......10 149....4077 180.....104 14A......38 DMY.......0 DMY.......0 193......72      *
*     193......10                                                                                                                  *
*                                                                                                                                  *
*                                          Charge for step (w/o SYSOUT):          6,11                                             *
************************************************************************************************************************************
IEF236I ALLOC. FOR GCCCOMP LKED
IEF237I 193  ALLOCATED TO SYSLIN
IEF237I DMY  ALLOCATED TO
IEF237I 193  ALLOCATED TO SYSLMOD
IEF237I 340  ALLOCATED TO SYSUT1
IEF237I JES2 ALLOCATED TO SYSPRINT
IEF142I GCCCOMP LKED - STEP WAS EXECUTED - COND CODE 0000
IEF285I   SAK01.OBJECT.ASM                             KEPT          *--------8
IEF285I   VOL SER NOS= USERV1.
IEF285I   SAK01.LOAD.ASM                               KEPT          *-------10
IEF285I   VOL SER NOS= USERV1.
IEF285I   SYS08160.T105308.RA000.GCCCOMP.SYSUT1        DELETED       *--------0
IEF285I   VOL SER NOS= CBT000.
IEF285I   JES2.JOB01295.SO0102                         SYSOUT
IEF373I STEP /LKED    / START 08160.1053
IEF374I STEP /LKED    / STOP  08160.1053 CPU    0MIN 00.03SEC SRB    0MIN 00.00SEC VIRT   196K SYS   196K
************************************************************************************************************************************
*     2. Jobstep of job: GCCCOMP     Stepname: LKED        Program name: IEWL       Executed on 08.06.08 from 10.53.12 to 10.53.12 *
*         elapsed time  24:00:00,07                      CPU-Identifier:  BSP1           Page-in:      0                           *
*             CPU time  00:00:00,03               Virtual Storage used:    196K         Page-out:      0                           *
*           corr. CPU:  00:00:00,03   CPU time has been corrected by  1 / 1,0  multiplier                                          *
*                                                                                                                                  *
*     I/O Operation                                                                                                                *
*     Number of records read via DD * or DD DATA:      0                                                                           *
*     193.......8 DMY.......0 193......10 340.......0 DMY.......0                                                                  *
*                                                                                                                                  *
*                                          Charge for step (w/o SYSOUT):          0,05                                             *
************************************************************************************************************************************
IEF236I ALLOC. FOR GCCCOMP GO
IEF237I 193  ALLOCATED TO STEPLIB
IEF237I JES2 ALLOCATED TO SYSABEND
IEF237I JES2 ALLOCATED TO SYS00001
IEF142I GCCCOMP GO - STEP WAS EXECUTED - COND CODE 0000
IEF285I   SAK01.LOAD.ASM                               KEPT          *--------0
IEF285I   VOL SER NOS= USERV1.
IEF285I   JES2.JOB01295.SO0103                         SYSOUT
IEF285I   JES2.JOB01295.SO0104                         SYSOUT
IEF373I STEP /GO      / START 08160.1053
IEF374I STEP /GO      / STOP  08160.1053 CPU    0MIN 00.01SEC SRB    0MIN 00.00SEC VIRT    20K SYS   204K
************************************************************************************************************************************
*     3. Jobstep of job: GCCCOMP     Stepname: GO          Program name: XE4S001Z   Executed on 08.06.08 from 10.53.12 to 10.53.12 *
*         elapsed time  24:00:00,03                      CPU-Identifier:  BSP1           Page-in:      0                           *
*             CPU time  00:00:00,01               Virtual Storage used:     20K         Page-out:      0                           *
*           corr. CPU:  00:00:00,01   CPU time has been corrected by  1 / 1,0  multiplier                                          *
*                                                                                                                                  *
*     I/O Operation                                                                                                                *
*     Number of records read via DD * or DD DATA:      0                                                                           *
*     193.......0 DMY.......0 DMY.......0                                                                                          *
*                                                                                                                                  *
*                                          Charge for step (w/o SYSOUT):          0,01                                             *
************************************************************************************************************************************
IEF375I  JOB /GCCCOMP / START 08160.1053
IEF376I  JOB /GCCCOMP / STOP  08160.1053 CPU    0MIN 03.27SEC SRB    0MIN 00.44SEC
XE4S001Z                                       EXTERNAL SYMBOL DICTIONARY                                      PAGE    1


SYMBOL   TYPE  ID   ADDR  LENGTH LDID                                                            ASM 0201 10.53 06/08/08

          PC  0001 000000 000000
XE4S001Z  SD  0002 000000 00311AXE4S001Z *** XE4S001Z *** DISPLAY/UPDATE SPF INFO ***                                                          PAGE    2


  LOC  OBJECT CODE    ADDR1 ADDR2  STMT   SOURCE STATEMENT                                       ASM 0201 10.53 06/08/08

                                      2 *********************************************************************** 00020000
                                      3 *#004 080605 0C1 ABEND WHEN PARM MISSING                                00021058
                                      4 *#003 061201 SPF UPDATE FOR ALL PDS MEMBER                              00030057
                                      5 *#002 061125 UPDATE SPF INFO                                            00040030
                                      6 *#001 061125 USE BLDL WHEN MEMBER SPECIFIED                             00050055
                                      7 ********************************************************************    00060001
                                      8 *ASSEMBLE MACLIB ***************************************************    00070028
                                      9 *//SYSLIB   DD   DSN=SYS2.MACLIB,DISP=SHR                               00080028
                                     10 *//         DD   DSN=SYS1.MACLIB,DISP=SHR                               00090028
                                     11 *//         DD   DSN=SYS1.AMODGEN,DISP=SHR                              00100028
                                     12 *                                                                       00110030
                                     13 *(1)* DISPLAY SPF INFORMATION ON PDS DIRECTORY *********************    00120030
                                     14 *                                                                       00130030
                                     15 *SAMPLE JCL TO EXECUTE BATCH *                                          00140030
                                     16 *//GO EXEC PGM=XE4S001Z,PARM='HERC01.SOURCE.ASM'                        00150013
                                     17 *//STEPLIB DD DISP=SHR,DSN=HERC01.LOAD.ASM                              00160013
                                     18 *//GO EXEC PGM=XE4S001Z,PARM='HERC01.SOURCE.ASM(MEMB)'                  00170030
                                     19 *//STEPLIB DD DISP=SHR,DSN=HERC01.LOAD.ASM                              00180030
                                     20 *                                                                       00190030
                                     21 *CALL ON TSO *                                                          00200030
                                     22 * CALL 'HERC01.LOAD.ASM(XE4S001Z)' 'HERC01.SOURCE.ASM'                  00210013
                                     23 * CALL 'HERC01.LOAD.ASM(XE4S001Z)' 'HERC01.SOURCE.ASM(MEMB)'            00220030
                                     24 *                                                                       00230030
                                     25 *OUTPUT SAMPLE *                                                        00240030
                                     26 *MEMBER LIST FOR HERC01.TEST1.SRC                                       00250028
                                     27 *-DSORG=PO RECFM=FB LRECL=00080 BLKSIZE=03120                           00260028
                                     28 *-NAME---  VV.MM  CREATED   LAST-UPDATED     LINE-COUNT  INITIAL USER   00270028
                                     29 *@         80.00  06/11/20  06/11/20 15:27            1        1 HERC03 00280028
                                     30 *@@2       -                                                            00290028
                                     31 *AAAAHH    80.00  06/11/15  06/11/15 11:39           12       12 HERC03 00300028
                                     32 *-END OF LIST- 000075 MEMBER (000000 ALIAS)                             00310029
                                     33 *                                                                       00320030
                                     34 *(2)* UPDATE  SPF INFORMATION ON PDS DIRECTORY *********************    00330030
                                     35 * PARM FORMAT                                                           00340030
                                     36 *  '1,DSN(MEMB),VV,MM,CDATE,UDATE,UTIME,CURLINE,INITLINE,USER'          00350035
                                     37 *                                                                       00360034
                                     38 *  (START BY NOT NUMERIC MEANS MISSING OPERAND EXCEPT FOR USERID)       00370034
                                     39 *  (!!! RPF(V153) NEED CRE-DATE/UP-DATE/USERID TO DISPLY ON DIRLIST)    00380039
                                     40 *  MEMB:WILDCARD(*/?) ALLOWED                                           00390052
                                     41 *  1:FUNCTION ID:UPDATE SPF INFO                                        00400030
                                     42 *  VV:VERSION                                                           00410030
                                     43 *     IF MISSING,KEEP CURRENT VALUE OR SET 0 IF NO PREVIOUS INFO        00420034
                                     44 *     +N FORMAT IS USED TO INCREMENT                                    00430030
                                     45 *  MM:MODIFICATION LEVEL                                                00440030
                                     46 *     IF MISSING,KEEP CURRENT VALUE OR SET 0 IF NO PREVIOUS INFO        00450034
                                     47 *     +N FORMAT IS USED TO INCREMENT                                    00460030
                                     48 *     'NOW' IS USED TO SET TO MAX VALUE OF COLUMN 79-80                 00470038
                                     49 *  CDATE:CREATED DATE                                                   00480030
                                     50 *     IF MISSING,KEEP CURRENT VALUE OR SET 0     IF NO PREVIOUS INFO    00490039
                                     51 *     'NOW' IS USED TO SET TO TODAY                                     00500034
                                     52 *     '000000' IS USED TO SET TO 0                                      00510039
                                     53 *  UDATE:LAST UPDATED DATE                                              00520030
                                     54 *     IF MISSING,KEEP CURRENT VALUE OR SET 0     IF NO PREVIOUS INFO    00530039
                                     55 *     'NOW' IS USED TO SET TO TODAY                                     00540030
                                     56 *     '000000' IS USED TO SET TO 0                                      00550039XE4S001Z *** XE4S001Z *** DISPLAY/UPDATE SPF INFO ***                                                          PAGE    3


  LOC  OBJECT CODE    ADDR1 ADDR2  STMT   SOURCE STATEMENT                                       ASM 0201 10.53 06/08/08

                                     57 *  UTIME:LAST UPDATED TIME                                              00560030
                                     58 *     IF MISSING,KEEP CURRENT VALUE OR SET 0       IF NO PREVIOUS INFO  00570039
                                     59 *     'NOW' IS USED TO SET TO CURRENT TIME                              00580031
                                     60 *  CURLINE:CURRENT LINE COUNT                                           00590031
                                     61 *     IF MISSING,KEEP CURRENT VALUE OR SET 0 IF NO PREVIOUS INFO        00600033
                                     62 *     'NOW' IS USED TO SET CURRENT LINE COUNT BY READING MEMBER         00610034
                                     63 *  INITLINE:INITIAL LINE COUNT                                          00620035
                                     64 *     IF MISSING,KEEP CURRENT VALUE OR SET 0 IF NO PREVIOUS INFO.       00630035
                                     65 *     'NOW' IS USED TO SET CURRENT LINE COUNT BY READING MEMBER         00640035
                                     66 *  USER   :LAST UPDATED USER                                            00650031
                                     67 *     IF MISSING,KEEP CURRENT VALUE OR SET BLANK IF NO PREVIOUS INFO    00660031
                                     68 *SAMPLE JCL TO EXECUTE BATCH *                                          00670031
                                     69 *//GO EXEC PGM=XE4S001Z,PARM=('1','HERC01.SOURCE.ASM(MEMB),',           00680033
                                     70 *//        '01,21,061105,061125,2210,99,101,HERC01')                    00690031
                                     71 *//GO EXEC PGM=XE4S001Z,PARM=('1','HERC01.SOURCE.ASM(MEMB),',           00700033
                                     72 *//        'VV,+1,CDT,NOW,NOW,CLC,NOW,HERC01')                          00710035
                                     73 *//GO EXEC PGM=XE4S001Z,PARM='1,HERC01.SOURCE.ASM(MEMB),DEL'            00720035
                                     74 *//STEPLIB DD DISP=SHR,DSN=HERC01.LOAD.ASM                              00730031
                                     75 ********************************************************************    00740013
                                     76 *GET SPF INFO                                               A#####      00750001
                                     77 *            DIRECTORY ENTRY FORMAT(SIZE=X'20')                         00760001
                                     78 *              +00   MEMBER NAME                                        00770001
                                     79 *              +08   TTR                                                00780001
                                     80 *              +0B   FLAG                                               00790001
                                     81 *              +0C   VERSION                                            00800001
                                     82 *              +0D   MODIFIER LEVEL                                     00810001
                                     83 *              +0E   ??                                                 00820001
                                     84 *              +10   CREATED DATE 00YYDDD                               00830001
                                     85 *              +14   LAST CHANGED DATE 00YYDDD                          00840001
                                     86 *              +18   LAST CHANGED TIME HHMM                             00850001
                                     87 *              +1A   CURRENT LINE SIZE                                  00860001
                                     88 *              +1C   INIT    LINE SIZE                                  00870001
                                     89 *              +1E   UPDATED LINE SIZE                                  00880001
                                     90 *********************************************************************** 00890000
                                     91          MACRO                                                          00900028
                                     92 &NAME    DOEXIT &P1,&P2,&P3,&P4,&P5,&P6,&P7,&P8,&P9,&P10,&P11,&P12,    *00910028
                                                       &P13,&P14,&P15,&P16,&P17,&P18,&P19,&P20,&C=              00920028
                                     93 &NAME    IF    &P1,&P2,&P3,&P4,&P5,&P6,&P7,&P8,&P9,&P10,&P11,&P12,&P13,*00930028
                                                       &P14,&P15,&P16,&P17,&P18,&P19,&P20,C=&C                  00940028
                                     94            EXIT                                                         00950028
                                     95          ENDIF                                                          00960028
                                     96          MEND                                                           00970028
                                     97          MACRO                                                          00990018
                                     98 &LBL     SRST   &R1,&R2          END ADDR REG, START ADDR REG           01000018
                                     99 .*       CC=1 IF CHAR OF R0(LAT BYTE) IS FOUND &R1 IS SET TO THE ADDR   01010018
                                    100 .*       CC=2 IF NOT FOUND,REG UNCHANGED                                01020018
                                    101 .*       CC=3 256 BYTE SERACHED &R2 CHANGED TO PINT THE NEXT 256 BYTE   01030018
                                    102          XR     R0,&R1                                                  01040018
                                    103          XR     &R1,R0                                                  01050018
                                    104          XR     R0,&R1              EXCHANGE R0 AND &R1                 01060018
                                    105 #&SYSNDX.N  EQU *                                                       01070018
                                    106          EX     &R1,#&SYSNDX.EX                                         01080018
                                    107          BE     #&SYSNDX.F          FOUND                               01090018
                                    108          LA     &R2,1(&R2)                                              01100018
                                    109          CR     &R2,R0                                                  01110018XE4S001Z *** XE4S001Z *** DISPLAY/UPDATE SPF INFO ***                                                          PAGE    4


  LOC  OBJECT CODE    ADDR1 ADDR2  STMT   SOURCE STATEMENT                                       ASM 0201 10.53 06/08/08

                                    110          BH     #&SYSNDX.NF         NOT FOUND                           01120018
                                    111          B      #&SYSNDX.N          CONTINUE SEARCH                     01130018
                                    112 #&SYSNDX.F  EQU *        FOUND                                          01140018
                                    113          XR     R0,&R1                                                  01150018
                                    114          XR     &R1,R0                                                  01160018
                                    115          XR     R0,&R1              EXCHANGE R0 AND &R1                 01170018
                                    116          LR     &R1,&R2                                                 01180018
                                    117          OR     &R1,&R1             SET CC=1(NON ZERO)                  01190018
                                    118          B #&SYSNDX.X                                                   01200018
                                    119 #&SYSNDX.NF EQU *        NOT FOUND                                      01210018
                                    120          XR     R0,&R1                                                  01220018
                                    121          XR     &R1,R0                                                  01230018
                                    122          XR     R0,&R1              EXCHANGE R0 AND &R1                 01240018
                                    123          CR     &R2,&R1             &R2>&R1 CC=2(HIGH)                  01250018
                                    124          B #&SYSNDX.X                                                   01260018
                                    125 #&SYSNDX.EX CLI 0(&R2),0                                                01270018
                                    126 #&SYSNDX.X  EQU *                                                       01280018
                                    127          MEND                                                           01290018
                                    128          MACRO                                                          01310002
                                    129          GBLSET               ,        *INT MAX 1S 10 BYTE              01320003
                                    130 .*                                                                      01330002
                                    131     GBLC &UCFSR14                                                       01340002
                                    132     GBLC &UCFSR15                                                       01350002
                                    133     GBLC &UCFSR0                                                        01360002
                                    134     GBLC &UCFSR1                                                        01370002
                                    135     GBLC &UCFOPD1                                                       01380003
                                    136     GBLC &UCFOPD2                                                       01390003
                                    137     GBLC &UCFOPD3                                                       01400003
                                    138     GBLC &UCFOPD4                                                       01410003
                                    139     GBLC &UCFWRK1                                                       01420003
                                    140     GBLC &UCFWRK2                                                       01430003
                                    141     GBLC &UCFWRK3                                                       01440003
                                    142     GBLC &UCFWRK4                                                       01450003
                                    143     GBLC &UCFWRK5                                                       01460003
                                    144     GBLC &UCFWRK6                                                       01470003
                                    145     GBLC &UCFWRK7                                                       01480003
                                    146 &UCFSR14 SETC  '12(R13)'      R14                                       01490003
                                    147 &UCFSR15 SETC  '16(R13)'      R15                                       01500003
                                    148 &UCFSR0  SETC  '20(R13)'       R0                                       01510003
                                    149 &UCFSR1  SETC  '24(R13)'       R1                                       01520003
                                    150 &UCFOPD1 SETC  '28(R13)'      OPEARND SAVE 1                            01530004
                                    151 &UCFOPD2 SETC  '32(R13)'      OPEARND SAVE 2                            01540004
                                    152 &UCFOPD3 SETC  '36(R13)'      OPEARND SAVE 3                            01550004
                                    153 &UCFOPD4 SETC  '40(R13)'      OPEARND SAVE 4                            01560004
                                    154 &UCFWRK1 SETC  '44(R13)'      WORK1                                     01570003
                                    155 &UCFWRK2 SETC  '48(R13)'      WORK2                                     01580003
                                    156 &UCFWRK3 SETC  '52(R13)'      WORK3                                     01590003
                                    157 &UCFWRK4 SETC  '56(R13)'      WORK4                                     01600003
                                    158 &UCFWRK5 SETC  '60(R13)'      WORK5                                     01610003
                                    159 &UCFWRK6 SETC  '64(R13)'      WORK6                                     01620003
                                    160 &UCFWRK7 SETC  '68(R13)'      WORK7                                     01630003
                                    161          MEND  GBLSET                                                   01640003
                                    162          MACRO                                                          01800032
                                    163 &LBL     UATOI  &IN,&ENDCHAR=X'00',&LEN=                                01810032
                                    164 .********************************************************************** 01820032XE4S001Z *** XE4S001Z *** DISPLAY/UPDATE SPF INFO ***                                                          PAGE    5


  LOC  OBJECT CODE    ADDR1 ADDR2  STMT   SOURCE STATEMENT                                       ASM 0201 10.53 06/08/08

                                    165 &LBL     DS  0H                                                         01830032
                                    166 .*********                                                              01840032
                                    167     GBLC &UCFSR14                                                       01850032
                                    168     GBLC &UCFSR15                                                       01860032
                                    169     GBLC &UCFSR0                                                        01870032
                                    170     GBLC &UCFSR1                                                        01880032
                                    171     GBLC &UCFOPD1                                                       01890032
                                    172     GBLC &UCFOPD2                                                       01900032
                                    173     GBLC &UCFOPD3                                                       01910032
                                    174     GBLC &UCFOPD4                                                       01920032
                                    175     GBLC &UCFWRK1                                                       01930032
                                    176     GBLC &UCFWRK2                                                       01940032
                                    177     GBLC &UCFWRK3                                                       01950032
                                    178     GBLC &UCFWRK4                                                       01960032
                                    179     GBLC &UCFWRK5                                                       01970032
                                    180     GBLC &UCFWRK6                                                       01980032
                                    181     GBLC &UCFWRK7                                                       01990032
                                    182 .*********                                                              02000032
                                    183 &LBL     DS 0H                                                          02010032
                                    184          STM R14,R0,&UCFSR14                                            02020032
                                    185 .*IN   ***                                                              02030032
                                    186          AIF ('&IN'(1,1) EQ '(').RIN                                    02040032
                                    187          LA R0,&IN                     GET INT VALUE                    02050034
                                    188          AGO .COM1                                                      02060032
                                    189 .RIN     ANOP                                                           02070032
                                    190          AIF ('&IN(1)' EQ 'R0').COM1                                    02080032
                                    191          LR R0,&IN(1)                 GET INT VALUE                     02090032
                                    192 .COM1    ANOP                                                           02100032
                                    193 .*OUT  ***                                                              02110032
                                    194          AIF ('&LEN' EQ '').NOLEN                                       02120032
                                    195          AIF ('&LEN'(1,1) EQ '(').RLEN                                  02130032
                                    196          LA R14,&LEN                  IMMEDIATE VALUE                   02140032
                                    197          AGO .COM2                                                      02150032
                                    198 .RLEN    ANOP                                                           02160032
                                    199          AIF ('&LEN(1)' EQ 'R0').REST                                   02170032
                                    200          LR R14,&LEN(1)                 GET INT VALUE                   02180032
                                    201          AGO .COM2                                                      02190032
                                    202 .REST    ANOP                                                           02200032
                                    203          L R14,&UCFSR0                 ORIGINAL R0 FOR OUT ADDR         02210032
                                    204          AGO .COM2                                                      02220032
                                    205 .NOLEN   ANOP                                                           02230032
                                    206          SR R14,R14                   INFINITE                          02240032
                                    207          BCTR R14,0                                                     02250032
                                    208 .COM2    ANOP                                                           02260032
                                    209 .*PROCESS*                                                              02270032
                                    210          SR R1,R1                                                       02280032
                                    211          LR R15,R0                    ADDR                              02290034
                                    212          SR R0,R0                                                       02300034
                                    213          DO FROM=(R14)                                                  02310034
                                    214          DOEXIT (CLI,0(R15),E,&ENDCHAR)                                 02320034
                                    215          DOEXIT (CLI,0(R15),LT,C'0')                                    02330034
                                    216          DOEXIT (CLI,0(R15),GT,C'9')                                    02340034
                                    217            IC R0,0(R15)                                                 02350034
                                    218            SLL R0,24+4                                                  02360034
                                    219            SRL R0,24+4                                                  02370034XE4S001Z *** XE4S001Z *** DISPLAY/UPDATE SPF INFO ***                                                          PAGE    6


  LOC  OBJECT CODE    ADDR1 ADDR2  STMT   SOURCE STATEMENT                                       ASM 0201 10.53 06/08/08

                                    220            MH R1,=Y(10)                                                 02380032
                                    221            AR R1,R0                                                     02390034
                                    222            LA R15,1(R15)                                                02400034
                                    223          ENDDO                                                          02410032
                                    224 .*                                                                      02420032
                                    225 .********                                                               02430032
                                    226          LM  R14,R0,&UCFSR14                                            02440032
                                    227          MEND     UATOI                                                 02450032
                                    228          MACRO                                                          02640003
                                    229 &LBL     UI2Z &IN,&OUT,&LEN=           *INT MAX 1S 10 BYTE              02650003
                                    230 .*********                                                              02660003
                                    231     GBLC &UCFSR14                                                       02670003
                                    232     GBLC &UCFSR15                                                       02680003
                                    233     GBLC &UCFSR0                                                        02690003
                                    234     GBLC &UCFSR1                                                        02700003
                                    235     GBLC &UCFOPD1                                                       02710003
                                    236     GBLC &UCFOPD2                                                       02720003
                                    237     GBLC &UCFOPD3                                                       02730003
                                    238     GBLC &UCFOPD4                                                       02740003
                                    239     GBLC &UCFWRK1                                                       02750003
                                    240     GBLC &UCFWRK2                                                       02760003
                                    241     GBLC &UCFWRK3                                                       02770003
                                    242     GBLC &UCFWRK4                                                       02780003
                                    243     GBLC &UCFWRK5                                                       02790003
                                    244     GBLC &UCFWRK6                                                       02800003
                                    245     GBLC &UCFWRK7                                                       02810003
                                    246 .*********                                                              02820003
                                    247          AIF ('&LEN' NE '').LENOK                                       02830003
                                    248          MNOTE 8,'UI2Z-01:LEN= PARM(OUTPUT AREA LEN) IS MISSING'        02840003
                                    249          MEXIT                                                          02850003
                                    250 .LENOK   ANOP                                                           02860003
                                    251 &LBL     DS 0H                                                          02870003
                                    252          STM R14,R0,&UCFSR14                                            02880003
                                    253 .*IN   ***                                                              02890003
                                    254          AIF ('&IN'(1,1) EQ '(').RIN                                    02900003
                                    255          ICM R0,B'1111',&IN                     GET INT VALUE           02910034
                                    256          AGO .COM1                                                      02920003
                                    257 .RIN     ANOP                                                           02930003
                                    258          AIF ('&IN(1)' EQ 'R0').COM1                                    02940003
                                    259          LR R0,&IN(1)                 GET INT VALUE                     02950003
                                    260 .COM1    ANOP                                                           02960003
                                    261 .*OUT  ***                                                              02970003
                                    262          AIF ('&OUT' EQ '').NOOUT1                                      02980003
                                    263          AIF ('&OUT'(1,1) EQ '(').ROUT                                  02990003
                                    264          LA R14,&OUT                    GET OUT ADDR VALUE              03000003
                                    265          AGO .COM2                                                      03010003
                                    266 .ROUT    ANOP                                                           03020003
                                    267          AIF ('&OUT(1)' EQ 'R0').REST                                   03030003
                                    268          LR R14,&OUT(1)                 GET INT VALUE                   03040003
                                    269          AGO .COM2                                                      03050003
                                    270 .REST    ANOP                                                           03060003
                                    271          L R14,&UCFSR0                 ORIGINAL R0 FOR OUT ADDR         03070003
                                    272 .COM2    ANOP                                                           03080003
                                    273          AGO .COM3                                                      03090003
                                    274 .NOOUT1  ANOP                                                           03100003XE4S001Z *** XE4S001Z *** DISPLAY/UPDATE SPF INFO ***                                                          PAGE    7


  LOC  OBJECT CODE    ADDR1 ADDR2  STMT   SOURCE STATEMENT                                       ASM 0201 10.53 06/08/08

                                    275          LA R14,&UCFWRK3               ZONE WORK                        03110003
                                    276 .COM3    ANOP                                                           03120003
                                    277 .*PROCESS*                                                              03130003
                                    278          LA R15,&UCFWRK1              PACK WORK                         03140003
                                    279          CVD R0,0(R15)                                                  03150003
                                    280 .*                                                                      03160003
                                    281          UNPK 0(&LEN,R14),0(8,R15)       VALUE                          03170003
                                    282          LTR R0,R0                                                      03180003
                                    283 .*       BM UI2Z_&SYSNDX.2                                   D#@@@@2    03190003
                                    284          BM #&SYSNDX.#2                                      A#@@@@2    03200003
                                    285 .*                                                                      03210003
                                    286          OI &LEN-1(R14),X'F0'                                           03220003
                                    287 .*                                                                      03230003
                                    288 .*UI2Z_&SYSNDX.2 EQU *                                        D#@@@@2   03240003
                                    289 #&SYSNDX.#2 EQU *                                             A#@@@@2   03250003
                                    290 .********                                                               03260003
                                    291          LM  R14,R0,&UCFSR14                                            03270003
                                    292          MEND  UI2Z                                                     03280003
                                    293          MACRO                                                          03520003
                                    294 &LBL     UI2ZE &IN,&OUT,&LEN=14                                         03530003
                                    295 .*********                                                              03540003
                                    296     GBLC &UCFSR14                                                       03550003
                                    297     GBLC &UCFSR15                                                       03560003
                                    298     GBLC &UCFSR0                                                        03570003
                                    299     GBLC &UCFSR1                                                        03580003
                                    300     GBLC &UCFOPD1                                                       03590003
                                    301     GBLC &UCFOPD2                                                       03600003
                                    302     GBLC &UCFOPD3                                                       03610003
                                    303     GBLC &UCFOPD4                                                       03620003
                                    304     GBLC &UCFWRK1                                                       03630003
                                    305     GBLC &UCFWRK2                                                       03640003
                                    306     GBLC &UCFWRK3                                                       03650003
                                    307     GBLC &UCFWRK4                                                       03660003
                                    308     GBLC &UCFWRK5                                                       03670003
                                    309     GBLC &UCFWRK6                                                       03680003
                                    310     GBLC &UCFWRK7                                                       03690003
                                    311          LCLC &MAXLEN,&CPYLEN                                   A#@@@@2 03700003
                                    312 .*********                                                              03710003
                                    313 &MAXLEN  SETC '15'                    OUTPUT MAX LEN                    03720003
                                    314 &CPYLEN  SETC '&LEN'                     OUTPUT LEN                     03730003
                                    315 .*********                                                              03740003
                                    316 &LBL     DS 0H                                                          03750003
                                    317          STM R14,R1,&UCFSR14                                            03760003
                                    318 .*IN   ***                                                              03770003
                                    319          AIF ('&IN'(1,1) EQ '(').RIN                                    03780003
                                    320          L R0,&IN                     GET INT VALUE                     03790003
                                    321          AGO .COM1                                                      03800003
                                    322 .RIN     ANOP                                                           03810003
                                    323          AIF ('&IN(1)' EQ 'R0').COM1                                    03820003
                                    324          LR R0,&IN(1)                 GET INT VALUE                     03830003
                                    325 .COM1    ANOP                                                           03840003
                                    326 .*OUT  ***                                                              03850003
                                    327          AIF ('&OUT' EQ '').NOOUT1                                      03860003
                                    328          AIF ('&OUT'(1,1) EQ '(').ROUT                                  03870003
                                    329          LA R14,&OUT                    GET OUT ADDR VALUE              03880003XE4S001Z *** XE4S001Z *** DISPLAY/UPDATE SPF INFO ***                                                          PAGE    8


  LOC  OBJECT CODE    ADDR1 ADDR2  STMT   SOURCE STATEMENT                                       ASM 0201 10.53 06/08/08

                                    330          AGO .COM2                                                      03890003
                                    331 .ROUT    ANOP                                                           03900003
                                    332          AIF ('&OUT(1)' EQ 'R0').REST                                   03910003
                                    333          LR R14,&OUT(1)                 GET INT VALUE                   03920003
                                    334          AGO .COM2                                                      03930003
                                    335 .REST    ANOP                                                           03940003
                                    336          L R14,&UCFSR0                 ORIGINAL R0 FOR OUT ADDR         03950003
                                    337 .COM2    ANOP                                                           03960003
                                    338 .NOOUT1  ANOP                                                           03970003
                                    339 .*PROCESS*                                                              03980003
                                    340          LA R15,&UCFWRK1              PACK WORK,WRK1 AND WRK2           03990003
                                    341          CVD R0,0(R15)                                                  04000003
                                    342 .*SET EDIT PATERN TO WRK3-WRK7(5*4=20 BYTE)                             04010003
                                    343 .*SIGNIFICANT STARTER X'21' SHOULD NOT BE SET FOR EDMK SET R1           04020003
                                    344 .*R1 SET WHEN DIGIT SELECTED AT THE STATUS SIGNIFICANT INDICATER OFF    04030003
                                    345          LA R15,&UCFWRK3              PACK WORK,WRK1 AND WRK2           04040003
                                    346          MVC 0(&MAXLEN,R15),=X'4020206B2020206B2020206B202020'          04050003
                                    347          EDMK 0(&MAXLEN,R15),2+&UCFWRK1  11 DIGIT=PL6=15BYTE OUT        04060003
                                    348 .*       BP  UI2ZE_&SYSNDX.1        LAST FIELD >0               D#@@@@2 04070003
                                    349          BP  #&SYSNDX.#1            LAST FIELD >0               A#@@@@2 04080003
                                    350 .*       BM  UI2ZE_&SYSNDX.M        LAST FIELD <0               D#@@@@2 04090003
                                    351          BM  #&SYSNDX.#M            LAST FIELD <0               A#@@@@2 04100003
                                    352          MVI &MAXLEN-1(R15),C'0'    FORCE ZERO                          04110003
                                    353 .*       B   UI2ZE_&SYSNDX.1        LAST FIELD <0               D#@@@@2 04120003
                                    354          B   #&SYSNDX.#1       LAST FIELD <0                    A#@@@@2 04130003
                                    355 .*UI2ZE_&SYSNDX.M EQU *                                         D#@@@@2 04140003
                                    356 #&SYSNDX.#M EQU *                                               A#@@@@2 04150003
                                    357          BCTR R1,0                                                      04160003
                                    358          MVI 0(R1),C'-'                MINUS SIGN                       04170003
                                    359 .*UI2ZE_&SYSNDX.1 EQU *                                         D#@@@@2 04180003
                                    360 #&SYSNDX.#1 EQU *                                               A#@@@@2 04190003
                                    361          AIF ('&OUT' EQ '').NOOUT2                                      04200003
                                    362 .*                                                                      04210003
                                    363          MVC 0(&CPYLEN,R14),&MAXLEN-&CPYLEN+&UCFWRK3                    04220003
                                    364 .*                                                                      04230003
                                    365          AGO .COM3                                                      04240003
                                    366 .NOOUT2  ANOP                                                           04250003
                                    367          LA R15,&MAXLEN-&CPYLEN.(R15) ON SAVE AREA                      04260003
                                    368          ST R15,&UCFSR1               RETURN R1                         04270003
                                    369 .COM3    ANOP                                                           04280003
                                    370 .********                                                               04290003
                                    371          LM  R14,R1,&UCFSR14                                            04300003
                                    372          MEND  UI2ZE                                                    04310003
                                    373          MACRO                                                          04560003
                                    374 &LBL     UI2X &IN,&OUT,&LEN=8                                           04570003
                                    375 .*********                                                              04580003
                                    376     GBLC &UCFSR14                                                       04590003
                                    377     GBLC &UCFSR15                                                       04600003
                                    378     GBLC &UCFSR0                                                        04610003
                                    379     GBLC &UCFSR1                                                        04620003
                                    380     GBLC &UCFOPD1                                                       04630003
                                    381     GBLC &UCFOPD2                                                       04640003
                                    382     GBLC &UCFOPD3                                                       04650003
                                    383     GBLC &UCFOPD4                                                       04660003
                                    384     GBLC &UCFWRK1                                                       04670003XE4S001Z *** XE4S001Z *** DISPLAY/UPDATE SPF INFO ***                                                          PAGE    9


  LOC  OBJECT CODE    ADDR1 ADDR2  STMT   SOURCE STATEMENT                                       ASM 0201 10.53 06/08/08

                                    385     GBLC &UCFWRK2                                                       04680003
                                    386     GBLC &UCFWRK3                                                       04690003
                                    387     GBLC &UCFWRK4                                                       04700003
                                    388     GBLC &UCFWRK5                                                       04710003
                                    389     GBLC &UCFWRK6                                                       04720003
                                    390     GBLC &UCFWRK7                                                       04730003
                                    391 .*********                                                              04740003
                                    392 .********************************************************************** 04750003
                                    393 &LBL     DS 0H                                                          04760003
                                    394          STM R14,R0,&UCFSR14                                            04770003
                                    395 .*IN   ***                                                              04780003
                                    396 .*       UCFGOPD ADDRVAL,SAVE1,&IN   SAVE INP VALUE TO SAVE+28 D#0000   04790003
                                    397          ST &IN(1),&UCFOPD1          SAVE OPERAND TO SAVEAREA  A#0000   04800003
                                    398 .*OUT  ***                                                              04810003
                                    399          AIF ('&OUT' EQ '').NOOUT1                                      04820003
                                    400 .*       UCFGOPD ADDR,SAVE2,&OUT      GET ADDR VALUE TO SAVE+28 D#0000  04830003
                                    401          LA R0,&OUT                        GET OPD ADDR         A#0000  04840003
                                    402          ST R0,&UCFOPD2               SAVE OPERAND TO SAVEAREA  A#0000  04850003
                                    403 .NOOUT1  ANOP                                                           04860003
                                    404 .*PROCESS*                                                              04870003
                                    405          LA R15,&UCFOPD1               INP VALUE ADDR                   04880003
                                    406          LA R14,&UCFWRK1                UNPK AREA                       04890003
                                    407          UNPK 0(9,R14),0(5,R15)                                         04900003
                                    408 .*       L R15,UI2X_&SYSNDX.V          INTF CSECT ADDR  D#0000  D#@@@@2 04910003
                                    409 .*       L R15,#&SYSNDX.#V         INTF CSECT ADDR      D#0000  A#@@@@2 04920003
                                    410 .*       L R15,&UCFPGMI(1)._TBLTOP(R15)      TBL HDR    D#0000          04930003
                                    411 .*       L R15,(6-1)*4(R15)      ABLE TO CONV TO HEX DIGIT  D#0000      04940003
                                    412          L R15,#&SYSNDX.TRT             TR TABLE TO CONV TO HEX DIGIT   04950003
                                    413          TR 0(8,R14),0(R15)                                             04960003
                                    414 .*                                                                      04970003
                                    415 .*       B UI2X_&SYSNDX.X EQU *                               D#@@@@2   04980003
                                    416          B #&SYSNDX.#X EQU *                                  A#@@@@2   04990003
                                    417 #&SYSNDX.TRT DC A(*+4-X'F0') TRANSLATE BIN TO HEX DIGIT A#0000          05000003
                                    418          DC C'0123456789ABCDEF' F0-->F9,FA-->FF TO C'0'-->C'F' A#0000   05010003
                                    419 #&SYSNDX.#X EQU *                                               A#@@@@2 05020003
                                    420 .*                                                                      05030003
                                    421          AIF ('&OUT' EQ '').NOOUT2                                      05040003
                                    422          L R15,&UCFOPD2                                                 05050003
                                    423          MVC 0(&LEN,R15),8-&LEN.(R14)                                   05060003
                                    424          AGO .COM3                                                      05070003
                                    425 .NOOUT2  ANOP                                                           05080003
                                    426          LR R1,R14                     OUTPUT HEX DIGIT FIELD ADDR      05090003
                                    427 .COM3    ANOP                                                           05100003
                                    428          LM  R14,R0,&UCFSR14                                            05110003
                                    429 .*       UCFMEND                                                        05120004
                                    430          MEND   *UI2X                                                   05130003
                                    431          MACRO                                                          05310017
                                    432 &L       UMEMCHR  &ADDR,&CHAR,&LEN                                      05320017
                                    433 .*********                                                              05330017
                                    434     GBLC &UCFSR14                                                       05340017
                                    435     GBLC &UCFSR15                                                       05350017
                                    436     GBLC &UCFSR0                                                        05360017
                                    437     GBLC &UCFSR1                                                        05370017
                                    438     GBLC &UCFOPD1                                                       05380017
                                    439     GBLC &UCFOPD2                                                       05390017XE4S001Z *** XE4S001Z *** DISPLAY/UPDATE SPF INFO ***                                                          PAGE   10


  LOC  OBJECT CODE    ADDR1 ADDR2  STMT   SOURCE STATEMENT                                       ASM 0201 10.53 06/08/08

                                    440     GBLC &UCFOPD3                                                       05400017
                                    441     GBLC &UCFOPD4                                                       05410017
                                    442     GBLC &UCFWRK1                                                       05420017
                                    443     GBLC &UCFWRK2                                                       05430017
                                    444     GBLC &UCFWRK3                                                       05440017
                                    445     GBLC &UCFWRK4                                                       05450017
                                    446     GBLC &UCFWRK5                                                       05460017
                                    447     GBLC &UCFWRK6                                                       05470017
                                    448     GBLC &UCFWRK7                                                       05480017
                                    449 .*********                                                              05490017
                                    450 &L       DS 0H                                                          05500017
                                    451          STM R15,R0,&UCFSR15                                            05510017
                                    452 .**ADDR***                                                              05520017
                                    453 .*       UCFGOPD ADDR,SAVE1,&ADDR     GET ADDR VALUE                    05530017
                                    454          AIF ('&ADDR'(1,1) EQ '(').RADDR                                05540045
                                    455          LA R0,&ADDR                                                    05550045
                                    456          AGO .SVADDR                                                    05560045
                                    457 .RADDR   ANOP                                                           05570045
                                    458          LR R0,&ADDR(1)                    GET OPD ADDR         A#0000  05580018
                                    459 .SVADDR  ANOP                                                           05590045
                                    460          ST R0,&UCFOPD1               SAVE OPERAND TO SAVEAREA  A#0000  05600017
                                    461 .**LEN****                                                              05610017
                                    462 .*       UCFGOPD EQU,SAVE2,&LEN       GET LEN  VALUE                    05620017
                                    463          ST &LEN(1),&UCFOPD2          SAVE OPERAND TO SAVEAREA  A#0000  05630017
                                    464 .**CHAR***                                                              05640017
                                    465 .*       UCFGOPD EQU1,R0,&CHAR        GET CHAR VALUE TO R0              05650017
                                    466          LA R0,&CHAR                       GET OPD ADDR         A#0000  05660017
                                    467 .*********                                                              05670017
                                    468          UMEMCHR# &UCFOPD1,(R0),&UCFOPD2      SEARCH     R#@@@@2        05680017
                                    469 .*                                                                      05690017
                                    470          LM  R15,R0,&UCFSR15                                            05700017
                                    471 .*       UCFMEND                                                        05710018
                                    472          MEND  * MEMCHAR                                                05720017
                                    473          MACRO                                                          05880017
                                    474          UMEMCHR# &ADDR,&CHAR,&LEN                    R#@@@@2           05890017
                                    475 .*********                                                              05900017
                                    476     GBLC &UCFSR14                                                       05910017
                                    477     GBLC &UCFSR15                                                       05920017
                                    478     GBLC &UCFSR0                                                        05930017
                                    479     GBLC &UCFSR1                                                        05940017
                                    480     GBLC &UCFOPD1                                                       05950017
                                    481     GBLC &UCFOPD2                                                       05960017
                                    482     GBLC &UCFOPD3                                                       05970017
                                    483     GBLC &UCFOPD4                                                       05980017
                                    484     GBLC &UCFWRK1                                                       05990017
                                    485     GBLC &UCFWRK2                                                       06000017
                                    486     GBLC &UCFWRK3                                                       06010017
                                    487     GBLC &UCFWRK4                                                       06020017
                                    488     GBLC &UCFWRK5                                                       06030017
                                    489     GBLC &UCFWRK6                                                       06040017
                                    490     GBLC &UCFWRK7                                                       06050017
                                    491 .*********                                                              06060017
                                    492 .* UMEMCHR_ * START *                                                   06070017
                                    493 .* CHAR                                                                 06080017
                                    494          AIF ('&CHAR'(1,1) NE '(').FLDC                                 06090017XE4S001Z *** XE4S001Z *** DISPLAY/UPDATE SPF INFO ***                                                          PAGE   11


  LOC  OBJECT CODE    ADDR1 ADDR2  STMT   SOURCE STATEMENT                                       ASM 0201 10.53 06/08/08

                                    495          AIF ('&CHAR(1)' EQ 'R0').COMC                                  06100017
                                    496          LR R0,&CHAR(1)         SEARCH CHAR                             06110017
                                    497          AGO .COMC                                                      06120017
                                    498 .FLDC    ANOP                                                           06130017
                                    499          L R0,&CHAR             SEARCH CHAR                             06140017
                                    500 .COMC    ANOP                                                           06150017
                                    501 .* ADDR                                                                 06160017
                                    502          AIF ('&ADDR'(1,1) NE '(').FLDA                                 06170017
                                    503          AIF ('&ADDR(1)' EQ 'R15').COMA                                 06180017
                                    504          AIF ('&ADDR(1)' NE 'R0').ADDROK                                06190017
                                    505          MNOTE 8,'UMEMCHR_-02:R0 IS NOT VALID FOR ADDR PARM'            06200017
                                    506          MEXIT                                                          06210017
                                    507 .ADDROK  ANOP                                                           06220017
                                    508          LR R15,&ADDR(1)                                                06230017
                                    509          AGO .COMA                                                      06240017
                                    510 .FLDA    ANOP                                                           06250017
                                    511          L R15,&ADDR             START ADDR                             06260017
                                    512 .COMA    ANOP                                                           06270017
                                    513 .*                                                                      06280017
                                    514          AIF ('&LEN'(1,1) EQ '(').REGLEN                                06290017
                                    515          L R1,&LEN               LEN                                    06300017
                                    516          AGO .SRCH                                                      06310017
                                    517 .REGLEN  ANOP                                                           06320017
                                    518          AIF ('&LEN(1)' NE 'R15' AND '&LEN(1)' NE 'R0').REGOK           06330017
                                    519          MNOTE 8,'UMEMCHR_-01:R0/R15 IS NOT VALID FOR LEN PARM'         06340017
                                    520          MEXIT                                                          06350017
                                    521 .REGOK   ANOP                                                           06360017
                                    522          AIF ('&LEN(1)' EQ 'R1').SRCH                                   06370017
                                    523          LR R1,&LEN                                                     06380017
                                    524 .*                                                                      06390017
                                    525 .SRCH    ANOP                                                           06400017
                                    526          AR R1,R15                    END ADDR                          06410017
                                    527 .*UMEMCHR_&SYSNDX.7 EQU *                RETRY LOOP            D#@@@@2  06420017
                                    528 #&SYSNDX.7 EQU *                         RETRY LOOP            A#@@@@2  06430017
                                    529          SRST R1,R15                     END ADDR,START ADDR            06440017
                                    530 .*CC=1 FOUND;R1:FOUND ADDR,R2:NOT CHANGED                               06450017
                                    531 .*       BC 4,UMEMCHR_&SYSNDX.5 CC=1,FOUND(R1:MATCH ADDR,R2:SAMED#@@@@2 06460017
                                    532          BC 4,#&SYSNDX.5 CC=1,FOUND(R1:MATCH ADDR,R2:SAME       A#@@@@2 06470017
                                    533 .*CC=2 NOT FOUND;R1/R2 NOT CHANGED                                      06480017
                                    534 .*       BC 2,UMEMCHR_&SYSNDX.6   CC=2,NOT FOUND(R1,R2:SAME)    D#@@@@2 06490017
                                    535          BC 2,#&SYSNDX.6          CC=2,NOT FOUND(R1,R2:SAME)    A#@@@@2 06500017
                                    536 .*CC=3 SEARCHED 256;R2:CHANGED TO NEXT START ADDR,R1:NOT CHANGED        06510017
                                    537 .*       B UMEMCHR_&SYSNDX.7 CC=3,RTRY BY NEW ADD(R1:SAME,R2:NEWD#@@@@2 06520017
                                    538          B #&SYSNDX.7 CC=3,RTRY BY NEW ADD(R1:SAME,R2:NEW)      A#@@@@2 06530017
                                    539 .*UMEMCHR_&SYSNDX.6 EQU *               NOT FOUND              D#@@@@2  06540017
                                    540 #&SYSNDX.6 EQU *                        NOT FOUND              A#@@@@2  06550017
                                    541          SR R1,R1                        NOT FOUND ID                   06560017
                                    542 .*UMEMCHR_&SYSNDX.5 EQU *               FOUND                  D#@@@@2  06570017
                                    543 #&SYSNDX.5 EQU *                        FOUND                  A#@@@@2  06580017
                                    544 ** UMEMCHR_ * END *                                                     06590017
                                    545          MEND   MEMCHR_                                                 06600017
                                    546          MACRO                                                          06920003
                                    547 &NAME    UDATE &AREA,&TODAY=Y,&INPUT=J,&TBL=N                           06930003
                                    548 .********************************************************************** 06940003
                                    549          LCLC  &IX                     FOR LABEL NAMING                 06950003XE4S001Z *** XE4S001Z *** DISPLAY/UPDATE SPF INFO ***                                                          PAGE   12


  LOC  OBJECT CODE    ADDR1 ADDR2  STMT   SOURCE STATEMENT                                       ASM 0201 10.53 06/08/08

                                    550          LCLC  &TB                                              A#@@@@2 06960003
                                    551          SPACE                                                          06970003
                                    552          GBLB  &UDATEGB                FOR TABLE CREATION SW            06980003
                                    553          GBLC  &UDATEGC                FOR TABLE CREATION LABEL         06990003
                                    554 &IX      SETC  '&SYSNDX'               FOR LABEL NAMING                 07000003
                                    555 .*                                                                      07010003
                                    556          AIF   (NOT &UDATEGB).FIRST                                     07020003
                                    557          AIF   ('&TBL' EQ 'N').SECNO                                    07030003
                                    558 .FIRST   ANOP                                                           07040003
                                    559          AIF   ('&NAME' NE '').NAMEOK                                   07050003
                                    560 .*&TB    SETC  'UDT'.'&IX'            TABLE LABEL          D#@@@@2      07060004
                                    561 &TB      SETC  'UD'.'&IX'             TABLE LABEL          A#@@@@2      07070004
                                    562          AGO   .TOG00                                                   07080004
                                    563 .NAMEOK  ANOP                                                           07090004
                                    564 &TB      SETC  '&NAME'                 TABLE LABEL FROM MACRO LABEL     07100004
                                    565 .TOG00   ANOP                                                           07110004
                                    566          AIF   (&UDATEGB).NOTFST                                        07120004
                                    567 &UDATEGC SETC  '&TB'                   TABLE LABEL FROM MACRO LABEL     07130004
                                    568 .NOTFST  ANOP                                                           07140004
                                    569          AGO   .TOG0                                                    07150004
                                    570 .*                                                                      07160004
                                    571 .SECNO   ANOP                          NO TBL CREATION                  07170004
                                    572 &TB      SETC  '&UDATEGC'              TABLE LABEL FROM MACRO LABEL     07180004
                                    573 .TOG0    ANOP                                                           07190004
                                    574 **                                     ***** START MACRO UDATE    ***** 07200004
                                    575 &NAME    DS    0H                                                       07210004
                                    576          AIF   ('&AREA' NE '').OUTAREA                       A#@@@@     07220004
                                    577          AIF   ('&TODAY' NE 'Y').ERAREA                      A#@@@@     07230004
                                    578          L    R1,16                  GET ADDR OF CVT         A#@@@@     07240004
                                    579          L    R1,X'38'(R1)  00YYDDDF CURRENT DATE IN PACKED  A#@@@@     07250004
                                    580          MEXIT                                               A#@@@@     07260004
                                    581 .*.ERRAREA ANOP                        REG TYPE AREA         A#@@@@     07270004
                                    582 .ERAREA  ANOP                  REG TYPE AREA        A#@@@@      D#@@@@1 07280004
                                    583          MNOTE 8,'** MISSING OUTPUT AREA FOR TODAY="N" **'   A#@@@@     07290004
                                    584          MEXIT                                               A#@@@@     07300004
                                    585 .OUTAREA ANOP                          REG TYPE AREA         A#@@@@     07310004
                                    586          AIF   ('&AREA'(1,1) NE '(').SAREA S TYPE                       07320004
                                    587          LR    R14,&AREA(1)            ADDR AREA FIELD                  07330004
                                    588          AGO   .TOG1                                                    07340004
                                    589 .SAREA   ANOP                          REG TYPE AREA                    07350004
                                    590          LA    R14,&AREA               ADDR AREA FIELD                  07360004
                                    591 .TOG1    ANOP                                                           07370004
                                    592          AIF   ('&TODAY' NE 'Y').INPDAY NOT TODAY                       07380004
                                    593          AIF   ('&INPUT' EQ 'J').INPOK  NOT TODAY                       07390004
                                    594          MNOTE 8,'** UDATE INPUT OPD MUST BE "J" WHEN TODAY ="Y" **'    07400004
                                    595 .INPOK   ANOP                                                           07410004
                                    596          L    R15,16                   GET ADDR OF CVT                  07420004
                                    597          L    R15,X'38'(R15)  00YYDDDF CURRENT DATE IN PACKED DECIMAL   07430004
                                    598          AGO   .TOG2                                                    07440004
                                    599 .INPDAY  ANOP                                                           07450004
                                    600          MVI  0(R14),0                 CONFIRM TOP BYTE 0               07460034
                                    601          AIF   ('&INPUT' NE 'J').YMD1  YMD TO YYDDD                     07470004
                                    602          OI   3(R14),X'0F'             CONFIRM SIGN                     07480004
                                    603 .YMD1    ANOP                                                           07490004
                                    604          L    R15,0(R14)               INPUT JULIAN DATE                07500004XE4S001Z *** XE4S001Z *** DISPLAY/UPDATE SPF INFO ***                                                          PAGE   13


  LOC  OBJECT CODE    ADDR1 ADDR2  STMT   SOURCE STATEMENT                                       ASM 0201 10.53 06/08/08

                                    605 .********************************************************************** 07510004
                                    606 .TOG2    ANOP                                                           07520004
                                    607          XC    0(6,R14),0(R14)         CLEAR AREA                       07530004
                                    608          MVI   3(R14),X'0C'            ADD SIGN BIT   0000000C0000      07540004
                                    609          STCM  R15,B'0100',2(R14)      GET YY*10      0000YY0C0000      07550004
                                    610          CLI   2(R14),X'00'            CHK YY             --            07560004
                                    611          BE    UDT&IX.D                100 NEN NOT URUUDOSHI            07570004
                                    612          DP    0(4,R14),&TB.40         /40(4YEAR)     SSSC0R0C0000      07580004
                                    613          CLI   2(R14),X'00'                               --            07590004
                                    614          BZ    UDT&IX.1                YES URUU EVERY 4 YEAR            07600004
                                    615 UDT&IX.D EQU   *                       HEINEN                           07610004
                                    616          AIF   ('&TODAY' EQ 'Y').INPH   NOT TODAY                       07620004
                                    617          LA    R1,&TB.HE               YEAR END DAY#                    07630004
                                    618 .INPH    ANOP                                                           07640004
                                    619          LA    R0,&TB.H                MONTH TBL TOP ADDR               07650004
                                    620          ST    R15,0(R14)              STORE R15 TO WRK                 07660004
                                    621          B     UDT&IX.2                COMMON FOR URUU/HEINEN           07670004
                                    622 UDT&IX.1 EQU   *                       URUDOSI                          07680004
                                    623          AIF   ('&TODAY' EQ 'Y').INPX   NOT TODAY                       07690004
                                    624          LA    R1,&TB.UE               YEAR END DAY#                    07700004
                                    625 .INPX    ANOP                                                           07710004
                                    626          LA    R0,&TB.U                MONTH TBL TOP ADDR               07720004
                                    627          ST    R15,0(R14)              +++++ STORE R15 TO WRK           07730004
                                    628          MVI   0(R14),X'F0'            +++++ URUU --> TOP BYTE X'F0'    07740034
                                    629          L     R15,0(R14)              +++++ STORE DATE TO R15          07750004
                                    630 UDT&IX.2 EQU   *                       AFTER CHECK URUU                 07760004
                                    631          AIF   ('&TODAY' EQ 'Y').INPU   NOT TODAY                       07770004
                                    632          AIF   ('&INPUT' NE 'J').YMD2  YMD TO YYDDD                     07780004
                                    633          CP    2(2,R14),&TB.0          CHK ZERO           ----          07790004
                                    634          BE    UDT&IX.E                SPECIFICATION ERR                07800004
                                    635          CP    2(2,R14),0(2,R1)        CHK YEAR END       ----          07810004
                                    636          BH    UDT&IX.E                OVER YEAR END                    07820004
                                    637          AGO   .INPU                                                    07830004
                                    638 .*                                                                      07840004
                                    639 .* CONV YYMMDD TO YYDDD                                                 07850004
                                    640 .*                                                                      07860004
                                    641 .YMD2    ANOP                          00YYMMDD0000                     07870004
                                    642 .* DD CHK                                                               07880004
                                    643          CLI   3(R14),X'00'            CHK DD IS ZERO  00YYMMDD0000     07890004
                                    644          BE    UDT&IX.E                SPECIFICATION ERR                07900004
                                    645          NI    3(R14),X'0F'            CHK XD          00YYMM0D0000     07910004
                                    646          CLI   3(R14),X'09'            CHK XD IS X0 - X9                07920004
                                    647          BH    UDT&IX.E                SPECIFICATION ERR                07930004
                                    648          STC   R15,3(R14)              00YYMMDD0000                     07940004
                                    649          NI    3(R14),X'F0'            CHK DX          00YYMMD00000     07950004
                                    650          CLI   3(R14),X'30'            CHK DX    0X - 3X                07960004
                                    651          BH    UDT&IX.E                SPECIFICATION ERR                07970004
                                    652 .* MM CHK                                                               07980004
                                    653          CLI   2(R14),X'00'            CHK MM IS ZERO,00YYMMD00000      07990004
                                    654          BE    UDT&IX.E                SPECIFICATION ERR                08000004
                                    655          TM    2(R14),X'E0'            CHK MM(1X OR 0X)                 08010004
                                    656          BNZ   UDT&IX.E                SPECIFICATION ERR                08020004
                                    657          MVC   5(1,R14),2(R14)         00YYMMD000MM                     08030004
                                    658          NI    5(R14),X'0F'            00YYMMD0000M                     08040004
                                    659          CLI   5(R14),X'09'            CHK MM (01 TO 09)                08050004XE4S001Z *** XE4S001Z *** DISPLAY/UPDATE SPF INFO ***                                                          PAGE   14


  LOC  OBJECT CODE    ADDR1 ADDR2  STMT   SOURCE STATEMENT                                       ASM 0201 10.53 06/08/08

                                    660          BH    UDT&IX.E                SPECIFICATION ERR                08060004
                                    661 .* GET MM IN BINALY                                                     08070004
                                    662          LH    R1,4(R14)               GET .M                           08080004
                                    663          TM    2(R14),X'10'            CHK MM(1X OR 0X)                 08090004
                                    664          BNO   UDT&IX.K                MM IS 01-09                      08100004
                                    665          LA    R1,10(R1)               MM IN BINALY                     08110004
                                    666 UDT&IX.K EQU   *                                                        08120004
                                    667          BCTR  R1,0                    MM TBL OFFSET                    08130004
                                    668          BCTR  R1,0                    MM-1   OFFSET                    08140004
                                    669          SLL   R1,1                    DAY TBL OFFSET                   08150004
                                    670          AR    R1,R0                   MM - 1  MONTH START DAY ADDR     08160004
                                    671          ZAP   4(2,R14),0(2,R1)        00------DDDC                     08170004
                                    672          MVI   3(R14),X'0C'            00----0CDDDC                     08180004
                                    673          STC   R15,1(R14)              00DD--0CDDDC                     08190004
                                    674          MVO   2(2,R14),0(2,R14)       00--0DDCDDDC                     08200004
                                    675          AP    4(2,R14),2(2,R14)       00------DDDC                     08210004
                                    676          LA    R1,2(R1)                MONTH END TBL ADDR               08220004
                                    677          CP    4(2,R14),0(2,R1)                ----                     08230004
                                    678          BH    UDT&IX.E                SPECIFICATION ERR                08240004
                                    679          ZAP   2(2,R14),4(2,R14)       00--DDDC---C                     08250004
                                    680          OI    3(R14),X'0F'            00--DDDF---C                     08260004
                                    681          STCM  R15,B'0100',1(R14)      00YYDDDF---C                     08270004
                                    682          L     R0,0(R14)               FFYYDDDF                         08280004
                                    683 .*       MVI   0(R14),0                +++++ CONFIRM TOP BYTE 0         08290034
                                    684          NI    0(R14),X'01'            KEEP 2000 FLAG                   08300034
                                    685          L     R1,0(R14)                                                08310004
                                    686          UNPK  0(6,R14),1(3,R14)       F0FYFYFDFDFD                     08320004
                                    687          LTR   R0,R0                   +++++ TEST SIGN OF R0            08330004
                                    688          BP    UDT&IX.P                +++++                            08340004
                                    689          LA    R14,4                   +++++ FLAG=4                     08350004
                                    690          B     UDT&IX.R                +++++                            08360004
                                    691 UDT&IX.P EQU   *                       +++++                            08370004
                                    692          LA    R14,0                   +++++ FLAG=0                     08380004
                                    693 UDT&IX.R EQU   *                       +++++                            08390004
                                    694          SR    R15,R15                 R.C                              08400004
                                    695          B     UDT&IX.Z                EXIT                             08410004
                                    696 .*       AGO   .YMD3                                                    08420004
                                    697          AGO   .YMD3                   A#@@@3                           08430034
                                    698 .INPU    ANOP                                                           08440004
                                    699          LR    R1,R0                   SAVE TOP ADDR(HEINEN)            08450004
                                    700 UDT&IX.3 EQU   *                       LOP FOR  CHECK MONTH END         08460004
                                    701          CP    2(2,R14),0(2,R1)        CHECK MONTH END    ----          08470004
                                    702          BNH   UDT&IX.9                IN MONTH END                     08480004
                                    703          LA    R1,2(R1)                NEXT TABLE ENTRY                 08490004
                                    704          B     UDT&IX.3                AROUND CONSTANT                  08500004
                                    705 .YMD3    ANOP                                                           08510004
                                    706          AIF   ('&TBL' NE 'N').TBLY                                     08520004
                                    707          AIF   (&UDATEGB).NOTFST2                                       08530004
                                    708 &UDATEGB SETB 1                                                         08540004
                                    709 .TBLY    ANOP                                                           08550004
                                    710 &TB.40   DC    PL2'40'                 FOR URUDOSI KEISAN 4 YEAR        08560004
                                    711 &TB.0    DC    PL2'00'                 MONTH 1 START                    08570004
                                    712 &TB.H    EQU   *                       MONTH END DATE TABLE 1           08580004
                                    713          DC    PL2'31'                 MONTH 1 END                      08590004
                                    714          DC    PL2'59'                 MONTH 2 END                      08600004XE4S001Z *** XE4S001Z *** DISPLAY/UPDATE SPF INFO ***                                                          PAGE   15


  LOC  OBJECT CODE    ADDR1 ADDR2  STMT   SOURCE STATEMENT                                       ASM 0201 10.53 06/08/08

                                    715          DC    PL2'90'                 MONTH 3 END                      08610004
                                    716          DC    PL2'120'                MONTH 4 END                      08620004
                                    717          DC    PL2'151'                MONTH 5 END                      08630004
                                    718          DC    PL2'181'                MONTH 6 END                      08640004
                                    719          DC    PL2'212'                MONTH 7 END                      08650004
                                    720          DC    PL2'243'                MONTH 8 END                      08660004
                                    721          DC    PL2'273'                MONTH 9 END                      08670004
                                    722          DC    PL2'304'                MONTH 10 END                     08680004
                                    723          DC    PL2'334'                MONTH 11 END                     08690004
                                    724 &TB.HE   DC    PL2'365'                MONTH 12 END                     08700004
                                    725 .******** URUUDOSHI DAY TABLE                                           08710004
                                    726          DC    PL2'00'                 MONTH 1 START                    08720004
                                    727 &TB.U    EQU   *                       URUDOSHI DATE TABLE              08730004
                                    728          DC    PL2'31'                 MONTH 1 END                      08740004
                                    729          DC    PL2'60'                 MONTH 2 END                      08750004
                                    730          DC    PL2'91'                 MONTH 3 END                      08760004
                                    731          DC    PL2'121'                MONTH 4 END                      08770004
                                    732          DC    PL2'152'                MONTH 5 END                      08780004
                                    733          DC    PL2'182'                MONTH 6 END                      08790004
                                    734          DC    PL2'213'                MONTH 7 END                      08800004
                                    735          DC    PL2'244'                MONTH 8 END                      08810004
                                    736          DC    PL2'274'                MONTH 9 END                      08820004
                                    737          DC    PL2'305'                MONTH 10 END                     08830004
                                    738          DC    PL2'335'                MONTH 11 END                     08840004
                                    739 &TB.UE   DC    PL2'366'                MONTH 12 END                     08850004
                                    740 .NOTFST2 ANOP                                                           08860004
                                    741 UDT&IX.9 EQU   *                       FOUND END OF MONTH               08870004
                                    742          AIF   ('&INPUT' NE 'J').YMD4  YMD TO YYDDD                     08880004
                                    743          ST    R1,0(R14)               SAVE ENTRY ADDR                  08890004
                                    744          SR    R1,R0                   ENTRY OFFSET                     08900004
                                    745          SRL   R1,1                    DEVIDE BY ENTRY LEN(2)           08910004
                                    746          LA    R1,1(R1)                MM IN BINALY                     08920004
                                    747          LA    R0,10                   FOR CHECK MONTH 10 OVER          08930004
                                    748          CR    R1,R0                   CHECK MONTH                      08940004
                                    749          BL    UDT&IX.A                LOW UNDER MONTH 9                08950004
                                    750          SR    R1,R0                   N MONTH OVER 10                  08960004
                                    751          LA    R0,X'10'                M0 IN PACK                       08970004
                                    752          OR    R1,R0                   MM IN PACK                       08980004
                                    753 UDT&IX.A EQU   *                       AFTER CHECK OVER 10 MONTH        08990004
                                    754          STC   R1,5(R14)               SAVE MM IN PACK   AAAAAAAA00MM   09000004
                                    755          L     R1,0(R14)               BACK ENTRY ADDR   --------       09010004
                                    756          LA    R0,2                    1 ENTRY LEN                      09020004
                                    757          SR    R1,R0                    BACK 1 ENTRY                    09030004
                                    758          ST    R15,0(R14)              FFYYDDDC00MM +++++ STORE TO R15  09040004
                                    759          MVI   0(R14),0                +++++ CONFIRM TOP BYTE 0         09050034
                                    760          SP    0(4,R14),0(2,R1)        00YY0DDC00MM                     09060004
                                    761          MVC   4(1,R14),1(R14)         00YY0DDCYYMM                     09070004
                                    762          MVO   0(3,R14),4(2,R14)       0YYMMDDCYYMM                     09080004
                                    763          OI    3(R14),X'0F'            SIGN 4 BIT                       09090004
                                    764          L     R0,0(R14)               0YYMMDDC    PACK FMT             09100004
                                    765          SRL   R0,4                    00YYMMDD    PACK FMT             09110004
                                    766          UNPK  0(6,R14),0(4,R14)       ZONE YYMMDD                      09120004
                                    767          L    R1,16                   GET ADDR OF CVT                   09130004
                                    768          L    R1,X'38'(R1)  000YYDDDF CURRENT DATE IN PACKED DECIMAL    09140004
                                    769          LTR   R15,R15                 +++++ TEST                       09150004XE4S001Z *** XE4S001Z *** DISPLAY/UPDATE SPF INFO ***                                                          PAGE   16


  LOC  OBJECT CODE    ADDR1 ADDR2  STMT   SOURCE STATEMENT                                       ASM 0201 10.53 06/08/08

                                    770          BP    UDT&IX.P                +++++                            09160004
                                    771          LA    R14,4                   +++++ FLAG=4                     09170004
                                    772          B     UDT&IX.R                +++++                            09180004
                                    773 UDT&IX.P EQU   *                       +++++                            09190004
                                    774          LA    R14,0                   +++++ FLAG=0                     09200004
                                    775 UDT&IX.R EQU   *                       +++++                            09210004
                                    776          SR   R15,R15                  R.C 0                            09220004
                                    777          AIF   ('&TODAY' EQ 'Y').INPZ   NOT TODAY                       09230004
                                    778          B    UDT&IX.Z                                                  09240004
                                    779 .YMD4    ANOP                                                           09250004
                                    780 UDT&IX.E EQU   *                       R.C SET                          09260004
                                    781          LA   R15,4                    R.C 0                            09270004
                                    782 UDT&IX.Z EQU   *                       R.C SET                          09280004
                                    783 .INPZ    ANOP                                                           09290004
                                    784 .*                                                                      09300004
                                    785 .*                                     ***** END MACRO UDATE    ******* 09310004
                                    786          MEND  UDATE                                                    09320004
                                    787          MACRO                                                          09660053
                                    788 &X       ULSNAP &TEXT,&SEQNO=1,&REG=YES,&DDNAME=,&BASEREG=0             09670053
                                    789          SPACE                                                          09680053
                                    790          LCLA  &I                       INDEX  SYSLIST                  09690053
                                    791          LCLA  &PERLIST                 SAVE SYSLIST START/ADDR/PARA    09700053
                                    792          LCLC  &STRING                  CONSTRUCT STRING WITH L         09710053
                                    793          LCLC  &YSCTNA                 NAME CONTROLCSECT                09720053
                                    794          LCLA &OPT,&OPT2,&NN                                    R#@@@@2 09730053
                                    795          LCLC &WKOPTC,&TLABEL                                   R#@@@@2 09740053
                                    796          GBLC &CSECTTB(100)      ONCE GENERATE CSECTNAME AND ASMDATE    09750053
                                    797          GBLA &CSECTNO           INDEX                                  09760053
                                    798          LCLB &CSECTSW                                                  09770053
                                    799          LCLC &CSECTNM                                                  09780053
                                    800          LCLA &II                                                       09790053
                                    801 *                                 START MACRO ULSNAP ****************** 09800053
                                    802 .*                                 PROCESS LABEL                        09810053
                                    803 &X       DS    0H                       ON HALFW BOUNDARY/JUST IN CASE  09820053
                                    804 .*                                 DO COMMENT FOR BETTER REFERENCE      09830053
                                    805 &I       SETA  1                        TO TEST FOR TEXT                09840053
                                    806 .*                                 TEST TO AVOID DIAGNOSTICS/NO POS OP  09850053
                                    807          AIF   ('&SYSLIST(&I)' EQ '').NOPOS   BRANCH NO POSITIONAL OPER 09860053
                                    808          AIF   ('&SYSLIST(&I)'(1,1) EQ '''').F1                         09870053
                                    809          AGO   .TOG1                                                    09880053
                                    810 .*                                 NO POSITIONAL OPERAND SPECIFIED      09890053
                                    811 .NOPOS   ANOP                                                           09900053
                                    812          MNOTE *,'ULSNAP MACRO:NO TEXT SPECIFIED/NO ADDRESS SPECIFIED'  09910053
                                    813          AGO   .TOG1                                                    09920053
                                    814 .*                                 TEXT IS PRESENT                      09930053
                                    815 .F1      ANOP                                                           09940053
                                    816 &I       SETA  2                        SET INDEX POSITIONAL PARA/START 09950053
                                    817 .TOG1    ANOP                                                           09960053
                                    818 .OK1     ANOP                                                           09970053
                                    819          AIF   ('&REG' EQ 'NO' OR '&REG' EQ 'YES').OK2                  09980053
                                    820          MNOTE 8,'ULSNAP MACRO:REG OPERAND IS NOT YES/NO'               09990053
                                    821 *                                 END MACRO ULSNAP  ******************* 10000053
                                    822 .OK2     ANOP                                                           10010053
                                    823          AIF   ('&SYSPARM' NE 'NOSNAP').IGNORNO NOP MACRO TEST          10020053
                                    824 .*                                      MACRO IS IGNORED                10030053XE4S001Z *** XE4S001Z *** DISPLAY/UPDATE SPF INFO ***                                                          PAGE   17


  LOC  OBJECT CODE    ADDR1 ADDR2  STMT   SOURCE STATEMENT                                       ASM 0201 10.53 06/08/08

                                    825 *                                       ULSNAP MACRO IGNORED/SYSPARM    10040053
                                    826 *                                       NOSNAP HAS BEEN USED            10050053
                                    827 *                                 END MACRO ULSNAP  ******************* 10060053
                                    828          MEXIT                                                          10070053
                                    829 .*********************************************************************  10080053
                                    830 .IGNORNO  ANOP                          MACRO NOT IGNORED               10090053
                                    831          LCLC  &LNKCSCT                                                 10100053
                                    832 &LNKCSCT SETC  'XE4S002Z'         * LINKAGE PGM CSECT NAME              10110053
                                    833 .*                                                                      10120053
                                    834 &PERLIST SETA  &I                       SAVE POSIOTION/ADDRESS PARA     10130053
                                    835 .*                                 BUILD NAME OF PRINTCONTROLCSECT      10140053
                                    836 .*                                                                      10150053
                                    837 .* SEARCH CSECT TBL                                                     10160053
                                    838 &II      SETA  0                                                        10170053
                                    839 .LOOP    ANOP                                                           10180053
                                    840 &II      SETA  &II+1                                                    10190053
                                    841          AIF (&II GT &CSECTNO).NOTF                                     10200053
                                    842          AIF ('&SYSECT' EQ '&CSECTTB(&II)').FOUND                       10210053
                                    843          AGO  .LOOP                                                     10220053
                                    844 .FOUND   ANOP                                                           10230053
                                    845 &CSECTSW SETB  0                                                        10240053
                                    846          AGO   .COM1                                                    10250053
                                    847 .NOTF    ANOP                                                           10260053
                                    848 &CSECTSW SETB  1                                                        10270053
                                    849 &CSECTNO SETA  &CSECTNO+1                                               10280053
                                    850 &CSECTTB(&CSECTNO) SETC '&SYSECT'                                       10290053
                                    851 .COM1    ANOP                                                           10300053
                                    852 &CSECTNM SETC '&SYSECT'                                                 10310053
                                    853 .*                                                                      10320053
                                    854 .*                                                                      10330053
                                    855 &YSCTNA SETC  '@'.'&SYSECT'(1,7)   UNIQUE NAME PRINTCONTROLCSECT        10340053
                                    856          STM   R14,R12,12(R13)     BY SA=CURRENT SPECIFICATION          10350053
                                    857          L R15,=V(&LNKCSCT)        INTERFACE MODULE                     10360053
                                    858          CNOP  2,4                                                      10370053
                                    859          BALR  R14,R15             REMOTE PARM FROM R14+4               10380053
                                    860          B     *+8                                                      10390053
                                    861          DC    A(#@#U&SYSNDX)      REMOTE PARM                          10400053
                                    862          LM    R14,R12,12(R13)     RESTORE REG                          10410053
                                    863 .*********************************************************************  10420053
                                    864 &YSCTNA CSECT                          CONTROLSECT PRINT                10430053
                                    865          AIF (NOT &CSECTSW).NONAME                                      10440053
                                    866          DC  CL8'&CSECTNM'                                              10450053
                                    867          DC  CL8'&SYSDATE'                                              10460053
                                    868          DC  CL6'&SYSTIME'                                              10470053
                                    869 .NONAME  ANOP                                                           10480053
                                    870 .*SETUP OPTION                                                          10490053
                                    871 &NN      SETA  1                                                        10500053
                                    872 &OPT     SETA 0                                                         10510053
                                    873 &OPT2    SETA 0                                                         10520053
                                    874 &WKOPTC  SETC 'OPT='                                                    10530053
                                    875          AIF ('&TEXT' EQ '').NOTXT3                                     10540053
                                    876          AIF ('&TEXT'(1,1) NE '''').NOTXT3                              10550053
                                    877 &OPT     SETA &OPT+1                   TEXT EXIST OPTION                10560053
                                    878 &WKOPTC  SETC '&WKOPTC'.'TEXT '                                         10570053
                                    879 .NOTXT3  ANOP                                                           10580053XE4S001Z *** XE4S001Z *** DISPLAY/UPDATE SPF INFO ***                                                          PAGE   18


  LOC  OBJECT CODE    ADDR1 ADDR2  STMT   SOURCE STATEMENT                                       ASM 0201 10.53 06/08/08

                                    880          AIF ('&REG' EQ 'NO').NOREG3                                    10590053
                                    881 &OPT     SETA &OPT+2                   REG TRACE  OPTION                10600053
                                    882 &WKOPTC  SETC '&WKOPTC'.'REG=YES '                                      10610053
                                    883 .NOREG3  ANOP                                                           10620053
                                    884          AIF ('&DDNAME' EQ '').NODDN3                                   10630053
                                    885 &NN      SETA &NN+1                   DDNAME     OPTION                 10640053
                                    886 &OPT     SETA &OPT+4                   DDNAME     OPTION                10650053
                                    887 &WKOPTC  SETC '&WKOPTC'.'DDNAME '                                       10660053
                                    888          AIF ('&DDNAME'(1,1) NE '''').NODDN3                            10670053
                                    889 &OPT     SETA &OPT+8                   LITERAL DDNAME OPTION            10680053
                                    890 &WKOPTC  SETC '&WKOPTC'.'CONST DDN '                                    10690053
                                    891 .NODDN3  ANOP                                                           10700053
                                    892 .*                                                                      10710053
                                    893 #@#U&SYSNDX DS 0F                       REFERENCED BY ADDRESS INLINE    10720053
                                    894 &WKOPTC  SETC 'AL1(&OPT) &WKOPTC'                                       10730053
                                    895          DC    A(&YSCTNA)                CSECT TOP                      10740053
                                    896          DC    AL2(&SEQNO)              SEQ NUMBER ULSNAP               10750053
                                    897          DC    &WKOPTC                                                  10760053
                                    898          DC    AL1(&OPT2+&BASEREG)                                      10770053
                                    899          AIF ('&DDNAME' EQ '').NODDN4                                   10780053
                                    900          AIF ('&DDNAME'(1,1) EQ '''').DDNCONS                           10790053
                                    901          AIF ('&DDNAME'(1,1) EQ '(').DDNREG                             10800053
                                    902          DC   SL2(&DDNAME)         DDNAME PTR                           10810053
                                    903          AGO .NODDN4                                                    10820053
                                    904 .DDNREG  ANOP                                                           10830053
                                    905          DC    AL2(16*256*&DDNAME(1)) REGISTER NOTATION DDNAME          10840053
                                    906          AGO .NODDN4                                                    10850053
                                    907 .DDNCONS ANOP                                                           10860053
                                    908          DC  CL8&DDNAME            DDNAME CONSTANT                      10870053
                                    909 .NODDN4  ANOP                                                           10880053
                                    910 .*                                 WORK ON TEXT                         10890053
                                    911 &I       SETA  1                        TO TEST FOR TEXT                10900053
                                    912          AIF   ('&SYSLIST(&I)' EQ '').BLANKT BRANCH NO POSITIONAL PREST 10910053
                                    913          AIF   ('&SYSLIST(&I)'(1,1) NE '''').BLANKT BRCH NO QUOTES      10920053
                                    914 .*                                 TEXT IS PRESENT                      10930053
                                    915 &TLABEL  SETC 'SNP&SYSNDX.T'                                            10940053
                                    916 .*                                 TEXT IS PRESENT                      10950053
                                    917          DC    AL2(L'&TLABEL)                                           10960053
                                    918 &TLABEL  DC    C&TEXT                   TEXT/FIRST OPERAND/USNAP        10970053
                                    919 .BLANKT  ANOP                           ENTRY POINT NO TEXT             10980053
                                    920 .*                                 WORK ON ADDRESSES                    10990053
                                    921 &I       SETA  &PERLIST                 RESTORE START ADDRESS           11000053
                                    922 .LOOPGEN ANOP                      GENERATE LIST/LOOP/FIELD             11010053
                                    923          AIF   ('&SYSLIST(&I)' EQ '').NOTPR BRANCH FIELD NOT PRESENT    11020053
                                    924 .*                                 FIELD PRESENT TEST IF LENGTH PRESENT 11030053
                                    925          AIF ('&SYSLIST(&I,2)' EQ '').NOLEN BRANCH NO LEN PARA          11040053
                                    926 .*                                 LENGTH IS STATED IN OPERAND          11050053
                                    927 .*                                 TEST IF LENGTH IN REG NOTATION       11060053
                                    928          AIF   ('&SYSLIST(&I,2)'(1,1) EQ '(').REGNOT1                   11070053
                                    929 .*                                 LENGTH NOT IN REGISTER NOTATION      11080053
                                    930          DC    AL2(&SYSLIST(&I,2))      LENGTH/FIELD/AS PER OPERAND     11090053
                                    931          AGO   .TOLEN                                                   11100053
                                    932 .*                                 LENGTH IS IN REGISTER NOTATION       11110053
                                    933 .REGNOT1 ANOP                                                           11120053
                                    934          DC    XL1'80'                  LENGTH IS IN REG NOTATION       11130053XE4S001Z *** XE4S001Z *** DISPLAY/UPDATE SPF INFO ***                                                          PAGE   19


  LOC  OBJECT CODE    ADDR1 ADDR2  STMT   SOURCE STATEMENT                                       ASM 0201 10.53 06/08/08

                                    935          DC    AL1(&SYSLIST(&I,2))      LENGTH/REGISTER NOTATION        11140053
                                    936          AGO   .TOLEN                                                   11150053
                                    937 .*                                 LENGTH IS NOT SPECIFIED/USE IMPLIED  11160053
                                    938 .NOLEN   ANOP                                                           11170053
                                    939 .*                                 WORK ON IMPLIED LENGTH               11180053
                                    940 .*                                 TEST IF FIELD IN REG NOTATION        11190053
                                    941 .*                                 REG HAS NO IMPLIED LENGTH            11200053
                                    942          AIF   ('&SYSLIST(&I,1)'(1,1) EQ '(').REGNOT3                   11210053
                                    943 .*       AIF   ('&SYSLIST(&I)'(1,1) EQ '(').REGNOT3 ALSO PERMITTED      11220053
                                    944 .*       MNOTE '&SYSLIST(&I)'                                           11230053
                                    945 .*                                 NO LENGTH SPECIFIED/FIELD NOT PRESEN 11240053
                                    946 .*                                 CONSTRUCT PROPER STRING              11250053
                                    947 &STRING  SETC  'L''&SYSLIST(&I,1)'      CONSTRUCT L/STRING              11260053
                                    948          DC    AL2(&STRING)             LENGTH/FIELD/IMPLIED            11270053
                                    949 .*                                 LENGTH SPECIFIED/FIELD REG OR NOT    11280053
                                    950 .TOLEN   ANOP                                                           11290053
                                    951 .*                                      TEST FOR REGISTER NOTATION/FIEL 11300053
                                    952 .*                                 IF LENGTH IS SPECIFIED DOUBLE PAR    11310053
                                    953 .*                                 ARE REQ FOR REG NOTATION FIELD       11320053
                                    954          AIF   ('&SYSLIST(&I,1)'(1,1) EQ '(').REGNOT2 IF LENGTH/DOUBLE  11330053
                                    955 .*                                 FIELD NOT REGISTER NOTATION          11340053
                                    956          DC    SL2(&SYSLIST(&I,1))      ADDRESS/FIELD                   11350053
                                    957          DC    CL8'&SYSLIST(&I,1)'      NAME/FIELD                      11360053
                                    958 &I       SETA  &I+1                     NEXT FIELD TO BE TESTED/INDEX   11370053
                                    959          AGO   .LOOPGEN                 PROCESS IN LOOP                 11380053
                                    960 .*                                 ADDRESS IN REGNOTATION/NO LENGTH SPE 11390053
                                    961 .REGNOT3 ANOP                                                           11400053
                                    962          DC    AL2(100)                 LENGTH/DEFAULT/FIELD IN REGNOTA 11410053
                                    963 .*                                 ADDRESS IS IN REG NOTATION           11420053
                                    964 .*                                 ENTRY POINT LEN SPEC/FIELD REG NOTA  11430053
                                    965 .REGNOT2 ANOP                                                           11440053
                                    966          DC    AL2(16*256*&SYSLIST(&I,1)) REGISTER NOTATION/FIELD       11450053
                                    967          DC    CL8'&SYSLIST(&I,1)'      NAME/FIELD                      11460053
                                    968 &I       SETA  &I+1                     NEXT FIELD                      11470053
                                    969          AGO   .LOOPGEN                                                 11480053
                                    970 .*                                 ALL FIELDS/PARAMRTR PROCESSED        11490053
                                    971 .NOTPR   ANOP                                                           11500053
                                    972          DC    X'FF'                    END PARAMETER LIST/ULSNAP MACRO 11510053
                                    973 &SYSECT  CSECT                          RESUME PROGRAM CSECT            11520053
                                    974 **********                       END MACRO ULSNAP  ******************** 11530053
                                    975          MEND  ULSNAP                                                   11540053
                                    976          MACRO                                                          11560053
                                    977 &NAME    UERREXIT &MSG                                                  11570034
                                    978          LA R0,&MSG                                                     11580034
                                    979          BAL R14,ERRMSG                                                 11590034
                                    980          MEND  UERREXIT                                                 11600034
                                    981 *********************************************************************** 11620004
                                    982          GBLSET                 FOR INLINE MACRO                        11630004
                                    983          REGISTER               REG EQU                                 11640004
                            00000   984+R0       EQU   0                          , GENERAL PURPOSE REGISTER 0
                            00001   985+R1       EQU   1                          , GENERAL PURPOSE REGISTER 1
                            00002   986+R2       EQU   2                          , GENERAL PURPOSE REGISTER 2
                            00003   987+R3       EQU   3                          , GENERAL PURPOSE REGISTER 3
                            00004   988+R4       EQU   4                          , GENERAL PURPOSE REGISTER 4
                            00005   989+R5       EQU   5                          , GENERAL PURPOSE REGISTER 5XE4S001Z *** XE4S001Z *** DISPLAY/UPDATE SPF INFO ***                                                          PAGE   20


  LOC  OBJECT CODE    ADDR1 ADDR2  STMT   SOURCE STATEMENT                                       ASM 0201 10.53 06/08/08

                            00006   990+R6       EQU   6                          , GENERAL PURPOSE REGISTER 6
                            00007   991+R7       EQU   7                          , GENERAL PURPOSE REGISTER 7
                            00008   992+R8       EQU   8                          , GENERAL PURPOSE REGISTER 8
                            00009   993+R9       EQU   9                          , GENERAL PURPOSE REGISTER 9
                            0000A   994+R10      EQU   10                         , GENERAL PURPOSE REGISTER 10
                            0000B   995+R11      EQU   11                         , GENERAL PURPOSE REGISTER 11
                            0000C   996+R12      EQU   12                         , GENERAL PURPOSE REGISTER 12
                            0000D   997+R13      EQU   13                         , GENERAL PURPOSE REGISTER 13
                            0000E   998+R14      EQU   14                         , GENERAL PURPOSE REGISTER 14
                            0000F   999+R15      EQU   15                         , GENERAL PURPOSE REGISTER 15
                                   1000 *********************************************************************** 11650001
000000                             1001 XE4S001Z CSECT                                                          11660001
                                   1002          SAVE (14,12)                                                   11670001
000000                             1003+         DS    0H                                                       01650000
000000 90EC D00C      0000C        1004+         STM   14,12,12(13)                      SAVE REGISTERS         02950000
                            00000  1005          USING XE4S001Z,R12,R11,R10,R9                                  11680032
000004 18CF                        1006          LR R12,R15                                                     11690001
000006 4190 0FFF      00FFF        1007          LA R9,4095                                                     11700032
00000A 4199 0001      00001        1008          LA R9,1(R9)                                                    11710032
00000E 18BC                        1009          LR R11,R12                                                     11720032
000010 1AB9                        1010          AR R11,R9                                                      11730032
000012 18AB                        1011          LR R10,R11                                                     11740032
000014 1AA9                        1012          AR R10,R9                                                      11750032
000016 1A9A                        1013          AR R9,R10                                                      11760032
000018 50FD 0008      00008        1014          ST R15,8(R13)                                                  11770001
00001C 50DF 0004      00004        1015          ST R13,4(R15)                                                  11780001
000020 18DF                        1016          LR R13,R15                                                     11790001
                                   1017 *                                                                       11800001
                            00000  1018          USING PDS2,R3                                                  11810001
                            00000  1019          USING S99RB,R4                ESTABLISH ADDRSBLTY FOR RB       11820007
                                   1020 *                                                                       11830001
000022 1851                        1021          LR R5,R1                      PARMREG                          11840006
                                   1022 *                                                                       11850006
000024 D207 AF8C AB24 02F8C 02B24  1023          MVC DCBDDNAM-IHADCB+OUTDCB,BLANK                               11860012
00002A 45E0 A3E4      023E4        1024          BAL R14,GETTJID               GET TSO JOBID TO CHK UNDER TSO   11870000
00002E 45E0 BA8A      01A8A        1025          BAL R14,SOALLOC                                                11880012
000032 D207 AF8C BA82 02F8C 01A82  1026          MVC DCBDDNAM-IHADCB+OUTDCB,RETDDN                              11890012
                                   1027          OPEN (OUTDCB,(OUTPUT))        SYSOUT                           11900006
000038                             1028+         CNOP  0,4                               ALIGN LIST TO FULLWORD 01740001
000038 4510 C040      00040        1029+         BAL   1,*+8                             LOAD REG1 W/LIST ADDR. 01780000
00003C 8F                          1030+         DC    AL1(143)                          OPTION BYTE            01900000
00003D 002F64                      1031+         DC    AL3(OUTDCB)                       DCB ADDRESS            01920000
000040 0A13                        1032+         SVC   19                                ISSUE OPEN SVC         04000000
                                   1033          IF (TM,DCBOFLGS-IHADCB+OUTDCB,DCBOFOPN,NO)                     11910006
000042 9110 AF94      02F94        1034+         TM    DCBOFLGS-IHADCB+OUTDCB,DCBOFOPN
000046 4710 C058      00058        1035+         BC    15-14,##1                   BRANCH IF NOT TRUE
00004A D207 AD67 AF8C 02D67 02F8C  1036            MVC ERRMSG04(8),DCBDDNAM-IHADCB+OUTDCB                       11920006
                                   1037            UERREXIT ERRMSG04                                            11930034
000050 4100 AD67      02D67        1038+         LA R0,ERRMSG04                                                 11580034
000054 45E0 A410      02410        1039+         BAL R14,ERRMSG                                                 11590034
                                   1040          ENDIF                                                          11940006
000058                             1041+##1      DS    0H                          TARGET FOR ELSE BRANCH
                                   1042 *                                                                       11950006
000058 45E0 A46A      0246A        1043          BAL R14,PXMSESTS        ESTAE SET                              11960006
00005C 45E0 C808      00808        1044          BAL R14,GETPARM         CHECK EXEC PARM                        11970030XE4S001Z *** XE4S001Z *** DISPLAY/UPDATE SPF INFO ***                                                          PAGE   21


  LOC  OBJECT CODE    ADDR1 ADDR2  STMT   SOURCE STATEMENT                                       ASM 0201 10.53 06/08/08

000060 D207 AE84 AB24 02E84 02B24  1045          MVC DCBDDNAM-IHADCB+PDSDCB,BLANK      NOT ALLOC ID             11980039
000066 D207 AEDC AB24 02EDC 02B24  1046          MVC DCBDDNAM-IHADCB+PDSDCB2,BLANK     NOT ALLOC ID             11990039
00006C D207 AF34 AB24 02F34 02B24  1047          MVC DCBDDNAM-IHADCB+PDSDCB3,BLANK     NOT ALLOC ID             12000039
000072 45E0 BA06      01A06        1048          BAL R14,DSALLOC                                                12010006
000076 D207 AE84 BA82 02E84 01A82  1049          MVC DCBDDNAM-IHADCB+PDSDCB,RETDDN                              12020006
00007C D207 AEDC BA82 02EDC 01A82  1050          MVC DCBDDNAM-IHADCB+PDSDCB2,RETDDN                             12030006
000082 D207 AF34 BA82 02F34 01A82  1051          MVC DCBDDNAM-IHADCB+PDSDCB3,RETDDN                             12040030
                                   1052 *CONFIRM PDS                                                            12050006
000088 45E0 B7C0      017C0        1053          BAL R14,DSINFO                                                 12060023
                                   1054          IF (CLI,WFUNCID,E,EQFSPFUP)  FUNCTION ID=UPDDATE         A#002 12070030
00008C 9501 C9E0      009E0        1055+         CLI   WFUNCID,EQFSPFUP
000090 4770 C09C      0009C        1056+         BC    15-8,##2                    BRANCH IF NOT TRUE
000094 45E0 C228      00228        1057            BAL R14,SPFUPDAT                                       A#002 12080030
000098 47F0 C15C      0015C        1058            B EXIT                                                 A#002 12090030
                                   1059          ENDIF                                                    A#002 12100030
00009C                             1060+##2      DS    0H                          TARGET FOR ELSE BRANCH
                                   1061 *DIRECTORY PROCESS                                                      12110006
                                   1062          OPEN (PDSDCB2,(INPUT))                                         12120001
00009C                             1063+         CNOP  0,4                               ALIGN LIST TO FULLWORD 01740001
00009C 4510 C0A4      000A4        1064+         BAL   1,*+8                             LOAD REG1 W/LIST ADDR. 01780000
0000A0 80                          1065+         DC    AL1(128)                          OPTION BYTE            01900000
0000A1 002EB4                      1066+         DC    AL3(PDSDCB2)                      DCB ADDRESS            01920000
0000A4 0A13                        1067+         SVC   19                                ISSUE OPEN SVC         04000000
                                   1068          IF (TM,DCBOFLGS-IHADCB+PDSDCB2,DCBOFOPN,NO)                    12130004
0000A6 9110 AEE4      02EE4        1069+         TM    DCBOFLGS-IHADCB+PDSDCB2,DCBOFOPN
0000AA 4710 C0BC      000BC        1070+         BC    15-14,##3                   BRANCH IF NOT TRUE
0000AE D207 ACCA AEDC 02CCA 02EDC  1071            MVC ERRMSG02+3(8),DCBDDNAM-IHADCB+PDSDCB2                    12140004
0000B4 4100 ACC7      02CC7        1072            LA R0,ERRMSG02                                               12150004
0000B8 45E0 A410      02410        1073            BAL R14,ERRMSG                                               12160004
                                   1074          ENDIF                                                          12170001
0000BC                             1075+##3      DS    0H                          TARGET FOR ELSE BRANCH
0000BC 45E0 BE90      01E90        1076          BAL R14,DISPHDR                                                12180027
                                   1077        IF (CLI,PARMMEMB,NE,C' ')    MEMBERNAME SPECIFIED      A#001     12190030
0000C0 9540 C9D8      009D8        1078+         CLI   PARMMEMB,C' '
0000C4 4780 C0DC      000DC        1079+         BC    15-7,##4                    BRANCH IF NOT TRUE
0000C8 4120 AEB4      02EB4        1080          LA R2,PDSDCB2                DCB ADDR:PARM TO BLDLMEMB         12200030
0000CC 45E0 B930      01930        1081          BAL R14,BLDLMEMB                                     A#001     12210030
0000D0 4130 B9C4      019C4        1082          LA R3,BLDLPENT               PDS2 BASE                         12220030
0000D4 45E0 BEB8      01EB8        1083          BAL R14,DISPMEMB                                     A#001     12230030
                                   1084        ELSE                                                             12240030
0000D8 47F0 C154      00154        1085+         B     ##5                         BRANCH TO ENDIF
0000DC                             1086+##4      DS    0H                          TARGET FOR BRANCH ON ELSE
                                   1087          DO INF                                                         12250001
0000DC                             1088+##6      DS    0H                         TARGET FOR DO-LOOP
0000DC D703 C0E8 C0E8 000E8 000E8  1089            XC DECB(4),DECB         * DECB CLEAR                         12260001
                                   1090            READ DECB,SF,PDSDCB2,DIRAREA,'S'                             12270001
0000E2 0700                        1091+         CNOP  0,4                                                      02179019
0000E4 4510 C0FC      000FC        1092+         BAL   1,*+24                   LOAD DECB ADDRESS               02187003
0000E8 00000000                    1093+DECB     DC    F'0'                              EVENT CONTROL BLOCK    02200000
0000EC 80                          1094+         DC    X'80'                             TYPE FIELD             02260000
0000ED 80                          1095+         DC    X'80'                             TYPE FIELD             00840000
0000EE 0000                        1096+         DC    AL2(0)                            LENGTH                 02480000
0000F0 00002EB4                    1097+         DC    A(PDSDCB2)                        DCB ADDRESS            02540000
0000F4 00002FCA                    1098+         DC    A(DIRAREA)                        AREA ADDRESS           02660000
0000F8 00000000                    1099+         DC    A(0)                              RECORD POINTER WORD    02720000XE4S001Z *** XE4S001Z *** DISPLAY/UPDATE SPF INFO ***                                                          PAGE   22


  LOC  OBJECT CODE    ADDR1 ADDR2  STMT   SOURCE STATEMENT                                       ASM 0201 10.53 06/08/08

0000FC 58F1 0008      00008        1100+         L     15,8(1,0)           LOAD DCB ADDRESS                     02091503
000100 58F0 F030      00030        1101+         L     15,48(0,15)                       LOAD RDWR ROUTINE ADDR 02097203
000104 05EF                        1102+         BALR  14,15                             LINK TO RDWR ROUTINE   02102903
                                   1103            CHECK DECB                                                   12280001
000106 4110 C0E8      000E8        1104+         LA    1,DECB                            LOAD PARAMETER REG 1   01900002
00010A 58E0 1008      00008        1105+         L     14,8(0,1)                PICK UP DCB ADDR                00700000
00010E 58F0 E034      00034        1106+         L     15,52(0,14)              LOAD CHECK ROUTINE ADDR         00750000
000112 05EF                        1107+         BALR  14,15                    LINK TO CHECK ROUTINE           00800000
000114 4850 AFCA      02FCA        1108            LH R5,DIRAREA       *LL                                      12290001
000118 4130 AFCC      02FCC        1109            LA R3,DIRAREA+2                                              12300001
00011C 4B50 AA80      02A80        1110            SH R5,=H'2'                                                  12310006
                                   1111            DO WHILE=(LTR,R5,R5,P)                                       12320001
000120                             1112+##8      DS    0H                         TARGET FOR DO-LOOP
000120 1255                        1113+         LTR   R5,R5
000122 47D0 C150      00150        1114+         BC    15-2,##9                    BRANCH IF NOT TRUE
000126                             1115+##10     DS    0H                        TARGET FOR BANCH ON NOT TRUE
                                   1116              IF (CLC,PDS2NAME,EQ,=8XL1'FF')    * END MEMBER             12330047
000126 D507 3000 AA28 00000 02A28  1117+         CLC   PDS2NAME,=8XL1'FF'
00012C 4770 C134      00134        1118+         BC    15-8,##11                   BRANCH IF NOT TRUE
000130 47F0 C154      00154        1119                B EOFDIR                                                 12340046
                                   1120              ENDIF                                                      12350046
000134                             1121+##11     DS    0H                          TARGET FOR ELSE BRANCH
000134 45E0 BEB8      01EB8        1122              BAL R14,DISPMEMB                                           12360004
000138 4340 300B      0000B        1123              IC R4,PDS2INDC                                             12370004
00013C 5440 AA68      02A68        1124              N R4,=A(PDS2LUSR)     USER AREA LENGTH MASK                12380004
000140 8940 0001      00001        1125              SLL R4,1            LEN IS HALFWORD COUNT                  12390004
000144 4144 000C      0000C        1126              LA R4,PDS2USRD-PDS2(R4)                                    12400004
000148 1A34                        1127              AR R3,R4                                                   12410001
00014A 1B54                        1128              SR R5,R4                                                   12420001
                                   1129            ENDDO                                                        12430001
00014C 47F0 C120      00120        1130+         B     ##8                         BRANCH BACK TO START OF LOOP
000150                             1131+##9      DS    0H                          TARGET TO LEAVE THE LOOP
                                   1132          ENDDO                                                          12440001
000150 47F0 C0DC      000DC        1133+         B     ##6                         BRANCH BACK TO START OF LOOP
000154                             1134+##7      DS    0H                          TARGET TO LEAVE THE LOOP
                            00154  1135 EOFDIR   EQU *                                                          12450001
                                   1136        ENDIF                                                            12460030
000154                             1137+##5      DS    0H                          TARGET FOR ENDIF BRANCH
000154 45E0 C16E      0016E        1138          BAL R14,PUTENDL                                                12470043
000158 41F0 0000      00000        1139          LA R15,0                                                       12480001
                            0015C  1140 EXIT     EQU *                                                          12490001
00015C 45E0 BACC      01ACC        1141          BAL R14,CLOSEFRE                                               12500000
000160 58DD 0004      00004        1142          L R13,4(R13)                                                   12510001
                                   1143          RETURN (14,12),RC=(15)                                         12520004
000164 58ED 000C      0000C        1144+         L     14,12(13,0)                       RESTORE REGISTER 14    01200000
000168 980C D014      00014        1145+         LM    0,12,20(13)                       RESTORE THE REGISTERS  01000000
00016C 07FE                        1146+         BR    14                                RETURN                 02000000
                                   1147 **********************************************************************  12530043
                                   1148 * PRINT END OF LIST                                         A#002       12540043
                                   1149 **********************************************************************  12550043
00016E                             1150 PUTENDL  DS 0H                                                          12560043
00016E 50E0 C1D4      001D4        1151          ST R14,SVR14EL                                                 12570043
                                   1152 *                                                                       12580043
000172 5820 A33C      0233C        1153          L R2,LINENO                                                    12590043
                                   1154          UI2Z (R2),HDR3+14,LEN=6                                        12600043XE4S001Z *** XE4S001Z *** DISPLAY/UPDATE SPF INFO ***                                                          PAGE   23


  LOC  OBJECT CODE    ADDR1 ADDR2  STMT   SOURCE STATEMENT                                       ASM 0201 10.53 06/08/08

000176                             1155+         DS 0H                                                          02870003
000176 90E0 D00C      0000C        1156+         STM R14,R0,12(R13)                                             02880003
00017A 1802                        1157+         LR R0,R2                     GET INT VALUE                     02950003
00017C 41E0 C1E6      001E6        1158+         LA R14,HDR3+14                 GET OUT ADDR VALUE              03000003
000180 41FD 002C      0002C        1159+         LA R15,44(R13)               PACK WORK                         03140003
000184 4E0F 0000      00000        1160+         CVD R0,0(R15)                                                  03150003
000188 F357 E000 F000 00000 00000  1161+         UNPK 0(6,R14),0(8,R15)          VALUE                          03170003
00018E 1200                        1162+         LTR R0,R0                                                      03180003
000190 4740 C198      00198        1163+         BM #0033#2                                          A#@@@@2    03200003
000194 96F0 E005      00005        1164+         OI 6-1(R14),X'F0'                                              03220003
                            00198  1165+#0033#2     EQU *                                             A#@@@@2   03250003
000198 98E0 D00C      0000C        1166+         LM  R14,R0,12(R13)                                             03270003
00019C 5820 A340      02340        1167          L R2,ALIASNO                                                   12610043
                                   1168          UI2Z (R2),HDR3+29,LEN=6                                        12620043
0001A0                             1169+         DS 0H                                                          02870003
0001A0 90E0 D00C      0000C        1170+         STM R14,R0,12(R13)                                             02880003
0001A4 1802                        1171+         LR R0,R2                     GET INT VALUE                     02950003
0001A6 41E0 C1F5      001F5        1172+         LA R14,HDR3+29                 GET OUT ADDR VALUE              03000003
0001AA 41FD 002C      0002C        1173+         LA R15,44(R13)               PACK WORK                         03140003
0001AE 4E0F 0000      00000        1174+         CVD R0,0(R15)                                                  03150003
0001B2 F357 E000 F000 00000 00000  1175+         UNPK 0(6,R14),0(8,R15)          VALUE                          03170003
0001B8 1200                        1176+         LTR R0,R0                                                      03180003
0001BA 4740 C1C2      001C2        1177+         BM #0034#2                                          A#@@@@2    03200003
0001BE 96F0 E005      00005        1178+         OI 6-1(R14),X'F0'                                              03220003
                            001C2  1179+#0034#2     EQU *                                             A#@@@@2   03250003
0001C2 98E0 D00C      0000C        1180+         LM  R14,R0,12(R13)                                             03270003
0001C6 4100 C1D8      001D8        1181          LA R0,HDR3                                                     12630043
0001CA 45E0 A410      02410        1182          BAL R14,ERRMSG                                                 12640043
                                   1183 *                                                                       12650043
0001CE 58E0 C37C      0037C        1184          L  R14,SVR14UP                                                 12660043
0001D2 07FE                        1185          BR R14                                                         12670043
                                   1186 ****************                                                        12680043
0001D4                             1187 SVR14EL  DS F                                                           12690043
0001D8 60C5D5C440D6C640            1188 HDR3     DC    CL80'-END OF LIST- XXXXXX MEMBER (XXXXXX ALIAS)'         12700043
                                   1189 **********************************************************************  12710030
                                   1190 * SPF INFO UPDATE                                           A#002       12720030
                                   1191 **********************************************************************  12730030
000228                             1192 SPFUPDAT DS 0H                                                          12740030
000228 50E0 C37C      0037C        1193          ST R14,SVR14UP                                                 12750030
                                   1194 *                                                                       12760030
                                   1195          IF (TM,SPFSW,EQUSPFF,NO)     RECFM=F,LRECL=80                  12770030
00022C 9101 AE57      02E57        1196+         TM    SPFSW,EQUSPFF
000230 4710 C23C      0023C        1197+         BC    15-14,##12                  BRANCH IF NOT TRUE
                                   1198            UERREXIT ERRMSG09                                            12780034
000234 4100 AE07      02E07        1199+         LA R0,ERRMSG09                                                 11580034
000238 45E0 A410      02410        1200+         BAL R14,ERRMSG                                                 11590034
                                   1201          ENDIF                                                          12790030
00023C                             1202+##12     DS    0H                          TARGET FOR ELSE BRANCH
                                   1203 *                                                                       12800030
00023C 4120 AF0C      02F0C        1204          LA R2,PDSDCB3                                                  12810030
                                   1205          OPEN ((R2),(UPDAT))                                            12820030
000240                             1206+         CNOP  0,4                               ALIGN LIST TO FULLWORD 01740001
000240 4510 C248      00248        1207+         BAL   1,*+8                             LOAD REG1 W/LIST ADDR. 01780000
000244 00000000                    1208+         DC    A(0)                              OPT BYTE AND DCB ADDR. 01860000
000248 5021 0000      00000        1209+         ST    R2,0(1,0)                         STORE INTO LIST        02140000XE4S001Z *** XE4S001Z *** DISPLAY/UPDATE SPF INFO ***                                                          PAGE   24


  LOC  OBJECT CODE    ADDR1 ADDR2  STMT   SOURCE STATEMENT                                       ASM 0201 10.53 06/08/08

00024C 9284 1000      00000        1210+         MVI   0(1),132                          MOVE IN OPTION BYTE    02220000
000250 0A13                        1211+         SVC   19                                ISSUE OPEN SVC         04000000
                                   1212          IF (TM,DCBOFLGS-IHADCB(R2),DCBOFOPN,NO)                        12830030
000252 9110 2030      00030        1213+         TM    DCBOFLGS-IHADCB(R2),DCBOFOPN
000256 4710 C268      00268        1214+         BC    15-14,##13                  BRANCH IF NOT TRUE
00025A D207 ACCA 2028 02CCA 00028  1215            MVC ERRMSG02+3(8),DCBDDNAM-IHADCB(R2)                        12840030
                                   1216            UERREXIT ERRMSG02                                            12850034
000260 4100 ACC7      02CC7        1217+         LA R0,ERRMSG02                                                 11580034
000264 45E0 A410      02410        1218+         BAL R14,ERRMSG                                                 11590034
                                   1219          ENDIF                                                          12860030
000268                             1220+##13     DS    0H                          TARGET FOR ELSE BRANCH
                                   1221          IF (CLI,PARMMEMB,E,C' ') //NO MEMBER PARM                      12870048
000268 9540 C9D8      009D8        1222+         CLI   PARMMEMB,C' '
00026C 4770 C278      00278        1223+         BC    15-8,##14                   BRANCH IF NOT TRUE
                                   1224            UERREXIT ERRMSGMM                                            12880048
000270 4100 C380      00380        1225+         LA R0,ERRMSGMM                                                 11580034
000274 45E0 A410      02410        1226+         BAL R14,ERRMSG                                                 11590034
                                   1227          ENDIF                                                          12890048
000278                             1228+##14     DS    0H                          TARGET FOR ELSE BRANCH
000278 4110 0008      00008        1229          LA R1,8                                                        12900000
                                   1230          UMEMCHR PARMMEMB,C'*',(R1)                               A#003 12910044
00027C                             1231+         DS 0H                                                          05500017
00027C 90F0 D010      00010        1232+         STM R15,R0,16(R13)                                             05510017
000280 4100 C9D8      009D8        1233+         LA R0,PARMMEMB                                                 05550045
000284 500D 001C      0001C        1234+         ST R0,28(R13)                SAVE OPERAND TO SAVEAREA  A#0000  05600017
000288 501D 0020      00020        1235+         ST R1,32(R13)                SAVE OPERAND TO SAVEAREA  A#0000  05630017
00028C 4100 005C      0005C        1236+         LA R0,C'*'                        GET OPD ADDR         A#0000  05660017
000290 58FD 001C      0001C        1237+         L R15,28(R13)           START ADDR                             06260017
000294 581D 0020      00020        1238+         L R1,32(R13)            LEN                                    06300017
000298 1A1F                        1239+         AR R1,R15                    END ADDR                          06410017
                            0029A  1240+#00497     EQU *                         RETRY LOOP            A#@@@@2  06430017
00029A 1701                        1241+         XR     R0,R1                                                   01040018
00029C 1710                        1242+         XR     R1,R0                                                   01050018
00029E 1701                        1243+         XR     R0,R1               EXCHANGE R0 AND &R1                 01060018
                            002A0  1244+#0050N      EQU *                                                       01070018
0002A0 4410 C2D0      002D0        1245+         EX     R1,#0050EX                                              01080018
0002A4 4780 C2B6      002B6        1246+         BE     #0050F              FOUND                               01090018
0002A8 41FF 0001      00001        1247+         LA     R15,1(R15)                                              01100018
0002AC 19F0                        1248+         CR     R15,R0                                                  01110018
0002AE 4720 C2C4      002C4        1249+         BH     #0050NF             NOT FOUND                           01120018
0002B2 47F0 C2A0      002A0        1250+         B      #0050N              CONTINUE SEARCH                     01130018
                            002B6  1251+#0050F      EQU *        FOUND                                          01140018
0002B6 1701                        1252+         XR     R0,R1                                                   01150018
0002B8 1710                        1253+         XR     R1,R0                                                   01160018
0002BA 1701                        1254+         XR     R0,R1               EXCHANGE R0 AND &R1                 01170018
0002BC 181F                        1255+         LR     R1,R15                                                  01180018
0002BE 1611                        1256+         OR     R1,R1               SET CC=1(NON ZERO)                  01190018
0002C0 47F0 C2D4      002D4        1257+         B #0050X                                                       01200018
                            002C4  1258+#0050NF     EQU *        NOT FOUND                                      01210018
0002C4 1701                        1259+         XR     R0,R1                                                   01220018
0002C6 1710                        1260+         XR     R1,R0                                                   01230018
0002C8 1701                        1261+         XR     R0,R1               EXCHANGE R0 AND &R1                 01240018
0002CA 19F1                        1262+         CR     R15,R1              &R2>&R1 CC=2(HIGH)                  01250018
0002CC 47F0 C2D4      002D4        1263+         B #0050X                                                       01260018
0002D0 9500 F000      00000        1264+#0050EX     CLI 0(R15),0                                                01270018XE4S001Z *** XE4S001Z *** DISPLAY/UPDATE SPF INFO ***                                                          PAGE   25


  LOC  OBJECT CODE    ADDR1 ADDR2  STMT   SOURCE STATEMENT                                       ASM 0201 10.53 06/08/08

                            002D4  1265+#0050X      EQU *                                                       01280018
0002D4 4740 C2E2      002E2        1266+         BC 4,#00495     CC=1,FOUND(R1:MATCH ADDR,R2:SAME       A#@@@@2 06470017
0002D8 4720 C2E0      002E0        1267+         BC 2,#00496              CC=2,NOT FOUND(R1,R2:SAME)    A#@@@@2 06500017
0002DC 47F0 C29A      0029A        1268+         B #00497     CC=3,RTRY BY NEW ADD(R1:SAME,R2:NEW)      A#@@@@2 06530017
                            002E0  1269+#00496     EQU *                        NOT FOUND              A#@@@@2  06550017
0002E0 1B11                        1270+         SR R1,R1                        NOT FOUND ID                   06560017
                            002E2  1271+#00495     EQU *                        FOUND                  A#@@@@2  06580017
                                   1272+** UMEMCHR_ * END *                                                     06590017
0002E2 98F0 D010      00010        1273+         LM  R15,R0,16(R13)                                             05700017
                                   1274  ULSNAP 'WILDC   '                                                      12920000

                                   1276+*                                 START MACRO ULSNAP ****************** 09800053
0002E6                             1277+         DS    0H                       ON HALFW BOUNDARY/JUST IN CASE  09820053
                                   1278+*                                       ULSNAP MACRO IGNORED/SYSPARM    10040053
                                   1279+*                                       NOSNAP HAS BEEN USED            10050053
                                   1280+*                                 END MACRO ULSNAP  ******************* 10060053
                                   1281          IF (LTR,R1,R1,Z)                                         A#003 12930044
0002E6 1211                        1282+         LTR   R1,R1
0002E8 4770 C35A      0035A        1283+         BC    15-8,##15                   BRANCH IF NOT TRUE
0002EC 4110 0008      00008        1284            LA R1,8                                                      12940000
                                   1285            UMEMCHR PARMMEMB,C'?',(R1)                             A#003 12950044
0002F0                             1286+         DS 0H                                                          05500017
0002F0 90F0 D010      00010        1287+         STM R15,R0,16(R13)                                             05510017
0002F4 4100 C9D8      009D8        1288+         LA R0,PARMMEMB                                                 05550045
0002F8 500D 001C      0001C        1289+         ST R0,28(R13)                SAVE OPERAND TO SAVEAREA  A#0000  05600017
0002FC 501D 0020      00020        1290+         ST R1,32(R13)                SAVE OPERAND TO SAVEAREA  A#0000  05630017
000300 4100 006F      0006F        1291+         LA R0,C'?'                        GET OPD ADDR         A#0000  05660017
000304 58FD 001C      0001C        1292+         L R15,28(R13)           START ADDR                             06260017
000308 581D 0020      00020        1293+         L R1,32(R13)            LEN                                    06300017
00030C 1A1F                        1294+         AR R1,R15                    END ADDR                          06410017
                            0030E  1295+#00557     EQU *                         RETRY LOOP            A#@@@@2  06430017
00030E 1701                        1296+         XR     R0,R1                                                   01040018
000310 1710                        1297+         XR     R1,R0                                                   01050018
000312 1701                        1298+         XR     R0,R1               EXCHANGE R0 AND &R1                 01060018
                            00314  1299+#0056N      EQU *                                                       01070018
000314 4410 C344      00344        1300+         EX     R1,#0056EX                                              01080018
000318 4780 C32A      0032A        1301+         BE     #0056F              FOUND                               01090018
00031C 41FF 0001      00001        1302+         LA     R15,1(R15)                                              01100018
000320 19F0                        1303+         CR     R15,R0                                                  01110018
000322 4720 C338      00338        1304+         BH     #0056NF             NOT FOUND                           01120018
000326 47F0 C314      00314        1305+         B      #0056N              CONTINUE SEARCH                     01130018
                            0032A  1306+#0056F      EQU *        FOUND                                          01140018
00032A 1701                        1307+         XR     R0,R1                                                   01150018
00032C 1710                        1308+         XR     R1,R0                                                   01160018
00032E 1701                        1309+         XR     R0,R1               EXCHANGE R0 AND &R1                 01170018
000330 181F                        1310+         LR     R1,R15                                                  01180018
000332 1611                        1311+         OR     R1,R1               SET CC=1(NON ZERO)                  01190018
000334 47F0 C348      00348        1312+         B #0056X                                                       01200018
                            00338  1313+#0056NF     EQU *        NOT FOUND                                      01210018
000338 1701                        1314+         XR     R0,R1                                                   01220018
00033A 1710                        1315+         XR     R1,R0                                                   01230018
00033C 1701                        1316+         XR     R0,R1               EXCHANGE R0 AND &R1                 01240018
00033E 19F1                        1317+         CR     R15,R1              &R2>&R1 CC=2(HIGH)                  01250018
000340 47F0 C348      00348        1318+         B #0056X                                                       01260018
000344 9500 F000      00000        1319+#0056EX     CLI 0(R15),0                                                01270018XE4S001Z *** XE4S001Z *** DISPLAY/UPDATE SPF INFO ***                                                          PAGE   26


  LOC  OBJECT CODE    ADDR1 ADDR2  STMT   SOURCE STATEMENT                                       ASM 0201 10.53 06/08/08

                            00348  1320+#0056X      EQU *                                                       01280018
000348 4740 C356      00356        1321+         BC 4,#00555     CC=1,FOUND(R1:MATCH ADDR,R2:SAME       A#@@@@2 06470017
00034C 4720 C354      00354        1322+         BC 2,#00556              CC=2,NOT FOUND(R1,R2:SAME)    A#@@@@2 06500017
000350 47F0 C30E      0030E        1323+         B #00557     CC=3,RTRY BY NEW ADD(R1:SAME,R2:NEW)      A#@@@@2 06530017
                            00354  1324+#00556     EQU *                        NOT FOUND              A#@@@@2  06550017
000354 1B11                        1325+         SR R1,R1                        NOT FOUND ID                   06560017
                            00356  1326+#00555     EQU *                        FOUND                  A#@@@@2  06580017
                                   1327+** UMEMCHR_ * END *                                                     06590017
000356 98F0 D010      00010        1328+         LM  R15,R0,16(R13)                                             05700017
                                   1329          ENDIF                                                    A#003 12960044
00035A                             1330+##15     DS    0H                          TARGET FOR ELSE BRANCH
                                   1331  ULSNAP 'WILDC   '                                                      12970000

                                   1333+*                                 START MACRO ULSNAP ****************** 09800053
00035A                             1334+         DS    0H                       ON HALFW BOUNDARY/JUST IN CASE  09820053
                                   1335+*                                       ULSNAP MACRO IGNORED/SYSPARM    10040053
                                   1336+*                                       NOSNAP HAS BEEN USED            10050053
                                   1337+*                                 END MACRO ULSNAP  ******************* 10060053
                                   1338          IF (LTR,R1,R1,NZ)  WILDCARD                              A#003 12980045
00035A 1211                        1339+         LTR   R1,R1
00035C 4780 C368      00368        1340+         BC    15-7,##16                   BRANCH IF NOT TRUE
000360 45E0 C3D0      003D0        1341            BAL R14,SPFUPDT2                                       A#003 12990045
                                   1342          ELSE                                                           13000046
000364 47F0 C370      00370        1343+         B     ##17                        BRANCH TO ENDIF
000368                             1344+##16     DS    0H                          TARGET FOR BRANCH ON ELSE
000368 45E0 BE90      01E90        1345            BAL R14,DISPHDR                                              13010040
00036C 45E0 C654      00654        1346            BAL R14,SPFUPDTM                                             13020044
                                   1347          ENDIF                                                    A#003 13030000
000370                             1348+##17     DS    0H                          TARGET FOR ENDIF BRANCH
                                   1349 *                                                                       13040044
000370 45E0 C16E      0016E        1350          BAL R14,PUTENDL                                                13050000
000374 58E0 C37C      0037C        1351          L  R14,SVR14UP                                                 13060031
000378 07FE                        1352          BR R14                                                         13070031
                                   1353 ****************                                                        13080031
00037C                             1354 SVR14UP  DS F                                                           13090031
000380 405C40D4C5D4C2C5            1355 ERRMSGMM DC CL80' * MEMBER NAME REQUIRED(USE * TO APPLY TO WHOLE D/S'   13100050
                                   1356 **********************************************************************  13110044
                                   1357 * SPF INFO UPDATE FOR MEMBERS                               A#003       13120044
                                   1358 **********************************************************************  13130044
0003D0                             1359 SPFUPDT2 DS 0H                                                          13140044
0003D0 50E0 C550      00550        1360          ST R14,SVR14UP2                                                13150044
                                   1361 *                                                                       13160044
0003D4 D207 C554 C9D8 00554 009D8  1362          MVC WILDMEMB,PARMMEMB                                          13170046
0003DA 4100 C4EC      004EC        1363          LA R0,EOFDIR2                                                  13180046
0003DE BE07 AED5      02ED5        1364          STCM R0,B'0111',DCBEODA-IHADCB+PDSDCB2                         13190046
                                   1365          OPEN (PDSDCB2,(INPUT))                                         13200046
0003E2 0700                        1366+         CNOP  0,4                               ALIGN LIST TO FULLWORD 01740001
0003E4 4510 C3EC      003EC        1367+         BAL   1,*+8                             LOAD REG1 W/LIST ADDR. 01780000
0003E8 80                          1368+         DC    AL1(128)                          OPTION BYTE            01900000
0003E9 002EB4                      1369+         DC    AL3(PDSDCB2)                      DCB ADDRESS            01920000
0003EC 0A13                        1370+         SVC   19                                ISSUE OPEN SVC         04000000
                                   1371          IF (TM,DCBOFLGS-IHADCB+PDSDCB2,DCBOFOPN,NO)                    13210046
0003EE 9110 AEE4      02EE4        1372+         TM    DCBOFLGS-IHADCB+PDSDCB2,DCBOFOPN
0003F2 4710 C404      00404        1373+         BC    15-14,##18                  BRANCH IF NOT TRUE
0003F6 D207 ACCA AEDC 02CCA 02EDC  1374            MVC ERRMSG02+3(8),DCBDDNAM-IHADCB+PDSDCB2                    13220046XE4S001Z *** XE4S001Z *** DISPLAY/UPDATE SPF INFO ***                                                          PAGE   27


  LOC  OBJECT CODE    ADDR1 ADDR2  STMT   SOURCE STATEMENT                                       ASM 0201 10.53 06/08/08

0003FC 4100 ACC7      02CC7        1375            LA R0,ERRMSG02                                               13230046
000400 45E0 A410      02410        1376            BAL R14,ERRMSG                                               13240046
                                   1377          ENDIF                                                          13250046
000404                             1378+##18     DS    0H                          TARGET FOR ELSE BRANCH
                                   1379 *GET MEMBERNAME(DUP MEMBER READ IF REPEAT REAN/UPDATE)                  13260000
                                   1380          DO INF                                                         13270044
000404                             1381+##19     DS    0H                         TARGET FOR DO-LOOP
000404 D703 C410 C410 00410 00410  1382            XC DECB2(4),DECB2         * DECB CLEAR                       13280044
                                   1383            READ DECB2,SF,PDSDCB2,DIRAREA,'S'                            13290046
00040A 0700                        1384+         CNOP  0,4                                                      02179019
00040C 4510 C424      00424        1385+         BAL   1,*+24                   LOAD DECB ADDRESS               02187003
000410 00000000                    1386+DECB2    DC    F'0'                              EVENT CONTROL BLOCK    02200000
000414 80                          1387+         DC    X'80'                             TYPE FIELD             02260000
000415 80                          1388+         DC    X'80'                             TYPE FIELD             00840000
000416 0000                        1389+         DC    AL2(0)                            LENGTH                 02480000
000418 00002EB4                    1390+         DC    A(PDSDCB2)                        DCB ADDRESS            02540000
00041C 00002FCA                    1391+         DC    A(DIRAREA)                        AREA ADDRESS           02660000
000420 00000000                    1392+         DC    A(0)                              RECORD POINTER WORD    02720000
000424 58F1 0008      00008        1393+         L     15,8(1,0)           LOAD DCB ADDRESS                     02091503
000428 58F0 F030      00030        1394+         L     15,48(0,15)                       LOAD RDWR ROUTINE ADDR 02097203
00042C 05EF                        1395+         BALR  14,15                             LINK TO RDWR ROUTINE   02102903
                                   1396            CHECK DECB2                                                  13300044
00042E 4110 C410      00410        1397+         LA    1,DECB2                           LOAD PARAMETER REG 1   01900002
000432 58E0 1008      00008        1398+         L     14,8(0,1)                PICK UP DCB ADDR                00700000
000436 58F0 E034      00034        1399+         L     15,52(0,14)              LOAD CHECK ROUTINE ADDR         00750000
00043A 05EF                        1400+         BALR  14,15                    LINK TO CHECK ROUTINE           00800000
                                   1401  ULSNAP 'DIR READ',(DIRAREA,256)                                        13310046

                                   1403+*                                 START MACRO ULSNAP ****************** 09800053
00043C                             1404+         DS    0H                       ON HALFW BOUNDARY/JUST IN CASE  09820053
                                   1405+*                                       ULSNAP MACRO IGNORED/SYSPARM    10040053
                                   1406+*                                       NOSNAP HAS BEEN USED            10050053
                                   1407+*                                 END MACRO ULSNAP  ******************* 10060053
00043C 4850 AFCA      02FCA        1408            LH R5,DIRAREA       *LL                                      13320044
000440 4130 AFCC      02FCC        1409            LA R3,DIRAREA+2                                              13330044
000444 4B50 AA80      02A80        1410            SH R5,=H'2'                                                  13340044
                                   1411            DO WHILE=(LTR,R5,R5,P)                                       13350044
000448                             1412+##21     DS    0H                         TARGET FOR DO-LOOP
000448 1255                        1413+         LTR   R5,R5
00044A 47D0 C4E8      004E8        1414+         BC    15-2,##22                   BRANCH IF NOT TRUE
00044E                             1415+##23     DS    0H                        TARGET FOR BANCH ON NOT TRUE
                                   1416              IF (CLC,PDS2NAME,EQ,=8XL1'FF')    * END MEMBER             13360044
00044E D507 3000 AA28 00000 02A28  1417+         CLC   PDS2NAME,=8XL1'FF'
000454 4770 C45C      0045C        1418+         BC    15-8,##24                   BRANCH IF NOT TRUE
000458 47F0 C4EC      004EC        1419                B EOFDIR2                                                13370046
                                   1420              ENDIF                                                      13380046
00045C                             1421+##24     DS    0H                          TARGET FOR ELSE BRANCH
                                   1422              IF (CLI,WILDMEMB,NE,C' ')                                  13390045
00045C 9540 C554      00554        1423+         CLI   WILDMEMB,C' '
000460 4780 C474      00474        1424+         BC    15-7,##25                   BRANCH IF NOT TRUE
000464 4110 3000      00000        1425                LA R1,PDS2NAME                                           13400000
000468 4120 C554      00554        1426                LA R2,WILDMEMB            WILDCARD                       13410000
00046C 45E0 C6E8      006E8        1427                BAL R14,WILDCHK                                          13420045
                                   1428              ELSE                                                       13430045
000470 47F0 C476      00476        1429+         B     ##26                        BRANCH TO ENDIFXE4S001Z *** XE4S001Z *** DISPLAY/UPDATE SPF INFO ***                                                          PAGE   28


  LOC  OBJECT CODE    ADDR1 ADDR2  STMT   SOURCE STATEMENT                                       ASM 0201 10.53 06/08/08

000474                             1430+##25     DS    0H                          TARGET FOR BRANCH ON ELSE
000474 1BFF                        1431                SR R15,R15                                               13440045
                                   1432              ENDIF                                                      13450045
000476                             1433+##26     DS    0H                          TARGET FOR ENDIF BRANCH
                                   1434              IF (LTR,R15,R15,Z)     //WILDCARD MATCH                    13460045
000476 12FF                        1435+         LTR   R15,R15
000478 4770 C4D0      004D0        1436+         BC    15-8,##27                   BRANCH IF NOT TRUE
00047C 4100 000C      0000C        1437                LA R0,12             PTR AND MEMBNAME                    13470046
                                   1438                GETMAIN RC,LV=(R0)                                       13480000
                                   1439+*      OS/VS2 RELEASE 4 VERSION -- 10/21/75                             00004804
000480                             1440+         CNOP  0,4                                                      00691802
000480 47F0 C488      00488        1441+         B     *+12-4*1-2*0                      BRANCH AROUND DATA     00691902
000484 00                          1442+IHB0084F DC    AL1(0)                            RESERVED               00704502
000485 00                          1443+         DC    AL1(0)                            RESERVED               00711902
000486 00                          1444+         DC    AL1(0)                            SUBPOOL                00727802
000487 00                          1445+         DC    BL1'00000000'                     MODE BYTE              00730402
000488 1800                        1446+         LR    0,R0                              LOAD LENGTH   @ZA07133 00726404
00048A 58F0 C484      00484        1447+         L     15,IHB0084F                       LOAD GETMAIN PARMS     00788502
00048E 1B11                        1448+         SR    1,1                               ZERO RESERVED REG 1    00814402
000490 0A78                        1449+         SVC   120                               ISSUE GETMAIN SVC      00820002
                                   1450                IF (LTR,R15,R15,NZ)                                      13490000
000492 12FF                        1451+         LTR   R15,R15
000494 4780 C4A0      004A0        1452+         BC    15-7,##28                   BRANCH IF NOT TRUE
                                   1453                  UERREXIT ERRMSG21                                      13500000
000498 4100 C564      00564        1454+         LA R0,ERRMSG21                                                 11580034
00049C 45E0 A410      02410        1455+         BAL R14,ERRMSG                                                 11590034
                                   1456                ENDIF                                                    13510000
0004A0                             1457+##28     DS    0H                          TARGET FOR ELSE BRANCH
0004A0 1821                        1458                LR R2,R1                                                 13520046
0004A2 5810 C55C      0055C        1459                L R1,MEMBLIST                                            13530046
                                   1460                IF (LTR,R1,R1,Z)     1ST MEMBER                          13540046
0004A6 1211                        1461+         LTR   R1,R1
0004A8 4770 C4B8      004B8        1462+         BC    15-8,##29                   BRANCH IF NOT TRUE
0004AC 5020 C55C      0055C        1463                  ST R2,MEMBLIST                                         13550046
0004B0 5020 C560      00560        1464                  ST R2,MEMBLSTE                                         13560046
                                   1465                ELSE                                                     13570046
0004B4 47F0 C4C4      004C4        1466+         B     ##30                        BRANCH TO ENDIF
0004B8                             1467+##29     DS    0H                          TARGET FOR BRANCH ON ELSE
0004B8 5810 C560      00560        1468                  L R1,MEMBLSTE      LAST ENTRY                          13580046
0004BC 5021 0000      00000        1469                  ST R2,0(R1)        CHAIN TO LAST                       13590046
0004C0 5020 C560      00560        1470                  ST R2,MEMBLSTE                                         13600046
                                   1471                ENDIF                                                    13610046
0004C4                             1472+##30     DS    0H                          TARGET FOR ENDIF BRANCH
0004C4 D703 2000 2000 00000 00000  1473                XC 0(4,R2),0(R2)     NEXT CHAIN                          13620046
0004CA D207 2004 3000 00004 00000  1474                MVC 4(8,R2),PDS2NAME                                     13630046
                                   1475              ENDIF                                                      13640045
0004D0                             1476+##27     DS    0H                          TARGET FOR ELSE BRANCH
0004D0 4340 300B      0000B        1477              IC R4,PDS2INDC                                             13650044
0004D4 5440 AA68      02A68        1478              N R4,=A(PDS2LUSR)     USER AREA LENGTH MASK                13660044
0004D8 8940 0001      00001        1479              SLL R4,1            LEN IS HALFWORD COUNT                  13670044
0004DC 4144 000C      0000C        1480              LA R4,PDS2USRD-PDS2(R4)                                    13680044
0004E0 1A34                        1481              AR R3,R4                                                   13690044
0004E2 1B54                        1482              SR R5,R4                                                   13700044
                                   1483            ENDDO                                                        13710044
0004E4 47F0 C448      00448        1484+         B     ##21                        BRANCH BACK TO START OF LOOPXE4S001Z *** XE4S001Z *** DISPLAY/UPDATE SPF INFO ***                                                          PAGE   29


  LOC  OBJECT CODE    ADDR1 ADDR2  STMT   SOURCE STATEMENT                                       ASM 0201 10.53 06/08/08

0004E8                             1485+##22     DS    0H                          TARGET TO LEAVE THE LOOP
                                   1486          ENDDO                                                          13720044
0004E8 47F0 C404      00404        1487+         B     ##19                        BRANCH BACK TO START OF LOOP
0004EC                             1488+##20     DS    0H                          TARGET TO LEAVE THE LOOP
                            004EC  1489 EOFDIR2  EQU *                                                          13730044
                                   1490 *                                                                       13740044
                                   1491          CLOSE (PDSDCB2)                                                13750046
0004EC                             1492+         CNOP  0,4                               ALIGN LIST TO FULLWORD 02420002
0004EC 4510 C4F4      004F4        1493+         BAL   1,*+8                             LOAD REG1 W/LIST ADDR  02460002
0004F0 80                          1494+         DC    AL1(128)                          OPTION BYTE            02580000
0004F1 002EB4                      1495+         DC    AL3(PDSDCB2)                      DCB ADDRESS            02600000
0004F4 0A14                        1496+         SVC   20                                ISSUE CLOSE SVC        01640000
0004F6 45E0 BE90      01E90        1497          BAL R14,DISPHDR                                                13760000
0004FA 5830 C55C      0055C        1498          L R3,MEMBLIST                                                  13770046
                                   1499          IF (LTR,R3,R3,Z)                                               13780046
0004FE 1233                        1500+         LTR   R3,R3
000500 4770 C50C      0050C        1501+         BC    15-8,##31                   BRANCH IF NOT TRUE
                                   1502             UERREXIT ERRMSG22                                           13790049
000504 4100 C5B4      005B4        1503+         LA R0,ERRMSG22                                                 11580034
000508 45E0 A410      02410        1504+         BAL R14,ERRMSG                                                 11590034
                                   1505          ENDIF                                                          13800046
00050C                             1506+##31     DS    0H                          TARGET FOR ELSE BRANCH
                                   1507          DO WHILE=(LTR,R3,R3,NZ)                                        13810000
00050C                             1508+##32     DS    0H                         TARGET FOR DO-LOOP
00050C 1233                        1509+         LTR   R3,R3
00050E 4780 C54A      0054A        1510+         BC    15-7,##33                   BRANCH IF NOT TRUE
000512                             1511+##34     DS    0H                        TARGET FOR BANCH ON NOT TRUE
000512 1B00                        1512            SR R0,R0                                                     13820000
000514 0600                        1513            BCTR R0,0                                                    13830000
000516 5000 B5AC      015AC        1514            ST R0,WLINENO                 RESET FOR EACH MEMBER          13840000
00051A 5000 B5B0      015B0        1515            ST R0,WMAXMM                                                 13850000
00051E D207 C9D8 3004 009D8 00004  1516            MVC PARMMEMB,4(R3)                                           13860046
000524 45E0 C654      00654        1517            BAL R14,SPFUPDTM                                             13870000
000528 1823                        1518            LR R2,R3                                                     13880049
00052A 5833 0000      00000        1519            L R3,0(R3)      NEXT MEMBER                                  13890046
00052E 4100 000C      0000C        1520            LA R0,12                                                     13900049
                                   1521            FREEMAIN  RU,A=(R2),LV=(R0)                                  13910049
                                   1522+*      OS/VS2 RELEASE 3 VERSION  -- 10/25/74                            00001603
000532 0700                        1523+         CNOP  0,4                                                      00228002
000534 47F0 C53C      0053C        1524+         B     *+12-4*1-2*0                      BRANCH AROUND DATA     00229602
000538 00                          1525+IHB0103F DC    AL1(0)                            RESERVED               00232702
000539 00                          1526+         DC    AL1(0)                            RESERVED               00240002
00053A 00                          1527+         DC    AL1(0)                            SUBPOOL NUMBER         00243202
00053B 03                          1528+         DC    BL1'00000011'                     MODE BYTE              00244002
00053C 1800                        1529+         LR    0,R0                              LOAD LENGTH            00248500
00053E 1812                        1530+         LR    1,R2                              LOAD AREA ADDRESS      00251000
000540 58F0 C538      00538        1531+         L     15,IHB0103F                       LOAD PARAMETERS        00253000
000544 0A78                        1532+         SVC   120                               ISSUE FREEMAIN SVC     00311202
                                   1533          ENDDO                                                          13920000
000546 47F0 C50C      0050C        1534+         B     ##32                        BRANCH BACK TO START OF LOOP
00054A                             1535+##33     DS    0H                          TARGET TO LEAVE THE LOOP
                                   1536 *                                                                       13930000
00054A 58E0 C550      00550        1537          L  R14,SVR14UP2                                                13940044
00054E 07FE                        1538          BR R14                                                         13950044
                                   1539 ****************                                                        13960044XE4S001Z *** XE4S001Z *** DISPLAY/UPDATE SPF INFO ***                                                          PAGE   30


  LOC  OBJECT CODE    ADDR1 ADDR2  STMT   SOURCE STATEMENT                                       ASM 0201 10.53 06/08/08

000550                             1540 SVR14UP2 DS F                                                           13970044
000554                             1541 WILDMEMB DS CL8                                                         13980046
00055C 00000000                    1542 MEMBLIST DC F'0'    TOP ENTRY                                           13990046
000560 00000000                    1543 MEMBLSTE DC F'0'    LAST ENTRY                                          14000046
000564 405C40C7C5E3D4C1            1544 ERRMSG21 DC CL80' * GETMAIN FOR PDS MEMBER FAILED'                      14010000
0005B4 405C40D5D640D4C5            1545 ERRMSG22 DC CL80' * NO MEMBER MATCH TO THE WILDCARD EXIST'              14020000
000604 405C40D5D640D4C5            1546 ERRMSG23 DC CL80' * NO MEMBER EXIST IN THE DATASET'                     14030000
                                   1547 **********************************************************************  14040044
                                   1548 * SPF INFO UPDATE FOR MEMBER OF MEMBERS                     A#003       14050044
                                   1549 **********************************************************************  14060044
000654                             1550 SPFUPDTM DS 0H                                                          14070044
000654 900F C6A8      006A8        1551          STM R0,R15,SVRUPM                                              14080044
                                   1552 *                                                                       14090044
000658 4120 AF0C      02F0C        1553          LA R2,PDSDCB3                                                  14100046
00065C 4130 B9C4      019C4        1554          LA R3,BLDLPENT               PDS2 BASE                         14110000
000660 45E0 B930      01930        1555          BAL R14,BLDLMEMB             R2:PARM DCB ADDR        A#001     14120046
000664 45E0 BEB8      01EB8        1556          BAL R14,DISPMEMB                                     A#001     14130044
                                   1557          ULSNAP 'BEFORE UPDATE',(PDS2NAME,DIRESZ)                       14140044

                                   1559+*                                 START MACRO ULSNAP ****************** 09800053
000668                             1560+         DS    0H                       ON HALFW BOUNDARY/JUST IN CASE  09820053
                                   1561+*                                       ULSNAP MACRO IGNORED/SYSPARM    10040053
                                   1562+*                                       NOSNAP HAS BEEN USED            10050053
                                   1563+*                                 END MACRO ULSNAP  ******************* 10060053
                                   1564          IF (TM,SPFSW,EQUOTHER,NO)     NOT SPF AND NOT NULL INFO        14150044
000668 9108 AE57      02E57        1565+         TM    SPFSW,EQUOTHER
00066C 4710 C692      00692        1566+         BC    15-14,##35                  BRANCH IF NOT TRUE
                                   1567            IF (TM,SPFSW,EQUSPFI,NO)    NO SPF INFO                      14160044
000670 9102 AE57      02E57        1568+         TM    SPFSW,EQUSPFI
000674 4710 C682      00682        1569+         BC    15-14,##36                  BRANCH IF NOT TRUE
000678 D71D 300C 300C 0000C 0000C  1570               XC PDS2USRD(SPFISZ),PDS2USRD                              14170044
00067E 920F 300B      0000B        1571               MVI PDS2INDC,PDS2SPFI SPF INFO DATALEN=0F(30 BYTE)        14180044
                                   1572            ENDIF                                                        14190044
000682                             1573+##36     DS    0H                          TARGET FOR ELSE BRANCH
000682 45E0 C9E2      009E2        1574            BAL R14,GETSPFPM                                             14200000
                                   1575            ULSNAP 'STOW DATA',(PDS2NAME,DIRESZ)                         14210044

                                   1577+*                                 START MACRO ULSNAP ****************** 09800053
000686                             1578+         DS    0H                       ON HALFW BOUNDARY/JUST IN CASE  09820053
                                   1579+*                                       ULSNAP MACRO IGNORED/SYSPARM    10040053
                                   1580+*                                       NOSNAP HAS BEEN USED            10050053
                                   1581+*                                 END MACRO ULSNAP  ******************* 10060053
                                   1582            STOW  PDSDCB3,PDS2NAME,R      REPLACE OPTION                 14220044
000686 4110 AF0C      02F0C        1583+         LA    1,PDSDCB3                         LOAD PARAMETER REG 1   01900002
00068A 4100 3000      00000        1584+         LA    0,PDS2NAME                        LOAD PARAMETER REG 0   02500002
00068E 1311                        1585+         LCR   1,1                               INDICATE TYPE R        00160000
000690 0A15                        1586+         SVC   21                                ISSUE STOW SVC         00270019
                                   1587            ULSNAP 'STOW REPLACE AFTER',(PDS2NAME,DIRESZ)                14230044

                                   1589+*                                 START MACRO ULSNAP ****************** 09800053
000692                             1590+         DS    0H                       ON HALFW BOUNDARY/JUST IN CASE  09820053
                                   1591+*                                       ULSNAP MACRO IGNORED/SYSPARM    10040053
                                   1592+*                                       NOSNAP HAS BEEN USED            10050053
                                   1593+*                                 END MACRO ULSNAP  ******************* 10060053
                                   1594          ENDIF                                                          14240000XE4S001Z *** XE4S001Z *** DISPLAY/UPDATE SPF INFO ***                                                          PAGE   31


  LOC  OBJECT CODE    ADDR1 ADDR2  STMT   SOURCE STATEMENT                                       ASM 0201 10.53 06/08/08

000692                             1595+##35     DS    0H                          TARGET FOR ELSE BRANCH
000692 4130 B9C4      019C4        1596          LA R3,BLDLPENT               PDS2 BASE                         14250044
000696 9201 A338      02338        1597          MVI DISPUPDT,1               PARM TO DISPMEMB                  14260046
00069A 45E0 BEB8      01EB8        1598          BAL R14,DISPMEMB                                     A#001     14270044
00069E 9200 A338      02338        1599          MVI DISPUPDT,0                                                 14280046
                                   1600 *                                                                       14290044
0006A2                             1601 SPFUPDME DS 0H                                                          14300044
0006A2 980F C6A8      006A8        1602          LM  R0,R15,SVRUPM                                              14310044
0006A6 07FE                        1603          BR R14                                                         14320044
                                   1604 ****************                                                        14330044
0006A8                             1605 SVRUPM   DS 16F                                                         14340044
                                   1606 **********************************************************************  14350000
                                   1607 * WILDCARD COMPARE R1:MEMBERNAME TO BE CHKED,R2:WILDCARD                14360045
                                   1608 **********************************************************************  14370000
0006E8                             1609 WILDCHK  DS 0H                                                          14380045
0006E8 90E3 C7EC      007EC        1610          STM R14,R3,SVRWC                                               14390045
                                   1611 *                                                                       14400045
                                   1612  ULSNAP 'WILDCHK',((R1),8),((R2),8)                                     14410046

                                   1614+*                                 START MACRO ULSNAP ****************** 09800053
0006EC                             1615+         DS    0H                       ON HALFW BOUNDARY/JUST IN CASE  09820053
                                   1616+*                                       ULSNAP MACRO IGNORED/SYSPARM    10040053
                                   1617+*                                       NOSNAP HAS BEEN USED            10050053
                                   1618+*                                 END MACRO ULSNAP  ******************* 10060053
0006EC 5830 C804      00804        1619          L R3,WILDLEN                                                   14420047
                                   1620          IF (LTR,R3,R3,Z)                                               14430047
0006F0 1233                        1621+         LTR   R3,R3
0006F2 4770 C718      00718        1622+         BC    15-8,##37                   BRANCH IF NOT TRUE
0006F6 18F2                        1623            LR R15,R2                                                    14440047
                                   1624            DO FROM=(R0,8)                                               14450047
0006F8 4100 0008      00008        1625+         LA    R0,8                       GET INITAL LOOP COUNT (DO)
0006FC                             1626+##38     DS    0H                         TARGET FOR DO-LOOP
                                   1627            DOEXIT (CLI,0(R15),E,C' ')                                   14460047
0006FC 9540 F000      00000        1628+         CLI   0(R15),C' '
000700 4770 C708      00708        1629+         BC    15-8,##40                   BRANCH IF NOT TRUE
000704 47F0 C714      00714        1630+         B     ##39                      LEAVE THE LOOP &DO
000708                             1631+##40     DS    0H                          TARGET FOR ELSE BRANCH
000708 4133 0001      00001        1632              LA R3,1(R3)                                                14470047
00070C 41FF 0001      00001        1633              LA R15,1(R15)                                              14480047
                                   1634            ENDDO                                                        14490047
000710 4600 C6FC      006FC        1635+         BCT   R0,##38                     BRANCH BACK TO START OF LOOP
000714                             1636+##39     DS    0H                          TARGET TO LEAVE THE LOOP
000714 5030 C804      00804        1637            ST R3,WILDLEN                                                14500047
                                   1638          ENDIF                                                          14510047
000718                             1639+##37     DS    0H                          TARGET FOR ELSE BRANCH
000718 18F1                        1640          LR R15,R1                                                      14520047
00071A 1BEE                        1641          SR R14,R14                                                     14530047
                                   1642          DO FROM=(R0,8)                                                 14540047
00071C 4100 0008      00008        1643+         LA    R0,8                       GET INITAL LOOP COUNT (DO)
000720                             1644+##41     DS    0H                         TARGET FOR DO-LOOP
                                   1645          DOEXIT (CLI,0(R15),E,C' ')                                     14550047
000720 9540 F000      00000        1646+         CLI   0(R15),C' '
000724 4770 C72C      0072C        1647+         BC    15-8,##43                   BRANCH IF NOT TRUE
000728 47F0 C738      00738        1648+         B     ##42                      LEAVE THE LOOP &DO
00072C                             1649+##43     DS    0H                          TARGET FOR ELSE BRANCHXE4S001Z *** XE4S001Z *** DISPLAY/UPDATE SPF INFO ***                                                          PAGE   32


  LOC  OBJECT CODE    ADDR1 ADDR2  STMT   SOURCE STATEMENT                                       ASM 0201 10.53 06/08/08

00072C 41EE 0001      00001        1650            LA R14,1(R14)                                                14560047
000730 41FF 0001      00001        1651            LA R15,1(R15)                                                14570047
                                   1652          ENDDO                                                          14580047
000734 4600 C720      00720        1653+         BCT   R0,##41                     BRANCH BACK TO START OF LOOP
000738                             1654+##42     DS    0H                          TARGET TO LEAVE THE LOOP
000738 180E                        1655          LR R0,R14                 MEMBNAME LEN                         14590047
                                   1656 *                                                                       14600047
00073A 1BFF                        1657          SR R15,R15                RC                                   14610045
                                   1658          DO WHILE=(LTR,R3,R3,P)                                         14620045
00073C                             1659+##44     DS    0H                         TARGET FOR DO-LOOP
00073C 1233                        1660+         LTR   R3,R3
00073E 47D0 C7E0      007E0        1661+         BC    15-2,##45                   BRANCH IF NOT TRUE
000742                             1662+##46     DS    0H                        TARGET FOR BANCH ON NOT TRUE
                                   1663            IF (CLI,0(R2),E,C'*')                                        14630045
000742 955C 2000      00000        1664+         CLI   0(R2),C'*'
000746 4770 C7A8      007A8        1665+         BC    15-8,##47                   BRANCH IF NOT TRUE
                                   1666              DO WHILE=(LTR,R3,R3,P)                                     14640045
00074A                             1667+##48     DS    0H                         TARGET FOR DO-LOOP
00074A 1233                        1668+         LTR   R3,R3
00074C 47D0 C76E      0076E        1669+         BC    15-2,##49                   BRANCH IF NOT TRUE
000750                             1670+##50     DS    0H                        TARGET FOR BANCH ON NOT TRUE
                                   1671              DOEXIT (CLI,0(R2),NE,C'*'),AND,(CLI,0(R2),NE,C'?')         14650045
000750 955C 2000      00000        1672+         CLI   0(R2),C'*'
000754 4780 C764      00764        1673+         BC    15-7,##51                   BRANCH IF NOT TRUE
000758 956F 2000      00000        1674+         CLI   0(R2),C'?'
00075C 4780 C764      00764        1675+         BC    15-7,##51                   BRANCH IF NOT TRUE
000760                             1676+##52     DS    0H                        TARGET FOR BANCH ON NOT TRUE
000760 47F0 C76E      0076E        1677+         B     ##49                      LEAVE THE LOOP &DO
000764                             1678+##51     DS    0H                          TARGET FOR ELSE BRANCH
000764 4122 0001      00001        1679                LA R2,1(R2)                                              14660045
000768 0630                        1680                BCTR R3,0                                                14670045
                                   1681              ENDDO                                                      14680045
00076A 47F0 C74A      0074A        1682+         B     ##48                        BRANCH BACK TO START OF LOOP
00076E                             1683+##49     DS    0H                          TARGET TO LEAVE THE LOOP
                                   1684              IF (LTR,R3,R3,NP)          LAST *                          14690045
00076E 1233                        1685+         LTR   R3,R3
000770 4720 C778      00778        1686+         BC    15-13,##53                  BRANCH IF NOT TRUE
                                   1687   ULSNAP 'WILDCHK6',((R2),1),((R1),1)                                   14700047

                                   1689+*                                 START MACRO ULSNAP ****************** 09800053
000774                             1690+         DS    0H                       ON HALFW BOUNDARY/JUST IN CASE  09820053
                                   1691+*                                       ULSNAP MACRO IGNORED/SYSPARM    10040053
                                   1692+*                                       NOSNAP HAS BEEN USED            10050053
                                   1693+*                                 END MACRO ULSNAP  ******************* 10060053
000774 47F0 C7E2      007E2        1694                B WILDCHKE                                               14710045
                                   1695              ENDIF                                                      14720045
000778                             1696+##53     DS    0H                          TARGET FOR ELSE BRANCH
                                   1697              DO WHILE=(LTR,R0,R0,P)                                     14730045
000778                             1698+##54     DS    0H                         TARGET FOR DO-LOOP
000778 1200                        1699+         LTR   R0,R0
00077A 47D0 C796      00796        1700+         BC    15-2,##55                   BRANCH IF NOT TRUE
00077E                             1701+##56     DS    0H                        TARGET FOR BANCH ON NOT TRUE
                                   1702              DOEXIT (CLC,0(1,R2),EQ,0(R1))                              14740045
00077E D500 2000 1000 00000 00000  1703+         CLC   0(1,R2),0(R1)
000784 4770 C78C      0078C        1704+         BC    15-8,##57                   BRANCH IF NOT TRUEXE4S001Z *** XE4S001Z *** DISPLAY/UPDATE SPF INFO ***                                                          PAGE   33


  LOC  OBJECT CODE    ADDR1 ADDR2  STMT   SOURCE STATEMENT                                       ASM 0201 10.53 06/08/08

000788 47F0 C796      00796        1705+         B     ##55                      LEAVE THE LOOP &DO
00078C                             1706+##57     DS    0H                          TARGET FOR ELSE BRANCH
00078C 4111 0001      00001        1707                LA R1,1(R1)                                              14750045
000790 0600                        1708                BCTR R0,0                                                14760045
                                   1709              ENDDO                                                      14770045
000792 47F0 C778      00778        1710+         B     ##54                        BRANCH BACK TO START OF LOOP
000796                             1711+##55     DS    0H                          TARGET TO LEAVE THE LOOP
                                   1712              IF (LTR,R0,R0,NP)          NEXT CHAR OF '*' NOT FOUND      14780045
000796 1200                        1713+         LTR   R0,R0
000798 4720 C7A4      007A4        1714+         BC    15-13,##58                  BRANCH IF NOT TRUE
                                   1715   ULSNAP 'WILDCHK7',((R2),1),((R1),1)                                   14790047

                                   1717+*                                 START MACRO ULSNAP ****************** 09800053
00079C                             1718+         DS    0H                       ON HALFW BOUNDARY/JUST IN CASE  09820053
                                   1719+*                                       ULSNAP MACRO IGNORED/SYSPARM    10040053
                                   1720+*                                       NOSNAP HAS BEEN USED            10050053
                                   1721+*                                 END MACRO ULSNAP  ******************* 10060053
00079C 41F0 0004      00004        1722                LA R15,4                                                 14800045
0007A0 47F0 C7E2      007E2        1723                B WILDCHKE                                               14810045
                                   1724              ENDIF                                                      14820045
0007A4                             1725+##58     DS    0H                          TARGET FOR ELSE BRANCH
                                   1726            ELSE                      MOT "*"                            14830045
0007A4 47F0 C7D0      007D0        1727+         B     ##59                        BRANCH TO ENDIF
0007A8                             1728+##47     DS    0H                          TARGET FOR BRANCH ON ELSE
                                   1729              IF (LTR,R0,R0,NP)       NO TARGET BUT MORE WORD            14840045
0007A8 1200                        1730+         LTR   R0,R0
0007AA 4720 C7B6      007B6        1731+         BC    15-13,##60                  BRANCH IF NOT TRUE
                                   1732   ULSNAP 'WILDCHK3',((R2),1),((R1),1)                                   14850047

                                   1734+*                                 START MACRO ULSNAP ****************** 09800053
0007AE                             1735+         DS    0H                       ON HALFW BOUNDARY/JUST IN CASE  09820053
                                   1736+*                                       ULSNAP MACRO IGNORED/SYSPARM    10040053
                                   1737+*                                       NOSNAP HAS BEEN USED            10050053
                                   1738+*                                 END MACRO ULSNAP  ******************* 10060053
0007AE 41F0 0004      00004        1739                LA R15,4                                                 14860045
0007B2 47F0 C7E2      007E2        1740                B WILDCHKE                                               14870045
                                   1741              ENDIF                                                      14880045
0007B6                             1742+##60     DS    0H                          TARGET FOR ELSE BRANCH
                                   1743              IF (CLI,0(R2),NE,C'?'),AND,(CLC,0(1,R1),NE,0(R2))  UNMATCH 14890045
0007B6 956F 2000      00000        1744+         CLI   0(R2),C'?'
0007BA 4780 C7D0      007D0        1745+         BC    15-7,##61                   BRANCH IF NOT TRUE
0007BE D500 1000 2000 00000 00000  1746+         CLC   0(1,R1),0(R2)
0007C4 4780 C7D0      007D0        1747+         BC    15-7,##61                   BRANCH IF NOT TRUE
0007C8                             1748+##62     DS    0H                        TARGET FOR BANCH ON NOT TRUE
                                   1749   ULSNAP 'WILDCHK2',((R2),1),((R1),1)                                   14900047

                                   1751+*                                 START MACRO ULSNAP ****************** 09800053
0007C8                             1752+         DS    0H                       ON HALFW BOUNDARY/JUST IN CASE  09820053
                                   1753+*                                       ULSNAP MACRO IGNORED/SYSPARM    10040053
                                   1754+*                                       NOSNAP HAS BEEN USED            10050053
                                   1755+*                                 END MACRO ULSNAP  ******************* 10060053
0007C8 41F0 0004      00004        1756                LA R15,4                                                 14910045
0007CC 47F0 C7E2      007E2        1757                B WILDCHKE                                               14920045
                                   1758              ENDIF                                                      14930045
0007D0                             1759+##61     DS    0H                          TARGET FOR ELSE BRANCHXE4S001Z *** XE4S001Z *** DISPLAY/UPDATE SPF INFO ***                                                          PAGE   34


  LOC  OBJECT CODE    ADDR1 ADDR2  STMT   SOURCE STATEMENT                                       ASM 0201 10.53 06/08/08

                                   1760            ENDIF                                                        14940045
0007D0                             1761+##59     DS    0H                          TARGET FOR ENDIF BRANCH
0007D0 4111 0001      00001        1762            LA R1,1(R1)                                                  14950045
0007D4 4122 0001      00001        1763            LA R2,1(R2)                                                  14960045
0007D8 0600                        1764            BCTR R0,0                                                    14970045
0007DA 0630                        1765            BCTR R3,0                                                    14980045
                                   1766          ENDDO                                                          14990045
0007DC 47F0 C73C      0073C        1767+         B     ##44                        BRANCH BACK TO START OF LOOP
0007E0                             1768+##45     DS    0H                          TARGET TO LEAVE THE LOOP
0007E0 1BFF                        1769          SR R15,R15                                                     15000045
                            007E2  1770 WILDCHKE EQU *                                                          15010045
                                   1771  ULSNAP 'WILDCHK RC=R15'                                                15020046

                                   1773+*                                 START MACRO ULSNAP ****************** 09800053
0007E2                             1774+         DS    0H                       ON HALFW BOUNDARY/JUST IN CASE  09820053
                                   1775+*                                       ULSNAP MACRO IGNORED/SYSPARM    10040053
                                   1776+*                                       NOSNAP HAS BEEN USED            10050053
                                   1777+*                                 END MACRO ULSNAP  ******************* 10060053
                                   1778 *                                                                       15030000
0007E2 58E0 C7EC      007EC        1779          L R14,SVRWC                                                    15040045
0007E6 9803 C7F4      007F4        1780          LM  R0,R3,SVRWC+4*2                                            15050045
0007EA 07FE                        1781          BR R14                                                         15060000
                                   1782 ****************                                                        15070000
0007EC                             1783 SVRWC    DS 6F                                                          15080045
000804 00000000                    1784 WILDLEN  DC F'0'                                                        15090000
                                   1785 **********************************************************************  15100045
                                   1786 * ANALYZE EXEC PARM                                                     15110031
                                   1787 **********************************************************************  15120031
000808                             1788 GETPARM  DS 0H                                                          15130031
000808 50E0 C9CC      009CC        1789          ST R14,SVR14GP                                                 15140031
                                   1790 *                                                                       15150031
00080C 5815 0000      00000        1791          L R1,0(R5)                                                     15160031
000810 4821 0000      00000        1792          LH R2,0(R1)                   * REG2 = PARM LENGTH             15170031
000814 4111 0002      00002        1793          LA R1,2(R1)                   PARM TOP                   A#002 15180031
                                   1794  ULSNAP 'EXE PARM',((R1),(R2))                                   A#002  15190033

                                   1796+*                                 START MACRO ULSNAP ****************** 09800053
000818                             1797+         DS    0H                       ON HALFW BOUNDARY/JUST IN CASE  09820053
                                   1798+*                                       ULSNAP MACRO IGNORED/SYSPARM    10040053
                                   1799+*                                       NOSNAP HAS BEEN USED            10050053
                                   1800+*                                 END MACRO ULSNAP  ******************* 10060053
                                   1801          IF (CH,R2,H,=Y(2))                                       A#002 15200031
000818 4920 AA82      02A82        1802+         CH    R2,=Y(2)
00081C 47D0 C8CA      008CA        1803+         BC    15-2,##63                   BRANCH IF NOT TRUE
                                   1804            IF (CLC,0(2,R1),EQ,=C'1,')  FUNCTINID:UPDATE SPF INFO  A#002 15210031
000820 D501 1000 AA84 00000 02A84  1805+         CLC   0(2,R1),=C'1,'
000826 4770 C8CA      008CA        1806+         BC    15-8,##64                   BRANCH IF NOT TRUE
00082A 9201 C9E0      009E0        1807              MVI WFUNCID,EQFSPFUP                                 A#002 15220031
00082E 4111 0002      00002        1808              LA R1,2(R1)               DSN TOP                    A#002 15230031
000832 4B20 AA82      02A82        1809              SH R2,=Y(2)               PARM LEN                   A#002 15240031
000836 1831                        1810              LR R3,R1                                             A#002 15250031
000838 1842                        1811              LR R4,R2                                             A#002 15260031
                                   1812              UMEMCHR (R3),C',',(R4)                               A#002 15270031
00083A                             1813+         DS 0H                                                          05500017
00083A 90F0 D010      00010        1814+         STM R15,R0,16(R13)                                             05510017XE4S001Z *** XE4S001Z *** DISPLAY/UPDATE SPF INFO ***                                                          PAGE   35


  LOC  OBJECT CODE    ADDR1 ADDR2  STMT   SOURCE STATEMENT                                       ASM 0201 10.53 06/08/08

00083E 1803                        1815+         LR R0,R3                          GET OPD ADDR         A#0000  05580018
000840 500D 001C      0001C        1816+         ST R0,28(R13)                SAVE OPERAND TO SAVEAREA  A#0000  05600017
000844 504D 0020      00020        1817+         ST R4,32(R13)                SAVE OPERAND TO SAVEAREA  A#0000  05630017
000848 4100 006B      0006B        1818+         LA R0,C','                        GET OPD ADDR         A#0000  05660017
00084C 58FD 001C      0001C        1819+         L R15,28(R13)           START ADDR                             06260017
000850 581D 0020      00020        1820+         L R1,32(R13)            LEN                                    06300017
000854 1A1F                        1821+         AR R1,R15                    END ADDR                          06410017
                            00856  1822+#01807     EQU *                         RETRY LOOP            A#@@@@2  06430017
000856 1701                        1823+         XR     R0,R1                                                   01040018
000858 1710                        1824+         XR     R1,R0                                                   01050018
00085A 1701                        1825+         XR     R0,R1               EXCHANGE R0 AND &R1                 01060018
                            0085C  1826+#0181N      EQU *                                                       01070018
00085C 4410 C88C      0088C        1827+         EX     R1,#0181EX                                              01080018
000860 4780 C872      00872        1828+         BE     #0181F              FOUND                               01090018
000864 41FF 0001      00001        1829+         LA     R15,1(R15)                                              01100018
000868 19F0                        1830+         CR     R15,R0                                                  01110018
00086A 4720 C880      00880        1831+         BH     #0181NF             NOT FOUND                           01120018
00086E 47F0 C85C      0085C        1832+         B      #0181N              CONTINUE SEARCH                     01130018
                            00872  1833+#0181F      EQU *        FOUND                                          01140018
000872 1701                        1834+         XR     R0,R1                                                   01150018
000874 1710                        1835+         XR     R1,R0                                                   01160018
000876 1701                        1836+         XR     R0,R1               EXCHANGE R0 AND &R1                 01170018
000878 181F                        1837+         LR     R1,R15                                                  01180018
00087A 1611                        1838+         OR     R1,R1               SET CC=1(NON ZERO)                  01190018
00087C 47F0 C890      00890        1839+         B #0181X                                                       01200018
                            00880  1840+#0181NF     EQU *        NOT FOUND                                      01210018
000880 1701                        1841+         XR     R0,R1                                                   01220018
000882 1710                        1842+         XR     R1,R0                                                   01230018
000884 1701                        1843+         XR     R0,R1               EXCHANGE R0 AND &R1                 01240018
000886 19F1                        1844+         CR     R15,R1              &R2>&R1 CC=2(HIGH)                  01250018
000888 47F0 C890      00890        1845+         B #0181X                                                       01260018
00088C 9500 F000      00000        1846+#0181EX     CLI 0(R15),0                                                01270018
                            00890  1847+#0181X      EQU *                                                       01280018
000890 4740 C89E      0089E        1848+         BC 4,#01805     CC=1,FOUND(R1:MATCH ADDR,R2:SAME       A#@@@@2 06470017
000894 4720 C89C      0089C        1849+         BC 2,#01806              CC=2,NOT FOUND(R1,R2:SAME)    A#@@@@2 06500017
000898 47F0 C856      00856        1850+         B #01807     CC=3,RTRY BY NEW ADD(R1:SAME,R2:NEW)      A#@@@@2 06530017
                            0089C  1851+#01806     EQU *                        NOT FOUND              A#@@@@2  06550017
00089C 1B11                        1852+         SR R1,R1                        NOT FOUND ID                   06560017
                            0089E  1853+#01805     EQU *                        FOUND                  A#@@@@2  06580017
                                   1854+** UMEMCHR_ * END *                                                     06590017
00089E 98F0 D010      00010        1855+         LM  R15,R0,16(R13)                                             05700017
                                   1856              IF (LTR,R1,R1,NZ)                                    A#002 15280031
0008A2 1211                        1857+         LTR   R1,R1
0008A4 4780 C8BA      008BA        1858+         BC    15-7,##65                   BRANCH IF NOT TRUE
0008A8 41F1 0001      00001        1859                LA R15,1(R1)            SPF PARM START ADDR        A#002 15290031
0008AC 41E3 4000      00000        1860                LA R14,0(R3,R4)         PARM END                   A#002 15300031
0008B0 1BEF                        1861                SR R14,R15              SPF PARM LEN               A#002 15310031
0008B2 1821                        1862                LR R2,R1                DSN END ADDR               A#002 15320031
0008B4 1B23                        1863                SR R2,R3                DSN LENGTH                 A#002 15330031
                                   1864              ELSE                                                 A#002 15340031
0008B6 47F0 C8C0      008C0        1865+         B     ##66                        BRANCH TO ENDIF
0008BA                             1866+##65     DS    0H                          TARGET FOR BRANCH ON ELSE
0008BA 41E0 0000      00000        1867                LA R14,0                SPF PARM LEN               A#002 15350031
0008BE 1824                        1868                LR R2,R4                DSN LENGTH                 A#002 15360031
                                   1869              ENDIF                                                A#002 15370031XE4S001Z *** XE4S001Z *** DISPLAY/UPDATE SPF INFO ***                                                          PAGE   36


  LOC  OBJECT CODE    ADDR1 ADDR2  STMT   SOURCE STATEMENT                                       ASM 0201 10.53 06/08/08

0008C0                             1870+##66     DS    0H                          TARGET FOR ENDIF BRANCH
0008C0 1813                        1871              LR R1,R3                  DSN ADDR                   A#002 15380031
0008C2 50F0 C9D0      009D0        1872              ST R15,WSPFPA             SPF PARM ADDR              A#002 15390033
0008C6 50E0 C9D4      009D4        1873              ST R14,WSPFPL             SPF PARM LEN               A#002 15400033
                                   1874  ULSNAP 'SPFPARM',((R15),(R14))                                   A#002 15410031

                                   1876+*                                 START MACRO ULSNAP ****************** 09800053
0008CA                             1877+         DS    0H                       ON HALFW BOUNDARY/JUST IN CASE  09820053
                                   1878+*                                       ULSNAP MACRO IGNORED/SYSPARM    10040053
                                   1879+*                                       NOSNAP HAS BEEN USED            10050053
                                   1880+*                                 END MACRO ULSNAP  ******************* 10060053
                                   1881            ENDIF                       FUNCTINID:UPDATE SPF INFO  A#002 15420031
0008CA                             1882+##64     DS    0H                          TARGET FOR ELSE BRANCH
                                   1883          ENDIF                                                          15430031
0008CA                             1884+##63     DS    0H                          TARGET FOR ELSE BRANCH
0008CA 18F2                        1885          LR R15,R2                                                      15440031
0008CC 06F0                        1886          BCTR R15,0                                                     15450031
                                   1887        IF (LTR,R15,R15,NM)                                        A#004 15451058
0008CE 12FF                        1888+         LTR   R15,R15
0008D0 4740 C8D8      008D8        1889+         BC    15-11,##67                  BRANCH IF NOT TRUE
0008D4 44F0 AA20      02A20        1890          EX R15,MVCHDR1                                                 15460031
                                   1891        ENDIF                                                      A#004 15461058
0008D8                             1892+##67     DS    0H                          TARGET FOR ELSE BRANCH
                                   1893          IF (LTR,R2,R2,Z)                                               15470031
0008D8 1222                        1894+         LTR   R2,R2
0008DA 4770 C8EA      008EA        1895+         BC    15-8,##68                   BRANCH IF NOT TRUE
0008DE 4100 AD17      02D17        1896            LA R0,ERRMSG03                                               15480031
0008E2 45E0 A410      02410        1897            BAL R14,ERRMSG                                               15490031
                                   1898          ELSE                                                           15500031
0008E6 47F0 C9B8      009B8        1899+         B     ##69                        BRANCH TO ENDIF
0008EA                             1900+##68     DS    0H                          TARGET FOR BRANCH ON ELSE
                                   1901 *          LA R1,2(R1)                                            D#002 15510031
0008EA 1831                        1902            LR R3,R1                                                     15520031
                                   1903            UMEMCHR (R3),C'(',(R2)                                       15530031
0008EC                             1904+         DS 0H                                                          05500017
0008EC 90F0 D010      00010        1905+         STM R15,R0,16(R13)                                             05510017
0008F0 1803                        1906+         LR R0,R3                          GET OPD ADDR         A#0000  05580018
0008F2 500D 001C      0001C        1907+         ST R0,28(R13)                SAVE OPERAND TO SAVEAREA  A#0000  05600017
0008F6 502D 0020      00020        1908+         ST R2,32(R13)                SAVE OPERAND TO SAVEAREA  A#0000  05630017
0008FA 4100 004D      0004D        1909+         LA R0,C'('                        GET OPD ADDR         A#0000  05660017
0008FE 58FD 001C      0001C        1910+         L R15,28(R13)           START ADDR                             06260017
000902 581D 0020      00020        1911+         L R1,32(R13)            LEN                                    06300017
000906 1A1F                        1912+         AR R1,R15                    END ADDR                          06410017
                            00908  1913+#01967     EQU *                         RETRY LOOP            A#@@@@2  06430017
000908 1701                        1914+         XR     R0,R1                                                   01040018
00090A 1710                        1915+         XR     R1,R0                                                   01050018
00090C 1701                        1916+         XR     R0,R1               EXCHANGE R0 AND &R1                 01060018
                            0090E  1917+#0197N      EQU *                                                       01070018
00090E 4410 C93E      0093E        1918+         EX     R1,#0197EX                                              01080018
000912 4780 C924      00924        1919+         BE     #0197F              FOUND                               01090018
000916 41FF 0001      00001        1920+         LA     R15,1(R15)                                              01100018
00091A 19F0                        1921+         CR     R15,R0                                                  01110018
00091C 4720 C932      00932        1922+         BH     #0197NF             NOT FOUND                           01120018
000920 47F0 C90E      0090E        1923+         B      #0197N              CONTINUE SEARCH                     01130018
                            00924  1924+#0197F      EQU *        FOUND                                          01140018XE4S001Z *** XE4S001Z *** DISPLAY/UPDATE SPF INFO ***                                                          PAGE   37


  LOC  OBJECT CODE    ADDR1 ADDR2  STMT   SOURCE STATEMENT                                       ASM 0201 10.53 06/08/08

000924 1701                        1925+         XR     R0,R1                                                   01150018
000926 1710                        1926+         XR     R1,R0                                                   01160018
000928 1701                        1927+         XR     R0,R1               EXCHANGE R0 AND &R1                 01170018
00092A 181F                        1928+         LR     R1,R15                                                  01180018
00092C 1611                        1929+         OR     R1,R1               SET CC=1(NON ZERO)                  01190018
00092E 47F0 C942      00942        1930+         B #0197X                                                       01200018
                            00932  1931+#0197NF     EQU *        NOT FOUND                                      01210018
000932 1701                        1932+         XR     R0,R1                                                   01220018
000934 1710                        1933+         XR     R1,R0                                                   01230018
000936 1701                        1934+         XR     R0,R1               EXCHANGE R0 AND &R1                 01240018
000938 19F1                        1935+         CR     R15,R1              &R2>&R1 CC=2(HIGH)                  01250018
00093A 47F0 C942      00942        1936+         B #0197X                                                       01260018
00093E 9500 F000      00000        1937+#0197EX     CLI 0(R15),0                                                01270018
                            00942  1938+#0197X      EQU *                                                       01280018
000942 4740 C950      00950        1939+         BC 4,#01965     CC=1,FOUND(R1:MATCH ADDR,R2:SAME       A#@@@@2 06470017
000946 4720 C94E      0094E        1940+         BC 2,#01966              CC=2,NOT FOUND(R1,R2:SAME)    A#@@@@2 06500017
00094A 47F0 C908      00908        1941+         B #01967     CC=3,RTRY BY NEW ADD(R1:SAME,R2:NEW)      A#@@@@2 06530017
                            0094E  1942+#01966     EQU *                        NOT FOUND              A#@@@@2  06550017
00094E 1B11                        1943+         SR R1,R1                        NOT FOUND ID                   06560017
                            00950  1944+#01965     EQU *                        FOUND                  A#@@@@2  06580017
                                   1945+** UMEMCHR_ * END *                                                     06590017
000950 98F0 D010      00010        1946+         LM  R15,R0,16(R13)                                             05700017
                                   1947            IF (LTR,R1,R1,NZ)      FOUND                                 15540031
000954 1211                        1948+         LTR   R1,R1
000956 4780 C992      00992        1949+         BC    15-7,##70                   BRANCH IF NOT TRUE
00095A 41E1 0001      00001        1950              LA R14,1(R1)         MEMBNAME ADDR                         15550031
00095E 1B13                        1951              SR R1,R3             DSN LEN                               15560031
000960 18F2                        1952              LR R15,R2                                                  15570031
000962 1BF1                        1953              SR R15,R1                                                  15580031
000964 06F0                        1954              BCTR R15,0           FOR 1ST  '(' MEMBNAME LEN             15590031
000966 06F0                        1955              BCTR R15,0           FOR LAST ')' MEMBNAME LEN             15600031
                                   1956              IF (LTR,R15,R15,NP),OR,(CH,R15,GT,=H'8')                   15610031
000968 12FF                        1957+         LTR   R15,R15
00096A 47D0 C976      00976        1958+         BC    13,##72                     BRANCH IF TRUE
00096E 49F0 AA86      02A86        1959+         CH    R15,=H'8'
000972 47D0 C97E      0097E        1960+         BC    15-2,##71                   BRANCH IF NOT TRUE
000976                             1961+##72     DS    0H                        TARGET FOR BANCH ON NOT TRUE
000976 4100 ADB7      02DB7        1962                LA R0,ERRMSG06                                           15620031
00097A 45E0 A410      02410        1963                BAL R14,ERRMSG                                           15630031
                                   1964              ENDIF                                                      15640031
00097E                             1965+##71     DS    0H                          TARGET FOR ELSE BRANCH
00097E 06F0                        1966              BCTR R15,0                                                 15650031
000980 181E                        1967              LR R1,R14                                                  15660031
000982 44F0 C9BE      009BE        1968              EX R15,SAVEMEMB                                            15670031
000986 41FF 0003      00003        1969              LA R15,3(R15)                                              15680031
00098A 1B2F                        1970              SR R2,R15                                                  15690031
00098C 1813                        1971              LR R1,R3            DSN TOP                                15700031
                                   1972  ULSNAP 'MEMB   ',(PARMMEMB,8)                                          15710033

                                   1974+*                                 START MACRO ULSNAP ****************** 09800053
00098E                             1975+         DS    0H                       ON HALFW BOUNDARY/JUST IN CASE  09820053
                                   1976+*                                       ULSNAP MACRO IGNORED/SYSPARM    10040053
                                   1977+*                                       NOSNAP HAS BEEN USED            10050053
                                   1978+*                                 END MACRO ULSNAP  ******************* 10060053
                                   1979            ELSE                                                         15720031XE4S001Z *** XE4S001Z *** DISPLAY/UPDATE SPF INFO ***                                                          PAGE   38


  LOC  OBJECT CODE    ADDR1 ADDR2  STMT   SOURCE STATEMENT                                       ASM 0201 10.53 06/08/08

00098E 47F0 C994      00994        1980+         B     ##73                        BRANCH TO ENDIF
000992                             1981+##70     DS    0H                          TARGET FOR BRANCH ON ELSE
000992 1813                        1982              LR R1,R3            DSN ADDR                               15730031
                                   1983            ENDIF                                                        15740031
000994                             1984+##73     DS    0H                          TARGET FOR ENDIF BRANCH
                                   1985            IF (LTR,R2,R2,NP),OR,(CH,R2,GT,=H'44')                       15750031
000994 1222                        1986+         LTR   R2,R2
000996 47D0 C9A2      009A2        1987+         BC    13,##75                     BRANCH IF TRUE
00099A 4920 AA88      02A88        1988+         CH    R2,=H'44'
00099E 47D0 C9AA      009AA        1989+         BC    15-2,##74                   BRANCH IF NOT TRUE
0009A2                             1990+##75     DS    0H                        TARGET FOR BANCH ON NOT TRUE
0009A2 4100 ADB7      02DB7        1991              LA R0,ERRMSG06                                             15760031
0009A6 45E0 A410      02410        1992              BAL R14,ERRMSG                                             15770031
                                   1993            ENDIF                                                        15780031
0009AA                             1994+##74     DS    0H                          TARGET FOR ELSE BRANCH
0009AA 4020 BA44      01A44        1995            STH R2,PARMDSNL                                              15790031
0009AE 0620                        1996            BCTR R2,0                                                    15800031
0009B0 4420 C9C4      009C4        1997            EX R2,SAVEDSN                                                15810031
0009B4 4122 0001      00001        1998            LA R2,1(R2)                                                  15820033
                                   1999  ULSNAP 'DSN    ',(PARMDSN,(R2))                                        15830033

                                   2001+*                                 START MACRO ULSNAP ****************** 09800053
0009B8                             2002+         DS    0H                       ON HALFW BOUNDARY/JUST IN CASE  09820053
                                   2003+*                                       ULSNAP MACRO IGNORED/SYSPARM    10040053
                                   2004+*                                       NOSNAP HAS BEEN USED            10050053
                                   2005+*                                 END MACRO ULSNAP  ******************* 10060053
                                   2006          ENDIF                                                          15840031
0009B8                             2007+##69     DS    0H                          TARGET FOR ENDIF BRANCH
                                   2008 *                                                                       15850031
0009B8 58E0 C9CC      009CC        2009          L  R14,SVR14GP                                                 15860031
0009BC 07FE                        2010          BR R14                                                         15870031
                                   2011 ****************                                                        15880031
0009BE D200 C9D8 1000 009D8 00000  2012 SAVEMEMB MVC   PARMMEMB(0),0(R1)                                        15890031
0009C4 D200 BA46 1000 01A46 00000  2013 SAVEDSN  MVC   PARMDSN(0),0(R1)                                         15900033
0009CC                             2014 SVR14GP  DS F                                                           15910031
0009D0                             2015 WSPFPA   DS F      SPF PARM ADDR              A#002                     15920031
0009D4                             2016 WSPFPL   DS F      SPF PARM LEN               A#002                     15930031
0009D8 4040404040404040            2017 PARMMEMB DC   CL8' '                                                    15940031
0009E0 00                          2018 WFUNCID  DC X'00'  FUNCTION ID                A#002                     15950031
                            00001  2019 EQFSPFUP EQU X'01'  SPF UPDATE                 A#002                    15960031
                                   2020 **********************************************************************  15970031
                                   2021 * ANALYZE SPF INFO PARM                                A#002            15980040
                                   2022 **********************************************************************  15990031
0009E2                             2023 GETSPFPM DS 0H                                                          16000031
0009E2 900F CF74      00F74        2024          STM R0,R15,SVRGSP                                              16010033
                                   2025 *                                                                       16020031
0009E6 5840 C9D0      009D0        2026          L R4,WSPFPA                   SPF PARM TOP                     16030031
0009EA 5850 C9D4      009D4        2027          L R5,WSPFPL                   SPF PARM LEN                     16040031
0009EE 4130 B9C4      019C4        2028          LA R3,BLDLPENT                PDS2 BASE                        16050046
0009F2 1B66                        2029          SR R6,R6                      PARM NO                          16060031
                                   2030 *GET EACH PARM                                                          16070033
                                   2031          DO WHILE=(LTR,R5,R5,P)                                         16080031
0009F4                             2032+##76     DS    0H                         TARGET FOR DO-LOOP
0009F4 1255                        2033+         LTR   R5,R5
0009F6 47D0 CA48      00A48        2034+         BC    15-2,##77                   BRANCH IF NOT TRUEXE4S001Z *** XE4S001Z *** DISPLAY/UPDATE SPF INFO ***                                                          PAGE   39


  LOC  OBJECT CODE    ADDR1 ADDR2  STMT   SOURCE STATEMENT                                       ASM 0201 10.53 06/08/08

0009FA                             2035+##78     DS    0H                        TARGET FOR BANCH ON NOT TRUE
0009FA 1824                        2036            LR R2,R4                      EACH PARM TOP                  16090031
                                   2037            DO WHILE=(LTR,R5,R5,P)                                       16100031
0009FC                             2038+##79     DS    0H                         TARGET FOR DO-LOOP
0009FC 1255                        2039+         LTR   R5,R5
0009FE 47D0 CA18      00A18        2040+         BC    15-2,##80                   BRANCH IF NOT TRUE
000A02                             2041+##81     DS    0H                        TARGET FOR BANCH ON NOT TRUE
                                   2042            DOEXIT (CLI,0(R4),E,C',')                                    16110031
000A02 956B 4000      00000        2043+         CLI   0(R4),C','
000A06 4770 CA0E      00A0E        2044+         BC    15-8,##82                   BRANCH IF NOT TRUE
000A0A 47F0 CA18      00A18        2045+         B     ##80                      LEAVE THE LOOP &DO
000A0E                             2046+##82     DS    0H                          TARGET FOR ELSE BRANCH
000A0E 0650                        2047              BCTR R5,0                                                  16120031
000A10 4144 0001      00001        2048              LA R4,1(R4)                                                16130031
                                   2049            ENDDO                                                        16140031
000A14 47F0 C9FC      009FC        2050+         B     ##79                        BRANCH BACK TO START OF LOOP
000A18                             2051+##80     DS    0H                          TARGET TO LEAVE THE LOOP
000A18 1814                        2052            LR R1,R4                                                     16150031
000A1A 1B12                        2053            SR R1,R2                    PARM LEN                         16160031
                                   2054  ULSNAP 'PARN N(R6)',((R2),(R1))                                        16170033

                                   2056+*                                 START MACRO ULSNAP ****************** 09800053
000A1C                             2057+         DS    0H                       ON HALFW BOUNDARY/JUST IN CASE  09820053
                                   2058+*                                       ULSNAP MACRO IGNORED/SYSPARM    10040053
                                   2059+*                                       NOSNAP HAS BEEN USED            10050053
                                   2060+*                                 END MACRO ULSNAP  ******************* 10060053
                                   2061            IF (CH,R6,GE,=Y(EQMAXPM))          MAX 8 PARM                16180033
000A1C 4960 AA8A      02A8A        2062+         CH    R6,=Y(EQMAXPM)
000A20 4740 CA2C      00A2C        2063+         BC    15-11,##83                  BRANCH IF NOT TRUE
                                   2064              UERREXIT ERRMSGS1                                          16190034
000A24 4100 CFF4      00FF4        2065+         LA R0,ERRMSGS1                                                 11580034
000A28 45E0 A410      02410        2066+         BAL R14,ERRMSG                                                 11590034
                                   2067            ENDIF                                                        16200033
000A2C                             2068+##83     DS    0H                          TARGET FOR ELSE BRANCH
000A2C 18E6                        2069            LR R14,R6                                                    16210033
000A2E 89E0 0002      00002        2070            SLL R14,2                   *4                               16220033
000A32 502E CFB4      00FB4        2071            ST R2,WSPFPAN(R14)           SAVE ADDR                       16230033
000A36 501E CFD4      00FD4        2072            ST R1,WSPFPLN(R14)           SAVE LEN                        16240033
000A3A 4166 0001      00001        2073            LA R6,1(R6)                 PARMNO                           16250033
000A3E 4144 0001      00001        2074            LA R4,1(R4)                                                  16260033
000A42 0650                        2075            BCTR R5,0                                                    16270033
                                   2076          ENDDO                                                          16280031
000A44 47F0 C9F4      009F4        2077+         B     ##76                        BRANCH BACK TO START OF LOOP
000A48                             2078+##77     DS    0H                          TARGET TO LEAVE THE LOOP
                                   2079 *PROCESS EACH PARM                                                      16290033
000A48 1B66                        2080          SR R6,R6                                                       16300033
                                   2081          DO WHILE=(CH,R6,LT,=Y(EQMAXPM))                                16310033
000A4A                             2082+##84     DS    0H                         TARGET FOR DO-LOOP
000A4A 4960 AA8A      02A8A        2083+         CH    R6,=Y(EQMAXPM)
000A4E 47B0 CF6C      00F6C        2084+         BC    15-4,##85                   BRANCH IF NOT TRUE
000A52                             2085+##86     DS    0H                        TARGET FOR BANCH ON NOT TRUE
000A52 18E6                        2086            LR R14,R6                                                    16320033
000A54 89E0 0002      00002        2087            SLL R14,2                                                    16330033
000A58 582E CFB4      00FB4        2088            L R2,WSPFPAN(R14)                                            16340033
000A5C 581E CFD4      00FD4        2089            L R1,WSPFPLN(R14)                                            16350033XE4S001Z *** XE4S001Z *** DISPLAY/UPDATE SPF INFO ***                                                          PAGE   40


  LOC  OBJECT CODE    ADDR1 ADDR2  STMT   SOURCE STATEMENT                                       ASM 0201 10.53 06/08/08

                                   2090  ULSNAP 'PARN SET N(R6)',((R2),(R1))                                    16360033

                                   2092+*                                 START MACRO ULSNAP ****************** 09800053
000A60                             2093+         DS    0H                       ON HALFW BOUNDARY/JUST IN CASE  09820053
                                   2094+*                                       ULSNAP MACRO IGNORED/SYSPARM    10040053
                                   2095+*                                       NOSNAP HAS BEEN USED            10050053
                                   2096+*                                 END MACRO ULSNAP  ******************* 10060053
000A60 4166 0001      00001        2097            LA R6,1(R6)                 PARMNO                           16370033
000A64 1BFF                        2098            SR R15,R15                  FIELD VALUE IS NEMERIC           16380034
                                   2099            IF (CLI,0(R2),GE,C'0'),AND,(CLI,0(R2),LE,C'9') //NUMERIC     16390033
000A66 95F0 2000      00000        2100+         CLI   0(R2),C'0'
000A6A 4740 CA7A      00A7A        2101+         BC    15-11,##87                  BRANCH IF NOT TRUE
000A6E 95F9 2000      00000        2102+         CLI   0(R2),C'9'
000A72 4720 CA7A      00A7A        2103+         BC    15-13,##87                  BRANCH IF NOT TRUE
000A76                             2104+##88     DS    0H                        TARGET FOR BANCH ON NOT TRUE
                                   2105            ELSE                                                         16400033
000A76 47F0 CA7E      00A7E        2106+         B     ##89                        BRANCH TO ENDIF
000A7A                             2107+##87     DS    0H                          TARGET FOR BRANCH ON ELSE
000A7A 41F0 0001      00001        2108              LA R15,1                  NOT NUMERIC ID                   16410034
                                   2109            ENDIF                                                        16420033
000A7E                             2110+##89     DS    0H                          TARGET FOR ENDIF BRANCH
                                   2111 *VV                                                                     16430033
                                   2112            IF (CH,R6,E,=Y(1))          VV                               16440033
000A7E 4960 AA8C      02A8C        2113+         CH    R6,=Y(1)
000A82 4770 CBA6      00BA6        2114+         BC    15-8,##90                   BRANCH IF NOT TRUE
                                   2115              IF (CH,R1,GE,=Y(3)),AND,(CLC,0(3,R2),EQ,=C'DEL')           16450035
000A86 4910 AA8E      02A8E        2116+         CH    R1,=Y(3)
000A8A 4740 CAB0      00AB0        2117+         BC    15-11,##91                  BRANCH IF NOT TRUE
000A8E D502 2000 AAC4 00000 02AC4  2118+         CLC   0(3,R2),=C'DEL'
000A94 4770 CAB0      00AB0        2119+         BC    15-8,##91                   BRANCH IF NOT TRUE
000A98                             2120+##92     DS    0H                        TARGET FOR BANCH ON NOT TRUE
                                   2121                IF (TM,SPFSW,EQUSPFI,NO)    NO SPF INFO                  16460035
000A98 9102 AE57      02E57        2122+         TM    SPFSW,EQUSPFI
000A9C 4710 CAA8      00AA8        2123+         BC    15-14,##93                  BRANCH IF NOT TRUE
                                   2124                  UERREXIT ERRMSGS2                                      16470035
000AA0 4100 B044      01044        2125+         LA R0,ERRMSGS2                                                 11580034
000AA4 45E0 A410      02410        2126+         BAL R14,ERRMSG                                                 11590034
                                   2127                ENDIF                                                    16480035
000AA8                             2128+##93     DS    0H                          TARGET FOR ELSE BRANCH
000AA8 9200 300B      0000B        2129                MVI PDS2INDC,0               CLEAR LENGTH                16490035
000AAC 47F0 CF6C      00F6C        2130                B GETSPFPE                                               16500035
                                   2131              ENDIF                                                      16510035
000AB0                             2132+##91     DS    0H                          TARGET FOR ELSE BRANCH
                                   2133              IF (CLI,0(R2),E,C'+')                                      16520034
000AB0 954E 2000      00000        2134+         CLI   0(R2),C'+'
000AB4 4770 CABA      00ABA        2135+         BC    15-8,##94                   BRANCH IF NOT TRUE
000AB8 1BFF                        2136                SR R15,R15                                               16530034
                                   2137              ENDIF                                                      16540034
000ABA                             2138+##94     DS    0H                          TARGET FOR ELSE BRANCH
                                   2139              IF (LTR,R1,R1,Z),OR,(LTR,R15,R15,NZ) MISSING OPERAND       16550034
000ABA 1211                        2140+         LTR   R1,R1
000ABC 4780 CAC6      00AC6        2141+         BC    8,##96                      BRANCH IF TRUE
000AC0 12FF                        2142+         LTR   R15,R15
000AC2 4780 CAD6      00AD6        2143+         BC    15-7,##95                   BRANCH IF NOT TRUE
000AC6                             2144+##96     DS    0H                        TARGET FOR BANCH ON NOT TRUEXE4S001Z *** XE4S001Z *** DISPLAY/UPDATE SPF INFO ***                                                          PAGE   41


  LOC  OBJECT CODE    ADDR1 ADDR2  STMT   SOURCE STATEMENT                                       ASM 0201 10.53 06/08/08

                                   2145                IF (TM,SPFSW,EQUSPFI,NO)      NO SPF INFO                16560033
000AC6 9102 AE57      02E57        2146+         TM    SPFSW,EQUSPFI
000ACA 4710 CAD2      00AD2        2147+         BC    15-14,##97                  BRANCH IF NOT TRUE
000ACE 9200 300C      0000C        2148                  MVI SPFVV,0             IF OPERAND MISSING SET 0       16570033
                                   2149                ENDIF                                                    16580033
000AD2                             2150+##97     DS    0H                          TARGET FOR ELSE BRANCH
                                   2151              ELSE                                                       16590033
000AD2 47F0 CBA2      00BA2        2152+         B     ##98                        BRANCH TO ENDIF
000AD6                             2153+##95     DS    0H                          TARGET FOR BRANCH ON ELSE
                                   2154                IF (CLI,0(R2),E,C'+')                                    16600033
000AD6 954E 2000      00000        2155+         CLI   0(R2),C'+'
000ADA 4770 CB3C      00B3C        2156+         BC    15-8,##99                   BRANCH IF NOT TRUE
                                   2157                  UATOI 1(R2),LEN=(R1)                                   16610033
000ADE                             2158+         DS  0H                                                         01830032
000ADE                             2159+         DS 0H                                                          02010032
000ADE 90E0 D00C      0000C        2160+         STM R14,R0,12(R13)                                             02020032
000AE2 4102 0001      00001        2161+         LA R0,1(R2)                   GET INT VALUE                    02050034
000AE6 18E1                        2162+         LR R14,R1                      GET INT VALUE                   02180032
000AE8 1B11                        2163+         SR R1,R1                                                       02280032
000AEA 18F0                        2164+         LR R15,R0                    ADDR                              02290034
000AEC 1B00                        2165+         SR R0,R0                                                       02300034
000AEE                             2166+##100    DS    0H                         TARGET FOR DO-LOOP
000AEE 9500 F000      00000        2167+         CLI   0(R15),X'00'
000AF2 4770 CAFA      00AFA        2168+         BC    15-8,##102                  BRANCH IF NOT TRUE
000AF6 47F0 CB2C      00B2C        2169+         B     ##101                     LEAVE THE LOOP &DO
000AFA                             2170+##102    DS    0H                          TARGET FOR ELSE BRANCH
000AFA 95F0 F000      00000        2171+         CLI   0(R15),C'0'
000AFE 47B0 CB06      00B06        2172+         BC    15-4,##103                  BRANCH IF NOT TRUE
000B02 47F0 CB2C      00B2C        2173+         B     ##101                     LEAVE THE LOOP &DO
000B06                             2174+##103    DS    0H                          TARGET FOR ELSE BRANCH
000B06 95F9 F000      00000        2175+         CLI   0(R15),C'9'
000B0A 47D0 CB12      00B12        2176+         BC    15-2,##104                  BRANCH IF NOT TRUE
000B0E 47F0 CB2C      00B2C        2177+         B     ##101                     LEAVE THE LOOP &DO
000B12                             2178+##104    DS    0H                          TARGET FOR ELSE BRANCH
000B12 430F 0000      00000        2179+           IC R0,0(R15)                                                 02350034
000B16 8900 001C      0001C        2180+           SLL R0,24+4                                                  02360034
000B1A 8800 001C      0001C        2181+           SRL R0,24+4                                                  02370034
000B1E 4C10 AA90      02A90        2182+           MH R1,=Y(10)                                                 02380032
000B22 1A10                        2183+           AR R1,R0                                                     02390034
000B24 41FF 0001      00001        2184+           LA R15,1(R15)                                                02400034
000B28 46E0 CAEE      00AEE        2185+         BCT   (R14),##100                 BRANCH BACK TO START OF LOOP
000B2C                             2186+##101    DS    0H                          TARGET TO LEAVE THE LOOP
000B2C 98E0 D00C      0000C        2187+         LM  R14,R0,12(R13)                                             02440032
000B30 1BEE                        2188                  SR R14,R14                                             16620033
000B32 43E0 300C      0000C        2189                  IC R14,SPFVV                                           16630033
000B36 1A1E                        2190                  AR R1,R14                                              16640041
                                   2191                ELSE                                                     16650033
000B38 47F0 CB8E      00B8E        2192+         B     ##105                       BRANCH TO ENDIF
000B3C                             2193+##99     DS    0H                          TARGET FOR BRANCH ON ELSE
                                   2194                  UATOI 0(R2),LEN=(R1)                                   16660033
000B3C                             2195+         DS  0H                                                         01830032
000B3C                             2196+         DS 0H                                                          02010032
000B3C 90E0 D00C      0000C        2197+         STM R14,R0,12(R13)                                             02020032
000B40 4102 0000      00000        2198+         LA R0,0(R2)                   GET INT VALUE                    02050034
000B44 18E1                        2199+         LR R14,R1                      GET INT VALUE                   02180032XE4S001Z *** XE4S001Z *** DISPLAY/UPDATE SPF INFO ***                                                          PAGE   42


  LOC  OBJECT CODE    ADDR1 ADDR2  STMT   SOURCE STATEMENT                                       ASM 0201 10.53 06/08/08

000B46 1B11                        2200+         SR R1,R1                                                       02280032
000B48 18F0                        2201+         LR R15,R0                    ADDR                              02290034
000B4A 1B00                        2202+         SR R0,R0                                                       02300034
000B4C                             2203+##106    DS    0H                         TARGET FOR DO-LOOP
000B4C 9500 F000      00000        2204+         CLI   0(R15),X'00'
000B50 4770 CB58      00B58        2205+         BC    15-8,##108                  BRANCH IF NOT TRUE
000B54 47F0 CB8A      00B8A        2206+         B     ##107                     LEAVE THE LOOP &DO
000B58                             2207+##108    DS    0H                          TARGET FOR ELSE BRANCH
000B58 95F0 F000      00000        2208+         CLI   0(R15),C'0'
000B5C 47B0 CB64      00B64        2209+         BC    15-4,##109                  BRANCH IF NOT TRUE
000B60 47F0 CB8A      00B8A        2210+         B     ##107                     LEAVE THE LOOP &DO
000B64                             2211+##109    DS    0H                          TARGET FOR ELSE BRANCH
000B64 95F9 F000      00000        2212+         CLI   0(R15),C'9'
000B68 47D0 CB70      00B70        2213+         BC    15-2,##110                  BRANCH IF NOT TRUE
000B6C 47F0 CB8A      00B8A        2214+         B     ##107                     LEAVE THE LOOP &DO
000B70                             2215+##110    DS    0H                          TARGET FOR ELSE BRANCH
000B70 430F 0000      00000        2216+           IC R0,0(R15)                                                 02350034
000B74 8900 001C      0001C        2217+           SLL R0,24+4                                                  02360034
000B78 8800 001C      0001C        2218+           SRL R0,24+4                                                  02370034
000B7C 4C10 AA90      02A90        2219+           MH R1,=Y(10)                                                 02380032
000B80 1A10                        2220+           AR R1,R0                                                     02390034
000B82 41FF 0001      00001        2221+           LA R15,1(R15)                                                02400034
000B86 46E0 CB4C      00B4C        2222+         BCT   (R14),##106                 BRANCH BACK TO START OF LOOP
000B8A                             2223+##107    DS    0H                          TARGET TO LEAVE THE LOOP
000B8A 98E0 D00C      0000C        2224+         LM  R14,R0,12(R13)                                             02440032
                                   2225                ENDIF                                                    16670033
000B8E                             2226+##105    DS    0H                          TARGET FOR ENDIF BRANCH
                                   2227                IF (CH,R1,GT,=Y(99))                                     16680041
000B8E 4910 AA92      02A92        2228+         CH    R1,=Y(99)
000B92 47D0 CB9E      00B9E        2229+         BC    15-2,##111                  BRANCH IF NOT TRUE
                                   2230                  UERREXIT ERRMSGS3                                      16690041
000B96 4100 B094      01094        2231+         LA R0,ERRMSGS3                                                 11580034
000B9A 45E0 A410      02410        2232+         BAL R14,ERRMSG                                                 11590034
                                   2233                ENDIF                                                    16700041
000B9E                             2234+##111    DS    0H                          TARGET FOR ELSE BRANCH
000B9E 4210 300C      0000C        2235                STC R1,SPFVV                                             16710041
                                   2236              ENDIF                                                      16720033
000BA2                             2237+##98     DS    0H                          TARGET FOR ENDIF BRANCH
                                   2238            ELSE                                                         16730033
000BA2 47F0 CF68      00F68        2239+         B     ##112                       BRANCH TO ENDIF
000BA6                             2240+##90     DS    0H                          TARGET FOR BRANCH ON ELSE
                                   2241 *MM                                                                     16740033
                                   2242            IF (CH,R6,E,=Y(2))          MM                               16750033
000BA6 4960 AA82      02A82        2243+         CH    R6,=Y(2)
000BAA 4770 CCCC      00CCC        2244+         BC    15-8,##113                  BRANCH IF NOT TRUE
                                   2245              IF (CH,R1,GE,=Y(3)),AND,(CLC,0(3,R2),EQ,=C'NOW')           16760038
000BAE 4910 AA8E      02A8E        2246+         CH    R1,=Y(3)
000BB2 4740 CBD6      00BD6        2247+         BC    15-11,##114                 BRANCH IF NOT TRUE
000BB6 D502 2000 AAC7 00000 02AC7  2248+         CLC   0(3,R2),=C'NOW'
000BBC 4770 CBD6      00BD6        2249+         BC    15-8,##114                  BRANCH IF NOT TRUE
000BC0                             2250+##115    DS    0H                        TARGET FOR BANCH ON NOT TRUE
000BC0 9201 B5BC      015BC        2251                MVI GETLCRQ,1           GET MAX VALUE ID                 16770038
000BC4 45E0 B464      01464        2252                BAL R14,GETLINEC        ID OF CURRENT LINE COUNT         16780041
000BC8 9200 B5BC      015BC        2253                MVI GETLCRQ,0           GET MAX VALUE ID                 16790038
000BCC 4210 300D      0000D        2254                STC R1,SPFMM                                             16800038XE4S001Z *** XE4S001Z *** DISPLAY/UPDATE SPF INFO ***                                                          PAGE   43


  LOC  OBJECT CODE    ADDR1 ADDR2  STMT   SOURCE STATEMENT                                       ASM 0201 10.53 06/08/08

000BD0 1B11                        2255                SR R1,R1                ID OF TODAY                      16810038
                                   2256              ELSE                                                       16820038
000BD2 47F0 CCC8      00CC8        2257+         B     ##116                       BRANCH TO ENDIF
000BD6                             2258+##114    DS    0H                          TARGET FOR BRANCH ON ELSE
                                   2259                IF (CLI,0(R2),E,C'+')                                    16830038
000BD6 954E 2000      00000        2260+         CLI   0(R2),C'+'
000BDA 4770 CBE0      00BE0        2261+         BC    15-8,##117                  BRANCH IF NOT TRUE
000BDE 1BFF                        2262                  SR R15,R15                                             16840038
                                   2263                ENDIF                                                    16850038
000BE0                             2264+##117    DS    0H                          TARGET FOR ELSE BRANCH
                                   2265                IF (LTR,R1,R1,Z),OR,(LTR,R15,R15,NZ) MISSING OPERAND     16860038
000BE0 1211                        2266+         LTR   R1,R1
000BE2 4780 CBEC      00BEC        2267+         BC    8,##119                     BRANCH IF TRUE
000BE6 12FF                        2268+         LTR   R15,R15
000BE8 4780 CBFC      00BFC        2269+         BC    15-7,##118                  BRANCH IF NOT TRUE
000BEC                             2270+##119    DS    0H                        TARGET FOR BANCH ON NOT TRUE
                                   2271                  IF (TM,SPFSW,EQUSPFI,NO)      NO SPF INFO              16870038
000BEC 9102 AE57      02E57        2272+         TM    SPFSW,EQUSPFI
000BF0 4710 CBF8      00BF8        2273+         BC    15-14,##120                 BRANCH IF NOT TRUE
000BF4 9200 300D      0000D        2274                    MVI SPFMM,0             IF OPERAND MISSING SET 0     16880038
                                   2275                  ENDIF                                                  16890038
000BF8                             2276+##120    DS    0H                          TARGET FOR ELSE BRANCH
                                   2277                ELSE                                                     16900038
000BF8 47F0 CCC8      00CC8        2278+         B     ##121                       BRANCH TO ENDIF
000BFC                             2279+##118    DS    0H                          TARGET FOR BRANCH ON ELSE
                                   2280                  IF (CLI,0(R2),E,C'+')                                  16910038
000BFC 954E 2000      00000        2281+         CLI   0(R2),C'+'
000C00 4770 CC62      00C62        2282+         BC    15-8,##122                  BRANCH IF NOT TRUE
                                   2283                    UATOI 1(R2),LEN=(R1)                                 16920038
000C04                             2284+         DS  0H                                                         01830032
000C04                             2285+         DS 0H                                                          02010032
000C04 90E0 D00C      0000C        2286+         STM R14,R0,12(R13)                                             02020032
000C08 4102 0001      00001        2287+         LA R0,1(R2)                   GET INT VALUE                    02050034
000C0C 18E1                        2288+         LR R14,R1                      GET INT VALUE                   02180032
000C0E 1B11                        2289+         SR R1,R1                                                       02280032
000C10 18F0                        2290+         LR R15,R0                    ADDR                              02290034
000C12 1B00                        2291+         SR R0,R0                                                       02300034
000C14                             2292+##123    DS    0H                         TARGET FOR DO-LOOP
000C14 9500 F000      00000        2293+         CLI   0(R15),X'00'
000C18 4770 CC20      00C20        2294+         BC    15-8,##125                  BRANCH IF NOT TRUE
000C1C 47F0 CC52      00C52        2295+         B     ##124                     LEAVE THE LOOP &DO
000C20                             2296+##125    DS    0H                          TARGET FOR ELSE BRANCH
000C20 95F0 F000      00000        2297+         CLI   0(R15),C'0'
000C24 47B0 CC2C      00C2C        2298+         BC    15-4,##126                  BRANCH IF NOT TRUE
000C28 47F0 CC52      00C52        2299+         B     ##124                     LEAVE THE LOOP &DO
000C2C                             2300+##126    DS    0H                          TARGET FOR ELSE BRANCH
000C2C 95F9 F000      00000        2301+         CLI   0(R15),C'9'
000C30 47D0 CC38      00C38        2302+         BC    15-2,##127                  BRANCH IF NOT TRUE
000C34 47F0 CC52      00C52        2303+         B     ##124                     LEAVE THE LOOP &DO
000C38                             2304+##127    DS    0H                          TARGET FOR ELSE BRANCH
000C38 430F 0000      00000        2305+           IC R0,0(R15)                                                 02350034
000C3C 8900 001C      0001C        2306+           SLL R0,24+4                                                  02360034
000C40 8800 001C      0001C        2307+           SRL R0,24+4                                                  02370034
000C44 4C10 AA90      02A90        2308+           MH R1,=Y(10)                                                 02380032
000C48 1A10                        2309+           AR R1,R0                                                     02390034XE4S001Z *** XE4S001Z *** DISPLAY/UPDATE SPF INFO ***                                                          PAGE   44


  LOC  OBJECT CODE    ADDR1 ADDR2  STMT   SOURCE STATEMENT                                       ASM 0201 10.53 06/08/08

000C4A 41FF 0001      00001        2310+           LA R15,1(R15)                                                02400034
000C4E 46E0 CC14      00C14        2311+         BCT   (R14),##123                 BRANCH BACK TO START OF LOOP
000C52                             2312+##124    DS    0H                          TARGET TO LEAVE THE LOOP
000C52 98E0 D00C      0000C        2313+         LM  R14,R0,12(R13)                                             02440032
000C56 1BEE                        2314                    SR R14,R14                                           16930038
000C58 43E0 300D      0000D        2315                    IC R14,SPFMM                                         16940038
000C5C 1A1E                        2316                    AR R1,R14                                            16950041
                                   2317                  ELSE                                                   16960038
000C5E 47F0 CCB4      00CB4        2318+         B     ##128                       BRANCH TO ENDIF
000C62                             2319+##122    DS    0H                          TARGET FOR BRANCH ON ELSE
                                   2320                    UATOI 0(R2),LEN=(R1)                                 16970038
000C62                             2321+         DS  0H                                                         01830032
000C62                             2322+         DS 0H                                                          02010032
000C62 90E0 D00C      0000C        2323+         STM R14,R0,12(R13)                                             02020032
000C66 4102 0000      00000        2324+         LA R0,0(R2)                   GET INT VALUE                    02050034
000C6A 18E1                        2325+         LR R14,R1                      GET INT VALUE                   02180032
000C6C 1B11                        2326+         SR R1,R1                                                       02280032
000C6E 18F0                        2327+         LR R15,R0                    ADDR                              02290034
000C70 1B00                        2328+         SR R0,R0                                                       02300034
000C72                             2329+##129    DS    0H                         TARGET FOR DO-LOOP
000C72 9500 F000      00000        2330+         CLI   0(R15),X'00'
000C76 4770 CC7E      00C7E        2331+         BC    15-8,##131                  BRANCH IF NOT TRUE
000C7A 47F0 CCB0      00CB0        2332+         B     ##130                     LEAVE THE LOOP &DO
000C7E                             2333+##131    DS    0H                          TARGET FOR ELSE BRANCH
000C7E 95F0 F000      00000        2334+         CLI   0(R15),C'0'
000C82 47B0 CC8A      00C8A        2335+         BC    15-4,##132                  BRANCH IF NOT TRUE
000C86 47F0 CCB0      00CB0        2336+         B     ##130                     LEAVE THE LOOP &DO
000C8A                             2337+##132    DS    0H                          TARGET FOR ELSE BRANCH
000C8A 95F9 F000      00000        2338+         CLI   0(R15),C'9'
000C8E 47D0 CC96      00C96        2339+         BC    15-2,##133                  BRANCH IF NOT TRUE
000C92 47F0 CCB0      00CB0        2340+         B     ##130                     LEAVE THE LOOP &DO
000C96                             2341+##133    DS    0H                          TARGET FOR ELSE BRANCH
000C96 430F 0000      00000        2342+           IC R0,0(R15)                                                 02350034
000C9A 8900 001C      0001C        2343+           SLL R0,24+4                                                  02360034
000C9E 8800 001C      0001C        2344+           SRL R0,24+4                                                  02370034
000CA2 4C10 AA90      02A90        2345+           MH R1,=Y(10)                                                 02380032
000CA6 1A10                        2346+           AR R1,R0                                                     02390034
000CA8 41FF 0001      00001        2347+           LA R15,1(R15)                                                02400034
000CAC 46E0 CC72      00C72        2348+         BCT   (R14),##129                 BRANCH BACK TO START OF LOOP
000CB0                             2349+##130    DS    0H                          TARGET TO LEAVE THE LOOP
000CB0 98E0 D00C      0000C        2350+         LM  R14,R0,12(R13)                                             02440032
                                   2351                  ENDIF                                                  16980038
000CB4                             2352+##128    DS    0H                          TARGET FOR ENDIF BRANCH
                                   2353                  IF (CH,R1,GT,=Y(99))                                   16990041
000CB4 4910 AA92      02A92        2354+         CH    R1,=Y(99)
000CB8 47D0 CCC4      00CC4        2355+         BC    15-2,##134                  BRANCH IF NOT TRUE
                                   2356                    UERREXIT ERRMSGS3                                    17000041
000CBC 4100 B094      01094        2357+         LA R0,ERRMSGS3                                                 11580034
000CC0 45E0 A410      02410        2358+         BAL R14,ERRMSG                                                 11590034
                                   2359                  ENDIF                                                  17010041
000CC4                             2360+##134    DS    0H                          TARGET FOR ELSE BRANCH
000CC4 4210 300D      0000D        2361                  STC R1,SPFMM                                           17020041
                                   2362                ENDIF                                                    17030038
000CC8                             2363+##121    DS    0H                          TARGET FOR ENDIF BRANCH
                                   2364              ENDIF                      , NOT NOW                       17040038XE4S001Z *** XE4S001Z *** DISPLAY/UPDATE SPF INFO ***                                                          PAGE   45


  LOC  OBJECT CODE    ADDR1 ADDR2  STMT   SOURCE STATEMENT                                       ASM 0201 10.53 06/08/08

000CC8                             2365+##116    DS    0H                          TARGET FOR ENDIF BRANCH
                                   2366            ELSE                                                         17050033
000CC8 47F0 CF68      00F68        2367+         B     ##135                       BRANCH TO ENDIF
000CCC                             2368+##113    DS    0H                          TARGET FOR BRANCH ON ELSE
                                   2369 *CREATION DATE                                                          17060033
                                   2370            IF (CH,R6,E,=Y(3))          CDATE                            17070033
000CCC 4960 AA8E      02A8E        2371+         CH    R6,=Y(3)
000CD0 4770 CD30      00D30        2372+         BC    15-8,##136                  BRANCH IF NOT TRUE
                                   2373             IF (CH,R1,GE,=Y(6)),AND,(CLC,0(3,R2),EQ,=C'000000')         17080039
000CD4 4910 AA94      02A94        2374+         CH    R1,=Y(6)
000CD8 4740 CCF0      00CF0        2375+         BC    15-11,##137                 BRANCH IF NOT TRUE
000CDC D502 2000 AA96 00000 02A96  2376+         CLC   0(3,R2),=C'000000'
000CE2 4770 CCF0      00CF0        2377+         BC    15-8,##137                  BRANCH IF NOT TRUE
000CE6                             2378+##138    DS    0H                        TARGET FOR BANCH ON NOT TRUE
000CE6 D703 3010 3010 00010 00010  2379              XC SPFCRD,SPFCRD                                           17090039
                                   2380             ELSE                                                        17100039
000CEC 47F0 CD2C      00D2C        2381+         B     ##139                       BRANCH TO ENDIF
000CF0                             2382+##137    DS    0H                          TARGET FOR BRANCH ON ELSE
                                   2383              IF (CH,R1,GE,=Y(3)),AND,(CLC,0(3,R2),EQ,=C'NOW')           17110034
000CF0 4910 AA8E      02A8E        2384+         CH    R1,=Y(3)
000CF4 4740 CD08      00D08        2385+         BC    15-11,##140                 BRANCH IF NOT TRUE
000CF8 D502 2000 AAC7 00000 02AC7  2386+         CLC   0(3,R2),=C'NOW'
000CFE 4770 CD08      00D08        2387+         BC    15-8,##140                  BRANCH IF NOT TRUE
000D02                             2388+##141    DS    0H                        TARGET FOR BANCH ON NOT TRUE
000D02 1B11                        2389                SR R1,R1                ID OF TODAY                      17120034
                                   2390              ELSE                                                       17130039
000D04 47F0 CD1E      00D1E        2391+         B     ##142                       BRANCH TO ENDIF
000D08                             2392+##140    DS    0H                          TARGET FOR BRANCH ON ELSE
                                   2393                IF (LTR,R1,R1,Z),OR,(LTR,R15,R15,NZ) MISSING OPERAND     17140034
000D08 1211                        2394+         LTR   R1,R1
000D0A 4780 CD14      00D14        2395+         BC    8,##144                     BRANCH IF TRUE
000D0E 12FF                        2396+         LTR   R15,R15
000D10 4780 CD1C      00D1C        2397+         BC    15-7,##143                  BRANCH IF NOT TRUE
000D14                             2398+##144    DS    0H                        TARGET FOR BANCH ON NOT TRUE
000D14 1B11                        2399                  SR R1,R1                ID OF TODAY                    17150034
                                   2400 *                IF (TM,SPFSW,EQUSPFI,O)  PREVIOUS SPF INFO EXIST       17160039
000D16 0610                        2401                    BCTR R1,0              KEEP CURRENT VALUE            17170034
                                   2402 *                ENDIF                                                  17180039
                                   2403                ELSE                                                     17190034
000D18 47F0 CD1E      00D1E        2404+         B     ##145                       BRANCH TO ENDIF
000D1C                             2405+##143    DS    0H                          TARGET FOR BRANCH ON ELSE
000D1C 1812                        2406                  LR R1,R2                 DATE FLD ADDR                 17200034
                                   2407                ENDIF                                                    17210034
000D1E                             2408+##145    DS    0H                          TARGET FOR ENDIF BRANCH
                                   2409              ENDIF                                                      17220033
000D1E                             2410+##142    DS    0H                          TARGET FOR ENDIF BRANCH
                                   2411              IF (LTR,R1,R1,NM)                                          17230033
000D1E 1211                        2412+         LTR   R1,R1
000D20 4740 CD2C      00D2C        2413+         BC    15-11,##146                 BRANCH IF NOT TRUE
000D24 45E0 B250      01250        2414                BAL R14,DATE2JD                                          17240033
000D28 5010 3010      00010        2415                ST R1,SPFCRD                                             17250033
                                   2416              ENDIF                                                      17260033
000D2C                             2417+##146    DS    0H                          TARGET FOR ELSE BRANCH
                                   2418             ENDIF                                                       17270039
000D2C                             2419+##139    DS    0H                          TARGET FOR ENDIF BRANCHXE4S001Z *** XE4S001Z *** DISPLAY/UPDATE SPF INFO ***                                                          PAGE   46


  LOC  OBJECT CODE    ADDR1 ADDR2  STMT   SOURCE STATEMENT                                       ASM 0201 10.53 06/08/08

                                   2420            ELSE                                                         17280033
000D2C 47F0 CF68      00F68        2421+         B     ##147                       BRANCH TO ENDIF
000D30                             2422+##136    DS    0H                          TARGET FOR BRANCH ON ELSE
                                   2423 *UPDATE DATE                                                            17290033
                                   2424            IF (CH,R6,E,=Y(4))          UDATE                            17300033
000D30 4960 AA9C      02A9C        2425+         CH    R6,=Y(4)
000D34 4770 CD94      00D94        2426+         BC    15-8,##148                  BRANCH IF NOT TRUE
                                   2427             IF (CH,R1,GE,=Y(6)),AND,(CLC,0(3,R2),EQ,=C'000000')         17310039
000D38 4910 AA94      02A94        2428+         CH    R1,=Y(6)
000D3C 4740 CD54      00D54        2429+         BC    15-11,##149                 BRANCH IF NOT TRUE
000D40 D502 2000 AA96 00000 02A96  2430+         CLC   0(3,R2),=C'000000'
000D46 4770 CD54      00D54        2431+         BC    15-8,##149                  BRANCH IF NOT TRUE
000D4A                             2432+##150    DS    0H                        TARGET FOR BANCH ON NOT TRUE
000D4A D703 3014 3014 00014 00014  2433              XC SPFCHD,SPFCHD                                           17320039
                                   2434             ELSE                                                        17330039
000D50 47F0 CD90      00D90        2435+         B     ##151                       BRANCH TO ENDIF
000D54                             2436+##149    DS    0H                          TARGET FOR BRANCH ON ELSE
                                   2437              IF (CH,R1,GE,=Y(3)),AND,(CLC,0(3,R2),EQ,=C'NOW')           17340034
000D54 4910 AA8E      02A8E        2438+         CH    R1,=Y(3)
000D58 4740 CD6C      00D6C        2439+         BC    15-11,##152                 BRANCH IF NOT TRUE
000D5C D502 2000 AAC7 00000 02AC7  2440+         CLC   0(3,R2),=C'NOW'
000D62 4770 CD6C      00D6C        2441+         BC    15-8,##152                  BRANCH IF NOT TRUE
000D66                             2442+##153    DS    0H                        TARGET FOR BANCH ON NOT TRUE
000D66 1B11                        2443                SR R1,R1                ID OF TODAY                      17350034
                                   2444              ELSE                                                       17360034
000D68 47F0 CD82      00D82        2445+         B     ##154                       BRANCH TO ENDIF
000D6C                             2446+##152    DS    0H                          TARGET FOR BRANCH ON ELSE
                                   2447                IF (LTR,R1,R1,Z),OR,(LTR,R15,R15,NZ) MISSING OPERAND     17370034
000D6C 1211                        2448+         LTR   R1,R1
000D6E 4780 CD78      00D78        2449+         BC    8,##156                     BRANCH IF TRUE
000D72 12FF                        2450+         LTR   R15,R15
000D74 4780 CD80      00D80        2451+         BC    15-7,##155                  BRANCH IF NOT TRUE
000D78                             2452+##156    DS    0H                        TARGET FOR BANCH ON NOT TRUE
000D78 1B11                        2453                  SR R1,R1                ID OF TODAY                    17380034
                                   2454 *                IF (TM,SPFSW,EQUSPFI,O)  PREVIOUS SPF INFO EXIST       17390039
000D7A 0610                        2455                    BCTR R1,0              KEEP CURRENT VALUE            17400034
                                   2456 *                ENDIF                                                  17410039
                                   2457                ELSE                                                     17420034
000D7C 47F0 CD82      00D82        2458+         B     ##157                       BRANCH TO ENDIF
000D80                             2459+##155    DS    0H                          TARGET FOR BRANCH ON ELSE
000D80 1812                        2460                  LR R1,R2                 DATE FLD ADDR                 17430033
                                   2461                ENDIF                                                    17440033
000D82                             2462+##157    DS    0H                          TARGET FOR ENDIF BRANCH
                                   2463              ENDIF                                                      17450033
000D82                             2464+##154    DS    0H                          TARGET FOR ENDIF BRANCH
                                   2465              IF (LTR,R1,R1,NM)                                          17460033
000D82 1211                        2466+         LTR   R1,R1
000D84 4740 CD90      00D90        2467+         BC    15-11,##158                 BRANCH IF NOT TRUE
000D88 45E0 B250      01250        2468                BAL R14,DATE2JD                                          17470033
000D8C 5010 3014      00014        2469                ST R1,SPFCHD                                             17480033
                                   2470              ENDIF                                                      17490033
000D90                             2471+##158    DS    0H                          TARGET FOR ELSE BRANCH
                                   2472             ENDIF            , 000000                                   17500039
000D90                             2473+##151    DS    0H                          TARGET FOR ENDIF BRANCH
                                   2474            ELSE                                                         17510033XE4S001Z *** XE4S001Z *** DISPLAY/UPDATE SPF INFO ***                                                          PAGE   47


  LOC  OBJECT CODE    ADDR1 ADDR2  STMT   SOURCE STATEMENT                                       ASM 0201 10.53 06/08/08

000D90 47F0 CF68      00F68        2475+         B     ##159                       BRANCH TO ENDIF
000D94                             2476+##148    DS    0H                          TARGET FOR BRANCH ON ELSE
                                   2477 *UPDATE TIME                                                            17520033
                                   2478            IF (CH,R6,E,=Y(5))          UTIME                            17530033
000D94 4960 AA9E      02A9E        2479+         CH    R6,=Y(5)
000D98 4770 CDDC      00DDC        2480+         BC    15-8,##160                  BRANCH IF NOT TRUE
                                   2481              IF (CH,R1,GE,=Y(3)),AND,(CLC,0(3,R2),EQ,=C'NOW')           17540034
000D9C 4910 AA8E      02A8E        2482+         CH    R1,=Y(3)
000DA0 4740 CDB4      00DB4        2483+         BC    15-11,##161                 BRANCH IF NOT TRUE
000DA4 D502 2000 AAC7 00000 02AC7  2484+         CLC   0(3,R2),=C'NOW'
000DAA 4770 CDB4      00DB4        2485+         BC    15-8,##161                  BRANCH IF NOT TRUE
000DAE                             2486+##162    DS    0H                        TARGET FOR BANCH ON NOT TRUE
000DAE 1B11                        2487                SR R1,R1                ID OF TODAY                      17550034
                                   2488              ELSE                                                       17560034
000DB0 47F0 CDCA      00DCA        2489+         B     ##163                       BRANCH TO ENDIF
000DB4                             2490+##161    DS    0H                          TARGET FOR BRANCH ON ELSE
                                   2491                IF (LTR,R1,R1,Z),OR,(LTR,R15,R15,NZ) MISSING OPERAND     17570034
000DB4 1211                        2492+         LTR   R1,R1
000DB6 4780 CDC0      00DC0        2493+         BC    8,##165                     BRANCH IF TRUE
000DBA 12FF                        2494+         LTR   R15,R15
000DBC 4780 CDC8      00DC8        2495+         BC    15-7,##164                  BRANCH IF NOT TRUE
000DC0                             2496+##165    DS    0H                        TARGET FOR BANCH ON NOT TRUE
000DC0 1B11                        2497                  SR R1,R1                ID OF TODAY                    17580034
                                   2498 *                IF (TM,SPFSW,EQUSPFI,O)  PREVIOUS SPF INFO EXIST       17590039
000DC2 0610                        2499                    BCTR R1,0              KEEP CURRENT VALUE            17600034
                                   2500 *                ENDIF                                                  17610039
                                   2501                ELSE                                                     17620034
000DC4 47F0 CDCA      00DCA        2502+         B     ##166                       BRANCH TO ENDIF
000DC8                             2503+##164    DS    0H                          TARGET FOR BRANCH ON ELSE
000DC8 1812                        2504                    LR R1,R2                 DATE FLD ADDR               17630034
                                   2505                ENDIF                                                    17640033
000DCA                             2506+##166    DS    0H                          TARGET FOR ENDIF BRANCH
                                   2507              ENDIF                                                      17650033
000DCA                             2508+##163    DS    0H                          TARGET FOR ENDIF BRANCH
                                   2509              IF (LTR,R1,R1,NM)                                          17660033
000DCA 1211                        2510+         LTR   R1,R1
000DCC 4740 CDD8      00DD8        2511+         BC    15-11,##167                 BRANCH IF NOT TRUE
000DD0 45E0 B0E4      010E4        2512                BAL R14,HHMM2TM                                          17670033
000DD4 4010 3018      00018        2513                STH R1,SPFCHT                                            17680034
                                   2514              ENDIF                                                      17690033
000DD8                             2515+##167    DS    0H                          TARGET FOR ELSE BRANCH
                                   2516            ELSE                                                         17700033
000DD8 47F0 CF68      00F68        2517+         B     ##168                       BRANCH TO ENDIF
000DDC                             2518+##160    DS    0H                          TARGET FOR BRANCH ON ELSE
                                   2519 *CURRENT LINE COUNT                                                     17710033
                                   2520            IF (CH,R6,E,=Y(6))          CURLINE                          17720035
000DDC 4960 AA94      02A94        2521+         CH    R6,=Y(6)
000DE0 4770 CE7C      00E7C        2522+         BC    15-8,##169                  BRANCH IF NOT TRUE
                                   2523              IF (CH,R1,GE,=Y(3)),AND,(CLC,0(3,R2),EQ,=C'NOW')           17730034
000DE4 4910 AA8E      02A8E        2524+         CH    R1,=Y(3)
000DE8 4740 CE02      00E02        2525+         BC    15-11,##170                 BRANCH IF NOT TRUE
000DEC D502 2000 AAC7 00000 02AC7  2526+         CLC   0(3,R2),=C'NOW'
000DF2 4770 CE02      00E02        2527+         BC    15-8,##170                  BRANCH IF NOT TRUE
000DF6                             2528+##171    DS    0H                        TARGET FOR BANCH ON NOT TRUE
000DF6 45E0 B464      01464        2529                BAL R14,GETLINEC         ID OF CURRENT LINE COUNT        17740035XE4S001Z *** XE4S001Z *** DISPLAY/UPDATE SPF INFO ***                                                          PAGE   48


  LOC  OBJECT CODE    ADDR1 ADDR2  STMT   SOURCE STATEMENT                                       ASM 0201 10.53 06/08/08

000DFA 4010 301A      0001A        2530                STH R1,SPFCLNO                                           17750034
                                   2531              ELSE                                                       17760034
000DFE 47F0 CE78      00E78        2532+         B     ##172                       BRANCH TO ENDIF
000E02                             2533+##170    DS    0H                          TARGET FOR BRANCH ON ELSE
                                   2534                IF (LTR,R1,R1,Z),OR,(LTR,R15,R15,NZ) MISSING OPERAND     17770034
000E02 1211                        2535+         LTR   R1,R1
000E04 4780 CE0E      00E0E        2536+         BC    8,##174                     BRANCH IF TRUE
000E08 12FF                        2537+         LTR   R15,R15
000E0A 4780 CE24      00E24        2538+         BC    15-7,##173                  BRANCH IF NOT TRUE
000E0E                             2539+##174    DS    0H                        TARGET FOR BANCH ON NOT TRUE
                                   2540                  IF (TM,SPFSW,EQUSPFI,O)  PREVIOUS SPF INFO EXIST       17780034
000E0E 9102 AE57      02E57        2541+         TM    SPFSW,EQUSPFI
000E12 47E0 CE1A      00E1A        2542+         BC    15-1,##175                  BRANCH IF NOT TRUE
                                   2543                  ELSE                                                   17790034
000E16 47F0 CE20      00E20        2544+         B     ##176                       BRANCH TO ENDIF
000E1A                             2545+##175    DS    0H                          TARGET FOR BRANCH ON ELSE
000E1A D701 301A 301A 0001A 0001A  2546                    XC SPFCLNO,SPFCLNO                                   17800034
                                   2547                  ENDIF                                                  17810034
000E20                             2548+##176    DS    0H                          TARGET FOR ENDIF BRANCH
                                   2549                ELSE                                                     17820034
000E20 47F0 CE78      00E78        2550+         B     ##177                       BRANCH TO ENDIF
000E24                             2551+##173    DS    0H                          TARGET FOR BRANCH ON ELSE
                                   2552                  UATOI (R2),LEN=(R1)                                    17830033
000E24                             2553+         DS  0H                                                         01830032
000E24                             2554+         DS 0H                                                          02010032
000E24 90E0 D00C      0000C        2555+         STM R14,R0,12(R13)                                             02020032
000E28 1802                        2556+         LR R0,R2                     GET INT VALUE                     02090032
000E2A 18E1                        2557+         LR R14,R1                      GET INT VALUE                   02180032
000E2C 1B11                        2558+         SR R1,R1                                                       02280032
000E2E 18F0                        2559+         LR R15,R0                    ADDR                              02290034
000E30 1B00                        2560+         SR R0,R0                                                       02300034
000E32                             2561+##178    DS    0H                         TARGET FOR DO-LOOP
000E32 9500 F000      00000        2562+         CLI   0(R15),X'00'
000E36 4770 CE3E      00E3E        2563+         BC    15-8,##180                  BRANCH IF NOT TRUE
000E3A 47F0 CE70      00E70        2564+         B     ##179                     LEAVE THE LOOP &DO
000E3E                             2565+##180    DS    0H                          TARGET FOR ELSE BRANCH
000E3E 95F0 F000      00000        2566+         CLI   0(R15),C'0'
000E42 47B0 CE4A      00E4A        2567+         BC    15-4,##181                  BRANCH IF NOT TRUE
000E46 47F0 CE70      00E70        2568+         B     ##179                     LEAVE THE LOOP &DO
000E4A                             2569+##181    DS    0H                          TARGET FOR ELSE BRANCH
000E4A 95F9 F000      00000        2570+         CLI   0(R15),C'9'
000E4E 47D0 CE56      00E56        2571+         BC    15-2,##182                  BRANCH IF NOT TRUE
000E52 47F0 CE70      00E70        2572+         B     ##179                     LEAVE THE LOOP &DO
000E56                             2573+##182    DS    0H                          TARGET FOR ELSE BRANCH
000E56 430F 0000      00000        2574+           IC R0,0(R15)                                                 02350034
000E5A 8900 001C      0001C        2575+           SLL R0,24+4                                                  02360034
000E5E 8800 001C      0001C        2576+           SRL R0,24+4                                                  02370034
000E62 4C10 AA90      02A90        2577+           MH R1,=Y(10)                                                 02380032
000E66 1A10                        2578+           AR R1,R0                                                     02390034
000E68 41FF 0001      00001        2579+           LA R15,1(R15)                                                02400034
000E6C 46E0 CE32      00E32        2580+         BCT   (R14),##178                 BRANCH BACK TO START OF LOOP
000E70                             2581+##179    DS    0H                          TARGET TO LEAVE THE LOOP
000E70 98E0 D00C      0000C        2582+         LM  R14,R0,12(R13)                                             02440032
000E74 4010 301A      0001A        2583                  STH R1,SPFCLNO                                         17840033
                                   2584                ENDIF                                                    17850033XE4S001Z *** XE4S001Z *** DISPLAY/UPDATE SPF INFO ***                                                          PAGE   49


  LOC  OBJECT CODE    ADDR1 ADDR2  STMT   SOURCE STATEMENT                                       ASM 0201 10.53 06/08/08

000E78                             2585+##177    DS    0H                          TARGET FOR ENDIF BRANCH
                                   2586              ENDIF                                                      17860033
000E78                             2587+##172    DS    0H                          TARGET FOR ENDIF BRANCH
                                   2588            ELSE                                                         17870033
000E78 47F0 CF68      00F68        2589+         B     ##183                       BRANCH TO ENDIF
000E7C                             2590+##169    DS    0H                          TARGET FOR BRANCH ON ELSE
                                   2591 *INITIAL LINE COUNT                                                     17880035
                                   2592            IF (CH,R6,E,=Y(7))          INITLINE                         17890035
000E7C 4960 AAA0      02AA0        2593+         CH    R6,=Y(7)
000E80 4770 CF1E      00F1E        2594+         BC    15-8,##184                  BRANCH IF NOT TRUE
                                   2595              IF (CH,R1,GE,=Y(3)),AND,(CLC,0(3,R2),EQ,=C'NOW')           17900035
000E84 4910 AA8E      02A8E        2596+         CH    R1,=Y(3)
000E88 4740 CEA2      00EA2        2597+         BC    15-11,##185                 BRANCH IF NOT TRUE
000E8C D502 2000 AAC7 00000 02AC7  2598+         CLC   0(3,R2),=C'NOW'
000E92 4770 CEA2      00EA2        2599+         BC    15-8,##185                  BRANCH IF NOT TRUE
000E96                             2600+##186    DS    0H                        TARGET FOR BANCH ON NOT TRUE
000E96 45E0 B464      01464        2601                BAL R14,GETLINEC         ID OF CURRENT LINE COUNT        17910035
000E9A 4010 301C      0001C        2602                STH R1,SPFILNO                                           17920035
                                   2603              ELSE                                                       17930035
000E9E 47F0 CF1A      00F1A        2604+         B     ##187                       BRANCH TO ENDIF
000EA2                             2605+##185    DS    0H                          TARGET FOR BRANCH ON ELSE
                                   2606                IF (LTR,R1,R1,Z),OR,(LTR,R15,R15,NZ) MISSING OPERAND     17940035
000EA2 1211                        2607+         LTR   R1,R1
000EA4 4780 CEAE      00EAE        2608+         BC    8,##189                     BRANCH IF TRUE
000EA8 12FF                        2609+         LTR   R15,R15
000EAA 4780 CEC6      00EC6        2610+         BC    15-7,##188                  BRANCH IF NOT TRUE
000EAE                             2611+##189    DS    0H                        TARGET FOR BANCH ON NOT TRUE
000EAE 1B11                        2612                  SR R1,R1                ID OF KEEP CURRENT             17950035
                                   2613                  IF (TM,SPFSW,EQUSPFI,O)  PREVIOUS SPF INFO EXIST       17960035
000EB0 9102 AE57      02E57        2614+         TM    SPFSW,EQUSPFI
000EB4 47E0 CEBC      00EBC        2615+         BC    15-1,##190                  BRANCH IF NOT TRUE
                                   2616                  ELSE                                                   17970035
000EB8 47F0 CEC2      00EC2        2617+         B     ##191                       BRANCH TO ENDIF
000EBC                             2618+##190    DS    0H                          TARGET FOR BRANCH ON ELSE
000EBC D701 301C 301C 0001C 0001C  2619                    XC SPFILNO,SPFILNO                                   17980035
                                   2620                  ENDIF                                                  17990035
000EC2                             2621+##191    DS    0H                          TARGET FOR ENDIF BRANCH
                                   2622                ELSE                                                     18000035
000EC2 47F0 CF1A      00F1A        2623+         B     ##192                       BRANCH TO ENDIF
000EC6                             2624+##188    DS    0H                          TARGET FOR BRANCH ON ELSE
                                   2625                  UATOI (R2),LEN=(R1)                                    18010035
000EC6                             2626+         DS  0H                                                         01830032
000EC6                             2627+         DS 0H                                                          02010032
000EC6 90E0 D00C      0000C        2628+         STM R14,R0,12(R13)                                             02020032
000ECA 1802                        2629+         LR R0,R2                     GET INT VALUE                     02090032
000ECC 18E1                        2630+         LR R14,R1                      GET INT VALUE                   02180032
000ECE 1B11                        2631+         SR R1,R1                                                       02280032
000ED0 18F0                        2632+         LR R15,R0                    ADDR                              02290034
000ED2 1B00                        2633+         SR R0,R0                                                       02300034
000ED4                             2634+##193    DS    0H                         TARGET FOR DO-LOOP
000ED4 9500 F000      00000        2635+         CLI   0(R15),X'00'
000ED8 4770 CEE0      00EE0        2636+         BC    15-8,##195                  BRANCH IF NOT TRUE
000EDC 47F0 CF12      00F12        2637+         B     ##194                     LEAVE THE LOOP &DO
000EE0                             2638+##195    DS    0H                          TARGET FOR ELSE BRANCH
000EE0 95F0 F000      00000        2639+         CLI   0(R15),C'0'XE4S001Z *** XE4S001Z *** DISPLAY/UPDATE SPF INFO ***                                                          PAGE   50


  LOC  OBJECT CODE    ADDR1 ADDR2  STMT   SOURCE STATEMENT                                       ASM 0201 10.53 06/08/08

000EE4 47B0 CEEC      00EEC        2640+         BC    15-4,##196                  BRANCH IF NOT TRUE
000EE8 47F0 CF12      00F12        2641+         B     ##194                     LEAVE THE LOOP &DO
000EEC                             2642+##196    DS    0H                          TARGET FOR ELSE BRANCH
000EEC 95F9 F000      00000        2643+         CLI   0(R15),C'9'
000EF0 47D0 CEF8      00EF8        2644+         BC    15-2,##197                  BRANCH IF NOT TRUE
000EF4 47F0 CF12      00F12        2645+         B     ##194                     LEAVE THE LOOP &DO
000EF8                             2646+##197    DS    0H                          TARGET FOR ELSE BRANCH
000EF8 430F 0000      00000        2647+           IC R0,0(R15)                                                 02350034
000EFC 8900 001C      0001C        2648+           SLL R0,24+4                                                  02360034
000F00 8800 001C      0001C        2649+           SRL R0,24+4                                                  02370034
000F04 4C10 AA90      02A90        2650+           MH R1,=Y(10)                                                 02380032
000F08 1A10                        2651+           AR R1,R0                                                     02390034
000F0A 41FF 0001      00001        2652+           LA R15,1(R15)                                                02400034
000F0E 46E0 CED4      00ED4        2653+         BCT   (R14),##193                 BRANCH BACK TO START OF LOOP
000F12                             2654+##194    DS    0H                          TARGET TO LEAVE THE LOOP
000F12 98E0 D00C      0000C        2655+         LM  R14,R0,12(R13)                                             02440032
000F16 4010 301C      0001C        2656                  STH R1,SPFILNO                                         18020035
                                   2657                ENDIF                                                    18030035
000F1A                             2658+##192    DS    0H                          TARGET FOR ENDIF BRANCH
                                   2659              ENDIF                                                      18040035
000F1A                             2660+##187    DS    0H                          TARGET FOR ENDIF BRANCH
                                   2661            ELSE                                                         18050035
000F1A 47F0 CF68      00F68        2662+         B     ##198                       BRANCH TO ENDIF
000F1E                             2663+##184    DS    0H                          TARGET FOR BRANCH ON ELSE
                                   2664 *USERID                                                                 18060033
                                   2665            IF (CH,R6,E,=Y(8))          USER                             18070033
000F1E 4960 AAA2      02AA2        2666+         CH    R6,=Y(8)
000F22 4770 CF68      00F68        2667+         BC    15-8,##199                  BRANCH IF NOT TRUE
                                   2668              IF (LTR,R1,R1,Z)          MISSING OPERAND                  18080033
000F26 1211                        2669+         LTR   R1,R1
000F28 4770 CF42      00F42        2670+         BC    15-8,##200                  BRANCH IF NOT TRUE
                                   2671                IF (TM,SPFSW,EQUSPFI,O)  PREVIOUS SPF INFO EXIST         18090033
000F2C 9102 AE57      02E57        2672+         TM    SPFSW,EQUSPFI
000F30 47E0 CF38      00F38        2673+         BC    15-1,##201                  BRANCH IF NOT TRUE
                                   2674                ELSE                                                     18100033
000F34 47F0 CF3E      00F3E        2675+         B     ##202                       BRANCH TO ENDIF
000F38                             2676+##201    DS    0H                          TARGET FOR BRANCH ON ELSE
000F38 D207 3020 AB24 00020 02B24  2677                  MVC SPFUSR,BLANK                                       18110033
                                   2678                ENDIF                                                    18120033
000F3E                             2679+##202    DS    0H                          TARGET FOR ENDIF BRANCH
                                   2680              ELSE                                                       18130033
000F3E 47F0 CF64      00F64        2681+         B     ##203                       BRANCH TO ENDIF
000F42                             2682+##200    DS    0H                          TARGET FOR BRANCH ON ELSE
000F42 D207 3020 AB24 00020 02B24  2683                MVC SPFUSR,BLANK                                         18140033
                                   2684                IF (CH,R1,GE,=Y(8))                                      18150033
000F48 4910 AAA2      02AA2        2685+         CH    R1,=Y(8)
000F4C 4740 CF54      00F54        2686+         BC    15-11,##204                 BRANCH IF NOT TRUE
000F50 4110 0008      00008        2687                  LA R1,8                                                18160033
                                   2688                ENDIF                                                    18170033
000F54                             2689+##204    DS    0H                          TARGET FOR ELSE BRANCH
000F54 0610                        2690                BCTR R1,0                                                18180033
000F56 4410 CF5E      00F5E        2691                EX R1,*+4+4                                              18190033
000F5A 47F0 CF64      00F64        2692                B *+4+6                                                  18200033
000F5E D200 3020 2000 00020 00000  2693                MVC SPFUSR(0),0(R2)                                      18210033
                                   2694              ENDIF                                                      18220033XE4S001Z *** XE4S001Z *** DISPLAY/UPDATE SPF INFO ***                                                          PAGE   51


  LOC  OBJECT CODE    ADDR1 ADDR2  STMT   SOURCE STATEMENT                                       ASM 0201 10.53 06/08/08

000F64                             2695+##203    DS    0H                          TARGET FOR ENDIF BRANCH
                                   2696            ELSE                                                         18230033
000F64 47F0 CF68      00F68        2697+         B     ##205                       BRANCH TO ENDIF
000F68                             2698+##199    DS    0H                          TARGET FOR BRANCH ON ELSE
                                   2699            ENDIF                       8                                18240033
000F68                             2700+##205    DS    0H                          TARGET FOR ENDIF BRANCH
                                   2701            ENDIF                       7                                18250033
000F68                             2702+##198    DS    0H                          TARGET FOR ENDIF BRANCH
                                   2703            ENDIF                       6                                18260033
000F68                             2704+##183    DS    0H                          TARGET FOR ENDIF BRANCH
                                   2705            ENDIF                       5                                18270033
000F68                             2706+##168    DS    0H                          TARGET FOR ENDIF BRANCH
                                   2707            ENDIF                       4                                18280033
000F68                             2708+##159    DS    0H                          TARGET FOR ENDIF BRANCH
                                   2709            ENDIF                       3                                18290033
000F68                             2710+##147    DS    0H                          TARGET FOR ENDIF BRANCH
                                   2711            ENDIF                       1                                18300033
000F68                             2712+##135    DS    0H                          TARGET FOR ENDIF BRANCH
                                   2713            ENDIF                       1                                18310033
000F68                             2714+##112    DS    0H                          TARGET FOR ENDIF BRANCH
                                   2715          ENDDO                                                          18320033
000F68 47F0 CA4A      00A4A        2716+         B     ##84                        BRANCH BACK TO START OF LOOP
000F6C                             2717+##85     DS    0H                          TARGET TO LEAVE THE LOOP
000F6C                             2718 GETSPFPE DS 0H                                                          18330035
                                   2719  ULSNAP 'NEW SPFI',((R3),DIRESZ)                                        18340033

                                   2721+*                                 START MACRO ULSNAP ****************** 09800053
000F6C                             2722+         DS    0H                       ON HALFW BOUNDARY/JUST IN CASE  09820053
                                   2723+*                                       ULSNAP MACRO IGNORED/SYSPARM    10040053
                                   2724+*                                       NOSNAP HAS BEEN USED            10050053
                                   2725+*                                 END MACRO ULSNAP  ******************* 10060053
                                   2726 *                                                                       18350031
000F6C 980F CF74      00F74        2727          LM  R0,R15,SVRGSP                                              18360033
000F70 07FE                        2728          BR R14                                                         18370031
                                   2729 ****************                                                        18380031
000F74                             2730 SVRGSP   DS 16F                                                         18390033
                            00008  2731 EQMAXPM  EQU 8                                                          18400033
000FB4 0000000000000000            2732 WSPFPAN  DC (EQMAXPM)F'0'                                               18410033
000FD4 0000000000000000            2733 WSPFPLN  DC (EQMAXPM)F'0'                                               18420033
000FF4 405C40E3D6D640D4            2734 ERRMSGS1 DC CL80' * TOO MANY SPF PARAMETER'                             18430033
001044 405C40D5D640E2D7            2735 ERRMSGS2 DC CL80' * NO SPF INFO TO BE DELETED'                          18440035
001094 405C40D4C1E740E5            2736 ERRMSGS3 DC CL80' * MAX VALUE IS 99 FOR VER/MOD'                        18450041
                                   2737 **********************************************************************  18460031
                                   2738 * GET TIME PARM AND CONV TO SPF FMT                        A#002        18470040
                                   2739 * PARM R1:HHMM   FLD ADDR OR 0 IF CURRENT TIME                          18480031
                                   2740 **********************************************************************  18490031
0010E4                             2741 HHMM2TM  DS 0H                                                          18500031
0010E4 50E0 B1F4      011F4        2742          ST R14,SVR14GTM                                                18510031
                                   2743 *                                                                       18520031
                                   2744          IF (LTR,R1,R1,Z)  //CURRENT TIME                               18530031
0010E8 1211                        2745+         LTR   R1,R1
0010EA 4770 B0FE      010FE        2746+         BC    15-8,##206                  BRANCH IF NOT TRUE
                                   2747            TIME              ,           R1:00YYDDDF R0:HHMMSSTH        18540033
                                   2748+* /* MACDATE Y-1 72277                                               */ 02050002
                                   2749+* /*                                                                    02100002XE4S001Z *** XE4S001Z *** DISPLAY/UPDATE SPF INFO ***                                                          PAGE   52


  LOC  OBJECT CODE    ADDR1 ADDR2  STMT   SOURCE STATEMENT                                       ASM 0201 10.53 06/08/08

0010EE 4110 0002      00002        2750+         LA    1,2(0,0)                          LOAD 1 TO SPECIFY UNIT 22000002
0010F2 0A0B                        2751+         SVC   11                                ISSUE TIME SVC         35000002
0010F4 1810                        2752            LR R1,R0                                                     18550033
0010F6 8810 0010      00010        2753            SRL R1,16                                                    18560031
                                   2754          ELSE                                                           18570031
0010FA 47F0 B1EE      011EE        2755+         B     ##207                       BRANCH TO ENDIF
0010FE                             2756+##206    DS    0H                          TARGET FOR BRANCH ON ELSE
0010FE 1821                        2757            LR R2,R1                                                     18580034
                                   2758            UATOI (R2),LEN=2                                             18590031
001100                             2759+         DS  0H                                                         01830032
001100                             2760+         DS 0H                                                          02010032
001100 90E0 D00C      0000C        2761+         STM R14,R0,12(R13)                                             02020032
001104 1802                        2762+         LR R0,R2                     GET INT VALUE                     02090032
001106 41E0 0002      00002        2763+         LA R14,2                     IMMEDIATE VALUE                   02140032
00110A 1B11                        2764+         SR R1,R1                                                       02280032
00110C 18F0                        2765+         LR R15,R0                    ADDR                              02290034
00110E 1B00                        2766+         SR R0,R0                                                       02300034
001110                             2767+##208    DS    0H                         TARGET FOR DO-LOOP
001110 9500 F000      00000        2768+         CLI   0(R15),X'00'
001114 4770 B11C      0111C        2769+         BC    15-8,##210                  BRANCH IF NOT TRUE
001118 47F0 B14E      0114E        2770+         B     ##209                     LEAVE THE LOOP &DO
00111C                             2771+##210    DS    0H                          TARGET FOR ELSE BRANCH
00111C 95F0 F000      00000        2772+         CLI   0(R15),C'0'
001120 47B0 B128      01128        2773+         BC    15-4,##211                  BRANCH IF NOT TRUE
001124 47F0 B14E      0114E        2774+         B     ##209                     LEAVE THE LOOP &DO
001128                             2775+##211    DS    0H                          TARGET FOR ELSE BRANCH
001128 95F9 F000      00000        2776+         CLI   0(R15),C'9'
00112C 47D0 B134      01134        2777+         BC    15-2,##212                  BRANCH IF NOT TRUE
001130 47F0 B14E      0114E        2778+         B     ##209                     LEAVE THE LOOP &DO
001134                             2779+##212    DS    0H                          TARGET FOR ELSE BRANCH
001134 430F 0000      00000        2780+           IC R0,0(R15)                                                 02350034
001138 8900 001C      0001C        2781+           SLL R0,24+4                                                  02360034
00113C 8800 001C      0001C        2782+           SRL R0,24+4                                                  02370034
001140 4C10 AA90      02A90        2783+           MH R1,=Y(10)                                                 02380032
001144 1A10                        2784+           AR R1,R0                                                     02390034
001146 41FF 0001      00001        2785+           LA R15,1(R15)                                                02400034
00114A 46E0 B110      01110        2786+         BCT   (R14),##208                 BRANCH BACK TO START OF LOOP
00114E                             2787+##209    DS    0H                          TARGET TO LEAVE THE LOOP
00114E 98E0 D00C      0000C        2788+         LM  R14,R0,12(R13)                                             02440032
                                   2789            IF (LTR,R1,R1,M),OR,(CH,R1,GE,=Y(24))                        18600031
001152 1211                        2790+         LTR   R1,R1
001154 4740 B160      01160        2791+         BC    4,##214                     BRANCH IF TRUE
001158 4910 AAA4      02AA4        2792+         CH    R1,=Y(24)
00115C 4740 B16E      0116E        2793+         BC    15-11,##213                 BRANCH IF NOT TRUE
001160                             2794+##214    DS    0H                        TARGET FOR BANCH ON NOT TRUE
001160 D203 B20D 2000 0120D 00000  2795              MVC ERRMSGTM+13(4),0(R2)                                   18610031
                                   2796              UERREXIT ERRMSGTM                                          18620034
001166 4100 B200      01200        2797+         LA R0,ERRMSGTM                                                 11580034
00116A 45E0 A410      02410        2798+         BAL R14,ERRMSG                                                 11590034
                                   2799            ENDIF                                                        18630034
00116E                             2800+##213    DS    0H                          TARGET FOR ELSE BRANCH
                                   2801            UATOI 2(R2),LEN=2                                            18640034
00116E                             2802+         DS  0H                                                         01830032
00116E                             2803+         DS 0H                                                          02010032
00116E 90E0 D00C      0000C        2804+         STM R14,R0,12(R13)                                             02020032XE4S001Z *** XE4S001Z *** DISPLAY/UPDATE SPF INFO ***                                                          PAGE   53


  LOC  OBJECT CODE    ADDR1 ADDR2  STMT   SOURCE STATEMENT                                       ASM 0201 10.53 06/08/08

001172 4102 0002      00002        2805+         LA R0,2(R2)                   GET INT VALUE                    02050034
001176 41E0 0002      00002        2806+         LA R14,2                     IMMEDIATE VALUE                   02140032
00117A 1B11                        2807+         SR R1,R1                                                       02280032
00117C 18F0                        2808+         LR R15,R0                    ADDR                              02290034
00117E 1B00                        2809+         SR R0,R0                                                       02300034
001180                             2810+##215    DS    0H                         TARGET FOR DO-LOOP
001180 9500 F000      00000        2811+         CLI   0(R15),X'00'
001184 4770 B18C      0118C        2812+         BC    15-8,##217                  BRANCH IF NOT TRUE
001188 47F0 B1BE      011BE        2813+         B     ##216                     LEAVE THE LOOP &DO
00118C                             2814+##217    DS    0H                          TARGET FOR ELSE BRANCH
00118C 95F0 F000      00000        2815+         CLI   0(R15),C'0'
001190 47B0 B198      01198        2816+         BC    15-4,##218                  BRANCH IF NOT TRUE
001194 47F0 B1BE      011BE        2817+         B     ##216                     LEAVE THE LOOP &DO
001198                             2818+##218    DS    0H                          TARGET FOR ELSE BRANCH
001198 95F9 F000      00000        2819+         CLI   0(R15),C'9'
00119C 47D0 B1A4      011A4        2820+         BC    15-2,##219                  BRANCH IF NOT TRUE
0011A0 47F0 B1BE      011BE        2821+         B     ##216                     LEAVE THE LOOP &DO
0011A4                             2822+##219    DS    0H                          TARGET FOR ELSE BRANCH
0011A4 430F 0000      00000        2823+           IC R0,0(R15)                                                 02350034
0011A8 8900 001C      0001C        2824+           SLL R0,24+4                                                  02360034
0011AC 8800 001C      0001C        2825+           SRL R0,24+4                                                  02370034
0011B0 4C10 AA90      02A90        2826+           MH R1,=Y(10)                                                 02380032
0011B4 1A10                        2827+           AR R1,R0                                                     02390034
0011B6 41FF 0001      00001        2828+           LA R15,1(R15)                                                02400034
0011BA 46E0 B180      01180        2829+         BCT   (R14),##215                 BRANCH BACK TO START OF LOOP
0011BE                             2830+##216    DS    0H                          TARGET TO LEAVE THE LOOP
0011BE 98E0 D00C      0000C        2831+         LM  R14,R0,12(R13)                                             02440032
                                   2832            IF (LTR,R1,R1,M),OR,(CH,R1,GE,=Y(60))                        18650034
0011C2 1211                        2833+         LTR   R1,R1
0011C4 4740 B1D0      011D0        2834+         BC    4,##221                     BRANCH IF TRUE
0011C8 4910 AAA6      02AA6        2835+         CH    R1,=Y(60)
0011CC 4740 B1DE      011DE        2836+         BC    15-11,##220                 BRANCH IF NOT TRUE
0011D0                             2837+##221    DS    0H                        TARGET FOR BANCH ON NOT TRUE
0011D0 D203 B20D 2000 0120D 00000  2838              MVC ERRMSGTM+13(4),0(R2)                                   18660034
                                   2839              UERREXIT ERRMSGTM                                          18670034
0011D6 4100 B200      01200        2840+         LA R0,ERRMSGTM                                                 11580034
0011DA 45E0 A410      02410        2841+         BAL R14,ERRMSG                                                 11590034
                                   2842            ENDIF                                                        18680034
0011DE                             2843+##220    DS    0H                          TARGET FOR ELSE BRANCH
0011DE D203 B1FB 2000 011FB 00000  2844            MVC WKTMZ(4),0(R2)                                           18690034
0011E4 F224 B1F8 B1FB 011F8 011FB  2845            PACK WKTMP(3),WKTMZ(5)         F1F2F3F4XY->1234YX            18700034
0011EA 4810 B1F8      011F8        2846            LH R1,WKTMP                                                  18710034
                                   2847          ENDIF                                                          18720031
0011EE                             2848+##207    DS    0H                          TARGET FOR ENDIF BRANCH
                                   2849  ULSNAP 'HHMM2TM',((R2),4)                                              18730034

                                   2851+*                                 START MACRO ULSNAP ****************** 09800053
0011EE                             2852+         DS    0H                       ON HALFW BOUNDARY/JUST IN CASE  09820053
                                   2853+*                                       ULSNAP MACRO IGNORED/SYSPARM    10040053
                                   2854+*                                       NOSNAP HAS BEEN USED            10050053
                                   2855+*                                 END MACRO ULSNAP  ******************* 10060053
                                   2856 *                                                                       18740031
0011EE 58E0 B1F4      011F4        2857          L  R14,SVR14GTM                                                18750031
0011F2 07FE                        2858          BR R14                                                         18760031
                                   2859 ****************                                                        18770031XE4S001Z *** XE4S001Z *** DISPLAY/UPDATE SPF INFO ***                                                          PAGE   54


  LOC  OBJECT CODE    ADDR1 ADDR2  STMT   SOURCE STATEMENT                                       ASM 0201 10.53 06/08/08

0011F4                             2860 SVR14GTM DS F                                                           18780031
0011F8                             2861 WKTMP    DS CL3                                                         18790034
0011FB                             2862 WKTMZ    DS CL5                                                         18800034
001200 405C40E3C9D4C540            2863 ERRMSGTM DC CL80' * TIME PARM(XXXX) ERR'                                18810031
                                   2864 **********************************************************************  18820031
                                   2865 * GET DATE PARM AND CONV TO JURIAN DATE                          A#002  18830040
                                   2866 * PARM R1:YYMMDD FLD ADDR OR 0 IF CURRENT DATE                          18840031
                                   2867 **********************************************************************  18850031
001250                             2868 DATE2JD  DS 0H                                                          18860031
001250 50E0 B400      01400        2869          ST R14,SVR14D2J                                                18870031
                                   2870 *                                                                       18880031
                                   2871          IF (LTR,R1,R1,Z)  //TODAY                                      18890031
001254 1211                        2872+         LTR   R1,R1
001256 4770 B264      01264        2873+         BC    15-8,##222                  BRANCH IF NOT TRUE
                                   2874            TIME              ,           R1:00YYDDDF R0:HHMMSSTH        18900033
                                   2875+* /* MACDATE Y-1 72277                                               */ 02050002
                                   2876+* /*                                                                    02100002
00125A 4110 0002      00002        2877+         LA    1,2(0,0)                          LOAD 1 TO SPECIFY UNIT 22000002
00125E 0A0B                        2878+         SVC   11                                ISSUE TIME SVC         35000002
                                   2879          ELSE                                                           18910031
001260 47F0 B3F8      013F8        2880+         B     ##223                       BRANCH TO ENDIF
001264                             2881+##222    DS    0H                          TARGET FOR BRANCH ON ELSE
001264 D205 B40C 1000 0140C 00000  2882            MVC WKDTZ(6),0(R1)                                           18920034
00126A F236 B404 B40C 01404 0140C  2883            PACK WKDTP(4),WKDTZ(7)         F1F2F3F4F5F6XY->123456YX      18930034
001270 58E0 B404      01404        2884            L R14,WKDTP                                                  18940034
001274 88E0 0008      00008        2885            SRL R14,8                      00YYMMDD                      18950034
001278 50E0 B404      01404        2886            ST R14,WKDTP                                                 18960034
                                   2887  ULSNAP 'DATE2J UDATE INPUT',WKDTP,((R1),6)                             18970034

                                   2889+*                                 START MACRO ULSNAP ****************** 09800053
00127C                             2890+         DS    0H                       ON HALFW BOUNDARY/JUST IN CASE  09820053
                                   2891+*                                       ULSNAP MACRO IGNORED/SYSPARM    10040053
                                   2892+*                                       NOSNAP HAS BEEN USED            10050053
                                   2893+*                                 END MACRO ULSNAP  ******************* 10060053
                                   2894            UDATE WKDTP,TODAY=N,INPUT=S    OUTPUT IS ZONE FMT YYMMDD     18980034

                                   2896+**                                     ***** START MACRO UDATE    ***** 07200004
00127C                             2897+         DS    0H                                                       07210004
00127C 41E0 B404      01404        2898+         LA    R14,WKDTP               ADDR AREA FIELD                  07360004
001280 9200 E000      00000        2899+         MVI  0(R14),0                 CONFIRM TOP BYTE 0               07460034
001284 58FE 0000      00000        2900+         L    R15,0(R14)               INPUT JULIAN DATE                07500004
001288 D705 E000 E000 00000 00000  2901+         XC    0(6,R14),0(R14)         CLEAR AREA                       07530004
00128E 920C E003      00003        2902+         MVI   3(R14),X'0C'            ADD SIGN BIT   0000000C0000      07540004
001292 BEF4 E002      00002        2903+         STCM  R15,B'0100',2(R14)      GET YY*10      0000YY0C0000      07550004
001296 9500 E002      00002        2904+         CLI   2(R14),X'00'            CHK YY             --            07560004
00129A 4780 B2AC      012AC        2905+         BE    UDT0554D                100 NEN NOT URUUDOSHI            07570004
00129E FD31 E000 B390 00000 01390  2906+         DP    0(4,R14),UD055440       /40(4YEAR)     SSSC0R0C0000      07580004
0012A4 9500 E002      00002        2907+         CLI   2(R14),X'00'                               --            07590004
0012A8 4780 B2BC      012BC        2908+         BZ    UDT05541                YES URUU EVERY 4 YEAR            07600004
                            012AC  2909+UDT0554D EQU   *                       HEINEN                           07610004
0012AC 4110 B3AA      013AA        2910+         LA    R1,UD0554HE             YEAR END DAY#                    07630004
0012B0 4100 B394      01394        2911+         LA    R0,UD0554H              MONTH TBL TOP ADDR               07650004
0012B4 50FE 0000      00000        2912+         ST    R15,0(R14)              STORE R15 TO WRK                 07660004
0012B8 47F0 B2D0      012D0        2913+         B     UDT05542                COMMON FOR URUU/HEINEN           07670004
                            012BC  2914+UDT05541 EQU   *                       URUDOSI                          07680004XE4S001Z *** XE4S001Z *** DISPLAY/UPDATE SPF INFO ***                                                          PAGE   55


  LOC  OBJECT CODE    ADDR1 ADDR2  STMT   SOURCE STATEMENT                                       ASM 0201 10.53 06/08/08

0012BC 4110 B3C4      013C4        2915+         LA    R1,UD0554UE             YEAR END DAY#                    07700004
0012C0 4100 B3AE      013AE        2916+         LA    R0,UD0554U              MONTH TBL TOP ADDR               07720004
0012C4 50FE 0000      00000        2917+         ST    R15,0(R14)              +++++ STORE R15 TO WRK           07730004
0012C8 92F0 E000      00000        2918+         MVI   0(R14),X'F0'            +++++ URUU --> TOP BYTE X'F0'    07740034
0012CC 58FE 0000      00000        2919+         L     R15,0(R14)              +++++ STORE DATE TO R15          07750004
                            012D0  2920+UDT05542 EQU   *                       AFTER CHECK URUU                 07760004
0012D0 9500 E003      00003        2921+         CLI   3(R14),X'00'            CHK DD IS ZERO  00YYMMDD0000     07890004
0012D4 4780 B3C6      013C6        2922+         BE    UDT0554E                SPECIFICATION ERR                07900004
0012D8 940F E003      00003        2923+         NI    3(R14),X'0F'            CHK XD          00YYMM0D0000     07910004
0012DC 9509 E003      00003        2924+         CLI   3(R14),X'09'            CHK XD IS X0 - X9                07920004
0012E0 4720 B3C6      013C6        2925+         BH    UDT0554E                SPECIFICATION ERR                07930004
0012E4 42FE 0003      00003        2926+         STC   R15,3(R14)              00YYMMDD0000                     07940004
0012E8 94F0 E003      00003        2927+         NI    3(R14),X'F0'            CHK DX          00YYMMD00000     07950004
0012EC 9530 E003      00003        2928+         CLI   3(R14),X'30'            CHK DX    0X - 3X                07960004
0012F0 4720 B3C6      013C6        2929+         BH    UDT0554E                SPECIFICATION ERR                07970004
0012F4 9500 E002      00002        2930+         CLI   2(R14),X'00'            CHK MM IS ZERO,00YYMMD00000      07990004
0012F8 4780 B3C6      013C6        2931+         BE    UDT0554E                SPECIFICATION ERR                08000004
0012FC 91E0 E002      00002        2932+         TM    2(R14),X'E0'            CHK MM(1X OR 0X)                 08010004
001300 4770 B3C6      013C6        2933+         BNZ   UDT0554E                SPECIFICATION ERR                08020004
001304 D200 E005 E002 00005 00002  2934+         MVC   5(1,R14),2(R14)         00YYMMD000MM                     08030004
00130A 940F E005      00005        2935+         NI    5(R14),X'0F'            00YYMMD0000M                     08040004
00130E 9509 E005      00005        2936+         CLI   5(R14),X'09'            CHK MM (01 TO 09)                08050004
001312 4720 B3C6      013C6        2937+         BH    UDT0554E                SPECIFICATION ERR                08060004
001316 481E 0004      00004        2938+         LH    R1,4(R14)               GET .M                           08080004
00131A 9110 E002      00002        2939+         TM    2(R14),X'10'            CHK MM(1X OR 0X)                 08090004
00131E 47E0 B326      01326        2940+         BNO   UDT0554K                MM IS 01-09                      08100004
001322 4111 000A      0000A        2941+         LA    R1,10(R1)               MM IN BINALY                     08110004
                            01326  2942+UDT0554K EQU   *                                                        08120004
001326 0610                        2943+         BCTR  R1,0                    MM TBL OFFSET                    08130004
001328 0610                        2944+         BCTR  R1,0                    MM-1   OFFSET                    08140004
00132A 8910 0001      00001        2945+         SLL   R1,1                    DAY TBL OFFSET                   08150004
00132E 1A10                        2946+         AR    R1,R0                   MM - 1  MONTH START DAY ADDR     08160004
001330 F811 E004 1000 00004 00000  2947+         ZAP   4(2,R14),0(2,R1)        00------DDDC                     08170004
001336 920C E003      00003        2948+         MVI   3(R14),X'0C'            00----0CDDDC                     08180004
00133A 42FE 0001      00001        2949+         STC   R15,1(R14)              00DD--0CDDDC                     08190004
00133E F111 E002 E000 00002 00000  2950+         MVO   2(2,R14),0(2,R14)       00--0DDCDDDC                     08200004
001344 FA11 E004 E002 00004 00002  2951+         AP    4(2,R14),2(2,R14)       00------DDDC                     08210004
00134A 4111 0002      00002        2952+         LA    R1,2(R1)                MONTH END TBL ADDR               08220004
00134E F911 E004 1000 00004 00000  2953+         CP    4(2,R14),0(2,R1)                ----                     08230004
001354 4720 B3C6      013C6        2954+         BH    UDT0554E                SPECIFICATION ERR                08240004
001358 F811 E002 E004 00002 00004  2955+         ZAP   2(2,R14),4(2,R14)       00--DDDC---C                     08250004
00135E 960F E003      00003        2956+         OI    3(R14),X'0F'            00--DDDF---C                     08260004
001362 BEF4 E001      00001        2957+         STCM  R15,B'0100',1(R14)      00YYDDDF---C                     08270004
001366 580E 0000      00000        2958+         L     R0,0(R14)               FFYYDDDF                         08280004
00136A 9401 E000      00000        2959+         NI    0(R14),X'01'            KEEP 2000 FLAG                   08300034
00136E 581E 0000      00000        2960+         L     R1,0(R14)                                                08310004
001372 F352 E000 E001 00000 00001  2961+         UNPK  0(6,R14),1(3,R14)       F0FYFYFDFDFD                     08320004
001378 1200                        2962+         LTR   R0,R0                   +++++ TEST SIGN OF R0            08330004
00137A 4720 B386      01386        2963+         BP    UDT0554P                +++++                            08340004
00137E 41E0 0004      00004        2964+         LA    R14,4                   +++++ FLAG=4                     08350004
001382 47F0 B38A      0138A        2965+         B     UDT0554R                +++++                            08360004
                            01386  2966+UDT0554P EQU   *                       +++++                            08370004
001386 41E0 0000      00000        2967+         LA    R14,0                   +++++ FLAG=0                     08380004
                            0138A  2968+UDT0554R EQU   *                       +++++                            08390004
00138A 1BFF                        2969+         SR    R15,R15                 R.C                              08400004XE4S001Z *** XE4S001Z *** DISPLAY/UPDATE SPF INFO ***                                                          PAGE   56


  LOC  OBJECT CODE    ADDR1 ADDR2  STMT   SOURCE STATEMENT                                       ASM 0201 10.53 06/08/08

00138C 47F0 B3CA      013CA        2970+         B     UDT0554Z                EXIT                             08410004
001390 040C                        2971+UD055440 DC    PL2'40'                 FOR URUDOSI KEISAN 4 YEAR        08560004
001392 000C                        2972+UD05540  DC    PL2'00'                 MONTH 1 START                    08570004
                            01394  2973+UD0554H  EQU   *                       MONTH END DATE TABLE 1           08580004
001394 031C                        2974+         DC    PL2'31'                 MONTH 1 END                      08590004
001396 059C                        2975+         DC    PL2'59'                 MONTH 2 END                      08600004
001398 090C                        2976+         DC    PL2'90'                 MONTH 3 END                      08610004
00139A 120C                        2977+         DC    PL2'120'                MONTH 4 END                      08620004
00139C 151C                        2978+         DC    PL2'151'                MONTH 5 END                      08630004
00139E 181C                        2979+         DC    PL2'181'                MONTH 6 END                      08640004
0013A0 212C                        2980+         DC    PL2'212'                MONTH 7 END                      08650004
0013A2 243C                        2981+         DC    PL2'243'                MONTH 8 END                      08660004
0013A4 273C                        2982+         DC    PL2'273'                MONTH 9 END                      08670004
0013A6 304C                        2983+         DC    PL2'304'                MONTH 10 END                     08680004
0013A8 334C                        2984+         DC    PL2'334'                MONTH 11 END                     08690004
0013AA 365C                        2985+UD0554HE DC    PL2'365'                MONTH 12 END                     08700004
0013AC 000C                        2986+         DC    PL2'00'                 MONTH 1 START                    08720004
                            013AE  2987+UD0554U  EQU   *                       URUDOSHI DATE TABLE              08730004
0013AE 031C                        2988+         DC    PL2'31'                 MONTH 1 END                      08740004
0013B0 060C                        2989+         DC    PL2'60'                 MONTH 2 END                      08750004
0013B2 091C                        2990+         DC    PL2'91'                 MONTH 3 END                      08760004
0013B4 121C                        2991+         DC    PL2'121'                MONTH 4 END                      08770004
0013B6 152C                        2992+         DC    PL2'152'                MONTH 5 END                      08780004
0013B8 182C                        2993+         DC    PL2'182'                MONTH 6 END                      08790004
0013BA 213C                        2994+         DC    PL2'213'                MONTH 7 END                      08800004
0013BC 244C                        2995+         DC    PL2'244'                MONTH 8 END                      08810004
0013BE 274C                        2996+         DC    PL2'274'                MONTH 9 END                      08820004
0013C0 305C                        2997+         DC    PL2'305'                MONTH 10 END                     08830004
0013C2 335C                        2998+         DC    PL2'335'                MONTH 11 END                     08840004
0013C4 366C                        2999+UD0554UE DC    PL2'366'                MONTH 12 END                     08850004
                            013C6  3000+UDT05549 EQU   *                       FOUND END OF MONTH               08870004
                            013C6  3001+UDT0554E EQU   *                       R.C SET                          09260004
0013C6 41F0 0004      00004        3002+         LA   R15,4                    R.C 0                            09270004
                            013CA  3003+UDT0554Z EQU   *                       R.C SET                          09280004
                                   3004  ULSNAP 'DATE2J',WKDTP                                                  18990034

                                   3006+*                                 START MACRO ULSNAP ****************** 09800053
0013CA                             3007+         DS    0H                       ON HALFW BOUNDARY/JUST IN CASE  09820053
                                   3008+*                                       ULSNAP MACRO IGNORED/SYSPARM    10040053
                                   3009+*                                       NOSNAP HAS BEEN USED            10050053
                                   3010+*                                 END MACRO ULSNAP  ******************* 10060053
                                   3011            IF (LTR,R15,R15,NZ)   ERR                                    19000031
0013CA 12FF                        3012+         LTR   R15,R15
0013CC 4780 B3DE      013DE        3013+         BC    15-7,##224                  BRANCH IF NOT TRUE
0013D0 D205 B420 2000 01420 00000  3014              MVC ERRMSGDT+13(6),0(R2)                                   19010031
                                   3015              UERREXIT ERRMSGDT                                          19020034
0013D6 4100 B413      01413        3016+         LA R0,ERRMSGDT                                                 11580034
0013DA 45E0 A410      02410        3017+         BAL R14,ERRMSG                                                 11590034
                                   3018            ENDIF                                                        19030031
0013DE                             3019+##224    DS    0H                          TARGET FOR ELSE BRANCH
0013DE F235 B40C B404 0140C 01404  3020            PACK WKDTZ(4),WKDTP           00YYDDDC                       19040034
0013E4 960F B40F      0140F        3021            OI WKDTZ+3,X'0F'              00YYDDDF                       19050034
                                   3022            IF (CLI,WKDTZ+1,LT,X'80')                                    19060034
0013E8 9580 B40D      0140D        3023+         CLI   WKDTZ+1,X'80'
0013EC 47B0 B3F4      013F4        3024+         BC    15-4,##225                  BRANCH IF NOT TRUEXE4S001Z *** XE4S001Z *** DISPLAY/UPDATE SPF INFO ***                                                          PAGE   57


  LOC  OBJECT CODE    ADDR1 ADDR2  STMT   SOURCE STATEMENT                                       ASM 0201 10.53 06/08/08

0013F0 9201 B40C      0140C        3025              MVI WKDTZ,X'01'              OVER 2000                     19070034
                                   3026            ENDIF                                                        19080034
0013F4                             3027+##225    DS    0H                          TARGET FOR ELSE BRANCH
0013F4 5810 B40C      0140C        3028            L R1,WKDTZ                                                   19090034
                                   3029          ENDIF                                                          19100031
0013F8                             3030+##223    DS    0H                          TARGET FOR ENDIF BRANCH
                                   3031  ULSNAP 'DATE2J R1 OUT'                                                 19110034

                                   3033+*                                 START MACRO ULSNAP ****************** 09800053
0013F8                             3034+         DS    0H                       ON HALFW BOUNDARY/JUST IN CASE  09820053
                                   3035+*                                       ULSNAP MACRO IGNORED/SYSPARM    10040053
                                   3036+*                                       NOSNAP HAS BEEN USED            10050053
                                   3037+*                                 END MACRO ULSNAP  ******************* 10060053
                                   3038 *                                                                       19120031
0013F8 58E0 B400      01400        3039          L  R14,SVR14D2J                                                19130031
0013FC 07FE                        3040          BR R14                                                         19140031
                                   3041 ****************                                                        19150031
001400                             3042 SVR14D2J DS F                                                           19160031
001404                             3043 WKDTP    DS CL6        UDATE PARM                                       19170034
00140C                             3044          DS 0F                                                          19180034
00140C                             3045 WKDTZ    DS CL7                                                         19190034
001413 405C40C4C1E3C540            3046 ERRMSGDT DC CL80' * DATE PARM(XXXXXX) ERR'                              19200031
                                   3047 **********************************************************************  19210031
                                   3048 * COUNT LINE BY READING MEMBER                                 A#002    19220040
                                   3049 **********************************************************************  19230031
001464                             3050 GETLINEC  DS 0H                                                         19240031
001464 900F B56C      0156C        3051          STM R0,R15,SVRLC                                               19250031
                                   3052 *                                                                       19260000
001468 5810 B5AC      015AC        3053          L R1,WLINENO                                                   19270031
                                   3054          IF (LTR,R1,R1,NM)                                              19280031
00146C 1211                        3055+         LTR   R1,R1
00146E 4740 B47E      0147E        3056+         BC    15-11,##226                 BRANCH IF NOT TRUE
                                   3057            IF (CLI,GETLCRQ,E,0) //LINECOUNT REQ                         19290038
001472 9500 B5BC      015BC        3058+         CLI   GETLCRQ,0
001476 4770 B47E      0147E        3059+         BC    15-8,##227                  BRANCH IF NOT TRUE
00147A 47F0 B558      01558        3060              B GETLCE                                                   19300038
                                   3061            ENDIF                                                        19310038
00147E                             3062+##227    DS    0H                          TARGET FOR ELSE BRANCH
                                   3063          ENDIF                                                          19320031
00147E                             3064+##226    DS    0H                          TARGET FOR ELSE BRANCH
00147E D703 B5AC B5AC 015AC 015AC  3065          XC WLINENO,WLINENO                                             19330031
001484 D703 B5B0 B5B0 015B0 015B0  3066          XC WMAXMM,WMAXMM                                               19340038
00148A 4120 AF0C      02F0C        3067          LA R2,PDSDCB3                                                  19350035
                                   3068 *        OPEN ((R2),(INPUT))                                            19360035
                                   3069 *        IF (TM,DCBOFLGS-IHADCB(R2),DCBOFOPN,NO)                        19370035
                                   3070 *          MVC ERRMSGL1+3(8),DCBDDNAM-IHADCB(R2)                        19380035
                                   3071 *          UERREXIT ERRMSGL1                                            19390035
                                   3072 *        ENDIF                                                          19400035
                                   3073  ULSNAP 'BEFORE FIND',BLDLFIND                                          19410035

                                   3075+*                                 START MACRO ULSNAP ****************** 09800053
00148E                             3076+         DS    0H                       ON HALFW BOUNDARY/JUST IN CASE  09820053
                                   3077+*                                       ULSNAP MACRO IGNORED/SYSPARM    10040053
                                   3078+*                                       NOSNAP HAS BEEN USED            10050053
                                   3079+*                                 END MACRO ULSNAP  ******************* 10060053XE4S001Z *** XE4S001Z *** DISPLAY/UPDATE SPF INFO ***                                                          PAGE   58


  LOC  OBJECT CODE    ADDR1 ADDR2  STMT   SOURCE STATEMENT                                       ASM 0201 10.53 06/08/08

                                   3080          FIND (R2),BLDLFIND,C                                           19420035
00148E 1812                        3081+         LR    1,R2                              LOAD PARAMETER REG 1   02050002
001490 41F0 BA02      01A02        3082+         LA    15,BLDLFIND                       LOAD AREA ADDRESS      00280000
001494 D203 1000 F000 00000 00000  3083+         MVC   0(4,1),0(15)                      MOVE RELAD TO DCB      00340000
00149A 1801                        3084+         LR    0,1                               INDICATE TYPE C        00360000
00149C 58F0 1054      00054        3085+         L     15,84(0,1)                    LOAD FIND RTN ADDR         00380019
0014A0 45E0 F004      00004        3086+         BAL   14,4(0,15)                    LINK TO FIND ROUTINE       00400019
                                   3087          IF (LTR,R15,R15,NZ)                                            19430031
0014A4 12FF                        3088+         LTR   R15,R15
0014A6 4780 B4B8      014B8        3089+         BC    15-7,##228                  BRANCH IF NOT TRUE
0014AA D207 B610 B9C4 01610 019C4  3090            MVC ERRMSGL2+3(8),BLDLPNAM                                   19440031
                                   3091            UERREXIT ERRMSGL2                                            19450034
0014B0 4100 B60D      0160D        3092+         LA R0,ERRMSGL2                                                 11580034
0014B4 45E0 A410      02410        3093+         BAL R14,ERRMSG                                                 11590034
                                   3094          ENDIF                                                          19460000
0014B8                             3095+##228    DS    0H                          TARGET FOR ELSE BRANCH
0014B8 5840 B5B4      015B4        3096          L R4,MEMBBUFF                                                  19470049
                                   3097          IF (LTR,R4,R4,Z)                                               19480049
0014BC 1244                        3098+         LTR   R4,R4
0014BE 4770 B4F2      014F2        3099+         BC    15-8,##229                  BRANCH IF NOT TRUE
0014C2 4802 003E      0003E        3100            LH R0,DCBBLKSI-IHADCB(R2)                                    19490049
0014C6 5000 B5B8      015B8        3101            ST R0,MEMBBUFL                                               19500049
                                   3102    ULSNAP 'AFTER FIND'                                                  19510049

                                   3104+*                                 START MACRO ULSNAP ****************** 09800053
0014CA                             3105+         DS    0H                       ON HALFW BOUNDARY/JUST IN CASE  09820053
                                   3106+*                                       ULSNAP MACRO IGNORED/SYSPARM    10040053
                                   3107+*                                       NOSNAP HAS BEEN USED            10050053
                                   3108+*                                 END MACRO ULSNAP  ******************* 10060053
                                   3109            GETMAIN RC,LV=(R0)                                           19520049
                                   3110+*      OS/VS2 RELEASE 4 VERSION -- 10/21/75                             00004804
0014CA 0700                        3111+         CNOP  0,4                                                      00691802
0014CC 47F0 B4D4      014D4        3112+         B     *+12-4*1-2*0                      BRANCH AROUND DATA     00691902
0014D0 00                          3113+IHB0581F DC    AL1(0)                            RESERVED               00704502
0014D1 00                          3114+         DC    AL1(0)                            RESERVED               00711902
0014D2 00                          3115+         DC    AL1(0)                            SUBPOOL                00727802
0014D3 00                          3116+         DC    BL1'00000000'                     MODE BYTE              00730402
0014D4 1800                        3117+         LR    0,R0                              LOAD LENGTH   @ZA07133 00726404
0014D6 58F0 B4D0      014D0        3118+         L     15,IHB0581F                       LOAD GETMAIN PARMS     00788502
0014DA 1B11                        3119+         SR    1,1                               ZERO RESERVED REG 1    00814402
0014DC 0A78                        3120+         SVC   120                               ISSUE GETMAIN SVC      00820002
                                   3121            IF (LTR,R15,R15,NZ)                                          19530049
0014DE 12FF                        3122+         LTR   R15,R15
0014E0 4780 B4EC      014EC        3123+         BC    15-7,##230                  BRANCH IF NOT TRUE
                                   3124              UERREXIT ERRMSGL3                                          19540049
0014E4 4100 B65D      0165D        3125+         LA R0,ERRMSGL3                                                 11580034
0014E8 45E0 A410      02410        3126+         BAL R14,ERRMSG                                                 11590034
                                   3127            ENDIF                                                        19550049
0014EC                             3128+##230    DS    0H                          TARGET FOR ELSE BRANCH
0014EC 5010 B5B4      015B4        3129            ST R1,MEMBBUFF                                               19560049
0014F0 1841                        3130            LR R4,R1                    READ BUFF                        19570049
                                   3131          ENDIF                                                          19580049
0014F2                             3132+##229    DS    0H                          TARGET FOR ELSE BRANCH
0014F2 1B55                        3133          SR R5,R5                    TOTAL LEN                          19590023
                                   3134          DO INF                      1/2 TIMES               11A#7558   19600032XE4S001Z *** XE4S001Z *** DISPLAY/UPDATE SPF INFO ***                                                          PAGE   59


  LOC  OBJECT CODE    ADDR1 ADDR2  STMT   SOURCE STATEMENT                                       ASM 0201 10.53 06/08/08

0014F4                             3135+##231    DS    0H                         TARGET FOR DO-LOOP
                                   3136            READ DECBMEMB,SF,(R2),(R4),'S' READ REC                      19610035
0014F4                             3137+         CNOP  0,4                                                      02179019
0014F4 4510 B50C      0150C        3138+         BAL   1,*+24                   LOAD DECB ADDRESS               02187003
0014F8 00000000                    3139+DECBMEMB DC    F'0'                              EVENT CONTROL BLOCK    02200000
0014FC 80                          3140+         DC    X'80'                             TYPE FIELD             02260000
0014FD 80                          3141+         DC    X'80'                             TYPE FIELD             00840000
0014FE 0000                        3142+         DC    AL2(0)                            LENGTH                 02480000
001500 00000000                    3143+         DC    A(0)                              DCB ADDRESS            02580000
001504 00000000                    3144+         DC    A(0)                              AREA ADDRESS           02700000
001508 00000000                    3145+         DC    A(0)                              RECORD POINTER WORD    02720000
00150C 5021 0008      00008        3146+         ST    R2,8(1,0)                         STORE DCB ADDRESS      02786803
001510 5041 000C      0000C        3147+         ST    R4,12(1,0)                        STORE AREA ADDRESS     02820000
001514 58F1 0008      00008        3148+         L     15,8(1,0)           LOAD DCB ADDRESS                     02091503
001518 58F0 F030      00030        3149+         L     15,48(0,15)                       LOAD RDWR ROUTINE ADDR 02097203
00151C 05EF                        3150+         BALR  14,15                             LINK TO RDWR ROUTINE   02102903
                                   3151            CHECK DECBMEMB            WAIT I/O COMPLETION                19620035
00151E 4110 B4F8      014F8        3152+         LA    1,DECBMEMB                        LOAD PARAMETER REG 1   01900002
001522 58E0 1008      00008        3153+         L     14,8(0,1)                PICK UP DCB ADDR                00700000
001526 58F0 E034      00034        3154+         L     15,52(0,14)              LOAD CHECK ROUTINE ADDR         00750000
00152A 05EF                        3155+         BALR  14,15                    LINK TO CHECK ROUTINE           00800000
00152C 5810 B508      01508        3156            L R1,DECBMEMB+16          IOB ADDR                           19630035
001530 4802 003E      0003E        3157            LH R0,DCBBLKSI-IHADCB(R2)                                    19640032
                                   3158  ULSNAP 'AFTER READ',((R2),64),((R4),(R0))                              19650035

                                   3160+*                                 START MACRO ULSNAP ****************** 09800053
001534                             3161+         DS    0H                       ON HALFW BOUNDARY/JUST IN CASE  09820053
                                   3162+*                                       ULSNAP MACRO IGNORED/SYSPARM    10040053
                                   3163+*                                       NOSNAP HAS BEEN USED            10050053
                                   3164+*                                 END MACRO ULSNAP  ******************* 10060053
001534 4B01 000E      0000E        3165            SH R0,14(R1)              MINUS RESIDUAL LEN=SHORT BLKSZ     19660032
                                   3166            IF (CLI,GETLCRQ,NE,0)     MOD LEVEL SEARCH REQUEST           19670038
001538 9500 B5BC      015BC        3167+         CLI   GETLCRQ,0
00153C 4780 B544      01544        3168+         BC    15-7,##233                  BRANCH IF NOT TRUE
001540 45E0 B6FE      016FE        3169              BAL R14,GETMM                                              19680038
                                   3170            ENDIF                                                        19690038
001544                             3171+##233    DS    0H                          TARGET FOR ELSE BRANCH
001544 1A50                        3172            AR R5,R0                  TOTAL LEN                          19700032
                                   3173          ENDDO                       1/2 TIMES               11A#7558   19710032
001546 47F0 B4F4      014F4        3174+         B     ##231                       BRANCH BACK TO START OF LOOP
00154A                             3175+##232    DS    0H                          TARGET TO LEAVE THE LOOP
00154A                             3176 EOFMEMB  DS 0H                                                          19720031
00154A 48E2 0052      00052        3177          LH R14,DCBLRECL-IHADCB(R2)   LRECL                             19730023
00154E 1B44                        3178          SR R4,R4                                                       19740032
001550 1D4E                        3179          DR R4,R14                    RES AND COUNT                     19750032
                                   3180  ULSNAP 'LINE COUNT R5'                                                 19760046

                                   3182+*                                 START MACRO ULSNAP ****************** 09800053
001552                             3183+         DS    0H                       ON HALFW BOUNDARY/JUST IN CASE  09820053
                                   3184+*                                       ULSNAP MACRO IGNORED/SYSPARM    10040053
                                   3185+*                                       NOSNAP HAS BEEN USED            10050053
                                   3186+*                                 END MACRO ULSNAP  ******************* 10060053
                                   3187 *        CLOSE ((R2))                                                   19770035
001552 1815                        3188          LR R1,R5                                                       19780031
001554 5010 B5AC      015AC        3189          ST R1,WLINENO                                                  19790032XE4S001Z *** XE4S001Z *** DISPLAY/UPDATE SPF INFO ***                                                          PAGE   60


  LOC  OBJECT CODE    ADDR1 ADDR2  STMT   SOURCE STATEMENT                                       ASM 0201 10.53 06/08/08

001558                             3190 GETLCE   DS 0H                                                          19800031
                                   3191          IF (CLI,GETLCRQ,NE,0) //MAX MM REQ                             19810038
001558 9500 B5BC      015BC        3192+         CLI   GETLCRQ,0
00155C 4780 B564      01564        3193+         BC    15-7,##234                  BRANCH IF NOT TRUE
001560 5810 B5B0      015B0        3194            L R1,WMAXMM                                                  19820038
                                   3195          ENDIF                                                          19830038
001564                             3196+##234    DS    0H                          TARGET FOR ELSE BRANCH
                                   3197   ULSNAP 'GETLINEC EXIT'                                                19840035

                                   3199+*                                 START MACRO ULSNAP ****************** 09800053
001564                             3200+         DS    0H                       ON HALFW BOUNDARY/JUST IN CASE  09820053
                                   3201+*                                       ULSNAP MACRO IGNORED/SYSPARM    10040053
                                   3202+*                                       NOSNAP HAS BEEN USED            10050053
                                   3203+*                                 END MACRO ULSNAP  ******************* 10060053
                                   3204 *                                                                       19850031
001564 982F B574      01574        3205          LM  R2,R15,SVRLC+R2*4                                          19860031
001568 07FE                        3206          BR R14                                                         19870031
                                   3207 ****************                                                        19880031
00156C                             3208 SVRLC    DS 16F                                                         19890031
0015AC FFFFFFFF                    3209 WLINENO  DC F'-1'                                                       19900035
0015B0 FFFFFFFF                    3210 WMAXMM   DC F'-1'                                                       19910038
0015B4 00000000                    3211 MEMBBUFF DC F'0'                                                        19920049
0015B8 00000000                    3212 MEMBBUFL DC F'0'                                                        19930049
0015BC 00                          3213 GETLCRQ  DC X'00' MAX MOD LEVE SEARCH REQ ID                            19940038
0015BD 405C40E7E7E7E7E7            3214 ERRMSGL1 DC CL80' * XXXXXXXX OPEN TO GET LINE COUNT FAILED'             19950031
00160D 405C40E7E7E7E7E7            3215 ERRMSGL2 DC CL80' * XXXXXXXX FIND FAILED'                               19960031
00165D 405C40C7C5E3D4C1            3216 ERRMSGL3 DC CL80' * GETMAIN FOR READ MEMBER FAILED'                     19970031
0016AD                             3217 MEMBDATA DS CL80                                                        19980031
                                   3218 **********************************************************************  19990038
                                   3219 * GET MOD LEVEL FROM RECORD                                    A#002    20000040
                                   3220 * INPUT R2 DCB                                                          20010038
                                   3221 * INPUT R4 RECORD BUFF                                                  20020038
                                   3222 * INPUT R0 BUFFSZ                                                       20030038
                                   3223 **********************************************************************  20040038
0016FE                             3224 GETMM    DS 0H                                                          20050038
0016FE 90E4 B7A4      017A4        3225          STM R14,R4,SVRGMM                                              20060038
                                   3226          DO WHILE=(LTR,R0,R0,P)                                         20070038
001702                             3227+##235    DS    0H                         TARGET FOR DO-LOOP
001702 1200                        3228+         LTR   R0,R0
001704 47D0 B79E      0179E        3229+         BC    15-2,##236                  BRANCH IF NOT TRUE
001708                             3230+##237    DS    0H                        TARGET FOR BANCH ON NOT TRUE
001708 4114 0048      00048        3231            LA R1,72(R4)                                                 20080038
                                   3232            DO FROM=(R14,8)                                              20090038
00170C 41E0 0008      00008        3233+         LA    R14,8                      GET INITAL LOOP COUNT (DO)
001710                             3234+##238    DS    0H                         TARGET FOR DO-LOOP
                                   3235            DOEXIT (CLI,0(R1),LT,C'0'),OR,(CLI,0(R1),GT,C'9')            20100038
001710 95F0 1000      00000        3236+         CLI   0(R1),C'0'
001714 4740 B720      01720        3237+         BC    4,##241                     BRANCH IF TRUE
001718 95F9 1000      00000        3238+         CLI   0(R1),C'9'
00171C 47D0 B724      01724        3239+         BC    15-2,##240                  BRANCH IF NOT TRUE
001720                             3240+##241    DS    0H                        TARGET FOR BANCH ON NOT TRUE
001720 47F0 B72C      0172C        3241+         B     ##239                     LEAVE THE LOOP &DO
001724                             3242+##240    DS    0H                          TARGET FOR ELSE BRANCH
001724 4111 0001      00001        3243              LA R1,R1(R1)                                               20110038
                                   3244            ENDDO                                                        20120038XE4S001Z *** XE4S001Z *** DISPLAY/UPDATE SPF INFO ***                                                          PAGE   61


  LOC  OBJECT CODE    ADDR1 ADDR2  STMT   SOURCE STATEMENT                                       ASM 0201 10.53 06/08/08

001728 46E0 B710      01710        3245+         BCT   R14,##238                   BRANCH BACK TO START OF LOOP
00172C                             3246+##239    DS    0H                          TARGET TO LEAVE THE LOOP
                                   3247            IF (LTR,R14,R14,Z)                                           20130038
00172C 12EE                        3248+         LTR   R14,R14
00172E 4770 B792      01792        3249+         BC    15-8,##242                  BRANCH IF NOT TRUE
                                   3250              UATOI 78(R4),LEN=2                                         20140038
001732                             3251+         DS  0H                                                         01830032
001732                             3252+         DS 0H                                                          02010032
001732 90E0 D00C      0000C        3253+         STM R14,R0,12(R13)                                             02020032
001736 4104 004E      0004E        3254+         LA R0,78(R4)                  GET INT VALUE                    02050034
00173A 41E0 0002      00002        3255+         LA R14,2                     IMMEDIATE VALUE                   02140032
00173E 1B11                        3256+         SR R1,R1                                                       02280032
001740 18F0                        3257+         LR R15,R0                    ADDR                              02290034
001742 1B00                        3258+         SR R0,R0                                                       02300034
001744                             3259+##243    DS    0H                         TARGET FOR DO-LOOP
001744 9500 F000      00000        3260+         CLI   0(R15),X'00'
001748 4770 B750      01750        3261+         BC    15-8,##245                  BRANCH IF NOT TRUE
00174C 47F0 B782      01782        3262+         B     ##244                     LEAVE THE LOOP &DO
001750                             3263+##245    DS    0H                          TARGET FOR ELSE BRANCH
001750 95F0 F000      00000        3264+         CLI   0(R15),C'0'
001754 47B0 B75C      0175C        3265+         BC    15-4,##246                  BRANCH IF NOT TRUE
001758 47F0 B782      01782        3266+         B     ##244                     LEAVE THE LOOP &DO
00175C                             3267+##246    DS    0H                          TARGET FOR ELSE BRANCH
00175C 95F9 F000      00000        3268+         CLI   0(R15),C'9'
001760 47D0 B768      01768        3269+         BC    15-2,##247                  BRANCH IF NOT TRUE
001764 47F0 B782      01782        3270+         B     ##244                     LEAVE THE LOOP &DO
001768                             3271+##247    DS    0H                          TARGET FOR ELSE BRANCH
001768 430F 0000      00000        3272+           IC R0,0(R15)                                                 02350034
00176C 8900 001C      0001C        3273+           SLL R0,24+4                                                  02360034
001770 8800 001C      0001C        3274+           SRL R0,24+4                                                  02370034
001774 4C10 AA90      02A90        3275+           MH R1,=Y(10)                                                 02380032
001778 1A10                        3276+           AR R1,R0                                                     02390034
00177A 41FF 0001      00001        3277+           LA R15,1(R15)                                                02400034
00177E 46E0 B744      01744        3278+         BCT   (R14),##243                 BRANCH BACK TO START OF LOOP
001782                             3279+##244    DS    0H                          TARGET TO LEAVE THE LOOP
001782 98E0 D00C      0000C        3280+         LM  R14,R0,12(R13)                                             02440032
                                   3281      ULSNAP 'GET MM ',((R4),80)                                         20150038

                                   3283+*                                 START MACRO ULSNAP ****************** 09800053
001786                             3284+         DS    0H                       ON HALFW BOUNDARY/JUST IN CASE  09820053
                                   3285+*                                       ULSNAP MACRO IGNORED/SYSPARM    10040053
                                   3286+*                                       NOSNAP HAS BEEN USED            10050053
                                   3287+*                                 END MACRO ULSNAP  ******************* 10060053
                                   3288              IF (C,R1,H,WMAXMM)                                         20160038
001786 5910 B5B0      015B0        3289+         C     R1,WMAXMM
00178A 47D0 B792      01792        3290+         BC    15-2,##248                  BRANCH IF NOT TRUE
00178E 5010 B5B0      015B0        3291                ST R1,WMAXMM                                             20170038
                                   3292              ENDIF                                                      20180038
001792                             3293+##248    DS    0H                          TARGET FOR ELSE BRANCH
                                   3294            ENDIF                                                        20190038
001792                             3295+##242    DS    0H                          TARGET FOR ELSE BRANCH
001792 4A40 AAA8      02AA8        3296            AH R4,=Y(80)                                                 20200038
001796 4B00 AAA8      02AA8        3297            SH R0,=Y(80)                                                 20210038
                                   3298          ENDDO                                                          20220038
00179A 47F0 B702      01702        3299+         B     ##235                       BRANCH BACK TO START OF LOOPXE4S001Z *** XE4S001Z *** DISPLAY/UPDATE SPF INFO ***                                                          PAGE   62


  LOC  OBJECT CODE    ADDR1 ADDR2  STMT   SOURCE STATEMENT                                       ASM 0201 10.53 06/08/08

00179E                             3300+##236    DS    0H                          TARGET TO LEAVE THE LOOP
00179E 98E4 B7A4      017A4        3301          LM  R14,R4,SVRGMM                                              20230038
0017A2 07FE                        3302          BR R14                                                         20240038
                                   3303 ****************                                                        20250038
0017A4                             3304 SVRGMM   DS 7F                                                          20260038
                                   3305 **********************************************************************  20270031
                                   3306 * DATASET INFO GET                                                      20280031
                                   3307 **********************************************************************  20290031
0017C0                             3308 DSINFO   DS 0H                                                          20300031
0017C0 50E0 B8DC      018DC        3309          ST R14,SVR14DSC                                                20310031
                                   3310 *                                                                       20320023
                                   3311          OPEN  (PDSDCB,(INPUT))                                         20330023
0017C4                             3312+         CNOP  0,4                               ALIGN LIST TO FULLWORD 01740001
0017C4 4510 B7CC      017CC        3313+         BAL   1,*+8                             LOAD REG1 W/LIST ADDR. 01780000
0017C8 80                          3314+         DC    AL1(128)                          OPTION BYTE            01900000
0017C9 002E5C                      3315+         DC    AL3(PDSDCB)                       DCB ADDRESS            01920000
0017CC 0A13                        3316+         SVC   19                                ISSUE OPEN SVC         04000000
                                   3317          IF (TM,DCBOFLGS-IHADCB+PDSDCB,DCBOFOPN,NO)                     20340023
0017CE 9110 AE8C      02E8C        3318+         TM    DCBOFLGS-IHADCB+PDSDCB,DCBOFOPN
0017D2 4710 B7E4      017E4        3319+         BC    15-14,##249                 BRANCH IF NOT TRUE
0017D6 D207 AC7A AE84 02C7A 02E84  3320            MVC ERRMSG01+3(8),DCBDDNAM-IHADCB+PDSDCB                     20350023
0017DC 4100 AC77      02C77        3321            LA R0,ERRMSG01                                               20360023
0017E0 45E0 A410      02410        3322            BAL R14,ERRMSG                                               20370023
                                   3323          ENDIF                                                          20380023
0017E4                             3324+##249    DS    0H                          TARGET FOR ELSE BRANCH
0017E4 4810 AEAE      02EAE        3325          LH R1,DCBLRECL-IHADCB+PDSDCB                                   20390023
                                   3326          IF (TM,DCBRECFM-IHADCB+PDSDCB,DCBRECF,NO)    RECFM=F          X20400023
                                                       OR,(CH,R1,NE,=Y(80)                                      20410023
0017E8 9180 AE80      02E80        3327+         TM    DCBRECFM-IHADCB+PDSDCB,DCBRECF
0017EC 4710 B7F8      017F8        3328+         BC    15-14,##250                 BRANCH IF NOT TRUE
0017F0 9200 AE57      02E57        3329             MVI SPFSW,0                                                 20420023
                                   3330          ELSE                                                           20430023
0017F4 47F0 B7FC      017FC        3331+         B     ##251                       BRANCH TO ENDIF
0017F8                             3332+##250    DS    0H                          TARGET FOR BRANCH ON ELSE
0017F8 9201 AE57      02E57        3333             MVI SPFSW,EQUSPFF   SPF FILE                                20440023
                                   3334          ENDIF                                                          20450023
0017FC                             3335+##251    DS    0H                          TARGET FOR ENDIF BRANCH
                                   3336 *DS INFO                                                                20460023
0017FC 4810 AEAE      02EAE        3337          LH R1,DCBLRECL-IHADCB+PDSDCB                                   20470023
                                   3338          UI2Z (R1),HLRECL,LEN=5                                         20480023
001800                             3339+         DS 0H                                                          02870003
001800 90E0 D00C      0000C        3340+         STM R14,R0,12(R13)                                             02880003
001804 1801                        3341+         LR R0,R1                     GET INT VALUE                     02950003
001806 41E0 B8F9      018F9        3342+         LA R14,HLRECL                  GET OUT ADDR VALUE              03000003
00180A 41FD 002C      0002C        3343+         LA R15,44(R13)               PACK WORK                         03140003
00180E 4E0F 0000      00000        3344+         CVD R0,0(R15)                                                  03150003
001812 F347 E000 F000 00000 00000  3345+         UNPK 0(5,R14),0(8,R15)          VALUE                          03170003
001818 1200                        3346+         LTR R0,R0                                                      03180003
00181A 4740 B822      01822        3347+         BM #0645#2                                          A#@@@@2    03200003
00181E 96F0 E004      00004        3348+         OI 5-1(R14),X'F0'                                              03220003
                            01822  3349+#0645#2     EQU *                                             A#@@@@2   03250003
001822 98E0 D00C      0000C        3350+         LM  R14,R0,12(R13)                                             03270003
001826 4810 AE9A      02E9A        3351          LH R1,DCBBLKSI-IHADCB+PDSDCB                                   20490023
                                   3352          UI2Z (R1),HBLKSZ,LEN=5                                         20500023
00182A                             3353+         DS 0H                                                          02870003XE4S001Z *** XE4S001Z *** DISPLAY/UPDATE SPF INFO ***                                                          PAGE   63


  LOC  OBJECT CODE    ADDR1 ADDR2  STMT   SOURCE STATEMENT                                       ASM 0201 10.53 06/08/08

00182A 90E0 D00C      0000C        3354+         STM R14,R0,12(R13)                                             02880003
00182E 1801                        3355+         LR R0,R1                     GET INT VALUE                     02950003
001830 41E0 B907      01907        3356+         LA R14,HBLKSZ                  GET OUT ADDR VALUE              03000003
001834 41FD 002C      0002C        3357+         LA R15,44(R13)               PACK WORK                         03140003
001838 4E0F 0000      00000        3358+         CVD R0,0(R15)                                                  03150003
00183C F347 E000 F000 00000 00000  3359+         UNPK 0(5,R14),0(8,R15)          VALUE                          03170003
001842 1200                        3360+         LTR R0,R0                                                      03180003
001844 4740 B84C      0184C        3361+         BM #0646#2                                          A#@@@@2    03200003
001848 96F0 E004      00004        3362+         OI 5-1(R14),X'F0'                                              03220003
                            0184C  3363+#0646#2     EQU *                                             A#@@@@2   03250003
00184C 98E0 D00C      0000C        3364+         LM  R14,R0,12(R13)                                             03270003
                                   3365          IF (TM,DCBRECFM-IHADCB+PDSDCB,DCBRECU,O)                       20510023
001850 91C0 AE80      02E80        3366+         TM    DCBRECFM-IHADCB+PDSDCB,DCBRECU
001854 47E0 B860      01860        3367+         BC    15-1,##252                  BRANCH IF NOT TRUE
001858 92E4 B8F0      018F0        3368            MVI HRECFM,C'U'                                              20520023
                                   3369          ELSE                                                           20530023
00185C 47F0 B888      01888        3370+         B     ##253                       BRANCH TO ENDIF
001860                             3371+##252    DS    0H                          TARGET FOR BRANCH ON ELSE
                                   3372            IF (TM,DCBRECFM-IHADCB+PDSDCB,DCBRECF,O)                     20540023
001860 9180 AE80      02E80        3373+         TM    DCBRECFM-IHADCB+PDSDCB,DCBRECF
001864 47E0 B870      01870        3374+         BC    15-1,##254                  BRANCH IF NOT TRUE
001868 92C6 B8F0      018F0        3375              MVI HRECFM,C'F'                                            20550023
                                   3376            ELSE                                                         20560023
00186C 47F0 B87C      0187C        3377+         B     ##255                       BRANCH TO ENDIF
001870                             3378+##254    DS    0H                          TARGET FOR BRANCH ON ELSE
                                   3379              IF (TM,DCBRECFM-IHADCB+PDSDCB,DCBRECV,O)                   20570023
001870 9140 AE80      02E80        3380+         TM    DCBRECFM-IHADCB+PDSDCB,DCBRECV
001874 47E0 B87C      0187C        3381+         BC    15-1,##256                  BRANCH IF NOT TRUE
001878 92E5 B8F0      018F0        3382                MVI HRECFM,C'V'                                          20580023
                                   3383              ENDIF                                                      20590023
00187C                             3384+##256    DS    0H                          TARGET FOR ELSE BRANCH
                                   3385            ENDIF                                                        20600023
00187C                             3386+##255    DS    0H                          TARGET FOR ENDIF BRANCH
                                   3387            IF (TM,DCBRECFM-IHADCB+PDSDCB,DCBRECBR,O)                    20610023
00187C 9110 AE80      02E80        3388+         TM    DCBRECFM-IHADCB+PDSDCB,DCBRECBR
001880 47E0 B888      01888        3389+         BC    15-1,##257                  BRANCH IF NOT TRUE
001884 92C2 B8F1      018F1        3390              MVI HRECFM+1,C'B'                                          20620023
                                   3391            ENDIF                                                        20630023
001888                             3392+##257    DS    0H                          TARGET FOR ELSE BRANCH
                                   3393          ENDIF                                                          20640023
001888                             3394+##253    DS    0H                          TARGET FOR ENDIF BRANCH
                                   3395          IF (TM,DCBDSORG-IHADCB+PDSDCB,DCBDSGPS,O)                      20650023
001888 9140 AE76      02E76        3396+         TM    DCBDSORG-IHADCB+PDSDCB,DCBDSGPS
00188C 47E0 B89A      0189A        3397+         BC    15-1,##258                  BRANCH IF NOT TRUE
001890 D201 B8E7 AAAA 018E7 02AAA  3398            MVC HDSORG,=C'PS'                                            20660023
                                   3399          ELSE                                                           20670023
001896 47F0 B8CC      018CC        3400+         B     ##259                       BRANCH TO ENDIF
00189A                             3401+##258    DS    0H                          TARGET FOR BRANCH ON ELSE
                                   3402            IF (TM,DCBDSORG-IHADCB+PDSDCB,DCBDSGPO,O)                    20680023
00189A 9102 AE76      02E76        3403+         TM    DCBDSORG-IHADCB+PDSDCB,DCBDSGPO
00189E 47E0 B8AC      018AC        3404+         BC    15-1,##260                  BRANCH IF NOT TRUE
0018A2 D201 B8E7 AAAC 018E7 02AAC  3405              MVC HDSORG,=C'PO'                                          20690023
                                   3406            ELSE                                                         20700023
0018A8 47F0 B8CC      018CC        3407+         B     ##261                       BRANCH TO ENDIF
0018AC                             3408+##260    DS    0H                          TARGET FOR BRANCH ON ELSEXE4S001Z *** XE4S001Z *** DISPLAY/UPDATE SPF INFO ***                                                          PAGE   64


  LOC  OBJECT CODE    ADDR1 ADDR2  STMT   SOURCE STATEMENT                                       ASM 0201 10.53 06/08/08

                                   3409              IF (TM,DCBDSORG-IHADCB+PDSDCB,DCBDSGDA,O)                  20710023
0018AC 9120 AE76      02E76        3410+         TM    DCBDSORG-IHADCB+PDSDCB,DCBDSGDA
0018B0 47E0 B8BE      018BE        3411+         BC    15-1,##262                  BRANCH IF NOT TRUE
0018B4 D201 B8E7 AAAE 018E7 02AAE  3412                MVC HDSORG,=C'DA'                                        20720023
                                   3413              ELSE                                                       20730023
0018BA 47F0 B8CC      018CC        3414+         B     ##263                       BRANCH TO ENDIF
0018BE                             3415+##262    DS    0H                          TARGET FOR BRANCH ON ELSE
                                   3416                IF (TM,DCBDSORG-IHADCB+PDSDCB,DCBDSGIS,O)                20740023
0018BE 9180 AE76      02E76        3417+         TM    DCBDSORG-IHADCB+PDSDCB,DCBDSGIS
0018C2 47E0 B8CC      018CC        3418+         BC    15-1,##264                  BRANCH IF NOT TRUE
0018C6 D201 B8E7 AAB0 018E7 02AB0  3419                  MVC HDSORG,=C'IS'                                      20750023
                                   3420                ENDIF                                                    20760023
0018CC                             3421+##264    DS    0H                          TARGET FOR ELSE BRANCH
                                   3422              ENDIF                                                      20770023
0018CC                             3423+##263    DS    0H                          TARGET FOR ENDIF BRANCH
                                   3424            ENDIF                                                        20780023
0018CC                             3425+##261    DS    0H                          TARGET FOR ENDIF BRANCH
                                   3426          ENDIF                                                          20790023
0018CC                             3427+##259    DS    0H                          TARGET FOR ENDIF BRANCH
                                   3428 *                                                                       20800023
                                   3429          CLOSE (PDSDCB)                                                 20810023
0018CC                             3430+         CNOP  0,4                               ALIGN LIST TO FULLWORD 02420002
0018CC 4510 B8D4      018D4        3431+         BAL   1,*+8                             LOAD REG1 W/LIST ADDR  02460002
0018D0 80                          3432+         DC    AL1(128)                          OPTION BYTE            02580000
0018D1 002E5C                      3433+         DC    AL3(PDSDCB)                       DCB ADDRESS            02600000
0018D4 0A14                        3434+         SVC   20                                ISSUE CLOSE SVC        01640000
                                   3435 *                                                                       20820023
0018D6 58E0 B8DC      018DC        3436          L R14,SVR14DSC                                                 20830023
0018DA 07FE                        3437          BR R14                                                         20840023
                                   3438 ****************                                                        20850023
0018DC                             3439 SVR14DSC DS F                                                           20860023
0018E0 4040404040404040            3440 HDR4     DC CL80' '                                                     20870023
001930                      018E0  3441          ORG HDR4                                                       20880023
0018E0 60C4E2D6D9C77E              3442          DC C'-DSORG='                                                  20890023
0018E7                             3443 HDSORG   DS CL2                                                         20900023
0018E9 40D9C5C3C6D47E              3444          DC C' RECFM='                                                  20910023
0018F0                             3445 HRECFM   DS CL2                                                         20920023
0018F2 40D3D9C5C3D37E              3446          DC C' LRECL='                                                  20930023
0018F9                             3447 HLRECL   DS CL5                                                         20940023
0018FE 40C2D3D2E2C9E9C5            3448          DC C' BLKSIZE='                                                20950023
001907                             3449 HBLKSZ   DS CL5                                                         20960023
00190C                      01930  3450          ORG                                                            20970023
                                   3451 **********************************************************************  20980030
                                   3452 * GET DIR INFO BY BLDL                                          A#001   20990030
                                   3453 *   PARM: R2 DCB                                                        21000030
                                   3454 *********************************************************************** 21010030
001930                             3455 BLDLMEMB DS 0H                                                          21020030
001930 50E0 B96C      0196C        3456          ST R14,SVR14BLD                                                21030030
                                   3457 *                                                                       21040030
001934 D207 B9C4 C9D8 019C4 009D8  3458          MVC  BLDLPNAM,PARMMEMB                                         21050030
                                   3459          BLDL (R2),BLDLPARM                                             21060030
00193A 1812                        3460+         LR    1,R2                              LOAD PARAMETER REG 1   02050002
00193C 4100 B9C0      019C0        3461+         LA    0,BLDLPARM                        LOAD PARAMETER REG 0   02500002
001940 4111 0000      00000        3462+         LA    1,0(1)                     CLEAR HIGH ORDER BYTE ZA00734 00110000
001944 0A12                        3463+         SVC   18                                LINK TO BLDL ROUTINE   00120000XE4S001Z *** XE4S001Z *** DISPLAY/UPDATE SPF INFO ***                                                          PAGE   65


  LOC  OBJECT CODE    ADDR1 ADDR2  STMT   SOURCE STATEMENT                                       ASM 0201 10.53 06/08/08

                                   3464          IF (LTR,R15,R15,NZ)                                            21070030
001946 12FF                        3465+         LTR   R15,R15
001948 4780 B95A      0195A        3466+         BC    15-7,##265                  BRANCH IF NOT TRUE
00194C D207 B985 C9D8 01985 009D8  3467            MVC ERRMSGNF+21(8),PARMMEMB                                  21080037
001952 4100 B970      01970        3468            LA R0,ERRMSGNF                                               21090031
001956 45E0 A410      02410        3469            BAL R14,ERRMSG                                               21100030
                                   3470          ENDIF                                                          21110030
00195A                             3471+##265    DS    0H                          TARGET FOR ELSE BRANCH
                                   3472  ULSNAP 'AFTER BLDL',BLDLPENT                                           21120033

                                   3474+*                                 START MACRO ULSNAP ****************** 09800053
00195A                             3475+         DS    0H                       ON HALFW BOUNDARY/JUST IN CASE  09820053
                                   3476+*                                       ULSNAP MACRO IGNORED/SYSPARM    10040053
                                   3477+*                                       NOSNAP HAS BEEN USED            10050053
                                   3478+*                                 END MACRO ULSNAP  ******************* 10060053
00195A D203 BA02 B9CC 01A02 019CC  3479          MVC BLDLFIND,BLDLPTTR         SAVE FOR FIND API                21130031
001960 D21E B9CF B9D1 019CF 019D1  3480          MVC BLDLPK(SPFISZ+1),BLDLPC   DROP K,Z FLD FOR DIR ENT FORMAT  21140031
                                   3481  ULSNAP 'AFTER BLDL2',BLDLPENT                                          21150033

                                   3483+*                                 START MACRO ULSNAP ****************** 09800053
001966                             3484+         DS    0H                       ON HALFW BOUNDARY/JUST IN CASE  09820053
                                   3485+*                                       ULSNAP MACRO IGNORED/SYSPARM    10040053
                                   3486+*                                       NOSNAP HAS BEEN USED            10050053
                                   3487+*                                 END MACRO ULSNAP  ******************* 10060053
                                   3488 *                                                                       21160030
001966 58E0 B96C      0196C        3489          L R14,SVR14BLD                                                 21170030
00196A 07FE                        3490          BR R14                                                         21180030
                                   3491 ****************                                                        21190030
00196C                             3492 SVR14BLD DS F                                                           21200030
001970 405C40D4C5D4C2C5            3493 ERRMSGNF DC CL80' * MEMBER NOT FOUND (XXXXXXXX)'                        21210037
0019C0                             3494 BLDLPARM DS 0F                                                          21220030
0019C0 0001                        3495          DC H'1'         COUNT                                          21230030
0019C2 003E                        3496          DC H'62'        ENTRY LEN                                      21240030
0019C4 0000000000000000            3497 BLDLPENT DC XL62'00'                                                    21250034
001A02                      019C4  3498          ORG BLDLPENT                                                   21260030
0019C4                             3499 BLDLPNAM DS CL8                                                         21270030
0019CC                             3500 BLDLPTTR DS CL3                                                         21280030
0019CF                             3501 BLDLPK   DS CL1          CONCATINATION                                  21290031
0019D0                             3502 BLDLPZ   DS CL1                                                         21300030
0019D1                             3503 BLDLPC   DS CL1                                                         21310030
0019D2                             3504 BLDLPUSR DS 0C                                                          21320030
                                   3505 *                                                                       21330031
0019D2                      01A02  3506          ORG                                                            21340033
001A02                             3507 BLDLFIND DS CL4          TTRC                                           21350031
                                   3508 **********************************************************************  21360001
                                   3509 * PARM D/S ALLOCATION                                                   21370006
                                   3510 *********************************************************************** 21380006
001A06                             3511 DSALLOC  DS 0H                                                          21390006
001A06 50E0 BA2C      01A2C        3512          ST R14,SVR14DAI                                                21400006
                                   3513 *                                                                       21410006
                                   3514          IF (CLI,WFUNCID,E,EQFSPFUP)                              A#002 21420030
001A0A 9501 C9E0      009E0        3515+         CLI   WFUNCID,EQFSPFUP
001A0E 4770 BA16      01A16        3516+         BC    15-8,##266                  BRANCH IF NOT TRUE
001A12 9201 BA7A      01A7A        3517            MVI #S99DISP,EQDOLD                   DISP=OLD       A#002   21430030
                                   3518          ENDIF                                                  A#002   21440030XE4S001Z *** XE4S001Z *** DISPLAY/UPDATE SPF INFO ***                                                          PAGE   66


  LOC  OBJECT CODE    ADDR1 ADDR2  STMT   SOURCE STATEMENT                                       ASM 0201 10.53 06/08/08

001A16                             3519+##266    DS    0H                          TARGET FOR ELSE BRANCH
001A16 92F1 AE58      02E58        3520          MVI DCBID,C'1'                                                 21450010
001A1A 4110 BA34      01A34        3521          LA R1,#S99RBX1             POINT 20BYTES BYND RBPTR TOP        21460006
001A1E 45E0 BB8A      01B8A        3522          BAL R14,DYNALLOC                                               21470006
001A22 9201 BA30      01A30        3523          MVI SWDSALOK,1                                                 21471062
                                   3524 *                                                                       21480006
001A26 58E0 BA2C      01A2C        3525          L R14,SVR14DAI                                                 21490006
001A2A 07FE                        3526          BR R14                                                         21500006
                                   3527 ****************                                                        21510006
001A2C                             3528 SVR14DAI DS F                                                           21520006
001A30 00                          3529 SWDSALOK DC X'00'                                                       21521062
001A34                             3530 #S99RBX1 DS   0F                       DSECT HAS NO LENGTH EQU          21530006
001A34 00001A40                    3531          DC   A(#S99TDSN)                                               21540006
001A38 00001A7C                    3532          DC   A(#S99TDDN)                                               21550006
001A3C 80001A74                    3533          DC   A(#S99TDSP+X'80000000')                                   21560006
001A40                             3534 #S99TDSN DS   0F                                                        21570006
001A40 00020001                    3535          DC   AL2(DALDSNAM),AL2(1)                                      21580006
001A44 0008                        3536 PARMDSNL DC   AL2(8)                                                    21590006
001A46 4040404040404040            3537 PARMDSN  DC   CL44' '                                                   21600006
001A74                             3538 #S99TDSP DS   0F                                                        21610006
001A74 00040001                    3539          DC   AL2(DALSTATS),AL2(1)                                      21620006
001A78 0001                        3540          DC   AL2(1)                                                    21630006
001A7A 08                          3541 #S99DISP DC   AL1(8)                   DISP=SHR                         21640030
                            00001  3542 EQDOLD   EQU  X'01'                     DISP=OLD                        21650030
001A7C                             3543 #S99TDDN DS   0F                                                        21660006
001A7C 00550001                    3544          DC   AL2(DALRTDDN),AL2(1)                                      21670006
001A80 0008                        3545          DC   AL2(8)                                                    21680006
001A82 4040404040404040            3546 RETDDN   DC   CL8' '                                                    21690006
                                   3547 **********************************************************************  21700000
                                   3548 * SYSOUT   ALLOCATION                                                   21710006
                                   3549 *********************************************************************** 21720006
001A8A                             3550 SOALLOC  DS 0H                                                          21730006
001A8A 50E0 BAB0      01AB0        3551          ST R14,SVR14DAO                                                21740006
                                   3552 *                                                                       21750006
                                   3553          IF (CLI,TSOJOBID,NE,0)       UNDER TSO                         21760011
001A8E 9500 AE59      02E59        3554+         CLI   TSOJOBID,0
001A92 4780 BA9E      01A9E        3555+         BC    15-7,##267                  BRANCH IF NOT TRUE
001A96 4110 BABC      01ABC        3556            LA R1,#S99RBX3             POINT 20BYTES BYND RBPTR TOP      21770000
                                   3557          ELSE                                                           21780000
001A9A 47F0 BAA2      01AA2        3558+         B     ##268                       BRANCH TO ENDIF
001A9E                             3559+##267    DS    0H                          TARGET FOR BRANCH ON ELSE
001A9E 4110 BAB4      01AB4        3560            LA R1,#S99RBX2             POINT 20BYTES BYND RBPTR TOP      21790006
                                   3561          ENDIF                                                          21800000
001AA2                             3562+##268    DS    0H                          TARGET FOR ENDIF BRANCH
001AA2 92F2 AE58      02E58        3563          MVI DCBID,C'2'                                                 21810010
001AA6 45E0 BB8A      01B8A        3564          BAL R14,DYNALLOC                                               21820006
                                   3565 *                                                                       21830006
001AAA 58E0 BAB0      01AB0        3566          L R14,SVR14DAO                                                 21840006
001AAE 07FE                        3567          BR R14                                                         21850006
                                   3568 ****************                                                        21860006
001AB0                             3569 SVR14DAO DS F                                                           21870006
001AB4                             3570 #S99RBX2 DS   0F                       SYSOUT ALL                       21880000
001AB4 00001AC4                    3571          DC   A(#S99TSOT)                                               21890006
001AB8 80001A7C                    3572          DC   A(#S99TDDN+X'80000000')                                   21900006
001ABC                             3573 #S99RBX3 DS   0F                       TERMINAL ALLOCATION              21910000XE4S001Z *** XE4S001Z *** DISPLAY/UPDATE SPF INFO ***                                                          PAGE   67


  LOC  OBJECT CODE    ADDR1 ADDR2  STMT   SOURCE STATEMENT                                       ASM 0201 10.53 06/08/08

001ABC 00001AC8                    3574          DC   A(#S99TTRM)                                               21920000
001AC0 80001A7C                    3575          DC   A(#S99TDDN+X'80000000')                                   21930000
001AC4                             3576 #S99TSOT DS   0F                                                        21940006
001AC4 00180000                    3577          DC   AL2(DALSYSOU),AL2(0)     COUNT=0:DEFAULT CLASS            21950012
                                   3578 *        DC   AL2(1)                                                    21960012
                                   3579 *        DC   C'A'                     SYSOUT=A                         21970012
001AC8                             3580 #S99TTRM DS   0F                                                        21980006
001AC8 00280000                    3581          DC   AL2(DALTERM),AL2(0)     TSO TERMINAL                      21990006
                                   3582 **********************************************************************  22000000
001ACC                             3583 CLOSEFRE DS 0H                                                          22010000
001ACC 50E0 BB74      01B74        3584          ST R14,SVR14CF                                                 22020000
001AD0 5820 B5B4      015B4        3585          L R2,MEMBBUFF                                                  22030049
001AD4 5800 B5B8      015B8        3586          L R0,MEMBBUFL                                                  22040050
                                   3587          IF (LTR,R2,R2,NZ)                                              22050049
001AD8 1222                        3588+         LTR   R2,R2
001ADA 4780 BAF2      01AF2        3589+         BC    15-7,##269                  BRANCH IF NOT TRUE
                                   3590            FREEMAIN RU,A=(R2),LV=(R0)                                   22060049
                                   3591+*      OS/VS2 RELEASE 3 VERSION  -- 10/25/74                            00001603
001ADE 0700                        3592+         CNOP  0,4                                                      00228002
001AE0 47F0 BAE8      01AE8        3593+         B     *+12-4*1-2*0                      BRANCH AROUND DATA     00229602
001AE4 00                          3594+IHB0693F DC    AL1(0)                            RESERVED               00232702
001AE5 00                          3595+         DC    AL1(0)                            RESERVED               00240002
001AE6 00                          3596+         DC    AL1(0)                            SUBPOOL NUMBER         00243202
001AE7 03                          3597+         DC    BL1'00000011'                     MODE BYTE              00244002
001AE8 1800                        3598+         LR    0,R0                              LOAD LENGTH            00248500
001AEA 1812                        3599+         LR    1,R2                              LOAD AREA ADDRESS      00251000
001AEC 58F0 BAE4      01AE4        3600+         L     15,IHB0693F                       LOAD PARAMETERS        00253000
001AF0 0A78                        3601+         SVC   120                               ISSUE FREEMAIN SVC     00311202
                                   3602          ENDIF                                                          22070049
001AF2                             3603+##269    DS    0H                          TARGET FOR ELSE BRANCH
001AF2 4120 AEB4      02EB4        3604          LA R2,PDSDCB2                                                  22080000
                                   3605          IF (TM,DCBOFLGS-IHADCB(R2),DCBOFOPN,O)                         22090000
001AF6 9110 2030      00030        3606+         TM    DCBOFLGS-IHADCB(R2),DCBOFOPN
001AFA 47E0 BB12      01B12        3607+         BC    15-1,##270                  BRANCH IF NOT TRUE
                                   3608            CLOSE ((R2))                                                 22100000
001AFE 0700                        3609+         CNOP  0,4                               ALIGN LIST TO FULLWORD 02420002
001B00 4510 BB08      01B08        3610+         BAL   1,*+8                             LOAD REG1 W/LIST ADDR  02460002
001B04 00000000                    3611+         DC    A(0)                              OPTION AND DCB ADDRESS 02540000
001B08 5021 0000      00000        3612+         ST    R2,0(1,0)                         STORE DCB ADDRESS      02820000
001B0C 9280 1000      00000        3613+         MVI   0(1),128                          MOVE IN OPTION BYTE    02900000
001B10 0A14                        3614+         SVC   20                                ISSUE CLOSE SVC        01640000
                                   3615          ENDIF                                                          22110000
001B12                             3616+##270    DS    0H                          TARGET FOR ELSE BRANCH
001B12 4120 AF0C      02F0C        3617          LA R2,PDSDCB3                                                  22120030
                                   3618          IF (TM,DCBOFLGS-IHADCB(R2),DCBOFOPN,O)                         22130030
001B16 9110 2030      00030        3619+         TM    DCBOFLGS-IHADCB(R2),DCBOFOPN
001B1A 47E0 BB32      01B32        3620+         BC    15-1,##271                  BRANCH IF NOT TRUE
                                   3621            CLOSE ((R2))                                                 22140030
001B1E 0700                        3622+         CNOP  0,4                               ALIGN LIST TO FULLWORD 02420002
001B20 4510 BB28      01B28        3623+         BAL   1,*+8                             LOAD REG1 W/LIST ADDR  02460002
001B24 00000000                    3624+         DC    A(0)                              OPTION AND DCB ADDRESS 02540000
001B28 5021 0000      00000        3625+         ST    R2,0(1,0)                         STORE DCB ADDRESS      02820000
001B2C 9280 1000      00000        3626+         MVI   0(1),128                          MOVE IN OPTION BYTE    02900000
001B30 0A14                        3627+         SVC   20                                ISSUE CLOSE SVC        01640000
                                   3628          ENDIF                                                          22150030XE4S001Z *** XE4S001Z *** DISPLAY/UPDATE SPF INFO ***                                                          PAGE   68


  LOC  OBJECT CODE    ADDR1 ADDR2  STMT   SOURCE STATEMENT                                       ASM 0201 10.53 06/08/08

001B32                             3629+##271    DS    0H                          TARGET FOR ELSE BRANCH
                                   3630          IF (CLI,DCBDDNAM-IHADCB(R2),NE,C' ')  //ALLOCATED              22160000
001B32 9540 2028      00028        3631+         CLI   DCBDDNAM-IHADCB(R2),C' '
001B36 4780 BB50      01B50        3632+         BC    15-7,##272                  BRANCH IF NOT TRUE
001B3A D207 BB82 2028 01B82 00028  3633            MVC UNALDDNM,DCBDDNAM-IHADCB(R2)                             22170000
001B40 9240 2028      00028        3634            MVI DCBDDNAM-IHADCB(R2),C' '                                 22180011
001B44 92F1 AE58      02E58        3635            MVI DCBID,C'1'                                               22190011
001B48 4110 BB78      01B78        3636            LA R1,#S99RBX4             POINT 20BYTES BYND RBPTR TOP      22200000
001B4C 45E0 BCC8      01CC8        3637            BAL R14,DYNAFREE                                             22210000
                                   3638          ENDIF                                                          22220000
001B50                             3639+##272    DS    0H                          TARGET FOR ELSE BRANCH
001B50 4120 AF64      02F64        3640          LA R2,OUTDCB                                                   22230000
                                   3641          IF (TM,DCBOFLGS-IHADCB(R2),DCBOFOPN,O)                         22240000
001B54 9110 2030      00030        3642+         TM    DCBOFLGS-IHADCB(R2),DCBOFOPN
001B58 47E0 BB6E      01B6E        3643+         BC    15-1,##273                  BRANCH IF NOT TRUE
                                   3644            CLOSE ((R2))                                                 22250000
001B5C                             3645+         CNOP  0,4                               ALIGN LIST TO FULLWORD 02420002
001B5C 4510 BB64      01B64        3646+         BAL   1,*+8                             LOAD REG1 W/LIST ADDR  02460002
001B60 00000000                    3647+         DC    A(0)                              OPTION AND DCB ADDRESS 02540000
001B64 5021 0000      00000        3648+         ST    R2,0(1,0)                         STORE DCB ADDRESS      02820000
001B68 9280 1000      00000        3649+         MVI   0(1),128                          MOVE IN OPTION BYTE    02900000
001B6C 0A14                        3650+         SVC   20                                ISSUE CLOSE SVC        01640000
                                   3651          ENDIF                                                          22260000
001B6E                             3652+##273    DS    0H                          TARGET FOR ELSE BRANCH
                                   3653 * TSO:UNALLOC FAIL, BATCH:SYSOUT GONE ANYWHERE                          22270012
                                   3654 *        IF (CLI,TSOJOBID,E,0)  UNDER TSO                               22280012
                                   3655 *            IF (CLI,DCBDDNAM-IHADCB(R2),NE,C' ')  //ALLOCATED          22290012
                                   3656 *              MVC UNALDDNM,DCBDDNAM-IHADCB(R2)                         22300012
                                   3657 *              MVI DCBDDNAM-IHADCB(R2),C' '                             22310012
                                   3658 *              MVI DCBID,C'2'                                           22320012
                                   3659 *              LA R1,#S99RBX4             POINT 20BYTES BYND RBPTR TOP  22330012
                                   3660 *              BAL R14,DYNAFREE                                         22340012
                                   3661 *            ENDIF                                                      22350012
                                   3662 *        ENDIF                                                          22360012
001B6E 58E0 BB74      01B74        3663          L R14,SVR14CF                                                  22370000
001B72 07FE                        3664          BR R14                                                         22380000
                                   3665 *******************************                                         22390000
001B74                             3666 SVR14CF  DS F                                                           22400000
001B78                             3667 #S99RBX4 DS   0F                       SYSOUT ALL                       22410000
001B78 80001B7C                    3668          DC   A(#S99TUDD+X'80000000')                                   22420011
001B7C                             3669 #S99TUDD DS   0F                                                        22430000
001B7C 00010001                    3670          DC   AL2(DUNDDNAM),AL2(1)     UNALLOCATION DDNAME              22440000
001B80 0008                        3671          DC   AL2(8)                                                    22450000
001B82 4040404040404040            3672 UNALDDNM DC   CL8' '                   DDNAME                           22460000
                                   3673 **********************************************************************  22470000
                                   3674 * DYNALOC SUB                                                           22480006
                                   3675 * PARM R1:TEXT UNIT LIST                                                22490006
                                   3676 *********************************************************************** 22500006
001B8A                             3677 DYNALLOC DS 0H                                                          22510006
001B8A 50E0 BBC0      01BC0        3678          ST R14,SVR14DA                                                 22520006
001B8E 4140 BBC8      01BC8        3679          LA    R4,#S99RB                                                22530006
001B92 D713 4000 4000 00000 00000  3680          XC    S99RB(#S99RBSZ),S99RB   ZERO CLEAR RB ENTIRELY           22540006
001B98 9214 4000      00000        3681          MVI   S99RBLN,#S99RBSZ        SET RB LNGTH IN ITS LNGTH FLD    22550006
001B9C 9201 4001      00001        3682          MVI   S99VERB,S99VRBAL        SET VERB CODE                    22560006
001BA0 9220 4002      00002        3683          MVI   S99FLG11,S99NOMNT       NO MOUNT                         22570006XE4S001Z *** XE4S001Z *** DISPLAY/UPDATE SPF INFO ***                                                          PAGE   69


  LOC  OBJECT CODE    ADDR1 ADDR2  STMT   SOURCE STATEMENT                                       ASM 0201 10.53 06/08/08

001BA4 5010 4008      00008        3684          ST    R1,S99TXTPP             SET TXT PNTRS INTO RB            22580006
                                   3685 *                                                                       22590006
001BA8 4110 BBC4      01BC4        3686          LA    R1,#S99RBPT             ADDR OF PARAMETER AREA           22600006
                                   3687          DYNALLOC                                                       22610006
                                   3688+*        MACDATE Y-2 73082                                              00300002
001BAC 0A63                        3689+         SVC   99 CALL DYNAMIC ALLOCATION                               00400002
                                   3690          IF (LTR,R15,R15,NZ)                    DYNALLOC ERR            22620006
001BAE 12FF                        3691+         LTR   R15,R15
001BB0 4780 BBB8      01BB8        3692+         BC    15-7,##274                  BRANCH IF NOT TRUE
001BB4 45E0 BD08      01D08        3693            BAL R14,DYNAERR                                              22630000
                                   3694          ENDIF                                                          22640006
001BB8                             3695+##274    DS    0H                          TARGET FOR ELSE BRANCH
                                   3696 *                                                                       22650006
001BB8 58E0 BBC0      01BC0        3697          L R14,SVR14DA                                                  22660006
001BBC 07FE                        3698          BR R14                                                         22670006
                                   3699 *******************************                                         22680006
001BC0                             3700 SVR14DA  DS F                                                           22690006
001BC4 80001BC8                    3701 #S99RBPT DC   A(#S99RB+X'80000000')                                     22700006
001BC8                             3702 #S99RB   DS   CL256 (#S99RBSZ)                                          22710006
                                   3703 **********************************************************************  22720000
                                   3704 * DYNALOC SUB                                                           22730000
                                   3705 * PARM R1:TEXT UNIT LIST                                                22740000
                                   3706 *********************************************************************** 22750000
001CC8                             3707 DYNAFREE DS 0H                                                          22760000
001CC8 50E0 BD04      01D04        3708          ST R14,SVR14DF                                                 22770000
                                   3709          IF (CLI,SWDSALOK,E,0)                             A#004        22770262
001CCC 9500 BA30      01A30        3710+         CLI   SWDSALOK,0
001CD0 4770 BCD6      01CD6        3711+         BC    15-8,##275                  BRANCH IF NOT TRUE
001CD4 07FE                        3712             BR R14                                         A#004        22770362
                                   3713          ENDIF                                             A#004        22771059
001CD6                             3714+##275    DS    0H                          TARGET FOR ELSE BRANCH
001CD6 4140 BBC8      01BC8        3715          LA    R4,#S99RB                                                22780000
001CDA D713 4000 4000 00000 00000  3716          XC    S99RB(#S99RBSZ),S99RB   ZERO CLEAR RB ENTIRELY           22790000
001CE0 9214 4000      00000        3717          MVI   S99RBLN,#S99RBSZ        SET RB LNGTH IN ITS LNGTH FLD    22800000
001CE4 9202 4001      00001        3718          MVI   S99VERB,S99VRBUN        SET VERB CODE/UNALLOCATION       22810000
001CE8 5010 4008      00008        3719          ST    R1,S99TXTPP             SET TXT PNTRS INTO RB            22820000
                                   3720 *                                                                       22830000
001CEC 4110 BBC4      01BC4        3721          LA    R1,#S99RBPT             ADDR OF PARAMETER AREA           22840000
                                   3722          DYNALLOC                                                       22850000
                                   3723+*        MACDATE Y-2 73082                                              00300002
001CF0 0A63                        3724+         SVC   99 CALL DYNAMIC ALLOCATION                               00400002
                                   3725          IF (LTR,R15,R15,NZ)                    DYNALLOC ERR            22860000
001CF2 12FF                        3726+         LTR   R15,R15
001CF4 4780 BCFC      01CFC        3727+         BC    15-7,##276                  BRANCH IF NOT TRUE
001CF8 45E0 BD08      01D08        3728            BAL R14,DYNAERR                                              22870000
                                   3729          ENDIF                                                          22880000
001CFC                             3730+##276    DS    0H                          TARGET FOR ELSE BRANCH
                                   3731 *                                                                       22890000
001CFC 58E0 BD04      01D04        3732          L R14,SVR14DF                                                  22900000
001D00 07FE                        3733          BR R14                                                         22910000
                                   3734 *******************************                                         22920000
001D04                             3735 SVR14DF  DS F                                                           22930000
                                   3736 **********************************************************************  22940000
                                   3737 * DYNALOC ERRMSG                                                        22950000
                                   3738 * PARM R1:TEXT UNIT LIST                                                22960000XE4S001Z *** XE4S001Z *** DISPLAY/UPDATE SPF INFO ***                                                          PAGE   70


  LOC  OBJECT CODE    ADDR1 ADDR2  STMT   SOURCE STATEMENT                                       ASM 0201 10.53 06/08/08

                                   3739 *********************************************************************** 22970000
001D08                             3740 DYNAERR  DS 0H                                                          22980000
001D08 50E0 BE3C      01E3C        3741          ST R14,SVR14DE                                                 22990000
                                   3742          UI2X (R15),ERRMSG05+15,LEN=2                                   23000012
001D0C                             3743+         DS 0H                                                          04760003
001D0C 90E0 D00C      0000C        3744+         STM R14,R0,12(R13)                                             04770003
001D10 50FD 001C      0001C        3745+         ST R15,28(R13)              SAVE OPERAND TO SAVEAREA  A#0000   04800003
001D14 4100 BE4F      01E4F        3746+         LA R0,ERRMSG05+15                 GET OPD ADDR         A#0000  04840003
001D18 500D 0020      00020        3747+         ST R0,32(R13)                SAVE OPERAND TO SAVEAREA  A#0000  04850003
001D1C 41FD 001C      0001C        3748+         LA R15,28(R13)                INP VALUE ADDR                   04880003
001D20 41ED 002C      0002C        3749+         LA R14,44(R13)                 UNPK AREA                       04890003
001D24 F384 E000 F000 00000 00000  3750+         UNPK 0(9,R14),0(5,R15)                                         04900003
001D2A 58F0 BD38      01D38        3751+         L R15,#0721TRT                 TR TABLE TO CONV TO HEX DIGIT   04950003
001D2E DC07 E000 F000 00000 00000  3752+         TR 0(8,R14),0(R15)                                             04960003
001D34 47F0 BD4C      01D4C        3753+         B #0721#X     EQU *                                  A#@@@@2   04990003
001D38 00001C4C                    3754+#0721TRT     DC A(*+4-X'F0') TRANSLATE BIN TO HEX DIGIT A#0000          05000003
001D3C F0F1F2F3F4F5F6F7            3755+         DC C'0123456789ABCDEF' F0-->F9,FA-->FF TO C'0'-->C'F' A#0000   05010003
                            01D4C  3756+#0721#X     EQU *                                               A#@@@@2 05020003
001D4C 58FD 0020      00020        3757+         L R15,32(R13)                                                  05050003
001D50 D201 F000 E006 00000 00006  3758+         MVC 0(2,R15),8-2(R14)                                          05060003
001D56 98E0 D00C      0000C        3759+         LM  R14,R0,12(R13)                                             05110003
001D5A 5800 4004      00004        3760          L R0,S99RSC                                                    23010000
                                   3761          UI2X (R0),ERRMSG05+18                                          23020012
001D5E                             3762+         DS 0H                                                          04760003
001D5E 90E0 D00C      0000C        3763+         STM R14,R0,12(R13)                                             04770003
001D62 500D 001C      0001C        3764+         ST R0,28(R13)               SAVE OPERAND TO SAVEAREA  A#0000   04800003
001D66 4100 BE52      01E52        3765+         LA R0,ERRMSG05+18                 GET OPD ADDR         A#0000  04840003
001D6A 500D 0020      00020        3766+         ST R0,32(R13)                SAVE OPERAND TO SAVEAREA  A#0000  04850003
001D6E 41FD 001C      0001C        3767+         LA R15,28(R13)                INP VALUE ADDR                   04880003
001D72 41ED 002C      0002C        3768+         LA R14,44(R13)                 UNPK AREA                       04890003
001D76 F384 E000 F000 00000 00000  3769+         UNPK 0(9,R14),0(5,R15)                                         04900003
001D7C 58F0 BD8C      01D8C        3770+         L R15,#0722TRT                 TR TABLE TO CONV TO HEX DIGIT   04950003
001D80 DC07 E000 F000 00000 00000  3771+         TR 0(8,R14),0(R15)                                             04960003
001D86 47F0 BDA0      01DA0        3772+         B #0722#X     EQU *                                  A#@@@@2   04990003
001D8A 0000
001D8C 00001CA0                    3773+#0722TRT     DC A(*+4-X'F0') TRANSLATE BIN TO HEX DIGIT A#0000          05000003
001D90 F0F1F2F3F4F5F6F7            3774+         DC C'0123456789ABCDEF' F0-->F9,FA-->FF TO C'0'-->C'F' A#0000   05010003
                            01DA0  3775+#0722#X     EQU *                                               A#@@@@2 05020003
001DA0 58FD 0020      00020        3776+         L R15,32(R13)                                                  05050003
001DA4 D207 F000 E000 00000 00000  3777+         MVC 0(8,R15),8-8(R14)                                          05060003
001DAA 98E0 D00C      0000C        3778+         LM  R14,R0,12(R13)                                             05110003
                                   3779          IF (CLI,S99VERB,EQ,S99VRBAL)        ALLOC                      23030008
001DAE 9501 4001      00001        3780+         CLI   S99VERB,S99VRBAL
001DB2 4770 BE0A      01E0A        3781+         BC    15-8,##277                  BRANCH IF NOT TRUE
001DB6 D207 BE43 AA30 01E43 02A30  3782            MVC ERRMSG05+3(8),=C'DYNALLOC'                               23040018
                                   3783            IF (CLC,S99TXTPP,E,=A(#S99RBX1))     DS ALLOC                23050008
001DBC D503 4008 AA6C 00008 02A6C  3784+         CLC   S99TXTPP,=A(#S99RBX1)
001DC2 4770 BDD0      01DD0        3785+         BC    15-8,##278                  BRANCH IF NOT TRUE
001DC6 D22B BE5B BA46 01E5B 01A46  3786              MVC ERRMSG05+27(44),PARMDSN                                23060012
                                   3787            ELSE                                                         23070008
001DCC 47F0 BDDC      01DDC        3788+         B     ##279                       BRANCH TO ENDIF
001DD0                             3789+##278    DS    0H                          TARGET FOR BRANCH ON ELSE
001DD0 D22B BE5B AB24 01E5B 02B24  3790              MVC ERRMSG05+27(44),BLANK                                  23080012
001DD6 D205 BE5B AAB2 01E5B 02AB2  3791              MVC ERRMSG05+27(6),=C'SYSOUT'                              23090012
                                   3792            ENDIF                                                        23100008XE4S001Z *** XE4S001Z *** DISPLAY/UPDATE SPF INFO ***                                                          PAGE   71


  LOC  OBJECT CODE    ADDR1 ADDR2  STMT   SOURCE STATEMENT                                       ASM 0201 10.53 06/08/08

001DDC                             3793+##279    DS    0H                          TARGET FOR ENDIF BRANCH
                                   3794            IF (CLC,S99ERROR,EQ,=X'1708')                                23110010
001DDC D501 4004 AAB8 00004 02AB8  3795+         CLC   S99ERROR,=X'1708'
001DE2 4770 BDEC      01DEC        3796+         BC    15-8,##280                  BRANCH IF NOT TRUE
001DE6 D207 BE43 AA38 01E43 02A38  3797              MVC ERRMSG05+3(8),=C'NOT-CAT '                             23120012
                                   3798            ENDIF                                                        23130010
001DEC                             3799+##280    DS    0H                          TARGET FOR ELSE BRANCH
                                   3800            IF (CLC,S99ERROR,EQ,=X'020C'),                              X23140010
                                                       OR,(CLC,S99ERROR,EQ,=X'0210')                            23150010
001DEC D501 4004 AABA 00004 02ABA  3801+         CLC   S99ERROR,=X'020C'
001DF2 4780 BE00      01E00        3802+         BC    8,##282                     BRANCH IF TRUE
001DF6 D501 4004 AABC 00004 02ABC  3803+         CLC   S99ERROR,=X'0210'
001DFC 4770 BE06      01E06        3804+         BC    15-8,##281                  BRANCH IF NOT TRUE
001E00                             3805+##282    DS    0H                        TARGET FOR BANCH ON NOT TRUE
001E00 D207 BE43 AA40 01E43 02A40  3806              MVC ERRMSG05+3(8),=C'IN-USE  '                             23160012
                                   3807            ENDIF                                                        23170010
001E06                             3808+##281    DS    0H                          TARGET FOR ELSE BRANCH
                                   3809          ELSE                                                           23180008
001E06 47F0 BE2E      01E2E        3810+         B     ##283                       BRANCH TO ENDIF
001E0A                             3811+##277    DS    0H                          TARGET FOR BRANCH ON ELSE
001E0A D207 BE43 AA48 01E43 02A48  3812            MVC ERRMSG05+3(8),=C'DYNAFREE'                               23190018
                                   3813            IF (CLI,DCBID,E,C'1')                                        23200010
001E10 95F1 AE58      02E58        3814+         CLI   DCBID,C'1'
001E14 4770 BE22      01E22        3815+         BC    15-8,##284                  BRANCH IF NOT TRUE
001E18 D22B BE5B BA46 01E5B 01A46  3816              MVC ERRMSG05+27(44),PARMDSN                                23210012
                                   3817            ELSE                                                         23220010
001E1E 47F0 BE2E      01E2E        3818+         B     ##285                       BRANCH TO ENDIF
001E22                             3819+##284    DS    0H                          TARGET FOR BRANCH ON ELSE
001E22 D22B BE5B AB24 01E5B 02B24  3820              MVC ERRMSG05+27(44),BLANK                                  23230012
001E28 D205 BE5B AAB2 01E5B 02AB2  3821              MVC ERRMSG05+27(6),=C'SYSOUT'                              23240012
                                   3822            ENDIF                                                        23250011
001E2E                             3823+##285    DS    0H                          TARGET FOR ENDIF BRANCH
                                   3824          ENDIF                                                          23260008
001E2E                             3825+##283    DS    0H                          TARGET FOR ENDIF BRANCH
001E2E 4100 BE40      01E40        3826          LA R0,ERRMSG05                                                 23270009
001E32 45E0 A410      02410        3827          BAL R14,ERRMSG                                                 23280000
                                   3828 *                                                                       23290000
001E36 58E0 BE3C      01E3C        3829          L R14,SVR14DE                                                  23300000
001E3A 07FE                        3830          BR R14                                                         23310000
                                   3831 *******************************                                         23320000
001E3C                             3832 SVR14DE  DS F                                                           23330000
001E40 405C40E7E7E7E7E7            3833 ERRMSG05 DC    CL80' * XXXXXXXX RC=XX:XXXXXXXX X'                       23340012
                                   3834 **********************************************************************  23350027
001E90                             3835 DISPHDR  DS 0H                                                          23360027
001E90 50E0 BEB4      01EB4        3836          ST R14,SVR14DH                                                 23370027
                                   3837 *                                                                       23380027
001E94 4100 A344      02344        3838          LA R0,HDR1                                                     23390027
001E98 45E0 A41C      0241C        3839          BAL R14,PUTOUT                                                 23400027
001E9C 4100 B8E0      018E0        3840          LA R0,HDR4                                                     23410027
001EA0 45E0 A41C      0241C        3841          BAL R14,PUTOUT                                                 23420027
001EA4 4100 A394      02394        3842          LA R0,HDR2                                                     23430027
001EA8 45E0 A41C      0241C        3843          BAL R14,PUTOUT                                                 23440027
                                   3844 *                                                                       23450027
001EAC 58E0 BEB4      01EB4        3845          L R14,SVR14DH                                                  23460027
001EB0 07FE                        3846          BR R14                                                         23470027XE4S001Z *** XE4S001Z *** DISPLAY/UPDATE SPF INFO ***                                                          PAGE   72


  LOC  OBJECT CODE    ADDR1 ADDR2  STMT   SOURCE STATEMENT                                       ASM 0201 10.53 06/08/08

001EB4                             3847 SVR14DH  DS F                                                           23480027
                                   3848 **********************************************************************  23490006
001EB8                             3849 DISPMEMB DS 0H                                                          23500006
001EB8 50E0 A334      02334        3850          ST R14,SVR14                                                   23510006
                                   3851          IF (TM,PDS2INDC,PDS2ALIS,O)                                    23520030
001EBC 9180 300B      0000B        3852+         TM    PDS2INDC,PDS2ALIS
001EC0 47E0 BECC      01ECC        3853+         BC    15-1,##286                  BRANCH IF NOT TRUE
001EC4 9604 AE57      02E57        3854             OI SPFSW,EQUALIAS  SPF INFO EXIST                           23530030
                                   3855          ELSE                                                           23540030
001EC8 47F0 BED0      01ED0        3856+         B     ##287                       BRANCH TO ENDIF
001ECC                             3857+##286    DS    0H                          TARGET FOR BRANCH ON ELSE
001ECC 94FB AE57      02E57        3858             NI SPFSW,X'FF'-EQUALIAS  SPF INFO EXIST                     23550030
                                   3859          ENDIF                                                          23560030
001ED0                             3860+##287    DS    0H                          TARGET FOR ENDIF BRANCH
                                   3861          IF (CLI,PDS2INDC,EQ,PDS2SPFI) SPF INFO DATA LEN=X0F(30 BYTE)   23570030
001ED0 950F 300B      0000B        3862+         CLI   PDS2INDC,PDS2SPFI
001ED4 4770 BEE0      01EE0        3863+         BC    15-8,##288                  BRANCH IF NOT TRUE
001ED8 9602 AE57      02E57        3864             OI SPFSW,EQUSPFI   SPF INFO EXIST                           23580030
                                   3865          ELSE                                                           23590030
001EDC 47F0 BEF8      01EF8        3866+         B     ##289                       BRANCH TO ENDIF
001EE0                             3867+##288    DS    0H                          TARGET FOR BRANCH ON ELSE
001EE0 94FD AE57      02E57        3868             NI SPFSW,X'FF'-EQUSPFI   SPF INFO EXIST                     23600034
                                   3869             IF (CLI,PDS2INDC,NE,0)   OTHER DIR INFOO                    23610034
001EE4 9500 300B      0000B        3870+         CLI   PDS2INDC,0
001EE8 4780 BEF4      01EF4        3871+         BC    15-7,##290                  BRANCH IF NOT TRUE
001EEC 9608 AE57      02E57        3872               OI SPFSW,EQUOTHER  SPF INFO EXIST                         23620035
                                   3873             ELSE                                                        23630034
001EF0 47F0 BEF8      01EF8        3874+         B     ##291                       BRANCH TO ENDIF
001EF4                             3875+##290    DS    0H                          TARGET FOR BRANCH ON ELSE
001EF4 94F7 AE57      02E57        3876               NI SPFSW,X'FF'-EQUOTHER  SPF INFO EXIST                   23640034
                                   3877             ENDIF                                                       23650034
001EF8                             3878+##291    DS    0H                          TARGET FOR ENDIF BRANCH
                                   3879          ENDIF                                                          23660030
001EF8                             3880+##289    DS    0H                          TARGET FOR ENDIF BRANCH
001EF8 9240 90CA      030CA        3881          MVI WKSPFINF,C' '                                              23670006
001EFC D24E 90CB 90CA 030CB 030CA  3882          MVC WKSPFINF+1(L'WKSPFINF-1),WKSPFINF                          23680006
                                   3883 *MEMBER NAME                                                            23690020
                                   3884          IF (CLI,DISPUPDT,E,0)                                          23700046
001F02 9500 A338      02338        3885+         CLI   DISPUPDT,0
001F06 4770 BF14      01F14        3886+         BC    15-8,##292                  BRANCH IF NOT TRUE
001F0A D207 90CB 3000 030CB 00000  3887            MVC WKSPFNAM,PDS2NAME                                        23710006
                                   3888          ELSE                                                           23720046
001F10 47F0 BF1A      01F1A        3889+         B     ##293                       BRANCH TO ENDIF
001F14                             3890+##292    DS    0H                          TARGET FOR BRANCH ON ELSE
001F14 D207 90CB AA50 030CB 02A50  3891            MVC WKSPFNAM,=C'=======>'                                    23730000
                                   3892          ENDIF                                                          23740046
001F1A                             3893+##293    DS    0H                          TARGET FOR ENDIF BRANCH
001F1A 9260 90D5      030D5        3894          MVI WKSPFVV,EQUVERNO          NO SPF DATA                      23750024
                                   3895          IF (TM,SPFSW,EQUALIAS,O)                                       23760021
001F1E 9104 AE57      02E57        3896+         TM    SPFSW,EQUALIAS
001F22 47E0 BF38      01F38        3897+         BC    15-1,##294                  BRANCH IF NOT TRUE
001F26 D204 90D5 AABE 030D5 02ABE  3898            MVC WKSPFVV(5),=C'ALIAS '      ALIAS                         23770021
001F2C 58E0 A340      02340        3899            L R14,ALIASNO                                                23780022
001F30 41EE 0001      00001        3900            LA R14,1(R14)                                                23790022
001F34 50E0 A340      02340        3901            ST R14,ALIASNO                                               23800022XE4S001Z *** XE4S001Z *** DISPLAY/UPDATE SPF INFO ***                                                          PAGE   73


  LOC  OBJECT CODE    ADDR1 ADDR2  STMT   SOURCE STATEMENT                                       ASM 0201 10.53 06/08/08

                                   3902          ENDIF                                                          23810020
001F38                             3903+##294    DS    0H                          TARGET FOR ELSE BRANCH
                                   3904        IF (TM,SPFSW,EQUSPFF+EQUSPFI,O) RECFM=F,LRECL=80,UDATALEN=0F     23820006
001F38 9103 AE57      02E57        3905+         TM    SPFSW,EQUSPFF+EQUSPFI
001F3C 47E0 A312      02312        3906+         BC    15-1,##295                  BRANCH IF NOT TRUE
                                   3907 *VVMM                                                                   23830000
001F40 1B22                        3908          SR R2,R2                                                       23840000
001F42 4320 300C      0000C        3909          IC R2,SPFVV                                                    23850001
                                   3910          UI2Z (R2),WKSPFVV,LEN=2                                        23860000
001F46                             3911+         DS 0H                                                          02870003
001F46 90E0 D00C      0000C        3912+         STM R14,R0,12(R13)                                             02880003
001F4A 1802                        3913+         LR R0,R2                     GET INT VALUE                     02950003
001F4C 41E0 90D5      030D5        3914+         LA R14,WKSPFVV                 GET OUT ADDR VALUE              03000003
001F50 41FD 002C      0002C        3915+         LA R15,44(R13)               PACK WORK                         03140003
001F54 4E0F 0000      00000        3916+         CVD R0,0(R15)                                                  03150003
001F58 F317 E000 F000 00000 00000  3917+         UNPK 0(2,R14),0(8,R15)          VALUE                          03170003
001F5E 1200                        3918+         LTR R0,R0                                                      03180003
001F60 4740 BF68      01F68        3919+         BM #0762#2                                          A#@@@@2    03200003
001F64 96F0 E001      00001        3920+         OI 2-1(R14),X'F0'                                              03220003
                            01F68  3921+#0762#2     EQU *                                             A#@@@@2   03250003
001F68 98E0 D00C      0000C        3922+         LM  R14,R0,12(R13)                                             03270003
001F6C 924B 90D7      030D7        3923          MVI WKSPFVV+2,C'.'                                             23870000
001F70 1B22                        3924          SR R2,R2                                                       23880000
001F72 4320 300D      0000D        3925          IC R2,SPFMM                                                    23890001
                                   3926          UI2Z (R2),WKSPFMM,LEN=2                                        23900000
001F76                             3927+         DS 0H                                                          02870003
001F76 90E0 D00C      0000C        3928+         STM R14,R0,12(R13)                                             02880003
001F7A 1802                        3929+         LR R0,R2                     GET INT VALUE                     02950003
001F7C 41E0 90D8      030D8        3930+         LA R14,WKSPFMM                 GET OUT ADDR VALUE              03000003
001F80 41FD 002C      0002C        3931+         LA R15,44(R13)               PACK WORK                         03140003
001F84 4E0F 0000      00000        3932+         CVD R0,0(R15)                                                  03150003
001F88 F317 E000 F000 00000 00000  3933+         UNPK 0(2,R14),0(8,R15)          VALUE                          03170003
001F8E 1200                        3934+         LTR R0,R0                                                      03180003
001F90 4740 BF98      01F98        3935+         BM #0763#2                                          A#@@@@2    03200003
001F94 96F0 E001      00001        3936+         OI 2-1(R14),X'F0'                                              03220003
                            01F98  3937+#0763#2     EQU *                                             A#@@@@2   03250003
001F98 98E0 D00C      0000C        3938+         LM  R14,R0,12(R13)                                             03270003
                                   3939 *CRE DATE                                                               23910000
                                   3940        IF (OC,SPFCRD,SPFCRD,NZ)                                         23920039
001F9C D603 3010 3010 00010 00010  3941+         OC    SPFCRD,SPFCRD
001FA2 4780 A0D8      020D8        3942+         BC    15-7,##296                  BRANCH IF NOT TRUE
001FA6 D203 AFC4 3010 02FC4 00010  3943          MVC WKDATE(4),SPFCRD                                           23930001
                                   3944          UDATE WKDATE,TODAY=N,INPUT=J,TBL=N  R0=00YYMMDD                23940000

                                   3946+**                                     ***** START MACRO UDATE    ***** 07200004
001FAC                             3947+         DS    0H                                                       07210004
001FAC 41E0 AFC4      02FC4        3948+         LA    R14,WKDATE              ADDR AREA FIELD                  07360004
001FB0 9200 E000      00000        3949+         MVI  0(R14),0                 CONFIRM TOP BYTE 0               07460034
001FB4 960F E003      00003        3950+         OI   3(R14),X'0F'             CONFIRM SIGN                     07480004
001FB8 58FE 0000      00000        3951+         L    R15,0(R14)               INPUT JULIAN DATE                07500004
001FBC D705 E000 E000 00000 00000  3952+         XC    0(6,R14),0(R14)         CLEAR AREA                       07530004
001FC2 920C E003      00003        3953+         MVI   3(R14),X'0C'            ADD SIGN BIT   0000000C0000      07540004
001FC6 BEF4 E002      00002        3954+         STCM  R15,B'0100',2(R14)      GET YY*10      0000YY0C0000      07550004
001FCA 9500 E002      00002        3955+         CLI   2(R14),X'00'            CHK YY             --            07560004
001FCE 4780 BFE0      01FE0        3956+         BE    UDT0766D                100 NEN NOT URUUDOSHI            07570004XE4S001Z *** XE4S001Z *** DISPLAY/UPDATE SPF INFO ***                                                          PAGE   74


  LOC  OBJECT CODE    ADDR1 ADDR2  STMT   SOURCE STATEMENT                                       ASM 0201 10.53 06/08/08

001FD2 FD31 E000 B390 00000 01390  3957+         DP    0(4,R14),UD055440       /40(4YEAR)     SSSC0R0C0000      07580004
001FD8 9500 E002      00002        3958+         CLI   2(R14),X'00'                               --            07590004
001FDC 4780 BFF0      01FF0        3959+         BZ    UDT07661                YES URUU EVERY 4 YEAR            07600004
                            01FE0  3960+UDT0766D EQU   *                       HEINEN                           07610004
001FE0 4110 B3AA      013AA        3961+         LA    R1,UD0554HE             YEAR END DAY#                    07630004
001FE4 4100 B394      01394        3962+         LA    R0,UD0554H              MONTH TBL TOP ADDR               07650004
001FE8 50FE 0000      00000        3963+         ST    R15,0(R14)              STORE R15 TO WRK                 07660004
001FEC 47F0 A004      02004        3964+         B     UDT07662                COMMON FOR URUU/HEINEN           07670004
                            01FF0  3965+UDT07661 EQU   *                       URUDOSI                          07680004
001FF0 4110 B3C4      013C4        3966+         LA    R1,UD0554UE             YEAR END DAY#                    07700004
001FF4 4100 B3AE      013AE        3967+         LA    R0,UD0554U              MONTH TBL TOP ADDR               07720004
001FF8 50FE 0000      00000        3968+         ST    R15,0(R14)              +++++ STORE R15 TO WRK           07730004
001FFC 92F0 E000      00000        3969+         MVI   0(R14),X'F0'            +++++ URUU --> TOP BYTE X'F0'    07740034
002000 58FE 0000      00000        3970+         L     R15,0(R14)              +++++ STORE DATE TO R15          07750004
                            02004  3971+UDT07662 EQU   *                       AFTER CHECK URUU                 07760004
002004 F911 E002 B392 00002 01392  3972+         CP    2(2,R14),UD05540        CHK ZERO           ----          07790004
00200A 4780 A0A6      020A6        3973+         BE    UDT0766E                SPECIFICATION ERR                07800004
00200E F911 E002 1000 00002 00000  3974+         CP    2(2,R14),0(2,R1)        CHK YEAR END       ----          07810004
002014 4720 A0A6      020A6        3975+         BH    UDT0766E                OVER YEAR END                    07820004
002018 1810                        3976+         LR    R1,R0                   SAVE TOP ADDR(HEINEN)            08450004
                            0201A  3977+UDT07663 EQU   *                       LOP FOR  CHECK MONTH END         08460004
00201A F911 E002 1000 00002 00000  3978+         CP    2(2,R14),0(2,R1)        CHECK MONTH END    ----          08470004
002020 47D0 A02C      0202C        3979+         BNH   UDT07669                IN MONTH END                     08480004
002024 4111 0002      00002        3980+         LA    R1,2(R1)                NEXT TABLE ENTRY                 08490004
002028 47F0 A01A      0201A        3981+         B     UDT07663                AROUND CONSTANT                  08500004
                            0202C  3982+UDT07669 EQU   *                       FOUND END OF MONTH               08870004
00202C 501E 0000      00000        3983+         ST    R1,0(R14)               SAVE ENTRY ADDR                  08890004
002030 1B10                        3984+         SR    R1,R0                   ENTRY OFFSET                     08900004
002032 8810 0001      00001        3985+         SRL   R1,1                    DEVIDE BY ENTRY LEN(2)           08910004
002036 4111 0001      00001        3986+         LA    R1,1(R1)                MM IN BINALY                     08920004
00203A 4100 000A      0000A        3987+         LA    R0,10                   FOR CHECK MONTH 10 OVER          08930004
00203E 1910                        3988+         CR    R1,R0                   CHECK MONTH                      08940004
002040 4740 A04C      0204C        3989+         BL    UDT0766A                LOW UNDER MONTH 9                08950004
002044 1B10                        3990+         SR    R1,R0                   N MONTH OVER 10                  08960004
002046 4100 0010      00010        3991+         LA    R0,X'10'                M0 IN PACK                       08970004
00204A 1610                        3992+         OR    R1,R0                   MM IN PACK                       08980004
                            0204C  3993+UDT0766A EQU   *                       AFTER CHECK OVER 10 MONTH        08990004
00204C 421E 0005      00005        3994+         STC   R1,5(R14)               SAVE MM IN PACK   AAAAAAAA00MM   09000004
002050 581E 0000      00000        3995+         L     R1,0(R14)               BACK ENTRY ADDR   --------       09010004
002054 4100 0002      00002        3996+         LA    R0,2                    1 ENTRY LEN                      09020004
002058 1B10                        3997+         SR    R1,R0                    BACK 1 ENTRY                    09030004
00205A 50FE 0000      00000        3998+         ST    R15,0(R14)              FFYYDDDC00MM +++++ STORE TO R15  09040004
00205E 9200 E000      00000        3999+         MVI   0(R14),0                +++++ CONFIRM TOP BYTE 0         09050034
002062 FB31 E000 1000 00000 00000  4000+         SP    0(4,R14),0(2,R1)        00YY0DDC00MM                     09060004
002068 D200 E004 E001 00004 00001  4001+         MVC   4(1,R14),1(R14)         00YY0DDCYYMM                     09070004
00206E F121 E000 E004 00000 00004  4002+         MVO   0(3,R14),4(2,R14)       0YYMMDDCYYMM                     09080004
002074 960F E003      00003        4003+         OI    3(R14),X'0F'            SIGN 4 BIT                       09090004
002078 580E 0000      00000        4004+         L     R0,0(R14)               0YYMMDDC    PACK FMT             09100004
00207C 8800 0004      00004        4005+         SRL   R0,4                    00YYMMDD    PACK FMT             09110004
002080 F353 E000 E000 00000 00000  4006+         UNPK  0(6,R14),0(4,R14)       ZONE YYMMDD                      09120004
002086 5810 0010      00010        4007+         L    R1,16                   GET ADDR OF CVT                   09130004
00208A 5811 0038      00038        4008+         L    R1,X'38'(R1)  000YYDDDF CURRENT DATE IN PACKED DECIMAL    09140004
00208E 12FF                        4009+         LTR   R15,R15                 +++++ TEST                       09150004
002090 4720 A09C      0209C        4010+         BP    UDT0766P                +++++                            09160004
002094 41E0 0004      00004        4011+         LA    R14,4                   +++++ FLAG=4                     09170004XE4S001Z *** XE4S001Z *** DISPLAY/UPDATE SPF INFO ***                                                          PAGE   75


  LOC  OBJECT CODE    ADDR1 ADDR2  STMT   SOURCE STATEMENT                                       ASM 0201 10.53 06/08/08

002098 47F0 A0A0      020A0        4012+         B     UDT0766R                +++++                            09180004
                            0209C  4013+UDT0766P EQU   *                       +++++                            09190004
00209C 41E0 0000      00000        4014+         LA    R14,0                   +++++ FLAG=0                     09200004
                            020A0  4015+UDT0766R EQU   *                       +++++                            09210004
0020A0 1BFF                        4016+         SR   R15,R15                  R.C 0                            09220004
0020A2 47F0 A0AA      020AA        4017+         B    UDT0766Z                                                  09240004
                            020A6  4018+UDT0766E EQU   *                       R.C SET                          09260004
0020A6 41F0 0004      00004        4019+         LA   R15,4                    R.C 0                            09270004
                            020AA  4020+UDT0766Z EQU   *                       R.C SET                          09280004
                                   4021          IF (LTR,R15,R15,Z)                                             23950042
0020AA 12FF                        4022+         LTR   R15,R15
0020AC 4770 A0CE      020CE        4023+         BC    15-8,##297                  BRANCH IF NOT TRUE
0020B0 D201 90DC AFC4 030DC 02FC4  4024            MVC WKSPFCRD(2),WKDATE                                       23960042
0020B6 9261 90DE      030DE        4025            MVI WKSPFCRD+2,C'/'                                          23970042
0020BA D201 90DF AFC6 030DF 02FC6  4026            MVC WKSPFCRD+3(2),WKDATE+2                                   23980042
0020C0 9261 90E1      030E1        4027            MVI WKSPFCRD+5,C'/'                                          23990042
0020C4 D201 90E2 AFC8 030E2 02FC8  4028            MVC WKSPFCRD+6(2),WKDATE+4                                   24000042
                                   4029          ELSE                                                           24010042
0020CA 47F0 A0D4      020D4        4030+         B     ##298                       BRANCH TO ENDIF
0020CE                             4031+##297    DS    0H                          TARGET FOR BRANCH ON ELSE
0020CE D207 90DC AA58 030DC 02A58  4032            MVC WKSPFCRD(8),=C'??/??/??'                                 24020042
                                   4033          ENDIF                                                          24030042
0020D4                             4034+##298    DS    0H                          TARGET FOR ENDIF BRANCH
                                   4035        ELSE                                                             24040042
0020D4 47F0 A0DE      020DE        4036+         B     ##299                       BRANCH TO ENDIF
0020D8                             4037+##296    DS    0H                          TARGET FOR BRANCH ON ELSE
0020D8 D207 90DC AA60 030DC 02A60  4038          MVC WKSPFCRD(8),=C'00/00/00'                                   24050042
                                   4039        ENDIF                                                            24060039
0020DE                             4040+##299    DS    0H                          TARGET FOR ENDIF BRANCH
                                   4041 *CHG DATE                                                               24070000
                                   4042        IF (OC,SPFCHD,SPFCHD,NZ)                                         24080039
0020DE D603 3014 3014 00014 00014  4043+         OC    SPFCHD,SPFCHD
0020E4 4780 A21A      0221A        4044+         BC    15-7,##300                  BRANCH IF NOT TRUE
0020E8 D203 AFC4 3014 02FC4 00014  4045          MVC WKDATE(4),SPFCHD                                           24090001
                                   4046          UDATE WKDATE,TODAY=N,INPUT=J,TBL=N  R0=00YYMMDD                24100000

                                   4048+**                                     ***** START MACRO UDATE    ***** 07200004
0020EE                             4049+         DS    0H                                                       07210004
0020EE 41E0 AFC4      02FC4        4050+         LA    R14,WKDATE              ADDR AREA FIELD                  07360004
0020F2 9200 E000      00000        4051+         MVI  0(R14),0                 CONFIRM TOP BYTE 0               07460034
0020F6 960F E003      00003        4052+         OI   3(R14),X'0F'             CONFIRM SIGN                     07480004
0020FA 58FE 0000      00000        4053+         L    R15,0(R14)               INPUT JULIAN DATE                07500004
0020FE D705 E000 E000 00000 00000  4054+         XC    0(6,R14),0(R14)         CLEAR AREA                       07530004
002104 920C E003      00003        4055+         MVI   3(R14),X'0C'            ADD SIGN BIT   0000000C0000      07540004
002108 BEF4 E002      00002        4056+         STCM  R15,B'0100',2(R14)      GET YY*10      0000YY0C0000      07550004
00210C 9500 E002      00002        4057+         CLI   2(R14),X'00'            CHK YY             --            07560004
002110 4780 A122      02122        4058+         BE    UDT0775D                100 NEN NOT URUUDOSHI            07570004
002114 FD31 E000 B390 00000 01390  4059+         DP    0(4,R14),UD055440       /40(4YEAR)     SSSC0R0C0000      07580004
00211A 9500 E002      00002        4060+         CLI   2(R14),X'00'                               --            07590004
00211E 4780 A132      02132        4061+         BZ    UDT07751                YES URUU EVERY 4 YEAR            07600004
                            02122  4062+UDT0775D EQU   *                       HEINEN                           07610004
002122 4110 B3AA      013AA        4063+         LA    R1,UD0554HE             YEAR END DAY#                    07630004
002126 4100 B394      01394        4064+         LA    R0,UD0554H              MONTH TBL TOP ADDR               07650004
00212A 50FE 0000      00000        4065+         ST    R15,0(R14)              STORE R15 TO WRK                 07660004
00212E 47F0 A146      02146        4066+         B     UDT07752                COMMON FOR URUU/HEINEN           07670004XE4S001Z *** XE4S001Z *** DISPLAY/UPDATE SPF INFO ***                                                          PAGE   76


  LOC  OBJECT CODE    ADDR1 ADDR2  STMT   SOURCE STATEMENT                                       ASM 0201 10.53 06/08/08

                            02132  4067+UDT07751 EQU   *                       URUDOSI                          07680004
002132 4110 B3C4      013C4        4068+         LA    R1,UD0554UE             YEAR END DAY#                    07700004
002136 4100 B3AE      013AE        4069+         LA    R0,UD0554U              MONTH TBL TOP ADDR               07720004
00213A 50FE 0000      00000        4070+         ST    R15,0(R14)              +++++ STORE R15 TO WRK           07730004
00213E 92F0 E000      00000        4071+         MVI   0(R14),X'F0'            +++++ URUU --> TOP BYTE X'F0'    07740034
002142 58FE 0000      00000        4072+         L     R15,0(R14)              +++++ STORE DATE TO R15          07750004
                            02146  4073+UDT07752 EQU   *                       AFTER CHECK URUU                 07760004
002146 F911 E002 B392 00002 01392  4074+         CP    2(2,R14),UD05540        CHK ZERO           ----          07790004
00214C 4780 A1E8      021E8        4075+         BE    UDT0775E                SPECIFICATION ERR                07800004
002150 F911 E002 1000 00002 00000  4076+         CP    2(2,R14),0(2,R1)        CHK YEAR END       ----          07810004
002156 4720 A1E8      021E8        4077+         BH    UDT0775E                OVER YEAR END                    07820004
00215A 1810                        4078+         LR    R1,R0                   SAVE TOP ADDR(HEINEN)            08450004
                            0215C  4079+UDT07753 EQU   *                       LOP FOR  CHECK MONTH END         08460004
00215C F911 E002 1000 00002 00000  4080+         CP    2(2,R14),0(2,R1)        CHECK MONTH END    ----          08470004
002162 47D0 A16E      0216E        4081+         BNH   UDT07759                IN MONTH END                     08480004
002166 4111 0002      00002        4082+         LA    R1,2(R1)                NEXT TABLE ENTRY                 08490004
00216A 47F0 A15C      0215C        4083+         B     UDT07753                AROUND CONSTANT                  08500004
                            0216E  4084+UDT07759 EQU   *                       FOUND END OF MONTH               08870004
00216E 501E 0000      00000        4085+         ST    R1,0(R14)               SAVE ENTRY ADDR                  08890004
002172 1B10                        4086+         SR    R1,R0                   ENTRY OFFSET                     08900004
002174 8810 0001      00001        4087+         SRL   R1,1                    DEVIDE BY ENTRY LEN(2)           08910004
002178 4111 0001      00001        4088+         LA    R1,1(R1)                MM IN BINALY                     08920004
00217C 4100 000A      0000A        4089+         LA    R0,10                   FOR CHECK MONTH 10 OVER          08930004
002180 1910                        4090+         CR    R1,R0                   CHECK MONTH                      08940004
002182 4740 A18E      0218E        4091+         BL    UDT0775A                LOW UNDER MONTH 9                08950004
002186 1B10                        4092+         SR    R1,R0                   N MONTH OVER 10                  08960004
002188 4100 0010      00010        4093+         LA    R0,X'10'                M0 IN PACK                       08970004
00218C 1610                        4094+         OR    R1,R0                   MM IN PACK                       08980004
                            0218E  4095+UDT0775A EQU   *                       AFTER CHECK OVER 10 MONTH        08990004
00218E 421E 0005      00005        4096+         STC   R1,5(R14)               SAVE MM IN PACK   AAAAAAAA00MM   09000004
002192 581E 0000      00000        4097+         L     R1,0(R14)               BACK ENTRY ADDR   --------       09010004
002196 4100 0002      00002        4098+         LA    R0,2                    1 ENTRY LEN                      09020004
00219A 1B10                        4099+         SR    R1,R0                    BACK 1 ENTRY                    09030004
00219C 50FE 0000      00000        4100+         ST    R15,0(R14)              FFYYDDDC00MM +++++ STORE TO R15  09040004
0021A0 9200 E000      00000        4101+         MVI   0(R14),0                +++++ CONFIRM TOP BYTE 0         09050034
0021A4 FB31 E000 1000 00000 00000  4102+         SP    0(4,R14),0(2,R1)        00YY0DDC00MM                     09060004
0021AA D200 E004 E001 00004 00001  4103+         MVC   4(1,R14),1(R14)         00YY0DDCYYMM                     09070004
0021B0 F121 E000 E004 00000 00004  4104+         MVO   0(3,R14),4(2,R14)       0YYMMDDCYYMM                     09080004
0021B6 960F E003      00003        4105+         OI    3(R14),X'0F'            SIGN 4 BIT                       09090004
0021BA 580E 0000      00000        4106+         L     R0,0(R14)               0YYMMDDC    PACK FMT             09100004
0021BE 8800 0004      00004        4107+         SRL   R0,4                    00YYMMDD    PACK FMT             09110004
0021C2 F353 E000 E000 00000 00000  4108+         UNPK  0(6,R14),0(4,R14)       ZONE YYMMDD                      09120004
0021C8 5810 0010      00010        4109+         L    R1,16                   GET ADDR OF CVT                   09130004
0021CC 5811 0038      00038        4110+         L    R1,X'38'(R1)  000YYDDDF CURRENT DATE IN PACKED DECIMAL    09140004
0021D0 12FF                        4111+         LTR   R15,R15                 +++++ TEST                       09150004
0021D2 4720 A1DE      021DE        4112+         BP    UDT0775P                +++++                            09160004
0021D6 41E0 0004      00004        4113+         LA    R14,4                   +++++ FLAG=4                     09170004
0021DA 47F0 A1E2      021E2        4114+         B     UDT0775R                +++++                            09180004
                            021DE  4115+UDT0775P EQU   *                       +++++                            09190004
0021DE 41E0 0000      00000        4116+         LA    R14,0                   +++++ FLAG=0                     09200004
                            021E2  4117+UDT0775R EQU   *                       +++++                            09210004
0021E2 1BFF                        4118+         SR   R15,R15                  R.C 0                            09220004
0021E4 47F0 A1EC      021EC        4119+         B    UDT0775Z                                                  09240004
                            021E8  4120+UDT0775E EQU   *                       R.C SET                          09260004
0021E8 41F0 0004      00004        4121+         LA   R15,4                    R.C 0                            09270004XE4S001Z *** XE4S001Z *** DISPLAY/UPDATE SPF INFO ***                                                          PAGE   77


  LOC  OBJECT CODE    ADDR1 ADDR2  STMT   SOURCE STATEMENT                                       ASM 0201 10.53 06/08/08

                            021EC  4122+UDT0775Z EQU   *                       R.C SET                          09280004
                                   4123          IF (LTR,R15,R15,Z)                                             24110042
0021EC 12FF                        4124+         LTR   R15,R15
0021EE 4770 A210      02210        4125+         BC    15-8,##301                  BRANCH IF NOT TRUE
0021F2 D201 90E6 AFC4 030E6 02FC4  4126            MVC WKSPFCHD(2),WKDATE                                       24120042
0021F8 9261 90E8      030E8        4127            MVI WKSPFCHD+2,C'/'                                          24130042
0021FC D201 90E9 AFC6 030E9 02FC6  4128            MVC WKSPFCHD+3(2),WKDATE+2                                   24140042
002202 9261 90EB      030EB        4129            MVI WKSPFCHD+5,C'/'                                          24150042
002206 D201 90EC AFC8 030EC 02FC8  4130            MVC WKSPFCHD+6(2),WKDATE+4                                   24160042
                                   4131          ELSE                                                           24170042
00220C 47F0 A216      02216        4132+         B     ##302                       BRANCH TO ENDIF
002210                             4133+##301    DS    0H                          TARGET FOR BRANCH ON ELSE
002210 D207 90E6 AA58 030E6 02A58  4134            MVC WKSPFCHD(8),=C'??/??/??'                                 24180042
                                   4135          ENDIF                                                          24190042
002216                             4136+##302    DS    0H                          TARGET FOR ENDIF BRANCH
                                   4137        ELSE                                                             24200042
002216 47F0 A220      02220        4138+         B     ##303                       BRANCH TO ENDIF
00221A                             4139+##300    DS    0H                          TARGET FOR BRANCH ON ELSE
00221A D207 90E6 AA60 030E6 02A60  4140          MVC WKSPFCHD(8),=C'00/00/00'                                   24210042
                                   4141        ENDIF                                                            24220039
002220                             4142+##303    DS    0H                          TARGET FOR ENDIF BRANCH
                                   4143 *CHG TIME                                                               24230000
002220 4820 3018      00018        4144          LH R2,SPFCHT                                                   24240001
                                   4145          UI2X (R2)                                                      24250000
002224                             4146+         DS 0H                                                          04760003
002224 90E0 D00C      0000C        4147+         STM R14,R0,12(R13)                                             04770003
002228 502D 001C      0001C        4148+         ST R2,28(R13)               SAVE OPERAND TO SAVEAREA  A#0000   04800003
00222C 41FD 001C      0001C        4149+         LA R15,28(R13)                INP VALUE ADDR                   04880003
002230 41ED 002C      0002C        4150+         LA R14,44(R13)                 UNPK AREA                       04890003
002234 F384 E000 F000 00000 00000  4151+         UNPK 0(9,R14),0(5,R15)                                         04900003
00223A 58F0 A248      02248        4152+         L R15,#0782TRT                 TR TABLE TO CONV TO HEX DIGIT   04950003
00223E DC07 E000 F000 00000 00000  4153+         TR 0(8,R14),0(R15)                                             04960003
002244 47F0 A25C      0225C        4154+         B #0782#X     EQU *                                  A#@@@@2   04990003
002248 0000215C                    4155+#0782TRT     DC A(*+4-X'F0') TRANSLATE BIN TO HEX DIGIT A#0000          05000003
00224C F0F1F2F3F4F5F6F7            4156+         DC C'0123456789ABCDEF' F0-->F9,FA-->FF TO C'0'-->C'F' A#0000   05010003
                            0225C  4157+#0782#X     EQU *                                               A#@@@@2 05020003
00225C 181E                        4158+         LR R1,R14                     OUTPUT HEX DIGIT FIELD ADDR      05090003
00225E 98E0 D00C      0000C        4159+         LM  R14,R0,12(R13)                                             05110003
002262 D201 90EF 1004 030EF 00004  4160          MVC WKSPFCHT(2),4(R1)                                          24260000
002268 927A 90F1      030F1        4161          MVI WKSPFCHT+2,C':'                                            24270000
00226C D201 90F2 1006 030F2 00006  4162          MVC WKSPFCHT+3(2),6(R1)                                        24280000
                                   4163 *CUR SIZE                                                               24290000
002272 4820 301A      0001A        4164          LH R2,SPFCLNO                                                  24300001
                                   4165          UI2ZE (R2),WKSPFCSZ,LEN=11                                     24310013
002276                             4166+         DS 0H                                                          03750003
002276 90E1 D00C      0000C        4167+         STM R14,R1,12(R13)                                             03760003
00227A 1802                        4168+         LR R0,R2                     GET INT VALUE                     03830003
00227C 41E0 90F6      030F6        4169+         LA R14,WKSPFCSZ                GET OUT ADDR VALUE              03880003
002280 41FD 002C      0002C        4170+         LA R15,44(R13)               PACK WORK,WRK1 AND WRK2           03990003
002284 4E0F 0000      00000        4171+         CVD R0,0(R15)                                                  04000003
002288 41FD 0034      00034        4172+         LA R15,52(R13)               PACK WORK,WRK1 AND WRK2           04040003
00228C D20E F000 AACA 00000 02ACA  4173+         MVC 0(15,R15),=X'4020206B2020206B2020206B202020'               04050003
002292 DF0E F000 D02E 00000 0002E  4174+         EDMK 0(15,R15),2+44(R13)        11 DIGIT=PL6=15BYTE OUT        04060003
002298 4720 A2AE      022AE        4175+         BP  #0783#1                LAST FIELD >0               A#@@@@2 04080003
00229C 4740 A2A8      022A8        4176+         BM  #0783#M                LAST FIELD <0               A#@@@@2 04100003XE4S001Z *** XE4S001Z *** DISPLAY/UPDATE SPF INFO ***                                                          PAGE   78


  LOC  OBJECT CODE    ADDR1 ADDR2  STMT   SOURCE STATEMENT                                       ASM 0201 10.53 06/08/08

0022A0 92F0 F00E      0000E        4177+         MVI 15-1(R15),C'0'         FORCE ZERO                          04110003
0022A4 47F0 A2AE      022AE        4178+         B   #0783#1           LAST FIELD <0                    A#@@@@2 04130003
                            022A8  4179+#0783#M     EQU *                                               A#@@@@2 04150003
0022A8 0610                        4180+         BCTR R1,0                                                      04160003
0022AA 9260 1000      00000        4181+         MVI 0(R1),C'-'                MINUS SIGN                       04170003
                            022AE  4182+#0783#1     EQU *                                               A#@@@@2 04190003
0022AE D20A E000 D038 00000 00038  4183+         MVC 0(11,R14),15-11+52(R13)                                    04220003
0022B4 98E1 D00C      0000C        4184+         LM  R14,R1,12(R13)                                             04300003
                                   4185 *INI SIZE                                                               24320000
0022B8 4820 301C      0001C        4186          LH R2,SPFILNO                                                  24330001
                                   4187          UI2ZE (R2),WKSPFISZ,LEN=11                                     24340013
0022BC                             4188+         DS 0H                                                          03750003
0022BC 90E1 D00C      0000C        4189+         STM R14,R1,12(R13)                                             03760003
0022C0 1802                        4190+         LR R0,R2                     GET INT VALUE                     03830003
0022C2 41E0 9102      03102        4191+         LA R14,WKSPFISZ                GET OUT ADDR VALUE              03880003
0022C6 41FD 002C      0002C        4192+         LA R15,44(R13)               PACK WORK,WRK1 AND WRK2           03990003
0022CA 4E0F 0000      00000        4193+         CVD R0,0(R15)                                                  04000003
0022CE 41FD 0034      00034        4194+         LA R15,52(R13)               PACK WORK,WRK1 AND WRK2           04040003
0022D2 D20E F000 AACA 00000 02ACA  4195+         MVC 0(15,R15),=X'4020206B2020206B2020206B202020'               04050003
0022D8 DF0E F000 D02E 00000 0002E  4196+         EDMK 0(15,R15),2+44(R13)        11 DIGIT=PL6=15BYTE OUT        04060003
0022DE 4720 A2F4      022F4        4197+         BP  #0784#1                LAST FIELD >0               A#@@@@2 04080003
0022E2 4740 A2EE      022EE        4198+         BM  #0784#M                LAST FIELD <0               A#@@@@2 04100003
0022E6 92F0 F00E      0000E        4199+         MVI 15-1(R15),C'0'         FORCE ZERO                          04110003
0022EA 47F0 A2F4      022F4        4200+         B   #0784#1           LAST FIELD <0                    A#@@@@2 04130003
                            022EE  4201+#0784#M     EQU *                                               A#@@@@2 04150003
0022EE 0610                        4202+         BCTR R1,0                                                      04160003
0022F0 9260 1000      00000        4203+         MVI 0(R1),C'-'                MINUS SIGN                       04170003
                            022F4  4204+#0784#1     EQU *                                               A#@@@@2 04190003
0022F4 D20A E000 D038 00000 00038  4205+         MVC 0(11,R14),15-11+52(R13)                                    04220003
0022FA 98E1 D00C      0000C        4206+         LM  R14,R1,12(R13)                                             04300003
                                   4207 *UPD SIZE                                                               24350000
                                   4208 *        LH R2,DIRUSZ                                                   24360001
                                   4209 *        UI2ZE (R2),WKSPFUSZ,LEN=7                                      24370001
                                   4210 *USERID                                                                 24380000
0022FE D207 910F 3020 0310F 00020  4211          MVC WKSPFUID,SPFUSR                                            24390039
                                   4212          IF (CLC,SPFUSR,E,BLANK)                                        24400039
002304 D507 3020 AB24 00020 02B24  4213+         CLC   SPFUSR,BLANK
00230A 4770 A312      02312        4214+         BC    15-8,##304                  BRANCH IF NOT TRUE
00230E 9260 910F      0310F        4215            MVI WKSPFUID,C'-'       SEE IT                               24410039
                                   4216          ENDIF                                                          24420039
002312                             4217+##304    DS    0H                          TARGET FOR ELSE BRANCH
                                   4218        ENDIF                                                            24430004
002312                             4219+##295    DS    0H                          TARGET FOR ELSE BRANCH
                                   4220 *                                                                       24440001
002312 4100 90CA      030CA        4221          LA R0,WKSPFINF                                                 24450004
002316 45E0 A41C      0241C        4222          BAL R14,PUTOUT                                                 24460008
                                   4223          IF (CLI,DISPUPDT,E,0)                                          24470046
00231A 9500 A338      02338        4224+         CLI   DISPUPDT,0
00231E 4770 A32E      0232E        4225+         BC    15-8,##305                  BRANCH IF NOT TRUE
002322 58E0 A33C      0233C        4226            L R14,LINENO                                                 24480017
002326 41EE 0001      00001        4227            LA R14,1(R14)                                                24490017
00232A 50E0 A33C      0233C        4228            ST R14,LINENO                                                24500017
                                   4229          ENDIF                                                          24510046
00232E                             4230+##305    DS    0H                          TARGET FOR ELSE BRANCH
                                   4231 *                                                                       24520001XE4S001Z *** XE4S001Z *** DISPLAY/UPDATE SPF INFO ***                                                          PAGE   79


  LOC  OBJECT CODE    ADDR1 ADDR2  STMT   SOURCE STATEMENT                                       ASM 0201 10.53 06/08/08

00232E                             4232 EXITDM   DS 0H                                                          24530017
00232E 58E0 A334      02334        4233          L R14,SVR14                                                    24540001
002332 07FE                        4234          BR R14                                                         24550001
                                   4235 *********                                                               24560000
002334                             4236 SVR14    DS F                                                           24570001
002338 00                          4237 DISPUPDT DC X'00'         UPDATED LINE DISPLAY REQ ID                   24580046
002339 000000
00233C 00000000                    4238 LINENO   DC F'0'                                                        24590017
002340 00000000                    4239 ALIASNO  DC F'0'                                                        24600022
002344 D4C5D4C2C5D940D3            4240 HDR1     DC CL80'MEMBER LIST FOR '                                      24610015
002394 4040404040404040            4241 HDR2     DC CL80' '                                                     24620015
0023E4                      02394  4242          ORG HDR2                                                       24630015
002394 60D5C1D4C5606060            4243          DC CL8'-NAME---'                                               24640019
00239C                             4244          DS CL2                                                         24650021
00239E E5E54BD4D4                  4245          DC CL5'VV.MM'                                                  24660015
0023A3                             4246          DS CL2                                                         24670015
0023A5 C3D9C5C1E3C5C440            4247          DC CL8'CREATED'  CREATION DATE     YY/MM/DD                    24680016
0023AD                             4248          DS CL2                                                         24690015
0023AF D3C1E2E360E4D7C4            4249          DC CL14'LAST-UPDATED'                                          24700026
0023BD                             4250          DS CL2                                                         24710015
0023BF 40D3C9D5C560C3D6            4251          DC CL11' LINE-COUNT'                                           24720026
0023CA                             4252          DS CL1                                                         24730015
0023CB 40404040C9D5C9E3            4253          DC CL11'    INITIAL'                                           24740022
0023D6                             4254          DS CL2                                                         24750015
0023D8 E4E2C5D9C9C44040            4255          DC CL8'USERID'                                                 24760015
0023E0                             4256          DS CL4                                                         24770026
0023E4                      023E4  4257          ORG                                                            24780015
                                   4258 *********************************************************************** 24790000
                                   4259 * GET EXE PGM NAME                                                      24800000
                                   4260 *********************************************************************** 24810000
0023E4                             4261 GETTJID  DS 0H                                                          24820000
0023E4 50E0 A40C      0240C        4262          ST R14,SVR14TS                                                 24830000
0023E8 58E0 0010      00010        4263          L R14,16                                                       24840000
0023EC 58EE 0000      00000        4264          L R14,0(R14)                                                   24850000
0023F0 58EE 0004      00004        4265          L R14,4(R14)      CURR TCB                                     24860000
0023F4 58EE 00B4      000B4        4266          L R14,TCBJSCB-TCB(R14)  JSCB                                   24870000
0023F8 580E 0108      00108        4267          L R0,JSCBPSCB-IEZJSCB(R14)   TSO PROTECTED STEP CONTROL        24880012
                                   4268          IF (LTR,R0,R0,NZ)                                              24890012
0023FC 1200                        4269+         LTR   R0,R0
0023FE 4780 A406      02406        4270+         BC    15-7,##306                  BRANCH IF NOT TRUE
002402 9201 AE59      02E59        4271            MVI TSOJOBID,1                                               24900011
                                   4272          ENDIF                                                          24910011
002406                             4273+##306    DS    0H                          TARGET FOR ELSE BRANCH
002406 58E0 A40C      0240C        4274          L R14,SVR14TS                                                  24920000
00240A 07FE                        4275          BR R14                                                         24930000
00240C                             4276 SVR14TS  DS F                                                           24940000
                                   4277 **********************************************************************  24950004
                                   4278 * ERRMSG PRINT                                                          24960004
                                   4279 *   PARM R0:MSG TEXT                                                    24970006
                                   4280 *********************************************************************** 24980004
002410                             4281 ERRMSG   DS 0H                                                          24990004
002410 45E0 A41C      0241C        4282          BAL R14,PUTOUT                                                 25000000
002414 41F0 0008      00008        4283          LA R15,8                                                       25010000
002418 47F0 C15C      0015C        4284          B EXIT                                                         25020000
                                   4285 **********************************************************************  25030000XE4S001Z *** XE4S001Z *** DISPLAY/UPDATE SPF INFO ***                                                          PAGE   80


  LOC  OBJECT CODE    ADDR1 ADDR2  STMT   SOURCE STATEMENT                                       ASM 0201 10.53 06/08/08

                                   4286 * ERRMSG PRINT                                                          25040000
                                   4287 *   PARM R0:MSG TEXT                                                    25050000
                                   4288 *********************************************************************** 25060000
00241C                             4289 PUTOUT   DS 0H                                                          25070000
00241C 50E0 A460      02460        4290          ST R14,SVR14PO                                                 25080000
002420 5000 A464      02464        4291          ST R0,SVR0PO                                                   25090035
                                   4292          IF (TM,DCBOFLGS-IHADCB+OUTDCB,DCBOFOPN,O) OPEND                25100036
002424 9110 AF94      02F94        4293+         TM    DCBOFLGS-IHADCB+OUTDCB,DCBOFOPN
002428 47E0 A438      02438        4294+         BC    15-1,##307                  BRANCH IF NOT TRUE
                                   4295            PUT OUTDCB,(R0)                                              25110035
00242C 4110 AF64      02F64        4296+         LA    1,OUTDCB                          LOAD PARAMETER REG 1   01900002
002430 1800                        4297+         LR    0,R0                              LOAD PARAMETER REG 0   03850002
002432 58F0 1030      00030        4298+         L     15,48(0,1)               LOAD PUT ROUTINE ADDR           00550000
002436 05EF                        4299+         BALR  14,15                    LINK TO PUT ROUTINE             00600000
                                   4300          ENDIF                                                          25120035
002438                             4301+##307    DS    0H                          TARGET FOR ELSE BRANCH
                                   4302          IF (TM,DCBOFLGS-IHADCB+OUTDCB,DCBOFOPN,NO),                   X25130035
                                                       OR,(CLI,WTOREQ,NE,0)                                     25140035
002438 9110 AF94      02F94        4303+         TM    DCBOFLGS-IHADCB+OUTDCB,DCBOFOPN
00243C 47E0 A448      02448        4304+         BC    14,##309                    BRANCH IF TRUE
002440 9500 A468      02468        4305+         CLI   WTOREQ,0
002444 4780 A458      02458        4306+         BC    15-7,##308                  BRANCH IF NOT TRUE
002448                             4307+##309    DS    0H                        TARGET FOR BANCH ON NOT TRUE
002448 58E0 A464      02464        4308            L R14,SVR0PO                                                 25150035
00244C D24F AC28 E000 02C28 00000  4309            MVC WTOMSG01+4(80),0(R14)                                    25160000
                                   4310            WTO MF=(E,WTOMSG01)                                          25170000
002452 4110 AC24      02C24        4311+         LA    1,WTOMSG01                        LOAD PARAMETER REG 1   01900002
002456 0A23                        4312+         SVC   35                                ISSUE SVC              01500002
                                   4313          ENDIF                                                          25180012
002458                             4314+##308    DS    0H                          TARGET FOR ELSE BRANCH
002458 58E0 A460      02460        4315          L R14,SVR14PO                                                  25190000
00245C 07FE                        4316          BR R14                                                         25200000
002460                             4317 SVR14PO  DS F                                                           25210000
002464                             4318 SVR0PO   DS F                                                           25220035
002468 00                          4319 WTOREQ   DC X'00'                                                       25230035
                                   4320 **********************************************************************  25240001
                                   4321 * ESTAE SETUP                                                           25250001
                                   4322 *   RET R0:PARM,R1:PARM,R2:MACNAME                                      25260001
                                   4323 *********************************************************************** 25270001
00246A                             4324 PXMSESTS DS 0H                                                          25280001
00246A 50E0 A4AC      024AC        4325          ST R14,SVR14E                                                  25290001
00246E 5820 AA70      02A70        4326          L R2,=A(PXMSESTX)                                              25300001
002472 4130 A4A8      024A8        4327          LA R3,ESTPRM                                                   25310001
                                   4328 *                                                                       25320001
                                   4329          ESTAE (R2),CT,PARAM=(R3),         * ESTAE RTN. E.P            +25330001
                                                       XCTL=NO,PURGE=NONE,ASYNCH=YES,TERM=YES                   25340001
                                   4330+*    MACDATE Y-1 75302                                                  00160004
002476 0700                        4331+         CNOP  0,4                     ESTAB. FULL WD. BOUND. ALIGN.    06950004
002478 4510 A48C      0248C        4332+         BAL   1,*+20                  LIST ADDR IN REG1 SKIP LIST      07050004
                            0247C  4333+IHB0805  EQU   *                                                        07100000
00247C 00000000                    4334+         DC    A(0)                    SPACE FOR STAE EXIT RTN ADDRESS  07400004
002480 00000000                    4335+         DC    A(0)                    SPACE FOR PARM LIST ADDR         07650004
002484 00000000                    4336+         DC    A(0)                    SPACE FOR TCB ADDR               07900004
002488 40                          4337+         DC    AL1(64)                 FLAGS FOR TERM AND RECORD        07907004
002489 000000                      4338+         DC    AL3(0)                  RESERVED                         07914004XE4S001Z *** XE4S001Z *** DISPLAY/UPDATE SPF INFO ***                                                          PAGE   81


  LOC  OBJECT CODE    ADDR1 ADDR2  STMT   SOURCE STATEMENT                                       ASM 0201 10.53 06/08/08

00248C 5020 A47C      0247C        4339+         ST    R2,IHB0805              PUT EXIT ADDR. IN LIST           08100004
002490 9216 A47C      0247C        4340+         MVI   IHB0805,22              FLAGS FOR TCB,PURGE,ASYNCH       08130004
002494 5030 A480      02480        4341+         ST    R3,IHB0805+4            PUT PARAM ADDR. IN LIST          08350004
002498 1F00                        4342+         SLR   0,0                     INDICATE CREATE OPTION           08950004
00249A 4110 1000      00000        4343+         LA    1,0(0,1)                MAKE REG1 POS.  XCTL=NO          09700004
00249E 0A3C                        4344+         SVC   60                      ISSUE STAE SVC                   09500004
0024A0 58E0 A4AC      024AC        4345          L R14,SVR14E                                                   25350001
0024A4 07FE                        4346          BR R14                                                         25360001
0024A6 0000
0024A8 00000000                    4347 ESTPRM   DC F'0'                                                        25370001
0024AC                             4348 SVR14E   DS F                                                           25380001
                                   4349 **********************************************************************  25390001
                                   4350 *ESTAE EXIT                                                             25400001
                                   4351 *********************************************************************** 25410001
0024B0                             4352 PXMSESTX DS 0D                                                          25420001
                                   4353          DROP R9,R10,R11,R12                                            25430034
                            024B0  4354          USING PXMSESTX,R15                                             25440001
0024B0 900F F3A8      02858        4355          STM R0,R15,##ESTREG                                            25450001
                                   4356 *                                                                       25460001
0024B4 989C F398      02848        4357          LM R9,R12,##ESTBS2                                             25470008
                                   4358          DROP R15                                                       25480034
                            00000  4359          USING XE4S001Z,R12,R11,R10,R9                                  25490034
                                   4360 *                                                                       25500001
                            00000  4361          USING SDWA,R5                                                  25510004
                                   4362 *                                                                       25520001
0024B8 1880                        4363          LR R8,R0                PROC ID                                25530001
0024BA 1851                        4364          LR R5,R1                SAWA /COMPCODE                         25540004
0024BC 41D0 A898      02898        4365          LA R13,##ESTXSA                                                25550001
                                   4366 *                                                                       25560001
0024C0 9201 A468      02468        4367          MVI WTOREQ,1             ALSO WTO                              25570035
                                   4368          IF (C,R8,NE,=F'12')       SDWA NOT OBTAINED                    25580004
0024C4 5980 AA74      02A74        4369+         C     R8,=F'12'
0024C8 4780 A4D8      024D8        4370+         BC    15-7,##310                  BRANCH IF NOT TRUE
0024CC 5870 5000      00000        4371            L R7,SDWAPARM         8BYTE COPY OF MODIFTABLE AREA          25590001
0024D0 5840 5004      00004        4372            L R4,SDWAABCC                                                25600001
                                   4373          ELSE                                                           25610001
0024D4 47F0 A4DC      024DC        4374+         B     ##311                       BRANCH TO ENDIF
0024D8                             4375+##310    DS    0H                          TARGET FOR BRANCH ON ELSE
0024D8 1872                        4376            LR R7,R2               PARM JOB ENTRY                        25620001
0024DA 1845                        4377            LR R4,R5               COMPCD                                25630004
                                   4378          ENDIF                                                          25640001
0024DC                             4379+##311    DS    0H                          TARGET FOR ENDIF BRANCH
                                   4380 *                                                                       25650001
                                   4381          IF (C,R8,NE,=F'12')       SDWA NOT OBTAINED                    25660004
0024DC 5980 AA74      02A74        4382+         C     R8,=F'12'
0024E0 4780 A4EC      024EC        4383+         BC    15-7,##312                  BRANCH IF NOT TRUE
0024E4 5820 AA78      02A78        4384            L R2,=A(WKMSG45)                                             25670001
                                   4385          ELSE                                                           25680001
0024E8 47F0 A4F0      024F0        4386+         B     ##313                       BRANCH TO ENDIF
0024EC                             4387+##312    DS    0H                          TARGET FOR BRANCH ON ELSE
0024EC 5820 AA7C      02A7C        4388            L R2,=A(WKMSG46)                                             25690001
                                   4389          ENDIF                                                          25700001
0024F0                             4390+##313    DS    0H                          TARGET FOR ENDIF BRANCH
                                   4391          UI2X (R4),39(R2)                                               25710050
0024F0                             4392+         DS 0H                                                          04760003XE4S001Z *** XE4S001Z *** DISPLAY/UPDATE SPF INFO ***                                                          PAGE   82


  LOC  OBJECT CODE    ADDR1 ADDR2  STMT   SOURCE STATEMENT                                       ASM 0201 10.53 06/08/08

0024F0 90E0 D00C      0000C        4393+         STM R14,R0,12(R13)                                             04770003
0024F4 504D 001C      0001C        4394+         ST R4,28(R13)               SAVE OPERAND TO SAVEAREA  A#0000   04800003
0024F8 4102 0027      00027        4395+         LA R0,39(R2)                      GET OPD ADDR         A#0000  04840003
0024FC 500D 0020      00020        4396+         ST R0,32(R13)                SAVE OPERAND TO SAVEAREA  A#0000  04850003
002500 41FD 001C      0001C        4397+         LA R15,28(R13)                INP VALUE ADDR                   04880003
002504 41ED 002C      0002C        4398+         LA R14,44(R13)                 UNPK AREA                       04890003
002508 F384 E000 F000 00000 00000  4399+         UNPK 0(9,R14),0(5,R15)                                         04900003
00250E 58F0 A51C      0251C        4400+         L R15,#0814TRT                 TR TABLE TO CONV TO HEX DIGIT   04950003
002512 DC07 E000 F000 00000 00000  4401+         TR 0(8,R14),0(R15)                                             04960003
002518 47F0 A530      02530        4402+         B #0814#X     EQU *                                  A#@@@@2   04990003
00251C 00002430                    4403+#0814TRT     DC A(*+4-X'F0') TRANSLATE BIN TO HEX DIGIT A#0000          05000003
002520 F0F1F2F3F4F5F6F7            4404+         DC C'0123456789ABCDEF' F0-->F9,FA-->FF TO C'0'-->C'F' A#0000   05010003
                            02530  4405+#0814#X     EQU *                                               A#@@@@2 05020003
002530 58FD 0020      00020        4406+         L R15,32(R13)                                                  05050003
002534 D207 F000 E000 00000 00000  4407+         MVC 0(8,R15),8-8(R14)                                          05060003
00253A 98E0 D00C      0000C        4408+         LM  R14,R0,12(R13)                                             05110003
00253E 1802                        4409          LR R0,R2                                                       25720004
002540 45E0 A41C      0241C        4410          BAL R14,PUTOUT                                                 25730004
                                   4411 *PSW,OFFS                                                               25740032
                                   4412          IF (C,R8,NE,=F'12')       SDWA NOT OBTAINED                    25750032
002544 5980 AA74      02A74        4413+         C     R8,=F'12'
002548 4780 A812      02812        4414+         BC    15-7,##314                  BRANCH IF NOT TRUE
00254C 5820 5068      00068        4415            L R2,SDWAEC1                                                 25760032
                                   4416            UI2X (R2),WKMSG47+8                                          25770032
002550                             4417+         DS 0H                                                          04760003
002550 90E0 D00C      0000C        4418+         STM R14,R0,12(R13)                                             04770003
002554 502D 001C      0001C        4419+         ST R2,28(R13)               SAVE OPERAND TO SAVEAREA  A#0000   04800003
002558 4100 A988      02988        4420+         LA R0,WKMSG47+8                   GET OPD ADDR         A#0000  04840003
00255C 500D 0020      00020        4421+         ST R0,32(R13)                SAVE OPERAND TO SAVEAREA  A#0000  04850003
002560 41FD 001C      0001C        4422+         LA R15,28(R13)                INP VALUE ADDR                   04880003
002564 41ED 002C      0002C        4423+         LA R14,44(R13)                 UNPK AREA                       04890003
002568 F384 E000 F000 00000 00000  4424+         UNPK 0(9,R14),0(5,R15)                                         04900003
00256E 58F0 A57C      0257C        4425+         L R15,#0817TRT                 TR TABLE TO CONV TO HEX DIGIT   04950003
002572 DC07 E000 F000 00000 00000  4426+         TR 0(8,R14),0(R15)                                             04960003
002578 47F0 A590      02590        4427+         B #0817#X     EQU *                                  A#@@@@2   04990003
00257C 00002490                    4428+#0817TRT     DC A(*+4-X'F0') TRANSLATE BIN TO HEX DIGIT A#0000          05000003
002580 F0F1F2F3F4F5F6F7            4429+         DC C'0123456789ABCDEF' F0-->F9,FA-->FF TO C'0'-->C'F' A#0000   05010003
                            02590  4430+#0817#X     EQU *                                               A#@@@@2 05020003
002590 58FD 0020      00020        4431+         L R15,32(R13)                                                  05050003
002594 D207 F000 E000 00000 00000  4432+         MVC 0(8,R15),8-8(R14)                                          05060003
00259A 98E0 D00C      0000C        4433+         LM  R14,R0,12(R13)                                             05110003
00259E 5820 506C      0006C        4434            L R2,SDWAEC1+4                                               25780032
                                   4435            UI2X (R2),WKMSG47+17                                         25790032
0025A2                             4436+         DS 0H                                                          04760003
0025A2 90E0 D00C      0000C        4437+         STM R14,R0,12(R13)                                             04770003
0025A6 502D 001C      0001C        4438+         ST R2,28(R13)               SAVE OPERAND TO SAVEAREA  A#0000   04800003
0025AA 4100 A991      02991        4439+         LA R0,WKMSG47+17                  GET OPD ADDR         A#0000  04840003
0025AE 500D 0020      00020        4440+         ST R0,32(R13)                SAVE OPERAND TO SAVEAREA  A#0000  04850003
0025B2 41FD 001C      0001C        4441+         LA R15,28(R13)                INP VALUE ADDR                   04880003
0025B6 41ED 002C      0002C        4442+         LA R14,44(R13)                 UNPK AREA                       04890003
0025BA F384 E000 F000 00000 00000  4443+         UNPK 0(9,R14),0(5,R15)                                         04900003
0025C0 58F0 A5D0      025D0        4444+         L R15,#0818TRT                 TR TABLE TO CONV TO HEX DIGIT   04950003
0025C4 DC07 E000 F000 00000 00000  4445+         TR 0(8,R14),0(R15)                                             04960003
0025CA 47F0 A5E4      025E4        4446+         B #0818#X     EQU *                                  A#@@@@2   04990003
0025CE 0000XE4S001Z *** XE4S001Z *** DISPLAY/UPDATE SPF INFO ***                                                          PAGE   83


  LOC  OBJECT CODE    ADDR1 ADDR2  STMT   SOURCE STATEMENT                                       ASM 0201 10.53 06/08/08

0025D0 000024E4                    4447+#0818TRT     DC A(*+4-X'F0') TRANSLATE BIN TO HEX DIGIT A#0000          05000003
0025D4 F0F1F2F3F4F5F6F7            4448+         DC C'0123456789ABCDEF' F0-->F9,FA-->FF TO C'0'-->C'F' A#0000   05010003
                            025E4  4449+#0818#X     EQU *                                               A#@@@@2 05020003
0025E4 58FD 0020      00020        4450+         L R15,32(R13)                                                  05050003
0025E8 D207 F000 E000 00000 00000  4451+         MVC 0(8,R15),8-8(R14)                                          05060003
0025EE 98E0 D00C      0000C        4452+         LM  R14,R0,12(R13)                                             05110003
0025F2 4112 0000      00000        4453            LA R1,0(R2)                                                  25800032
0025F6 410C 0000      00000        4454            LA R0,0(R12)                                                 25810032
0025FA 1B10                        4455            SR R1,R0                                                     25820032
                                   4456            UI2X (R1),WKMSG47+31                                         25830032
0025FC                             4457+         DS 0H                                                          04760003
0025FC 90E0 D00C      0000C        4458+         STM R14,R0,12(R13)                                             04770003
002600 501D 001C      0001C        4459+         ST R1,28(R13)               SAVE OPERAND TO SAVEAREA  A#0000   04800003
002604 4100 A99F      0299F        4460+         LA R0,WKMSG47+31                  GET OPD ADDR         A#0000  04840003
002608 500D 0020      00020        4461+         ST R0,32(R13)                SAVE OPERAND TO SAVEAREA  A#0000  04850003
00260C 41FD 001C      0001C        4462+         LA R15,28(R13)                INP VALUE ADDR                   04880003
002610 41ED 002C      0002C        4463+         LA R14,44(R13)                 UNPK AREA                       04890003
002614 F384 E000 F000 00000 00000  4464+         UNPK 0(9,R14),0(5,R15)                                         04900003
00261A 58F0 A628      02628        4465+         L R15,#0819TRT                 TR TABLE TO CONV TO HEX DIGIT   04950003
00261E DC07 E000 F000 00000 00000  4466+         TR 0(8,R14),0(R15)                                             04960003
002624 47F0 A63C      0263C        4467+         B #0819#X     EQU *                                  A#@@@@2   04990003
002628 0000253C                    4468+#0819TRT     DC A(*+4-X'F0') TRANSLATE BIN TO HEX DIGIT A#0000          05000003
00262C F0F1F2F3F4F5F6F7            4469+         DC C'0123456789ABCDEF' F0-->F9,FA-->FF TO C'0'-->C'F' A#0000   05010003
                            0263C  4470+#0819#X     EQU *                                               A#@@@@2 05020003
00263C 58FD 0020      00020        4471+         L R15,32(R13)                                                  05050003
002640 D207 F000 E000 00000 00000  4472+         MVC 0(8,R15),8-8(R14)                                          05060003
002646 98E0 D00C      0000C        4473+         LM  R14,R0,12(R13)                                             05110003
00264A 4100 A980      02980        4474            LA R0,WKMSG47                                                25840032
00264E 45E0 A41C      0241C        4475            BAL R14,PUTOUT                                               25850004
                                   4476 *REG                                                                    25860050
                                   4477            DO FROM=(R2,4)                                               25870050
002652 4120 0004      00004        4478+         LA    R2,4                       GET INITAL LOOP COUNT (DO)
002656                             4479+##315    DS    0H                         TARGET FOR DO-LOOP
002656 41E0 0004      00004        4480              LA R14,4                                                   25880050
00265A 1BE2                        4481              SR R14,R2                                                  25890050
00265C 89E0 0002      00002        4482              SLL R14,2                                                  25900050
                                   4483              UI2Z (R14),WKMSG48+4,LEN=2                                 25910050
002660                             4484+         DS 0H                                                          02870003
002660 90E0 D00C      0000C        4485+         STM R14,R0,12(R13)                                             02880003
002664 180E                        4486+         LR R0,R14                    GET INT VALUE                     02950003
002666 41E0 A9D4      029D4        4487+         LA R14,WKMSG48+4               GET OUT ADDR VALUE              03000003
00266A 41FD 002C      0002C        4488+         LA R15,44(R13)               PACK WORK                         03140003
00266E 4E0F 0000      00000        4489+         CVD R0,0(R15)                                                  03150003
002672 F317 E000 F000 00000 00000  4490+         UNPK 0(2,R14),0(8,R15)          VALUE                          03170003
002678 1200                        4491+         LTR R0,R0                                                      03180003
00267A 4740 A682      02682        4492+         BM #0821#2                                          A#@@@@2    03200003
00267E 96F0 E001      00001        4493+         OI 2-1(R14),X'F0'                                              03220003
                            02682  4494+#0821#2     EQU *                                             A#@@@@2   03250003
002682 98E0 D00C      0000C        4495+         LM  R14,R0,12(R13)                                             03270003
002686 41FE 0003      00003        4496              LA R15,3(R14)                                              25920050
                                   4497              UI2Z (R15),WKMSG48+8,LEN=2                                 25930050
00268A                             4498+         DS 0H                                                          02870003
00268A 90E0 D00C      0000C        4499+         STM R14,R0,12(R13)                                             02880003
00268E 180F                        4500+         LR R0,R15                    GET INT VALUE                     02950003
002690 41E0 A9D8      029D8        4501+         LA R14,WKMSG48+8               GET OUT ADDR VALUE              03000003XE4S001Z *** XE4S001Z *** DISPLAY/UPDATE SPF INFO ***                                                          PAGE   84


  LOC  OBJECT CODE    ADDR1 ADDR2  STMT   SOURCE STATEMENT                                       ASM 0201 10.53 06/08/08

002694 41FD 002C      0002C        4502+         LA R15,44(R13)               PACK WORK                         03140003
002698 4E0F 0000      00000        4503+         CVD R0,0(R15)                                                  03150003
00269C F317 E000 F000 00000 00000  4504+         UNPK 0(2,R14),0(8,R15)          VALUE                          03170003
0026A2 1200                        4505+         LTR R0,R0                                                      03180003
0026A4 4740 A6AC      026AC        4506+         BM #0822#2                                          A#@@@@2    03200003
0026A8 96F0 E001      00001        4507+         OI 2-1(R14),X'F0'                                              03220003
                            026AC  4508+#0822#2     EQU *                                             A#@@@@2   03250003
0026AC 98E0 D00C      0000C        4509+         LM  R14,R0,12(R13)                                             03270003
0026B0 89E0 0002      00002        4510              SLL R14,2                                                  25940050
0026B4 41EE 5018      00018        4511              LA R14,SDWAGR00(R14)    STRAT REG                          25950050
0026B8 58FE 0000      00000        4512              L R15,0(R14)                                               25960050
                                   4513              UI2X  (R15),WKMSG48++12                                    25970050
0026BC                             4514+         DS 0H                                                          04760003
0026BC 90E0 D00C      0000C        4515+         STM R14,R0,12(R13)                                             04770003
0026C0 50FD 001C      0001C        4516+         ST R15,28(R13)              SAVE OPERAND TO SAVEAREA  A#0000   04800003
0026C4 4100 A9DC      029DC        4517+         LA R0,WKMSG48++12                 GET OPD ADDR         A#0000  04840003
0026C8 500D 0020      00020        4518+         ST R0,32(R13)                SAVE OPERAND TO SAVEAREA  A#0000  04850003
0026CC 41FD 001C      0001C        4519+         LA R15,28(R13)                INP VALUE ADDR                   04880003
0026D0 41ED 002C      0002C        4520+         LA R14,44(R13)                 UNPK AREA                       04890003
0026D4 F384 E000 F000 00000 00000  4521+         UNPK 0(9,R14),0(5,R15)                                         04900003
0026DA 58F0 A6E8      026E8        4522+         L R15,#0823TRT                 TR TABLE TO CONV TO HEX DIGIT   04950003
0026DE DC07 E000 F000 00000 00000  4523+         TR 0(8,R14),0(R15)                                             04960003
0026E4 47F0 A6FC      026FC        4524+         B #0823#X     EQU *                                  A#@@@@2   04990003
0026E8 000025FC                    4525+#0823TRT     DC A(*+4-X'F0') TRANSLATE BIN TO HEX DIGIT A#0000          05000003
0026EC F0F1F2F3F4F5F6F7            4526+         DC C'0123456789ABCDEF' F0-->F9,FA-->FF TO C'0'-->C'F' A#0000   05010003
                            026FC  4527+#0823#X     EQU *                                               A#@@@@2 05020003
0026FC 58FD 0020      00020        4528+         L R15,32(R13)                                                  05050003
002700 D207 F000 E000 00000 00000  4529+         MVC 0(8,R15),8-8(R14)                                          05060003
002706 98E0 D00C      0000C        4530+         LM  R14,R0,12(R13)                                             05110003
00270A 58FE 0004      00004        4531              L R15,4(R14)                                               25980050
                                   4532              UI2X  (R15),WKMSG48++21                                    25990050
00270E                             4533+         DS 0H                                                          04760003
00270E 90E0 D00C      0000C        4534+         STM R14,R0,12(R13)                                             04770003
002712 50FD 001C      0001C        4535+         ST R15,28(R13)              SAVE OPERAND TO SAVEAREA  A#0000   04800003
002716 4100 A9E5      029E5        4536+         LA R0,WKMSG48++21                 GET OPD ADDR         A#0000  04840003
00271A 500D 0020      00020        4537+         ST R0,32(R13)                SAVE OPERAND TO SAVEAREA  A#0000  04850003
00271E 41FD 001C      0001C        4538+         LA R15,28(R13)                INP VALUE ADDR                   04880003
002722 41ED 002C      0002C        4539+         LA R14,44(R13)                 UNPK AREA                       04890003
002726 F384 E000 F000 00000 00000  4540+         UNPK 0(9,R14),0(5,R15)                                         04900003
00272C 58F0 A73C      0273C        4541+         L R15,#0824TRT                 TR TABLE TO CONV TO HEX DIGIT   04950003
002730 DC07 E000 F000 00000 00000  4542+         TR 0(8,R14),0(R15)                                             04960003
002736 47F0 A750      02750        4543+         B #0824#X     EQU *                                  A#@@@@2   04990003
00273A 0000
00273C 00002650                    4544+#0824TRT     DC A(*+4-X'F0') TRANSLATE BIN TO HEX DIGIT A#0000          05000003
002740 F0F1F2F3F4F5F6F7            4545+         DC C'0123456789ABCDEF' F0-->F9,FA-->FF TO C'0'-->C'F' A#0000   05010003
                            02750  4546+#0824#X     EQU *                                               A#@@@@2 05020003
002750 58FD 0020      00020        4547+         L R15,32(R13)                                                  05050003
002754 D207 F000 E000 00000 00000  4548+         MVC 0(8,R15),8-8(R14)                                          05060003
00275A 98E0 D00C      0000C        4549+         LM  R14,R0,12(R13)                                             05110003
00275E 58FE 0008      00008        4550              L R15,8(R14)                                               26000050
                                   4551              UI2X  (R15),WKMSG48++30                                    26010050
002762                             4552+         DS 0H                                                          04760003
002762 90E0 D00C      0000C        4553+         STM R14,R0,12(R13)                                             04770003
002766 50FD 001C      0001C        4554+         ST R15,28(R13)              SAVE OPERAND TO SAVEAREA  A#0000   04800003
00276A 4100 A9EE      029EE        4555+         LA R0,WKMSG48++30                 GET OPD ADDR         A#0000  04840003XE4S001Z *** XE4S001Z *** DISPLAY/UPDATE SPF INFO ***                                                          PAGE   85


  LOC  OBJECT CODE    ADDR1 ADDR2  STMT   SOURCE STATEMENT                                       ASM 0201 10.53 06/08/08

00276E 500D 0020      00020        4556+         ST R0,32(R13)                SAVE OPERAND TO SAVEAREA  A#0000  04850003
002772 41FD 001C      0001C        4557+         LA R15,28(R13)                INP VALUE ADDR                   04880003
002776 41ED 002C      0002C        4558+         LA R14,44(R13)                 UNPK AREA                       04890003
00277A F384 E000 F000 00000 00000  4559+         UNPK 0(9,R14),0(5,R15)                                         04900003
002780 58F0 A790      02790        4560+         L R15,#0825TRT                 TR TABLE TO CONV TO HEX DIGIT   04950003
002784 DC07 E000 F000 00000 00000  4561+         TR 0(8,R14),0(R15)                                             04960003
00278A 47F0 A7A4      027A4        4562+         B #0825#X     EQU *                                  A#@@@@2   04990003
00278E 0000
002790 000026A4                    4563+#0825TRT     DC A(*+4-X'F0') TRANSLATE BIN TO HEX DIGIT A#0000          05000003
002794 F0F1F2F3F4F5F6F7            4564+         DC C'0123456789ABCDEF' F0-->F9,FA-->FF TO C'0'-->C'F' A#0000   05010003
                            027A4  4565+#0825#X     EQU *                                               A#@@@@2 05020003
0027A4 58FD 0020      00020        4566+         L R15,32(R13)                                                  05050003
0027A8 D207 F000 E000 00000 00000  4567+         MVC 0(8,R15),8-8(R14)                                          05060003
0027AE 98E0 D00C      0000C        4568+         LM  R14,R0,12(R13)                                             05110003
0027B2 58FE 000C      0000C        4569              L R15,12(R14)                                              26020050
                                   4570              UI2X (R15),WKMSG48++39                                     26030050
0027B6                             4571+         DS 0H                                                          04760003
0027B6 90E0 D00C      0000C        4572+         STM R14,R0,12(R13)                                             04770003
0027BA 50FD 001C      0001C        4573+         ST R15,28(R13)              SAVE OPERAND TO SAVEAREA  A#0000   04800003
0027BE 4100 A9F7      029F7        4574+         LA R0,WKMSG48++39                 GET OPD ADDR         A#0000  04840003
0027C2 500D 0020      00020        4575+         ST R0,32(R13)                SAVE OPERAND TO SAVEAREA  A#0000  04850003
0027C6 41FD 001C      0001C        4576+         LA R15,28(R13)                INP VALUE ADDR                   04880003
0027CA 41ED 002C      0002C        4577+         LA R14,44(R13)                 UNPK AREA                       04890003
0027CE F384 E000 F000 00000 00000  4578+         UNPK 0(9,R14),0(5,R15)                                         04900003
0027D4 58F0 A7E4      027E4        4579+         L R15,#0826TRT                 TR TABLE TO CONV TO HEX DIGIT   04950003
0027D8 DC07 E000 F000 00000 00000  4580+         TR 0(8,R14),0(R15)                                             04960003
0027DE 47F0 A7F8      027F8        4581+         B #0826#X     EQU *                                  A#@@@@2   04990003
0027E2 0000
0027E4 000026F8                    4582+#0826TRT     DC A(*+4-X'F0') TRANSLATE BIN TO HEX DIGIT A#0000          05000003
0027E8 F0F1F2F3F4F5F6F7            4583+         DC C'0123456789ABCDEF' F0-->F9,FA-->FF TO C'0'-->C'F' A#0000   05010003
                            027F8  4584+#0826#X     EQU *                                               A#@@@@2 05020003
0027F8 58FD 0020      00020        4585+         L R15,32(R13)                                                  05050003
0027FC D207 F000 E000 00000 00000  4586+         MVC 0(8,R15),8-8(R14)                                          05060003
002802 98E0 D00C      0000C        4587+         LM  R14,R0,12(R13)                                             05110003
002806 4100 A9D0      029D0        4588              LA R0,WKMSG48                                              26040050
00280A 45E0 A41C      0241C        4589              BAL R14,PUTOUT                                             26050050
                                   4590            ENDDO                                                        26060050
00280E 4620 A656      02656        4591+         BCT   R2,##315                    BRANCH BACK TO START OF LOOP
002812                             4592+##316    DS    0H                          TARGET TO LEAVE THE LOOP
                                   4593          ENDIF                                                          26070001
002812                             4594+##314    DS    0H                          TARGET FOR ELSE BRANCH
                                   4595  ULSNAP 'ESTAE'                                                         26080034

                                   4597+*                                 START MACRO ULSNAP ****************** 09800053
002812                             4598+         DS    0H                       ON HALFW BOUNDARY/JUST IN CASE  09820053
                                   4599+*                                       ULSNAP MACRO IGNORED/SYSPARM    10040053
                                   4600+*                                       NOSNAP HAS BEEN USED            10050053
                                   4601+*                                 END MACRO ULSNAP  ******************* 10060053
002812 4120 AF64      02F64        4602          LA R2,OUTDCB                                                   26090034
                                   4603          IF (TM,DCBOFLGS-IHADCB(R2),DCBOFOPN,O)                         26100034
002816 9110 2030      00030        4604+         TM    DCBOFLGS-IHADCB(R2),DCBOFOPN
00281A 47E0 A832      02832        4605+         BC    15-1,##317                  BRANCH IF NOT TRUE
                                   4606            CLOSE ((R2))                                                 26110034
00281E 0700                        4607+         CNOP  0,4                               ALIGN LIST TO FULLWORD 02420002
002820 4510 A828      02828        4608+         BAL   1,*+8                             LOAD REG1 W/LIST ADDR  02460002XE4S001Z *** XE4S001Z *** DISPLAY/UPDATE SPF INFO ***                                                          PAGE   86


  LOC  OBJECT CODE    ADDR1 ADDR2  STMT   SOURCE STATEMENT                                       ASM 0201 10.53 06/08/08

002824 00000000                    4609+         DC    A(0)                              OPTION AND DCB ADDRESS 02540000
002828 5021 0000      00000        4610+         ST    R2,0(1,0)                         STORE DCB ADDRESS      02820000
00282C 9280 1000      00000        4611+         MVI   0(1),128                          MOVE IN OPTION BYTE    02900000
002830 0A14                        4612+         SVC   20                                ISSUE CLOSE SVC        01640000
                                   4613          ENDIF                                                          26120034
002832                             4614+##317    DS    0H                          TARGET FOR ELSE BRANCH
                                   4615 *                                                                       26130001
                                   4616          IF (C,R8,NE,=F'12')      SDWA NOT OBTAINED                     26140004
002832 5980 AA74      02A74        4617+         C     R8,=F'12'
002836 4780 A840      02840        4618+         BC    15-7,##318                  BRANCH IF NOT TRUE
00283A 1815                        4619            LR R1,R5                                                     26150004
                                   4620            SETRP RC=0                                                   26160001
00283C 9200 10FC      000FC        4621+         MVI   SDWARCDE-SDWA(1),0      .       PUT RC IN SDWA           02000002
                                   4622          ENDIF                                                          26170001
002840                             4623+##318    DS    0H                          TARGET FOR ELSE BRANCH
002840 1BFF                        4624          SR R15,R15                                                     26180001
002842 980E A858      02858        4625          LM R0,R14,##ESTREG                                             26190001
002846 07FE                        4626          BR R14                                                         26200001
                                   4627 *********************************************************************** 26210001
002848 00003000                    4628 ##ESTBS2 DC A(XE4S001Z+4096+4096+4096)  R9                              26220008
00284C 00002000                    4629          DC A(XE4S001Z+4096+4096)       R10                             26230008
002850 00001000                    4630          DC A(XE4S001Z+4096)            R11                             26240008
002854 00000000                    4631          DC A(XE4S001Z)                 R12                             26250008
002858                             4632 ##ESTREG DS 16F                                                         26260001
002898                             4633 ##ESTXSA DS 18F                                                         26270001
0028E0 405C40E7C5F4E2F0            4634 WKMSG45  DC CL80' * XE4S001Z:ENTERED ESTAE WITH SDWA,CC=12345678'       26280050
002930 405C40E7C5F4E2F0            4635 WKMSG46  DC CL80' * XE4S001Z:ENTERED ESTAE W/O  SDWA,CC=12345678'       26290050
002980 405C40D7E2E67E40            4636 WKMSG47  DC CL80' * PSW= 12345678 12345678 OFFS=12345678'               26300032
0029D0 405C40D9E7E760D9            4637 WKMSG48  DC CL80' * RXX-RXX: 12345678 12345678 12345678 12345678'       26310050
                                   4638 ************************************************************            26320001
                                   4639 ***      AREA DEFINE                                     ***            26330001
                                   4640 ************************************************************            26340001
002A20 D200 A354 1000 02354 00000  4641 MVCHDR1  MVC   HDR1+16(0),0(R1)                                   R#002 26350030
002A28                             4642          LTORG                                                          26360006
002A28 FFFFFFFFFFFFFFFF            4643                =8XL1'FF'
002A30 C4E8D5C1D3D3D6C3            4644                =C'DYNALLOC'
002A38 D5D6E360C3C1E340            4645                =C'NOT-CAT '
002A40 C9D560E4E2C54040            4646                =C'IN-USE  '
002A48 C4E8D5C1C6D9C5C5            4647                =C'DYNAFREE'
002A50 7E7E7E7E7E7E7E6E            4648                =C'=======>'
002A58 6F6F616F6F616F6F            4649                =C'??/??/??'
002A60 F0F061F0F061F0F0            4650                =C'00/00/00'
002A68 0000001F                    4651                =A(PDS2LUSR)
002A6C 00001A34                    4652                =A(#S99RBX1)
002A70 000024B0                    4653                =A(PXMSESTX)
002A74 0000000C                    4654                =F'12'
002A78 000028E0                    4655                =A(WKMSG45)
002A7C 00002930                    4656                =A(WKMSG46)
002A80 0002                        4657                =H'2'
002A82 0002                        4658                =Y(2)
002A84 F16B                        4659                =C'1,'
002A86 0008                        4660                =H'8'
002A88 002C                        4661                =H'44'
002A8A 0008                        4662                =Y(EQMAXPM)
002A8C 0001                        4663                =Y(1)XE4S001Z *** XE4S001Z *** DISPLAY/UPDATE SPF INFO ***                                                          PAGE   87


  LOC  OBJECT CODE    ADDR1 ADDR2  STMT   SOURCE STATEMENT                                       ASM 0201 10.53 06/08/08

002A8E 0003                        4664                =Y(3)
002A90 000A                        4665                =Y(10)
002A92 0063                        4666                =Y(99)
002A94 0006                        4667                =Y(6)
002A96 F0F0F0F0F0F0                4668                =C'000000'
002A9C 0004                        4669                =Y(4)
002A9E 0005                        4670                =Y(5)
002AA0 0007                        4671                =Y(7)
002AA2 0008                        4672                =Y(8)
002AA4 0018                        4673                =Y(24)
002AA6 003C                        4674                =Y(60)
002AA8 0050                        4675                =Y(80)
002AAA D7E2                        4676                =C'PS'
002AAC D7D6                        4677                =C'PO'
002AAE C4C1                        4678                =C'DA'
002AB0 C9E2                        4679                =C'IS'
002AB2 E2E8E2D6E4E3                4680                =C'SYSOUT'
002AB8 1708                        4681                =X'1708'
002ABA 020C                        4682                =X'020C'
002ABC 0210                        4683                =X'0210'
002ABE C1D3C9C1E240                4684                =C'ALIAS '
002AC4 C4C5D3                      4685                =C'DEL'
002AC7 D5D6E6                      4686                =C'NOW'
002ACA 4020206B2020206B            4687                =X'4020206B2020206B2020206B202020'
002ADC                             4688 SAVEA    DS    18F                     * REGISTER SAVE AREA             26370011
002B24 4040404040404040            4689 BLANK    DC    CL256' '                                                 26380011
                                   4690 WTOMSG01 WTO   '.........1.........2.........3.........4.........5.....X26390006
                                                       ...6.........7.........8',MF=L                           26400006
002C24                             4691+WTOMSG01 DS    0F                                                       01800002
002C24 0053                        4692+         DC    AL2(83)             TEXT LENGTH                          13200002
002C26 0000                        4693+         DC    B'0000000000000000' MCS FLAGS                            13250002
002C28 4B4B4B4B4B4B4B4B            4694+         DC    C'.........1.........2.........3.........4.........5....X13350002
002C30 4BF14B4B4B4B4B4B                +               ....6.........7.........8'
002C77 405C40E7E7E7E7E7            4695 ERRMSG01 DC    CL80' * XXXXXXXX PDS OPEN FAILED.'                       26410004
002CC7 405C40E7E7E7E7E7            4696 ERRMSG02 DC    CL80' * XXXXXXXX DIRECTORY OPEN FAILED.'                 26420004
002D17 405C40C4E2D5C1D4            4697 ERRMSG03 DC    CL80' * DSNAME PARAMETER MISSING'                        26430006
002D67 E7E7E7E7E7E7E7E7            4698 ERRMSG04 DC    CL80'XXXXXXXX (PRINT OUT DCB) OPEN FAILED'               26440000
002DB7 405C40D7C1D9C1D4            4699 ERRMSG06 DC    CL80' * PARAMETER FORMAT ERR(DSN OR MEMBERNAME LENGTH)'  26450017
                                   4700 *RRMSG08 DC    CL80' * PARM ERR:MISSING MEMBER NAME'                    26460044
002E07 405C40D6D7C5D9C1            4701 ERRMSG09 DC    CL80' * OPERATION ALLOWED ONLY FOR DATASET WITH RECFM=F(+26470030
002E0F E3C9D6D540C1D3D3                                B) LRECL=80'                                             26480030
002E57 00                          4702 SPFSW    DC    X'00'                                                    26490004
                            00001  4703 EQUSPFF  EQU   X'01'                                                    26500004
                            00002  4704 EQUSPFI  EQU   X'02'                                                    26510004
                            00004  4705 EQUALIAS EQU   X'04'                                                    26520021
                            00008  4706 EQUOTHER EQU   X'08'                                                    26530034
002E58 F0                          4707 DCBID    DC C'0'                                                        26540011
002E59 00                          4708 TSOJOBID DC X'0'                                                        26550011
                                   4709 *                                                                       26560011
                                   4710 PDSDCB   DCB   DSORG=PO,MACRF=(R),DDNAME=XE4S001I EXLST=EXL             26570012


                                   4712+*                       DATA CONTROL BLOCK                              22770000
                                   4713+*                                                                       22860000
002E5A 0000XE4S001Z *** XE4S001Z *** DISPLAY/UPDATE SPF INFO ***                                                          PAGE   88


  LOC  OBJECT CODE    ADDR1 ADDR2  STMT   SOURCE STATEMENT                                       ASM 0201 10.53 06/08/08

002E5C                             4714+PDSDCB   DC    0F'0'                   ORIGIN ON WORD BOUNDARY          22914000

                                   4716+*                       DIRECT ACCESS DEVICE INTERFACE                  27360000

002E5C 0000000000000000            4718+         DC    BL16'0'                  FDAD,DVTBL                      27540000
002E6C 00000000                    4719+         DC    A(0)                     KEYLE,DEVT,TRBAL                27720000

                                   4721+*                       COMMON ACCESS METHOD INTERFACE                  48690000

002E70 00                          4723+         DC    AL1(0)                  BUFNO                            49050000
002E71 000001                      4724+         DC    AL3(1)                  BUFCB                            54720000
002E74 0000                        4725+         DC    AL2(0)             BUFL                                  55170000
002E76 0200                        4726+         DC    BL2'0000001000000000'                                   *55800000
                                       +                                                 DSORG                  55890000
002E78 00000001                    4727+         DC    A(1)                     IOBAD                           56340000

                                   4729+*                       FOUNDATION EXTENSION                            56610000

002E7C 00                          4731+         DC    BL1'00000000'                  BFTEK,BFLN,HIARCHY        59850000
002E7D 000001                      4732+         DC    AL3(1)                  EODAD                            65970000
002E80 00                          4733+         DC    BL1'00000000'                                           *66150000
                                       +                                       RECFM                            66240000
002E81 000000                      4734+         DC    AL3(0)                  EXLST                            66330000

                                   4736+*                       FOUNDATION BLOCK                                66690000

002E84 E7C5F4E2F0F0F1C9            4738+         DC    CL8'XE4S001I'           DDNAME                           66870000
002E8C 02                          4739+         DC    BL1'00000010'           OFLGS                            68220000
002E8D 00                          4740+         DC    BL1'00000000'                          IFLG              68310000
002E8E 2400                        4741+         DC    BL2'0010010000000000'                                   *68400000
                                       +                                                                       *68490000
                                       +                                       MACR                             68580000

                                   4743+*                       BSAM-BPAM-QSAM INTERFACE                        74430000

002E90 00                          4745+         DC    BL1'00000000'                                           *74610000
                                       +                                                                   RER1 74700000
002E91 000001                      4746+         DC    AL3(1)                  CHECK, GERR, PERR                74790000
002E94 00000001                    4747+         DC    A(1)                    SYNAD                            74880000
002E98 0000                        4748+         DC    H'0'                    CIND1, CIND2                     74970000
002E9A 0000                        4749+         DC    AL2(0)                  BLKSIZE                          75240000
002E9C 00000000                    4750+         DC    F'0'                    WCPO, WCPL, OFFSR, OFFSW         75870000
002EA0 00000001                    4751+         DC    A(1)                    IOBA                             75960000
002EA4 00                          4752+         DC    AL1(0)                  NCP                              76050000
002EA5 000001                      4753+         DC    AL3(1)                  EOBR, EOBAD                      76140000

                                   4755+*                         BSAM-BPAM INTERFACE                           76410000

002EA8 00000001                    4757+         DC    A(1)                    EOBW                             76590000
002EAC 0000                        4758+         DC    H'0'                    DIRCT                            78210000
002EAE 0000                        4759+         DC    AL2(0)         LRECL                                     80730000
002EB0 00000001                    4760+         DC    A(1)                    CNTRL, NOTE, POINT               78480000
                                   4761 PDSDCB2  DCB   DSORG=PS,MACRF=R,DDNAME=XE4S001I,RECFM=U,BLKSIZE=256,   +26580012
                                                       EODAD=EOFDIR                                             26590001XE4S001Z *** XE4S001Z *** DISPLAY/UPDATE SPF INFO ***                                                          PAGE   89


  LOC  OBJECT CODE    ADDR1 ADDR2  STMT   SOURCE STATEMENT                                       ASM 0201 10.53 06/08/08

                                   4763+*                       DATA CONTROL BLOCK                              22770000
                                   4764+*                                                                       22860000
002EB4                             4765+PDSDCB2  DC    0F'0'                   ORIGIN ON WORD BOUNDARY          22914000

                                   4767+*                       DIRECT ACCESS DEVICE INTERFACE                  27360000

002EB4 0000000000000000            4769+         DC    BL16'0'                  FDAD,DVTBL                      27540000
002EC4 00000000                    4770+         DC    A(0)                     KEYLE,DEVT,TRBAL                27720000

                                   4772+*                       COMMON ACCESS METHOD INTERFACE                  48690000

002EC8 00                          4774+         DC    AL1(0)                  BUFNO                            49050000
002EC9 000001                      4775+         DC    AL3(1)                  BUFCB                            54720000
002ECC 0000                        4776+         DC    AL2(0)             BUFL                                  55170000
002ECE 4000                        4777+         DC    BL2'0100000000000000'                                   *55800000
                                       +                                                 DSORG                  55890000
002ED0 00000001                    4778+         DC    A(1)                     IOBAD                           56340000

                                   4780+*                       FOUNDATION EXTENSION                            56610000

002ED4 00                          4782+         DC    BL1'00000000'                  BFTEK,BFLN,HIARCHY        59850000
002ED5 000154                      4783+         DC    AL3(EOFDIR)             EODAD                            65970000
002ED8 C0                          4784+         DC    BL1'11000000'                                           *66150000
                                       +                                       RECFM                            66240000
002ED9 000000                      4785+         DC    AL3(0)                  EXLST                            66330000

                                   4787+*                       FOUNDATION BLOCK                                66690000

002EDC E7C5F4E2F0F0F1C9            4789+         DC    CL8'XE4S001I'           DDNAME                           66870000
002EE4 02                          4790+         DC    BL1'00000010'           OFLGS                            68220000
002EE5 00                          4791+         DC    BL1'00000000'                          IFLG              68310000
002EE6 2000                        4792+         DC    BL2'0010000000000000'                                   *68400000
                                       +                                                                       *68490000
                                       +                                       MACR                             68580000

                                   4794+*                       BSAM-BPAM-QSAM INTERFACE                        74430000

002EE8 00                          4796+         DC    BL1'00000000'                                           *74610000
                                       +                                                                   RER1 74700000
002EE9 000001                      4797+         DC    AL3(1)                  CHECK, GERR, PERR                74790000
002EEC 00000001                    4798+         DC    A(1)                    SYNAD                            74880000
002EF0 0000                        4799+         DC    H'0'                    CIND1, CIND2                     74970000
002EF2 0100                        4800+         DC    AL2(256)                BLKSIZE                          75240000
002EF4 00000000                    4801+         DC    F'0'                    WCPO, WCPL, OFFSR, OFFSW         75870000
002EF8 00000001                    4802+         DC    A(1)                    IOBA                             75960000
002EFC 00                          4803+         DC    AL1(0)                  NCP                              76050000
002EFD 000001                      4804+         DC    AL3(1)                  EOBR, EOBAD                      76140000

                                   4806+*                         BSAM-BPAM INTERFACE                           76410000

002F00 00000001                    4808+         DC    A(1)                    EOBW                             76590000
002F04 0000                        4809+         DC    H'0'                    DIRCT                            78210000
002F06 0000                        4810+         DC    AL2(0)         LRECL                                     80730000
002F08 00000001                    4811+         DC    A(1)                    CNTRL, NOTE, POINT               78480000
                                   4812 PDSDCB3  DCB   DSORG=PO,DEVD=DA,DDNAME=XE4S001I,MACRF=(R,W),           +26600030XE4S001Z *** XE4S001Z *** DISPLAY/UPDATE SPF INFO ***                                                          PAGE   90


  LOC  OBJECT CODE    ADDR1 ADDR2  STMT   SOURCE STATEMENT                                       ASM 0201 10.53 06/08/08

                                                       EODAD=EOFMEMB                                            26610031


                                   4814+*                       DATA CONTROL BLOCK                              22770000
                                   4815+*                                                                       22860000
002F0C                             4816+PDSDCB3  DC    0F'0'                   ORIGIN ON WORD BOUNDARY          22914000

                                   4818+*                       DIRECT ACCESS DEVICE INTERFACE                  27360000

002F0C 0000000000000000            4820+         DC    BL16'0'                  FDAD,DVTBL                      27540000
002F1C 00000000                    4821+         DC    A(0)                     KEYLE,DEVT,TRBAL                27720000

                                   4823+*                       COMMON ACCESS METHOD INTERFACE                  48690000

002F20 00                          4825+         DC    AL1(0)                  BUFNO                            49050000
002F21 000001                      4826+         DC    AL3(1)                  BUFCB                            54720000
002F24 0000                        4827+         DC    AL2(0)             BUFL                                  55170000
002F26 0200                        4828+         DC    BL2'0000001000000000'                                   *55800000
                                       +                                                 DSORG                  55890000
002F28 00000001                    4829+         DC    A(1)                     IOBAD                           56340000

                                   4831+*                       FOUNDATION EXTENSION                            56610000

002F2C 00                          4833+         DC    BL1'00000000'                  BFTEK,BFLN,HIARCHY        59850000
002F2D 00154A                      4834+         DC    AL3(EOFMEMB)            EODAD                            65970000
002F30 00                          4835+         DC    BL1'00000000'                                           *66150000
                                       +                                       RECFM                            66240000
002F31 000000                      4836+         DC    AL3(0)                  EXLST                            66330000

                                   4838+*                       FOUNDATION BLOCK                                66690000

002F34 E7C5F4E2F0F0F1C9            4840+         DC    CL8'XE4S001I'           DDNAME                           66870000
002F3C 02                          4841+         DC    BL1'00000010'           OFLGS                            68220000
002F3D 00                          4842+         DC    BL1'00000000'                          IFLG              68310000
002F3E 2424                        4843+         DC    BL2'0010010000100100'                                   *68400000
                                       +                                                                       *68490000
                                       +                                       MACR                             68580000

                                   4845+*                       BSAM-BPAM-QSAM INTERFACE                        74430000

002F40 00                          4847+         DC    BL1'00000000'                                           *74610000
                                       +                                                                   RER1 74700000
002F41 000001                      4848+         DC    AL3(1)                  CHECK, GERR, PERR                74790000
002F44 00000001                    4849+         DC    A(1)                    SYNAD                            74880000
002F48 0000                        4850+         DC    H'0'                    CIND1, CIND2                     74970000
002F4A 0000                        4851+         DC    AL2(0)                  BLKSIZE                          75240000
002F4C 00000000                    4852+         DC    F'0'                    WCPO, WCPL, OFFSR, OFFSW         75870000
002F50 00000001                    4853+         DC    A(1)                    IOBA                             75960000
002F54 00                          4854+         DC    AL1(0)                  NCP                              76050000
002F55 000001                      4855+         DC    AL3(1)                  EOBR, EOBAD                      76140000

                                   4857+*                         BSAM-BPAM INTERFACE                           76410000

002F58 00000001                    4859+         DC    A(1)                    EOBW                             76590000
002F5C 0000                        4860+         DC    H'0'                    DIRCT                            78210000XE4S001Z *** XE4S001Z *** DISPLAY/UPDATE SPF INFO ***                                                          PAGE   91


  LOC  OBJECT CODE    ADDR1 ADDR2  STMT   SOURCE STATEMENT                                       ASM 0201 10.53 06/08/08

002F5E 0000                        4861+         DC    AL2(0)         LRECL                                     80730000
002F60 00000001                    4862+         DC    A(1)                    CNTRL, NOTE, POINT               78480000
                                   4863 OUTDCB   DCB   DSORG=PS,MACRF=(PM),DDNAME=XE4S001O,RECFM=F,            X26620012
                                                       LRECL=80,BLKSIZE=80                                      26630001


                                   4865+*                       DATA CONTROL BLOCK                              22770000
                                   4866+*                                                                       22860000
002F64                             4867+OUTDCB   DC    0F'0'                   ORIGIN ON WORD BOUNDARY          22914000

                                   4869+*                       DIRECT ACCESS DEVICE INTERFACE                  27360000

002F64 0000000000000000            4871+         DC    BL16'0'                  FDAD,DVTBL                      27540000
002F74 00000000                    4872+         DC    A(0)                     KEYLE,DEVT,TRBAL                27720000

                                   4874+*                       COMMON ACCESS METHOD INTERFACE                  48690000

002F78 00                          4876+         DC    AL1(0)                  BUFNO                            49050000
002F79 000001                      4877+         DC    AL3(1)                  BUFCB                            54720000
002F7C 0000                        4878+         DC    AL2(0)             BUFL                                  55170000
002F7E 4000                        4879+         DC    BL2'0100000000000000'                                   *55800000
                                       +                                                 DSORG                  55890000
002F80 00000001                    4880+         DC    A(1)                     IOBAD                           56340000

                                   4882+*                       FOUNDATION EXTENSION                            56610000

002F84 00                          4884+         DC    BL1'00000000'                  BFTEK,BFLN,HIARCHY        59850000
002F85 000001                      4885+         DC    AL3(1)                  EODAD                            65970000
002F88 80                          4886+         DC    BL1'10000000'                                           *66150000
                                       +                                       RECFM                            66240000
002F89 000000                      4887+         DC    AL3(0)                  EXLST                            66330000

                                   4889+*                       FOUNDATION BLOCK                                66690000

002F8C E7C5F4E2F0F0F1D6            4891+         DC    CL8'XE4S001O'           DDNAME                           66870000
002F94 02                          4892+         DC    BL1'00000010'           OFLGS                            68220000
002F95 00                          4893+         DC    BL1'00000000'                          IFLG              68310000
002F96 0050                        4894+         DC    BL2'0000000001010000'                                   *68400000
                                       +                                                                       *68490000
                                       +                                       MACR                             68580000

                                   4896+*                       BSAM-BPAM-QSAM INTERFACE                        74430000

002F98 00                          4898+         DC    BL1'00000000'                                           *74610000
                                       +                                                                   RER1 74700000
002F99 000001                      4899+         DC    AL3(1)                  CHECK, GERR, PERR                74790000
002F9C 00000001                    4900+         DC    A(1)                    SYNAD                            74880000
002FA0 0000                        4901+         DC    H'0'                    CIND1, CIND2                     74970000
002FA2 0050                        4902+         DC    AL2(80)                 BLKSIZE                          75240000
002FA4 00000000                    4903+         DC    F'0'                    WCPO, WCPL, OFFSR, OFFSW         75870000
002FA8 00000001                    4904+         DC    A(1)                    IOBA                             75960000
002FAC 00                          4905+         DC    AL1(0)                  NCP                              76050000
002FAD 000001                      4906+         DC    AL3(1)                  EOBR, EOBAD                      76140000

                                   4908+*                            QSAM INTERFACE                             81450000XE4S001Z *** XE4S001Z *** DISPLAY/UPDATE SPF INFO ***                                                          PAGE   92


  LOC  OBJECT CODE    ADDR1 ADDR2  STMT   SOURCE STATEMENT                                       ASM 0201 10.53 06/08/08

002FB0 00000001                    4910+         DC    A(1)                     RECAD                           81630000
002FB4 0000                        4911+         DC    H'0'                    QSWS                             81810000
002FB6 0050                        4912+         DC    AL2(80)        LRECL                                     80730000
002FB8 00                          4913+         DC    BL1'00000000'           EROPT                            82530000
002FB9 000001                      4914+         DC    AL3(1)                  CNTRL                            82620000
002FBC 00000000                    4915+         DC    F'0'                    PRECL                            82710000
002FC0 00000001                    4916+         DC    A(1)                    EOB                              82800000
002FC4                             4917 WKDATE   DS CL6                                                         26640000
002FCA                             4918 DIRAREA  DS CL256                                                       26650000

0030CA 4040404040404040            4920 WKSPFINF DC CL80' '                                                     26670004
00311A                      030CA  4921          ORG WKSPFINF                                                   26680004
0030CA                             4922          DS CL1           KEEP SPACE FOR THE CASE MEMBERNAME=READY      26690051
0030CB                             4923 WKSPFNAM DS CL8           MEMBER NAME                                   26700014
0030D3                             4924          DS CL2                                                         26710021
0030D5                             4925 WKSPFVV  DS CL2           VERSION                                       26720004
                            00060  4926 EQUVERNO EQU C'-'         NO SPF INFO ID ON VERSION FLD                 26730024
0030D7 4B                          4927          DC CL1'.'                                                      26740013
0030D8                             4928 WKSPFMM  DS CL2           MODIFIER                                      26750004
0030DA                             4929          DS CL2                                                         26760006
0030DC E8E861D4D461C4C4            4930 WKSPFCRD DC CL8'YY/MM/DD' CREATION DATE     YY/MM/DD                    26770006
0030E4                             4931          DS CL2                                                         26780006
0030E6 E8E861D4D461C4C4            4932 WKSPFCHD DC CL8'YY/MM/DD' LAST CHANGED DATE YY/MM/DD                    26790006
0030EE                             4933          DS CL1                                                         26800006
0030EF C8C87AD4D4                  4934 WKSPFCHT DC CL5'HH:MM'    LAST CHANGED TIME HH:MM                       26810025
0030F4                             4935          DS CL2                                                         26820006
0030F6                             4936 WKSPFCSZ DS CL11          CURRENT LINE SIZE NNN,NNN,NNN                 26830013
003101                             4937          DS CL1                                                         26840013
003102                             4938 WKSPFISZ DS CL11          INIT    LINE SIZE NNN,NNN,NNN                 26850013
00310D                             4939          DS CL2                                                         26860006
00310F                             4940 WKSPFUID DS CL8           USERID                                        26870006
003117                             4941          DS CL3                                                         26880051
00311A                      0311A  4942          ORG                                                            26890006
                                   4943 *                                                                       26900000
                                   4944 ********************************************************************    26910000
000000                             4945 PDS2     DSECT                                                          26920001
000000                             4946 PDS2NAME DS CL8                                                         26930001
000008                             4947 PDS2TTRP DS CL3                                                         26940001
00000B                             4948 PDS2INDC DS CL1                                                         26950001
                            00080  4949 PDS2ALIS EQU X'80'    ALIAS                                             26960020
                            0001F  4950 PDS2LUSR EQU X'1F'    MASK OF USER DATA LENGTH BY HALF WORD             26970020
                            0000F  4951 PDS2SPFI EQU X'0F'    SPF DATA LEN                                      26980020
00000C                             4952 PDS2USRD DS 0C                                                          26990001
00000C                             4953 SPFVV    DS CL1                                                         27000001
00000D                             4954 SPFMM    DS CL1                                                         27010001
00000E                             4955 SPFRSV1  DS CL2                                                         27020033
000010                             4956 SPFCRD   DS CL4     CRE DATE                                            27030001
000014                             4957 SPFCHD   DS CL4     CHG DATE                                            27040001
000018                             4958 SPFCHT   DS CL2     CHD TIME                                            27050001
00001A                             4959 SPFCLNO  DS CL2     CUR LINE COUNT                                      27060001
00001C                             4960 SPFILNO  DS CL2     INIT LINE COUNT                                     27070001
00001E                             4961 SPFRSV2  DS CL2                                                         27080033
000020                             4962 SPFUSR   DS CL8     USER ID                                             27090001
000028                             4963 SPFRSV3  DS CL2                                                         27100033
                            0001E  4964 SPFISZ   EQU *-PDS2USRD                                                 27110030XE4S001Z *** XE4S001Z *** DISPLAY/UPDATE SPF INFO ***                                                          PAGE   93


  LOC  OBJECT CODE    ADDR1 ADDR2  STMT   SOURCE STATEMENT                                       ASM 0201 10.53 06/08/08

                            0002A  4965 DIRESZ   EQU *-PDS2                                                     27120001
                                   4966 ********                                                                27130000
                                   4967 *                                                                       27140000
                                   4968          PRINT NOGEN                                                    27150001
                                   4969          DCBD  DSORG=PS                                                 27160000
                                   4970+*,***  IHB069  DEVD NOT SPECIFIED-ALL ASSUMED
                                   5791          IHASDWA                                                        27170004
                                   6342          IKJTCB                                                         27180000
                                   6400+         PRINT OFF                                                      01016002
                                   7179          IEFZB4D0         , DYNALOC RB                                  27190006
                                   7318          IEFZB4D2         , DYNALOC KEY                                 27200006
                            00014  7514 #S99RBSZ EQU S99RBEND-S99RB                                             27210006
                                   7515          IEZJSCB                                                        27220012
                                   7767          END                                                            27230000XE4S001Z                                          RELOCATION DICTIONARY                                        PAGE   94


POS.ID   REL.ID   FLAGS   ADDRESS                                                                ASM 0201 10.53 06/08/08

 0002     0002      08     00003D
 0002     0002      08     0000A1
 0002     0002      0C     0000F0
 0002     0002      0C     0000F4
 0002     0002      08     0003E9
 0002     0002      0C     000418
 0002     0002      0C     00041C
 0002     0002      08     0004F1
 0002     0002      08     0017C9
 0002     0002      08     0018D1
 0002     0002      0C     001A34
 0002     0002      0C     001A38
 0002     0002      0C     001A3C
 0002     0002      0C     001AB4
 0002     0002      0C     001AB8
 0002     0002      0C     001ABC
 0002     0002      0C     001AC0
 0002     0002      0C     001B78
 0002     0002      0C     001BC4
 0002     0002      0C     001D38
 0002     0002      0C     001D8C
 0002     0002      0C     002248
 0002     0002      0C     00251C
 0002     0002      0C     00257C
 0002     0002      0C     0025D0
 0002     0002      0C     002628
 0002     0002      0C     0026E8
 0002     0002      0C     00273C
 0002     0002      0C     002790
 0002     0002      0C     0027E4
 0002     0002      0C     002848
 0002     0002      0C     00284C
 0002     0002      0C     002850
 0002     0002      0C     002854
 0002     0002      0C     002A6C
 0002     0002      0C     002A70
 0002     0002      0C     002A78
 0002     0002      0C     002A7C
 0002     0002      08     002ED5
 0002     0002      08     002F2D
XE4S001Z                                          CROSS-REFERENCE                                              PAGE   95


SYMBOL    LEN   VALUE   DEFN    REFERENCES                                                       ASM 0201 10.53 06/08/08

##ESTBS2 00004 00002848 04628  04357
##ESTREG 00004 00002858 04632  04355 04625
##ESTXSA 00004 00002898 04633  04365
##1      00002 00000058 01041  01035
##100    00002 00000AEE 02166  02185
##101    00002 00000B2C 02186  02169 02173 02177
##102    00002 00000AFA 02170  02168
##103    00002 00000B06 02174  02172
##104    00002 00000B12 02178  02176
##105    00002 00000B8E 02226  02192
##106    00002 00000B4C 02203  02222
##107    00002 00000B8A 02223  02206 02210 02214
##108    00002 00000B58 02207  02205
##109    00002 00000B64 02211  02209
##11     00002 00000134 01121  01118
##110    00002 00000B70 02215  02213
##111    00002 00000B9E 02234  02229
##112    00002 00000F68 02714  02239
##113    00002 00000CCC 02368  02244
##114    00002 00000BD6 02258  02247 02249
##116    00002 00000CC8 02365  02257
##117    00002 00000BE0 02264  02261
##118    00002 00000BFC 02279  02269
##119    00002 00000BEC 02270  02267
##12     00002 0000023C 01202  01197
##120    00002 00000BF8 02276  02273
##121    00002 00000CC8 02363  02278
##122    00002 00000C62 02319  02282
##123    00002 00000C14 02292  02311
##124    00002 00000C52 02312  02295 02299 02303
##125    00002 00000C20 02296  02294
##126    00002 00000C2C 02300  02298
##127    00002 00000C38 02304  02302
##128    00002 00000CB4 02352  02318
##129    00002 00000C72 02329  02348
##13     00002 00000268 01220  01214
##130    00002 00000CB0 02349  02332 02336 02340
##131    00002 00000C7E 02333  02331
##132    00002 00000C8A 02337  02335
##133    00002 00000C96 02341  02339
##134    00002 00000CC4 02360  02355
##135    00002 00000F68 02712  02367
##136    00002 00000D30 02422  02372
##137    00002 00000CF0 02382  02375 02377
##139    00002 00000D2C 02419  02381
##14     00002 00000278 01228  01223
##140    00002 00000D08 02392  02385 02387
##142    00002 00000D1E 02410  02391
##143    00002 00000D1C 02405  02397
##144    00002 00000D14 02398  02395
##145    00002 00000D1E 02408  02404
##146    00002 00000D2C 02417  02413
##147    00002 00000F68 02710  02421
##148    00002 00000D94 02476  02426
##149    00002 00000D54 02436  02429 02431XE4S001Z                                          CROSS-REFERENCE                                              PAGE   96


SYMBOL    LEN   VALUE   DEFN    REFERENCES                                                       ASM 0201 10.53 06/08/08

##15     00002 0000035A 01330  01283
##151    00002 00000D90 02473  02435
##152    00002 00000D6C 02446  02439 02441
##154    00002 00000D82 02464  02445
##155    00002 00000D80 02459  02451
##156    00002 00000D78 02452  02449
##157    00002 00000D82 02462  02458
##158    00002 00000D90 02471  02467
##159    00002 00000F68 02708  02475
##16     00002 00000368 01344  01340
##160    00002 00000DDC 02518  02480
##161    00002 00000DB4 02490  02483 02485
##163    00002 00000DCA 02508  02489
##164    00002 00000DC8 02503  02495
##165    00002 00000DC0 02496  02493
##166    00002 00000DCA 02506  02502
##167    00002 00000DD8 02515  02511
##168    00002 00000F68 02706  02517
##169    00002 00000E7C 02590  02522
##17     00002 00000370 01348  01343
##170    00002 00000E02 02533  02525 02527
##172    00002 00000E78 02587  02532
##173    00002 00000E24 02551  02538
##174    00002 00000E0E 02539  02536
##175    00002 00000E1A 02545  02542
##176    00002 00000E20 02548  02544
##177    00002 00000E78 02585  02550
##178    00002 00000E32 02561  02580
##179    00002 00000E70 02581  02564 02568 02572
##18     00002 00000404 01378  01373
##180    00002 00000E3E 02565  02563
##181    00002 00000E4A 02569  02567
##182    00002 00000E56 02573  02571
##183    00002 00000F68 02704  02589
##184    00002 00000F1E 02663  02594
##185    00002 00000EA2 02605  02597 02599
##187    00002 00000F1A 02660  02604
##188    00002 00000EC6 02624  02610
##189    00002 00000EAE 02611  02608
##19     00002 00000404 01381  01487
##190    00002 00000EBC 02618  02615
##191    00002 00000EC2 02621  02617
##192    00002 00000F1A 02658  02623
##193    00002 00000ED4 02634  02653
##194    00002 00000F12 02654  02637 02641 02645
##195    00002 00000EE0 02638  02636
##196    00002 00000EEC 02642  02640
##197    00002 00000EF8 02646  02644
##198    00002 00000F68 02702  02662
##199    00002 00000F68 02698  02667
##2      00002 0000009C 01060  01056
##200    00002 00000F42 02682  02670
##201    00002 00000F38 02676  02673
##202    00002 00000F3E 02679  02675
##203    00002 00000F64 02695  02681XE4S001Z                                          CROSS-REFERENCE                                              PAGE   97


SYMBOL    LEN   VALUE   DEFN    REFERENCES                                                       ASM 0201 10.53 06/08/08

##204    00002 00000F54 02689  02686
##205    00002 00000F68 02700  02697
##206    00002 000010FE 02756  02746
##207    00002 000011EE 02848  02755
##208    00002 00001110 02767  02786
##209    00002 0000114E 02787  02770 02774 02778
##21     00002 00000448 01412  01484
##210    00002 0000111C 02771  02769
##211    00002 00001128 02775  02773
##212    00002 00001134 02779  02777
##213    00002 0000116E 02800  02793
##214    00002 00001160 02794  02791
##215    00002 00001180 02810  02829
##216    00002 000011BE 02830  02813 02817 02821
##217    00002 0000118C 02814  02812
##218    00002 00001198 02818  02816
##219    00002 000011A4 02822  02820
##22     00002 000004E8 01485  01414
##220    00002 000011DE 02843  02836
##221    00002 000011D0 02837  02834
##222    00002 00001264 02881  02873
##223    00002 000013F8 03030  02880
##224    00002 000013DE 03019  03013
##225    00002 000013F4 03027  03024
##226    00002 0000147E 03064  03056
##227    00002 0000147E 03062  03059
##228    00002 000014B8 03095  03089
##229    00002 000014F2 03132  03099
##230    00002 000014EC 03128  03123
##231    00002 000014F4 03135  03174
##233    00002 00001544 03171  03168
##234    00002 00001564 03196  03193
##235    00002 00001702 03227  03299
##236    00002 0000179E 03300  03229
##238    00002 00001710 03234  03245
##239    00002 0000172C 03246  03241
##24     00002 0000045C 01421  01418
##240    00002 00001724 03242  03239
##241    00002 00001720 03240  03237
##242    00002 00001792 03295  03249
##243    00002 00001744 03259  03278
##244    00002 00001782 03279  03262 03266 03270
##245    00002 00001750 03263  03261
##246    00002 0000175C 03267  03265
##247    00002 00001768 03271  03269
##248    00002 00001792 03293  03290
##249    00002 000017E4 03324  03319
##25     00002 00000474 01430  01424
##250    00002 000017F8 03332  03328
##251    00002 000017FC 03335  03331
##252    00002 00001860 03371  03367
##253    00002 00001888 03394  03370
##254    00002 00001870 03378  03374
##255    00002 0000187C 03386  03377
##256    00002 0000187C 03384  03381XE4S001Z                                          CROSS-REFERENCE                                              PAGE   98


SYMBOL    LEN   VALUE   DEFN    REFERENCES                                                       ASM 0201 10.53 06/08/08

##257    00002 00001888 03392  03389
##258    00002 0000189A 03401  03397
##259    00002 000018CC 03427  03400
##26     00002 00000476 01433  01429
##260    00002 000018AC 03408  03404
##261    00002 000018CC 03425  03407
##262    00002 000018BE 03415  03411
##263    00002 000018CC 03423  03414
##264    00002 000018CC 03421  03418
##265    00002 0000195A 03471  03466
##266    00002 00001A16 03519  03516
##267    00002 00001A9E 03559  03555
##268    00002 00001AA2 03562  03558
##269    00002 00001AF2 03603  03589
##27     00002 000004D0 01476  01436
##270    00002 00001B12 03616  03607
##271    00002 00001B32 03629  03620
##272    00002 00001B50 03639  03632
##273    00002 00001B6E 03652  03643
##274    00002 00001BB8 03695  03692
##275    00002 00001CD6 03714  03711
##276    00002 00001CFC 03730  03727
##277    00002 00001E0A 03811  03781
##278    00002 00001DD0 03789  03785
##279    00002 00001DDC 03793  03788
##28     00002 000004A0 01457  01452
##280    00002 00001DEC 03799  03796
##281    00002 00001E06 03808  03804
##282    00002 00001E00 03805  03802
##283    00002 00001E2E 03825  03810
##284    00002 00001E22 03819  03815
##285    00002 00001E2E 03823  03818
##286    00002 00001ECC 03857  03853
##287    00002 00001ED0 03860  03856
##288    00002 00001EE0 03867  03863
##289    00002 00001EF8 03880  03866
##29     00002 000004B8 01467  01462
##290    00002 00001EF4 03875  03871
##291    00002 00001EF8 03878  03874
##292    00002 00001F14 03890  03886
##293    00002 00001F1A 03893  03889
##294    00002 00001F38 03903  03897
##295    00002 00002312 04219  03906
##296    00002 000020D8 04037  03942
##297    00002 000020CE 04031  04023
##298    00002 000020D4 04034  04030
##299    00002 000020DE 04040  04036
##3      00002 000000BC 01075  01070
##30     00002 000004C4 01472  01466
##300    00002 0000221A 04139  04044
##301    00002 00002210 04133  04125
##302    00002 00002216 04136  04132
##303    00002 00002220 04142  04138
##304    00002 00002312 04217  04214
##305    00002 0000232E 04230  04225XE4S001Z                                          CROSS-REFERENCE                                              PAGE   99


SYMBOL    LEN   VALUE   DEFN    REFERENCES                                                       ASM 0201 10.53 06/08/08

##306    00002 00002406 04273  04270
##307    00002 00002438 04301  04294
##308    00002 00002458 04314  04306
##309    00002 00002448 04307  04304
##31     00002 0000050C 01506  01501
##310    00002 000024D8 04375  04370
##311    00002 000024DC 04379  04374
##312    00002 000024EC 04387  04383
##313    00002 000024F0 04390  04386
##314    00002 00002812 04594  04414
##315    00002 00002656 04479  04591
##317    00002 00002832 04614  04605
##318    00002 00002840 04623  04618
##32     00002 0000050C 01508  01534
##33     00002 0000054A 01535  01510
##35     00002 00000692 01595  01566
##36     00002 00000682 01573  01569
##37     00002 00000718 01639  01622
##38     00002 000006FC 01626  01635
##39     00002 00000714 01636  01630
##4      00002 000000DC 01086  01079
##40     00002 00000708 01631  01629
##41     00002 00000720 01644  01653
##42     00002 00000738 01654  01648
##43     00002 0000072C 01649  01647
##44     00002 0000073C 01659  01767
##45     00002 000007E0 01768  01661
##47     00002 000007A8 01728  01665
##48     00002 0000074A 01667  01682
##49     00002 0000076E 01683  01669 01677
##5      00002 00000154 01137  01085
##51     00002 00000764 01678  01673 01675
##53     00002 00000778 01696  01686
##54     00002 00000778 01698  01710
##55     00002 00000796 01711  01700 01705
##57     00002 0000078C 01706  01704
##58     00002 000007A4 01725  01714
##59     00002 000007D0 01761  01727
##6      00002 000000DC 01088  01133
##60     00002 000007B6 01742  01731
##61     00002 000007D0 01759  01745 01747
##63     00002 000008CA 01884  01803
##64     00002 000008CA 01882  01806
##65     00002 000008BA 01866  01858
##66     00002 000008C0 01870  01865
##67     00002 000008D8 01892  01889
##68     00002 000008EA 01900  01895
##69     00002 000009B8 02007  01899
##70     00002 00000992 01981  01949
##71     00002 0000097E 01965  01960
##72     00002 00000976 01961  01958
##73     00002 00000994 01984  01980
##74     00002 000009AA 01994  01989
##75     00002 000009A2 01990  01987
##76     00002 000009F4 02032  02077XE4S001Z                                          CROSS-REFERENCE                                              PAGE  100


SYMBOL    LEN   VALUE   DEFN    REFERENCES                                                       ASM 0201 10.53 06/08/08

##77     00002 00000A48 02078  02034
##79     00002 000009FC 02038  02050
##8      00002 00000120 01112  01130
##80     00002 00000A18 02051  02040 02045
##82     00002 00000A0E 02046  02044
##83     00002 00000A2C 02068  02063
##84     00002 00000A4A 02082  02716
##85     00002 00000F6C 02717  02084
##87     00002 00000A7A 02107  02101 02103
##89     00002 00000A7E 02110  02106
##9      00002 00000150 01131  01114
##90     00002 00000BA6 02240  02114
##91     00002 00000AB0 02132  02117 02119
##93     00002 00000AA8 02128  02123
##94     00002 00000ABA 02138  02135
##95     00002 00000AD6 02153  02143
##96     00002 00000AC6 02144  02141
##97     00002 00000AD2 02150  02147
##98     00002 00000BA2 02237  02152
##99     00002 00000B3C 02193  02156
#S99DISP 00001 00001A7A 03541  03517
#S99RB   00256 00001BC8 03702  03679 03701 03715
#S99RBPT 00004 00001BC4 03701  03686 03721
#S99RBSZ 00001 00000014 07514  03680 03681 03716 03717
#S99RBX1 00004 00001A34 03530  03521 04652
#S99RBX2 00004 00001AB4 03570  03560
#S99RBX3 00004 00001ABC 03573  03556
#S99RBX4 00004 00001B78 03667  03636
#S99TDDN 00004 00001A7C 03543  03532 03572 03575
#S99TDSN 00004 00001A40 03534  03531
#S99TDSP 00004 00001A74 03538  03533
#S99TSOT 00004 00001AC4 03576  03571
#S99TTRM 00004 00001AC8 03580  03574
#S99TUDD 00004 00001B7C 03669  03668
#0033#2  00001 00000198 01165  01163
#0034#2  00001 000001C2 01179  01177
#00495   00001 000002E2 01271  01266
#00496   00001 000002E0 01269  01267
#00497   00001 0000029A 01240  01268
#0050EX  00004 000002D0 01264  01245
#0050F   00001 000002B6 01251  01246
#0050N   00001 000002A0 01244  01250
#0050NF  00001 000002C4 01258  01249
#0050X   00001 000002D4 01265  01257 01263
#00555   00001 00000356 01326  01321
#00556   00001 00000354 01324  01322
#00557   00001 0000030E 01295  01323
#0056EX  00004 00000344 01319  01300
#0056F   00001 0000032A 01306  01301
#0056N   00001 00000314 01299  01305
#0056NF  00001 00000338 01313  01304
#0056X   00001 00000348 01320  01312 01318
#01805   00001 0000089E 01853  01848
#01806   00001 0000089C 01851  01849
#01807   00001 00000856 01822  01850XE4S001Z                                          CROSS-REFERENCE                                              PAGE  101


SYMBOL    LEN   VALUE   DEFN    REFERENCES                                                       ASM 0201 10.53 06/08/08

#0181EX  00004 0000088C 01846  01827
#0181F   00001 00000872 01833  01828
#0181N   00001 0000085C 01826  01832
#0181NF  00001 00000880 01840  01831
#0181X   00001 00000890 01847  01839 01845
#01965   00001 00000950 01944  01939
#01966   00001 0000094E 01942  01940
#01967   00001 00000908 01913  01941
#0197EX  00004 0000093E 01937  01918
#0197F   00001 00000924 01924  01919
#0197N   00001 0000090E 01917  01923
#0197NF  00001 00000932 01931  01922
#0197X   00001 00000942 01938  01930 01936
#0645#2  00001 00001822 03349  03347
#0646#2  00001 0000184C 03363  03361
#0721#X  00001 00001D4C 03756  03753
#0721TRT 00004 00001D38 03754  03751
#0722#X  00001 00001DA0 03775  03772
#0722TRT 00004 00001D8C 03773  03770
#0762#2  00001 00001F68 03921  03919
#0763#2  00001 00001F98 03937  03935
#0782#X  00001 0000225C 04157  04154
#0782TRT 00004 00002248 04155  04152
#0783#M  00001 000022A8 04179  04176
#0783#1  00001 000022AE 04182  04175 04178
#0784#M  00001 000022EE 04201  04198
#0784#1  00001 000022F4 04204  04197 04200
#0814#X  00001 00002530 04405  04402
#0814TRT 00004 0000251C 04403  04400
#0817#X  00001 00002590 04430  04427
#0817TRT 00004 0000257C 04428  04425
#0818#X  00001 000025E4 04449  04446
#0818TRT 00004 000025D0 04447  04444
#0819#X  00001 0000263C 04470  04467
#0819TRT 00004 00002628 04468  04465
#0821#2  00001 00002682 04494  04492
#0822#2  00001 000026AC 04508  04506
#0823#X  00001 000026FC 04527  04524
#0823TRT 00004 000026E8 04525  04522
#0824#X  00001 00002750 04546  04543
#0824TRT 00004 0000273C 04544  04541
#0825#X  00001 000027A4 04565  04562
#0825TRT 00004 00002790 04563  04560
#0826#X  00001 000027F8 04584  04581
#0826TRT 00004 000027E4 04582  04579
ALIASNO  00004 00002340 04239  01167 03899 03901
BLANK    00256 00002B24 04689  01023 01045 01046 01047 02677 02683 03790 03820 04213
BLDLFIND 00004 00001A02 03507  03082 03479
BLDLMEMB 00002 00001930 03455  01081 01555
BLDLPARM 00004 000019C0 03494  03461
BLDLPC   00001 000019D1 03503  03480
BLDLPENT 00062 000019C4 03497  01082 01554 01596 02028 03498
BLDLPK   00001 000019CF 03501  03480
BLDLPNAM 00008 000019C4 03499  03090 03458
BLDLPTTR 00003 000019CC 03500  03479XE4S001Z                                          CROSS-REFERENCE                                              PAGE  102


SYMBOL    LEN   VALUE   DEFN    REFERENCES                                                       ASM 0201 10.53 06/08/08

CLOSEFRE 00002 00001ACC 03583  01141
DALDSNAM 00001 00000002 07356  03535
DALRTDDN 00001 00000055 07439  03544
DALSTATS 00001 00000004 07358  03539
DALSYSOU 00001 00000018 07378  03577
DALTERM  00001 00000028 07394  03581
DATE2JD  00002 00001250 02868  02414 02468
DCBBIT0  00001 00000080 04992  05147 05163 05207 05225 05274 05283 05298 05341 05349 05361 05384 05411 05413 05414 05416
                               05439 05442 05462 05466 05481 05518 05573 05604 05643 05647 05660 05760 05762 05772
DCBBIT1  00001 00000040 04993  05148 05164 05226 05234 05274 05283 05300 05342 05350 05363 05385 05386 05395 05411 05413
                               05415 05416 05444 05462 05464 05466 05484 05485 05486 05521 05522 05573 05606 05649 05651
                               05663 05707 05760 05764 05773
DCBBIT2  00001 00000020 04994  05149 05165 05227 05236 05283 05301 05343 05351 05364 05365 05366 05385 05386 05390 05396
                               05411 05412 05417 05446 05467 05468 05489 05490 05491 05525 05526 05574 05611 05652 05668
                               05710 05713 05760 05774
DCBBIT3  00001 00000010 04995  05103 05150 05166 05241 05285 05302 05344 05364 05366 05367 05385 05398 05418 05449 05467
                               05470 05493 05494 05495 05529 05530 05574 05613 05616 05618 05654 05669 05710 05714 05760
DCBBIT4  00001 00000008 04996  05104 05167 05242 05288 05303 05352 05399 05419 05450 05472 05477 05478 05498 05499 05533
                               05534 05536 05537 05575 05621 05670 05710 05715
DCBBIT5  00001 00000004 04997  05106 05168 05244 05289 05303 05353 05400 05422 05423 05452 05472 05474 05475 05478 05502
                               05504 05505 05506 05540 05541 05542 05543 05575 05623 05626 05656 05672 05705
DCBBIT6  00001 00000002 04998  05108 05135 05151 05169 05246 05290 05306 05345 05401 05402 05405 05422 05424 05453 05509
                               05510 05511 05512 05546 05547 05548 05549 05576 05629 05674 05716
DCBBIT7  00001 00000001 04999  05110 05135 05152 05250 05292 05307 05346 05401 05403 05405 05426 05457 05514 05515 05552
                               05553 05555 05556 05632 05658 05675 05718
DCBBLKSI 00002 0000003E 05677  03100 03157 03351
DCBDDNAM 00008 00000028 05436  01023 01026 01036 01045 01046 01047 01049 01050 01051 01071 01215 01374 03320 03631 03633
                               03634
DCBDSGDA 00001 00000020 05343  03410
DCBDSGIS 00001 00000080 05341  03417
DCBDSGPO 00001 00000002 05345  03403
DCBDSGPS 00001 00000040 05342  03396
DCBDSORG 00002 0000001A 05339  03396 03403 03410 03417
DCBEODA  00003 00000021 05407  01364
DCBFDAD  00008 00000005 05019  05022
DCBID    00001 00002E58 04707  03520 03563 03635 03814
DCBLRECL 00002 00000052 05742  03177 03325 03337
DCBOFLGS 00001 00000030 05438  01034 01069 01213 01372 03318 03606 03619 03642 04293 04303 04604
DCBOFOPN 00001 00000010 05449  01034 01069 01213 01372 03318 03606 03619 03642 04293 04303 04604
DCBRECBR 00001 00000010 05418  03388
DCBRECF  00001 00000080 05414  03327 03373
DCBRECFM 00001 00000024 05410  03327 03366 03373 03380 03388
DCBRECU  00001 000000C0 05416  03366
DCBRECV  00001 00000040 05415  03380
DCBSSID  00008 00000000 05262  05265
DCBWTOID 00004 00000000 05176  05193 05203
DECB     00004 000000E8 01093  01089 01089 01104
DECBMEMB 00004 000014F8 03139  03152 03156
DECB2    00004 00000410 01386  01382 01382 01397
DIRAREA  00256 00002FCA 04918  01098 01108 01109 01391 01408 01409
DISPHDR  00002 00001E90 03835  01076 01345 01497
DISPMEMB 00002 00001EB8 03849  01083 01122 01556 01598
DISPUPDT 00001 00002338 04237  01597 01599 03885 04224
DSALLOC  00002 00001A06 03511  01048
DSINFO   00002 000017C0 03308  01053XE4S001Z                                          CROSS-REFERENCE                                              PAGE  103


SYMBOL    LEN   VALUE   DEFN    REFERENCES                                                       ASM 0201 10.53 06/08/08

DUNDDNAM 00001 00000001 07504  03670
DYNAERR  00002 00001D08 03740  03693 03728
DYNAFREE 00002 00001CC8 03707  03637
DYNALLOC 00002 00001B8A 03677  03522 03564
EOFDIR   00001 00000154 01135  01119 04783
EOFDIR2  00001 000004EC 01489  01363 01419
EOFMEMB  00002 0000154A 03176  04834
EQDOLD   00001 00000001 03542  03517
EQFSPFUP 00001 00000001 02019  01055 01807 03515
EQMAXPM  00001 00000008 02731  02732 02733 04662
EQUALIAS 00001 00000004 04705  03854 03858 03896
EQUOTHER 00001 00000008 04706  01565 03872 03876
EQUSPFF  00001 00000001 04703  01196 03333 03905
EQUSPFI  00001 00000002 04704  01568 02122 02146 02272 02541 02614 02672 03864 03868 03905
EQUVERNO 00001 00000060 04926  03894
ERRMSG   00002 00002410 04281  01039 01073 01182 01200 01218 01226 01376 01455 01504 01897 01963 01992 02066 02126 02232
                               02358 02798 02841 03017 03093 03126 03322 03469 03827
ERRMSGDT 00080 00001413 03046  03014 03016
ERRMSGL2 00080 0000160D 03215  03090 03092
ERRMSGL3 00080 0000165D 03216  03125
ERRMSGMM 00080 00000380 01355  01225
ERRMSGNF 00080 00001970 03493  03467 03468
ERRMSGS1 00080 00000FF4 02734  02065
ERRMSGS2 00080 00001044 02735  02125
ERRMSGS3 00080 00001094 02736  02231 02357
ERRMSGTM 00080 00001200 02863  02795 02797 02838 02840
ERRMSG01 00080 00002C77 04695  03320 03321
ERRMSG02 00080 00002CC7 04696  01071 01072 01215 01217 01374 01375
ERRMSG03 00080 00002D17 04697  01896
ERRMSG04 00080 00002D67 04698  01036 01038
ERRMSG05 00080 00001E40 03833  03746 03765 03782 03786 03790 03791 03797 03806 03812 03816 03820 03821 03826
ERRMSG06 00080 00002DB7 04699  01962 01991
ERRMSG09 00080 00002E07 04701  01199
ERRMSG21 00080 00000564 01544  01454
ERRMSG22 00080 000005B4 01545  01503
ESTPRM   00004 000024A8 04347  04327
EXIT     00001 0000015C 01140  01058 04284
GETLCE   00002 00001558 03190  03060
GETLCRQ  00001 000015BC 03213  02251 02253 03058 03167 03192
GETLINEC 00002 00001464 03050  02252 02529 02601
GETMM    00002 000016FE 03224  03169
GETPARM  00002 00000808 01788  01044
GETSPFPE 00002 00000F6C 02718  02130
GETSPFPM 00002 000009E2 02023  01574
GETTJID  00002 000023E4 04261  01024
HBLKSZ   00005 00001907 03449  03356
HDR1     00080 00002344 04240  03838 04641
HDR2     00080 00002394 04241  03842 04242
HDR3     00080 000001D8 01188  01158 01172 01181
HDR4     00080 000018E0 03440  03441 03840
HDSORG   00002 000018E7 03443  03398 03405 03412 03419
HHMM2TM  00002 000010E4 02741  02512
HLRECL   00005 000018F9 03447  03342
HRECFM   00002 000018F0 03445  03368 03375 03382 03390
IEZJSCB  00001 00000000 07551  04267 07552XE4S001Z                                          CROSS-REFERENCE                                              PAGE  104


SYMBOL    LEN   VALUE   DEFN    REFERENCES                                                       ASM 0201 10.53 06/08/08

IHADCB   00001 00000000 04975  01023 01026 01034 01036 01045 01046 01047 01049 01050 01051 01069 01071 01213 01215 01364
                               01372 01374 03100 03157 03177 03318 03320 03325 03327 03337 03351 03366 03373 03380 03388
                               03396 03403 03410 03417 03606 03619 03631 03633 03634 03642 04293 04303 04604 05060 05086
                               05116 05143 05175 05261 05323 05370 05435 05564 05579 05586 05599 05695 05701 05728 05751
IHB0084F 00001 00000484 01442  01447
IHB0103F 00001 00000538 01525  01531
IHB0581F 00001 000014D0 03113  03118
IHB0693F 00001 00001AE4 03594  03600
IHB0805  00001 0000247C 04333  04339 04340 04341
JSCBPSCB 00004 00000108 07671  04267
JSCBSEC1 00001 000000BC 07559  07646
JSCBSEC2 00001 00000104 07653  07657 07664
JSCBSEC3 00001 00000104 07665  07758
JSCBS1LN 00001 00000048 07646  07762 07763 07764
JSCBS2LN 00001 00000000 07657  07763
JSCBS3LN 00001 00000078 07758  07764
LINENO   00004 0000233C 04238  01153 04226 04228
MEMBBUFF 00004 000015B4 03211  03096 03129 03585
MEMBBUFL 00004 000015B8 03212  03101 03586
MEMBLIST 00004 0000055C 01542  01459 01463 01498
MEMBLSTE 00004 00000560 01543  01464 01468 01470
MVCHDR1  00006 00002A20 04641  01890
OUTDCB   00004 00002F64 04867  01023 01026 01031 01034 01036 03640 04293 04296 04303 04602
PARMDSN  00044 00001A46 03537  02013 03786 03816
PARMDSNL 00002 00001A44 03536  01995
PARMMEMB 00008 000009D8 02017  01078 01222 01233 01288 01362 01516 02012 03458 03467
PDSDCB   00004 00002E5C 04714  01045 01049 03315 03318 03320 03325 03327 03337 03351 03366 03373 03380 03388 03396 03403
                               03410 03417 03433
PDSDCB2  00004 00002EB4 04765  01046 01050 01066 01069 01071 01080 01097 01364 01369 01372 01374 01390 01495 03604
PDSDCB3  00004 00002F0C 04816  01047 01051 01204 01553 01583 03067 03617
PDS2     00001 00000000 04945  01018 01126 01480 04965
PDS2ALIS 00001 00000080 04949  03852
PDS2INDC 00001 0000000B 04948  01123 01477 01571 02129 03852 03862 03870
PDS2LUSR 00001 0000001F 04950  04651
PDS2NAME 00008 00000000 04946  01117 01417 01425 01474 01584 03887
PDS2SPFI 00001 0000000F 04951  01571 03862
PDS2USRD 00001 0000000C 04952  01126 01480 01570 01570 04964
PUTENDL  00002 0000016E 01150  01138 01350
PUTOUT   00002 0000241C 04289  03839 03841 03843 04222 04282 04410 04475 04589
PXMSESTS 00002 0000246A 04324  01043
PXMSESTX 00008 000024B0 04352  04354 04653
RETDDN   00008 00001A82 03546  01026 01049 01050 01051
R0       00001 00000000 00984  01038 01072 01156 01157 01160 01162 01162 01166 01170 01171 01174 01176 01176 01180 01181
                               01199 01217 01225 01232 01233 01234 01236 01241 01242 01243 01248 01252 01253 01254 01259
                               01260 01261 01273 01287 01288 01289 01291 01296 01297 01298 01303 01307 01308 01309 01314
                               01315 01316 01328 01363 01364 01375 01437 01446 01454 01503 01512 01512 01513 01514 01515
                               01520 01529 01551 01602 01625 01635 01643 01653 01655 01699 01699 01708 01713 01713 01730
                               01730 01764 01780 01814 01815 01816 01818 01823 01824 01825 01830 01834 01835 01836 01841
                               01842 01843 01855 01896 01905 01906 01907 01909 01914 01915 01916 01921 01925 01926 01927
                               01932 01933 01934 01946 01962 01991 02024 02065 02125 02160 02161 02164 02165 02165 02179
                               02180 02181 02183 02187 02197 02198 02201 02202 02202 02216 02217 02218 02220 02224 02231
                               02286 02287 02290 02291 02291 02305 02306 02307 02309 02313 02323 02324 02327 02328 02328
                               02342 02343 02344 02346 02350 02357 02555 02556 02559 02560 02560 02574 02575 02576 02578
                               02582 02628 02629 02632 02633 02633 02647 02648 02649 02651 02655 02727 02752 02761 02762
                               02765 02766 02766 02780 02781 02782 02784 02788 02797 02804 02805 02808 02809 02809 02823XE4S001Z                                          CROSS-REFERENCE                                              PAGE  105


SYMBOL    LEN   VALUE   DEFN    REFERENCES                                                       ASM 0201 10.53 06/08/08

                               02824 02825 02827 02831 02840 02911 02916 02946 02958 02962 02962 03016 03051 03092 03100
                               03101 03117 03125 03157 03165 03172 03228 03228 03253 03254 03257 03258 03258 03272 03273
                               03274 03276 03280 03297 03321 03340 03341 03344 03346 03346 03350 03354 03355 03358 03360
                               03360 03364 03468 03586 03598 03744 03746 03747 03759 03760 03763 03764 03765 03766 03778
                               03826 03838 03840 03842 03912 03913 03916 03918 03918 03922 03928 03929 03932 03934 03934
                               03938 03962 03967 03976 03984 03987 03988 03990 03991 03992 03996 03997 04004 04005 04064
                               04069 04078 04086 04089 04090 04092 04093 04094 04098 04099 04106 04107 04147 04159 04168
                               04171 04190 04193 04221 04267 04269 04269 04291 04297 04355 04363 04393 04395 04396 04408
                               04409 04418 04420 04421 04433 04437 04439 04440 04452 04454 04455 04458 04460 04461 04473
                               04474 04485 04486 04489 04491 04491 04495 04499 04500 04503 04505 04505 04509 04515 04517
                               04518 04530 04534 04536 04537 04549 04553 04555 04556 04568 04572 04574 04575 04587 04588
                               04625
R1       00001 00000001 00985  01021 01229 01235 01238 01239 01241 01242 01243 01245 01252 01253 01254 01255 01256 01256
                               01259 01260 01261 01262 01270 01270 01282 01282 01284 01290 01293 01294 01296 01297 01298
                               01300 01307 01308 01309 01310 01311 01311 01314 01315 01316 01317 01325 01325 01339 01339
                               01425 01458 01459 01461 01461 01468 01469 01640 01703 01707 01707 01746 01762 01762 01791
                               01792 01793 01793 01805 01808 01808 01810 01820 01821 01823 01824 01825 01827 01834 01835
                               01836 01837 01838 01838 01841 01842 01843 01844 01852 01852 01857 01857 01859 01862 01871
                               01902 01911 01912 01914 01915 01916 01918 01925 01926 01927 01928 01929 01929 01932 01933
                               01934 01935 01943 01943 01948 01948 01950 01951 01953 01967 01971 01982 02012 02013 02052
                               02053 02072 02089 02116 02140 02140 02162 02163 02163 02182 02183 02190 02199 02200 02200
                               02219 02220 02228 02235 02246 02254 02255 02255 02266 02266 02288 02289 02289 02308 02309
                               02316 02325 02326 02326 02345 02346 02354 02361 02374 02384 02389 02389 02394 02394 02399
                               02399 02401 02406 02412 02412 02415 02428 02438 02443 02443 02448 02448 02453 02453 02455
                               02460 02466 02466 02469 02482 02487 02487 02492 02492 02497 02497 02499 02504 02510 02510
                               02513 02524 02530 02535 02535 02557 02558 02558 02577 02578 02583 02596 02602 02607 02607
                               02612 02612 02630 02631 02631 02650 02651 02656 02669 02669 02685 02687 02690 02691 02745
                               02745 02752 02753 02757 02764 02764 02783 02784 02790 02790 02792 02807 02807 02826 02827
                               02833 02833 02835 02846 02872 02872 02882 02910 02915 02938 02941 02941 02943 02944 02945
                               02946 02947 02952 02952 02953 02960 03028 03053 03055 03055 03129 03130 03156 03165 03188
                               03189 03194 03231 03236 03238 03243 03243 03243 03256 03256 03275 03276 03289 03291 03325
                               03337 03341 03351 03355 03521 03556 03560 03636 03684 03686 03719 03721 03961 03966 03974
                               03976 03978 03980 03980 03983 03984 03985 03986 03986 03988 03990 03992 03994 03995 03997
                               04000 04007 04008 04008 04063 04068 04076 04078 04080 04082 04082 04085 04086 04087 04088
                               04088 04090 04092 04094 04096 04097 04099 04102 04109 04110 04110 04158 04160 04162 04167
                               04180 04181 04184 04189 04202 04203 04206 04364 04453 04455 04459 04619 04641
R10      00001 0000000A 00994  01005 01011 01012 01013 04353 04359
R11      00001 0000000B 00995  01005 01009 01010 01011 04353 04359
R12      00001 0000000C 00996  01005 01006 01009 04353 04357 04359 04454
R13      00001 0000000D 00997  01014 01015 01016 01142 01142 01156 01159 01166 01170 01173 01180 01232 01234 01235 01237
                               01238 01273 01287 01289 01290 01292 01293 01328 01814 01816 01817 01819 01820 01855 01905
                               01907 01908 01910 01911 01946 02160 02187 02197 02224 02286 02313 02323 02350 02555 02582
                               02628 02655 02761 02788 02804 02831 03253 03280 03340 03343 03350 03354 03357 03364 03744
                               03745 03747 03748 03749 03757 03759 03763 03764 03766 03767 03768 03776 03778 03912 03915
                               03922 03928 03931 03938 04147 04148 04149 04150 04159 04167 04170 04172 04174 04183 04184
                               04189 04192 04194 04196 04205 04206 04365 04393 04394 04396 04397 04398 04406 04408 04418
                               04419 04421 04422 04423 04431 04433 04437 04438 04440 04441 04442 04450 04452 04458 04459
                               04461 04462 04463 04471 04473 04485 04488 04495 04499 04502 04509 04515 04516 04518 04519
                               04520 04528 04530 04534 04535 04537 04538 04539 04547 04549 04553 04554 04556 04557 04558
                               04566 04568 04572 04573 04575 04576 04577 04585 04587
R14      00001 0000000E 00998  01024 01025 01039 01043 01044 01048 01053 01057 01073 01076 01081 01083 01122 01138 01141
                               01151 01156 01158 01161 01164 01166 01170 01172 01175 01178 01180 01182 01184 01185 01193
                               01200 01218 01226 01341 01345 01346 01350 01351 01352 01360 01376 01427 01455 01497 01504
                               01517 01537 01538 01555 01556 01574 01598 01603 01610 01641 01641 01650 01650 01655 01779
                               01781 01789 01860 01861 01867 01873 01897 01950 01963 01967 01992 02009 02010 02066 02069XE4S001Z                                          CROSS-REFERENCE                                              PAGE  106


SYMBOL    LEN   VALUE   DEFN    REFERENCES                                                       ASM 0201 10.53 06/08/08

                               02070 02071 02072 02086 02087 02088 02089 02126 02160 02162 02185 02187 02188 02188 02189
                               02190 02197 02199 02222 02224 02232 02252 02286 02288 02311 02313 02314 02314 02315 02316
                               02323 02325 02348 02350 02358 02414 02468 02512 02529 02555 02557 02580 02582 02601 02628
                               02630 02653 02655 02728 02742 02761 02763 02786 02788 02798 02804 02806 02829 02831 02841
                               02857 02858 02869 02884 02885 02886 02898 02899 02900 02901 02901 02902 02903 02904 02906
                               02907 02912 02917 02918 02919 02921 02923 02924 02926 02927 02928 02930 02932 02934 02934
                               02935 02936 02938 02939 02947 02948 02949 02950 02950 02951 02951 02953 02955 02955 02956
                               02957 02958 02959 02960 02961 02961 02964 02967 03017 03039 03040 03093 03126 03169 03177
                               03179 03206 03225 03233 03245 03248 03248 03253 03255 03278 03280 03301 03302 03309 03322
                               03340 03342 03345 03348 03350 03354 03356 03359 03362 03364 03436 03437 03456 03469 03489
                               03490 03512 03522 03525 03526 03551 03564 03566 03567 03584 03637 03663 03664 03678 03693
                               03697 03698 03708 03712 03728 03732 03733 03741 03744 03749 03750 03752 03758 03759 03763
                               03768 03769 03771 03777 03778 03827 03829 03830 03836 03839 03841 03843 03845 03846 03850
                               03899 03900 03900 03901 03912 03914 03917 03920 03922 03928 03930 03933 03936 03938 03948
                               03949 03950 03951 03952 03952 03953 03954 03955 03957 03958 03963 03968 03969 03970 03972
                               03974 03978 03983 03994 03995 03998 03999 04000 04001 04001 04002 04002 04003 04004 04006
                               04006 04011 04014 04050 04051 04052 04053 04054 04054 04055 04056 04057 04059 04060 04065
                               04070 04071 04072 04074 04076 04080 04085 04096 04097 04100 04101 04102 04103 04103 04104
                               04104 04105 04106 04108 04108 04113 04116 04147 04150 04151 04153 04158 04159 04167 04169
                               04183 04184 04189 04191 04205 04206 04222 04226 04227 04227 04228 04233 04234 04262 04263
                               04264 04264 04265 04265 04266 04266 04267 04274 04275 04282 04290 04308 04309 04315 04316
                               04325 04345 04346 04393 04398 04399 04401 04407 04408 04410 04418 04423 04424 04426 04432
                               04433 04437 04442 04443 04445 04451 04452 04458 04463 04464 04466 04472 04473 04475 04480
                               04481 04482 04485 04486 04487 04490 04493 04495 04496 04499 04501 04504 04507 04509 04510
                               04511 04511 04512 04515 04520 04521 04523 04529 04530 04531 04534 04539 04540 04542 04548
                               04549 04550 04553 04558 04559 04561 04567 04568 04569 04572 04577 04578 04580 04586 04587
                               04589 04625 04626
R15      00001 0000000F 00999  01006 01014 01015 01016 01139 01159 01160 01161 01173 01174 01175 01232 01237 01239 01247
                               01247 01248 01255 01262 01264 01273 01287 01292 01294 01302 01302 01303 01310 01317 01319
                               01328 01431 01431 01435 01435 01451 01451 01551 01602 01623 01628 01633 01633 01640 01646
                               01651 01651 01657 01657 01722 01739 01756 01769 01769 01814 01819 01821 01829 01829 01830
                               01837 01844 01846 01855 01859 01861 01872 01885 01886 01888 01888 01890 01905 01910 01912
                               01920 01920 01921 01928 01935 01937 01946 01952 01953 01954 01955 01957 01957 01959 01966
                               01968 01969 01969 01970 02024 02098 02098 02108 02136 02136 02142 02142 02164 02167 02171
                               02175 02179 02184 02184 02201 02204 02208 02212 02216 02221 02221 02262 02262 02268 02268
                               02290 02293 02297 02301 02305 02310 02310 02327 02330 02334 02338 02342 02347 02347 02396
                               02396 02450 02450 02494 02494 02537 02537 02559 02562 02566 02570 02574 02579 02579 02609
                               02609 02632 02635 02639 02643 02647 02652 02652 02727 02765 02768 02772 02776 02780 02785
                               02785 02808 02811 02815 02819 02823 02828 02828 02900 02903 02912 02917 02919 02926 02949
                               02957 02969 02969 03002 03012 03012 03051 03088 03088 03122 03122 03205 03257 03260 03264
                               03268 03272 03277 03277 03343 03344 03345 03357 03358 03359 03465 03465 03691 03691 03726
                               03726 03745 03748 03750 03751 03752 03757 03758 03767 03769 03770 03771 03776 03777 03915
                               03916 03917 03931 03932 03933 03951 03954 03963 03968 03970 03998 04009 04009 04016 04016
                               04019 04022 04022 04053 04056 04065 04070 04072 04100 04111 04111 04118 04118 04121 04124
                               04124 04149 04151 04152 04153 04170 04171 04172 04173 04174 04177 04192 04193 04194 04195
                               04196 04199 04283 04354 04355 04358 04397 04399 04400 04401 04406 04407 04422 04424 04425
                               04426 04431 04432 04441 04443 04444 04445 04450 04451 04462 04464 04465 04466 04471 04472
                               04488 04489 04490 04496 04500 04502 04503 04504 04512 04516 04519 04521 04522 04523 04528
                               04529 04531 04535 04538 04540 04541 04542 04547 04548 04550 04554 04557 04559 04560 04561
                               04566 04567 04569 04573 04576 04578 04579 04580 04585 04586 04624 04624
R2       00001 00000002 00986  01080 01153 01157 01167 01171 01204 01209 01213 01215 01426 01458 01463 01464 01469 01470
                               01473 01473 01474 01518 01530 01553 01623 01664 01672 01674 01679 01679 01703 01744 01746
                               01763 01763 01792 01802 01809 01811 01862 01863 01868 01885 01894 01894 01908 01952 01970
                               01986 01986 01988 01995 01996 01997 01998 01998 02036 02053 02071 02088 02100 02102 02118
                               02134 02155 02161 02198 02248 02260 02281 02287 02324 02376 02386 02406 02430 02440 02460XE4S001Z                                          CROSS-REFERENCE                                              PAGE  107


SYMBOL    LEN   VALUE   DEFN    REFERENCES                                                       ASM 0201 10.53 06/08/08

                               02484 02504 02526 02556 02598 02629 02693 02757 02762 02795 02805 02838 02844 03014 03067
                               03081 03100 03146 03157 03177 03205 03205 03460 03585 03588 03588 03599 03604 03606 03612
                               03617 03619 03625 03631 03633 03634 03640 03642 03648 03908 03908 03909 03913 03924 03924
                               03925 03929 04144 04148 04164 04168 04186 04190 04326 04339 04376 04384 04388 04395 04409
                               04415 04419 04434 04438 04453 04478 04481 04591 04602 04604 04610
R3       00001 00000003 00987  01018 01082 01109 01127 01409 01481 01498 01500 01500 01509 01509 01516 01518 01519 01519
                               01554 01596 01610 01619 01621 01621 01632 01632 01637 01660 01660 01668 01668 01680 01685
                               01685 01765 01780 01810 01815 01860 01863 01871 01902 01906 01951 01971 01982 02028 04327
                               04341
R4       00001 00000004 00988  01019 01123 01124 01125 01126 01126 01127 01128 01477 01478 01479 01480 01480 01481 01482
                               01811 01817 01860 01868 02026 02036 02043 02048 02048 02052 02074 02074 03096 03098 03098
                               03130 03147 03178 03178 03179 03225 03231 03254 03296 03301 03679 03715 04372 04377 04394
R5       00001 00000005 00989  01021 01108 01110 01113 01113 01128 01408 01410 01413 01413 01482 01791 02027 02033 02033
                               02039 02039 02047 02075 03133 03133 03172 03188 04361 04364 04377 04619
R6       00001 00000006 00990  02029 02029 02062 02069 02073 02073 02080 02080 02083 02086 02097 02097 02113 02243 02371
                               02425 02479 02521 02593 02666
R7       00001 00000007 00991  04371 04376
R8       00001 00000008 00992  04363 04369 04382 04413 04617
R9       00001 00000009 00993  01005 01007 01008 01008 01010 01012 01013 04353 04357 04359
SAVEDSN  00006 000009C4 02013  01997
SAVEMEMB 00006 000009BE 02012  01968
SDWA     00001 00000000 05833  04361 04621 06340
SDWAABCC 00004 00000004 05843  04372
SDWAEC1  00008 00000068 05931  04415 04434
SDWAEND  00008 00000200 06339  06340
SDWAGR00 00004 00000018 05899  04511
SDWALEN  00008 00000200 06340  06341
SDWAPARM 00004 00000000 05835  04371
SDWARCDE 00001 000000FC 06216  04621
SOALLOC  00002 00001A8A 03550  01025
SPFCHD   00004 00000014 04957  02433 02433 02469 04043 04043 04045
SPFCHT   00002 00000018 04958  02513 04144
SPFCLNO  00002 0000001A 04959  02530 02546 02546 02583 04164
SPFCRD   00004 00000010 04956  02379 02379 02415 03941 03941 03943
SPFILNO  00002 0000001C 04960  02602 02619 02619 02656 04186
SPFISZ   00001 0000001E 04964  01570 03480
SPFMM    00001 0000000D 04954  02254 02274 02315 02361 03925
SPFSW    00001 00002E57 04702  01196 01565 01568 02122 02146 02272 02541 02614 02672 03329 03333 03854 03858 03864 03868
                               03872 03876 03896 03905
SPFUPDAT 00002 00000228 01192  01057
SPFUPDTM 00002 00000654 01550  01346 01517
SPFUPDT2 00002 000003D0 01359  01341
SPFUSR   00008 00000020 04962  02677 02683 02693 04211 04213
SPFVV    00001 0000000C 04953  02148 02189 02235 03909
SVRGMM   00004 000017A4 03304  03225 03301
SVRGSP   00004 00000F74 02730  02024 02727
SVRLC    00004 0000156C 03208  03051 03205
SVRUPM   00004 000006A8 01605  01551 01602
SVRWC    00004 000007EC 01783  01610 01779 01780
SVR0PO   00004 00002464 04318  04291 04308
SVR14    00004 00002334 04236  03850 04233
SVR14BLD 00004 0000196C 03492  03456 03489
SVR14CF  00004 00001B74 03666  03584 03663
SVR14DA  00004 00001BC0 03700  03678 03697
SVR14DAI 00004 00001A2C 03528  03512 03525XE4S001Z                                          CROSS-REFERENCE                                              PAGE  108


SYMBOL    LEN   VALUE   DEFN    REFERENCES                                                       ASM 0201 10.53 06/08/08

SVR14DAO 00004 00001AB0 03569  03551 03566
SVR14DE  00004 00001E3C 03832  03741 03829
SVR14DF  00004 00001D04 03735  03708 03732
SVR14DH  00004 00001EB4 03847  03836 03845
SVR14DSC 00004 000018DC 03439  03309 03436
SVR14D2J 00004 00001400 03042  02869 03039
SVR14E   00004 000024AC 04348  04325 04345
SVR14EL  00004 000001D4 01187  01151
SVR14GP  00004 000009CC 02014  01789 02009
SVR14GTM 00004 000011F4 02860  02742 02857
SVR14PO  00004 00002460 04317  04290 04315
SVR14TS  00004 0000240C 04276  04262 04274
SVR14UP  00004 0000037C 01354  01184 01193 01351
SVR14UP2 00004 00000550 01540  01360 01537
SWDSALOK 00001 00001A30 03529  03523 03710
S99ERROR 00002 00000004 07267  03795 03801 03803
S99FLG11 00001 00000002 07247  03683
S99NOMNT 00001 00000020 07255  03683
S99RB    00001 00000000 07235  01019 03680 03680 03716 03716 07514
S99RBEND 00001 00000014 07296  07514
S99RBLN  00001 00000000 07237  03681 03717
S99RSC   00004 00000004 07266  03760
S99TXTPP 00004 00000008 07269  03684 03719 03784
S99VERB  00001 00000001 07238  03682 03718 03780
S99VRBAL 00001 00000001 07239  03682 03780
S99VRBUN 00001 00000002 07240  03718
TCB      00001 00000020 06416  04266 07102
TCBDARPN 00001 00000040 06742  06744
TCBDARTN 00001 00000080 06739  06741
TCBFIX   00001 00000000 06404  06411
TCBJSCB  00004 000000D4 06797  04266
TCBMNLEN 00001 00000128 07102  07173
TCBPXLEN 00001 00000020 06411  07173
TCBXTNT2 00001 00000000 07107  07171
TCBX2LEN 00001 00000020 07171  07173
TSOJOBID 00001 00002E59 04708  03554 04271
UDT0554D 00001 000012AC 02909  02905
UDT0554E 00001 000013C6 03001  02922 02925 02929 02931 02933 02937 02954
UDT0554K 00001 00001326 02942  02940
UDT0554P 00001 00001386 02966  02963
UDT0554R 00001 0000138A 02968  02965
UDT0554Z 00001 000013CA 03003  02970
UDT05541 00001 000012BC 02914  02908
UDT05542 00001 000012D0 02920  02913
UDT0766A 00001 0000204C 03993  03989
UDT0766D 00001 00001FE0 03960  03956
UDT0766E 00001 000020A6 04018  03973 03975
UDT0766P 00001 0000209C 04013  04010
UDT0766R 00001 000020A0 04015  04012
UDT0766Z 00001 000020AA 04020  04017
UDT07661 00001 00001FF0 03965  03959
UDT07662 00001 00002004 03971  03964
UDT07663 00001 0000201A 03977  03981
UDT07669 00001 0000202C 03982  03979
UDT0775A 00001 0000218E 04095  04091XE4S001Z                                          CROSS-REFERENCE                                              PAGE  109


SYMBOL    LEN   VALUE   DEFN    REFERENCES                                                       ASM 0201 10.53 06/08/08

UDT0775D 00001 00002122 04062  04058
UDT0775E 00001 000021E8 04120  04075 04077
UDT0775P 00001 000021DE 04115  04112
UDT0775R 00001 000021E2 04117  04114
UDT0775Z 00001 000021EC 04122  04119
UDT07751 00001 00002132 04067  04061
UDT07752 00001 00002146 04073  04066
UDT07753 00001 0000215C 04079  04083
UDT07759 00001 0000216E 04084  04081
UD0554H  00001 00001394 02973  02911 03962 04064
UD0554HE 00002 000013AA 02985  02910 03961 04063
UD0554U  00001 000013AE 02987  02916 03967 04069
UD0554UE 00002 000013C4 02999  02915 03966 04068
UD05540  00002 00001392 02972  03972 04074
UD055440 00002 00001390 02971  02906 03957 04059
UNALDDNM 00008 00001B82 03672  03633
WFUNCID  00001 000009E0 02018  01055 01807 03515
WILDCHK  00002 000006E8 01609  01427
WILDCHKE 00001 000007E2 01770  01694 01723 01740 01757
WILDLEN  00004 00000804 01784  01619 01637
WILDMEMB 00008 00000554 01541  01362 01423 01426
WKDATE   00006 00002FC4 04917  03943 03948 04024 04026 04028 04045 04050 04126 04128 04130
WKDTP    00006 00001404 03043  02883 02884 02886 02898 03020
WKDTZ    00007 0000140C 03045  02882 02883 03020 03021 03023 03025 03028
WKMSG45  00080 000028E0 04634  04655
WKMSG46  00080 00002930 04635  04656
WKMSG47  00080 00002980 04636  04420 04439 04460 04474
WKMSG48  00080 000029D0 04637  04487 04501 04517 04536 04555 04574 04588
WKSPFCHD 00008 000030E6 04932  04126 04127 04128 04129 04130 04134 04140
WKSPFCHT 00005 000030EF 04934  04160 04161 04162
WKSPFCRD 00008 000030DC 04930  04024 04025 04026 04027 04028 04032 04038
WKSPFCSZ 00011 000030F6 04936  04169
WKSPFINF 00080 000030CA 04920  03881 03882 03882 03882 04221 04921
WKSPFISZ 00011 00003102 04938  04191
WKSPFMM  00002 000030D8 04928  03930
WKSPFNAM 00008 000030CB 04923  03887 03891
WKSPFUID 00008 0000310F 04940  04211 04215
WKSPFVV  00002 000030D5 04925  03894 03898 03914 03923
WKTMP    00003 000011F8 02861  02845 02846
WKTMZ    00005 000011FB 02862  02844 02845
WLINENO  00004 000015AC 03209  01514 03053 03065 03065 03189
WMAXMM   00004 000015B0 03210  01515 03066 03066 03194 03289 03291
WSPFPA   00004 000009D0 02015  01872 02026
WSPFPAN  00004 00000FB4 02732  02071 02088
WSPFPL   00004 000009D4 02016  01873 02027
WSPFPLN  00004 00000FD4 02733  02072 02089
WTOMSG01 00004 00002C24 04691  04309 04311
WTOREQ   00001 00002468 04319  04305 04367
XE4S001Z 00001 00000000 01001  01005 04359 04628 04629 04630 04631XE4S001Z                                          LITERAL CROSS-REFERENCE                                      PAGE  110


SYMBOL    LEN   VALUE   DEFN    REFERENCES                                                       ASM 0201 10.53 06/08/08

=8XL1'FF'
         00001 00002A28 04643  01117 01417
=C'DYNALLOC'
         00008 00002A30 04644  03782
=C'NOT-CAT '
         00008 00002A38 04645  03797
=C'IN-USE  '
         00008 00002A40 04646  03806
=C'DYNAFREE'
         00008 00002A48 04647  03812
=C'=======>'
         00008 00002A50 04648  03891
=C'??/??/??'
         00008 00002A58 04649  04032 04134
=C'00/00/00'
         00008 00002A60 04650  04038 04140
=A(PDS2LUSR)
         00004 00002A68 04651  01124 01478
=A(#S99RBX1)
         00004 00002A6C 04652  03784
=A(PXMSESTX)
         00004 00002A70 04653  04326
=F'12'   00004 00002A74 04654  04369 04382 04413 04617
=A(WKMSG45)
         00004 00002A78 04655  04384
=A(WKMSG46)
         00004 00002A7C 04656  04388
=H'2'    00002 00002A80 04657  01110 01410
=Y(2)    00002 00002A82 04658  01802 01809 02243
=C'1,'   00002 00002A84 04659  01805
=H'8'    00002 00002A86 04660  01959
=H'44'   00002 00002A88 04661  01988
=Y(EQMAXPM)
         00002 00002A8A 04662  02062 02083
=Y(1)    00002 00002A8C 04663  02113
=Y(3)    00002 00002A8E 04664  02116 02246 02371 02384 02438 02482 02524 02596
=Y(10)   00002 00002A90 04665  02182 02219 02308 02345 02577 02650 02783 02826 03275
=Y(99)   00002 00002A92 04666  02228 02354
=Y(6)    00002 00002A94 04667  02374 02428 02521
=C'000000'
         00006 00002A96 04668  02376 02430
=Y(4)    00002 00002A9C 04669  02425
=Y(5)    00002 00002A9E 04670  02479
=Y(7)    00002 00002AA0 04671  02593
=Y(8)    00002 00002AA2 04672  02666 02685
=Y(24)   00002 00002AA4 04673  02792
=Y(60)   00002 00002AA6 04674  02835
=Y(80)   00002 00002AA8 04675  03296 03297
=C'PS'   00002 00002AAA 04676  03398
=C'PO'   00002 00002AAC 04677  03405
=C'DA'   00002 00002AAE 04678  03412
=C'IS'   00002 00002AB0 04679  03419
=C'SYSOUT'
         00006 00002AB2 04680  03791 03821
=X'1708' 00002 00002AB8 04681  03795XE4S001Z                                          LITERAL CROSS-REFERENCE                                      PAGE  111


SYMBOL    LEN   VALUE   DEFN    REFERENCES                                                       ASM 0201 10.53 06/08/08

=X'020C' 00002 00002ABA 04682  03801
=X'0210' 00002 00002ABC 04683  03803
=C'ALIAS '
         00006 00002ABE 04684  03898
=C'DEL'  00003 00002AC4 04685  02118
=C'NOW'  00003 00002AC7 04686  02248 02386 02440 02484 02526 02598
=X'4020206B2020206B2020206B202020'
         00015 00002ACA 04687  04173 04195XE4S001Z                                          ASSEMBLER DIAGNOSTICS AND STATISTICS                         PAGE  112


                                                                                                 ASM 0201 10.53 06/08/08

NO STATEMENTS FLAGGED IN THIS ASSEMBLY
HIGHEST SEVERITY WAS    0
OPTIONS FOR THIS ASSEMBLY
  ALIGN, ALOGIC, BUFSIZE(STD), DECK, ESD, FLAG(0), LINECOUNT(55), LIST, NOMCALL, YFLAG, WORKSIZE(2097152)
  NOMLOGIC, NONUMBER, OBJECT, NORENT, RLD, NOSTMT, NOLIBMAC, NOTERMINAL, NOTEST, XREF(SHORT)
  SYSPARM(NOSNAP)
WORK FILE BUFFER SIZE/NUMBER =19066/ 1
TOTAL RECORDS READ FROM SYSTEM INPUT       2731
TOTAL RECORDS READ FROM SYSTEM LIBRARY    13909
TOTAL RECORDS PUNCHED                       249
TOTAL RECORDS PRINTED                      6175
 F64-LEVEL LINKAGE EDITOR OPTIONS SPECIFIED XREF,LET,LIST,NCAL
          DEFAULT OPTION(S) USED -  SIZE=(165888,55296)


                                                CROSS REFERENCE TABLE


  CONTROL SECTION                       ENTRY

    NAME    ORIGIN  LENGTH                NAME   LOCATION     NAME   LOCATION     NAME   LOCATION     NAME   LOCATION
  XE4S001Z      00    311A


  LOCATION  REFERS TO SYMBOL  IN CONTROL SECTION             LOCATION  REFERS TO SYMBOL  IN CONTROL SECTION

 ENTRY ADDRESS       00

 TOTAL LENGTH      3120
